{"contracts/CollateralVault.sol":{"CollateralVault":{"abi":[{"inputs":[{"internalType":"address","name":"_collateralToken","type":"address"}],"stateMutability":"nonpayable","type":"constructor"},{"inputs":[],"name":"InsufficientBalance","type":"error"},{"inputs":[],"name":"InsufficientUnlockedBalance","type":"error"},{"inputs":[{"internalType":"address","name":"owner","type":"address"}],"name":"OwnableInvalidOwner","type":"error"},{"inputs":[{"internalType":"address","name":"account","type":"address"}],"name":"OwnableUnauthorizedAccount","type":"error"},{"inputs":[],"name":"ReentrancyGuardReentrantCall","type":"error"},{"inputs":[{"internalType":"address","name":"token","type":"address"}],"name":"SafeERC20FailedOperation","type":"error"},{"inputs":[],"name":"UnauthorizedMarket","type":"error"},{"inputs":[],"name":"ZeroAddress","type":"error"},{"inputs":[],"name":"ZeroAmount","type":"error"},{"anonymous":false,"inputs":[{"indexed":true,"internalType":"address","name":"user","type":"address"},{"indexed":false,"internalType":"uint256","name":"amount","type":"uint256"},{"indexed":true,"internalType":"address","name":"market","type":"address"}],"name":"CollateralLocked","type":"event"},{"anonymous":false,"inputs":[{"indexed":true,"internalType":"address","name":"from","type":"address"},{"indexed":true,"internalType":"address","name":"to","type":"address"},{"indexed":false,"internalType":"uint256","name":"amount","type":"uint256"},{"indexed":true,"internalType":"address","name":"market","type":"address"}],"name":"CollateralTransferred","type":"event"},{"anonymous":false,"inputs":[{"indexed":true,"internalType":"address","name":"user","type":"address"},{"indexed":false,"internalType":"uint256","name":"amount","type":"uint256"},{"indexed":true,"internalType":"address","name":"market","type":"address"}],"name":"CollateralUnlocked","type":"event"},{"anonymous":false,"inputs":[{"indexed":true,"internalType":"address","name":"user","type":"address"},{"indexed":false,"internalType":"uint256","name":"amount","type":"uint256"}],"name":"Deposited","type":"event"},{"anonymous":false,"inputs":[{"indexed":true,"internalType":"address","name":"market","type":"address"}],"name":"MarketAuthorized","type":"event"},{"anonymous":false,"inputs":[{"indexed":true,"internalType":"address","name":"market","type":"address"}],"name":"MarketDeauthorized","type":"event"},{"anonymous":false,"inputs":[{"indexed":true,"internalType":"address","name":"previousOwner","type":"address"},{"indexed":true,"internalType":"address","name":"newOwner","type":"address"}],"name":"OwnershipTransferred","type":"event"},{"anonymous":false,"inputs":[{"indexed":true,"internalType":"address","name":"user","type":"address"},{"indexed":false,"internalType":"uint256","name":"amount","type":"uint256"}],"name":"Withdrawn","type":"event"},{"inputs":[{"internalType":"address","name":"market","type":"address"}],"name":"authorizeMarket","outputs":[],"stateMutability":"nonpayable","type":"function"},{"inputs":[{"internalType":"address","name":"","type":"address"}],"name":"authorizedMarkets","outputs":[{"internalType":"bool","name":"","type":"bool"}],"stateMutability":"view","type":"function"},{"inputs":[{"internalType":"address","name":"","type":"address"}],"name":"balances","outputs":[{"internalType":"uint256","name":"","type":"uint256"}],"stateMutability":"view","type":"function"},{"inputs":[],"name":"collateralToken","outputs":[{"internalType":"contract IERC20","name":"","type":"address"}],"stateMutability":"view","type":"function"},{"inputs":[{"internalType":"address","name":"market","type":"address"}],"name":"deauthorizeMarket","outputs":[],"stateMutability":"nonpayable","type":"function"},{"inputs":[{"internalType":"uint256","name":"amount","type":"uint256"}],"name":"deposit","outputs":[],"stateMutability":"nonpayable","type":"function"},{"inputs":[{"internalType":"address","name":"user","type":"address"}],"name":"getAvailableBalance","outputs":[{"internalType":"uint256","name":"","type":"uint256"}],"stateMutability":"view","type":"function"},{"inputs":[{"internalType":"address","name":"user","type":"address"}],"name":"getLockedBalance","outputs":[{"internalType":"uint256","name":"","type":"uint256"}],"stateMutability":"view","type":"function"},{"inputs":[{"internalType":"address","name":"user","type":"address"},{"internalType":"uint256","name":"amount","type":"uint256"}],"name":"lockCollateral","outputs":[],"stateMutability":"nonpayable","type":"function"},{"inputs":[{"internalType":"address","name":"","type":"address"}],"name":"lockedBalances","outputs":[{"internalType":"uint256","name":"","type":"uint256"}],"stateMutability":"view","type":"function"},{"inputs":[],"name":"owner","outputs":[{"internalType":"address","name":"","type":"address"}],"stateMutability":"view","type":"function"},{"inputs":[],"name":"renounceOwnership","outputs":[],"stateMutability":"nonpayable","type":"function"},{"inputs":[],"name":"totalDeposited","outputs":[{"internalType":"uint256","name":"","type":"uint256"}],"stateMutability":"view","type":"function"},{"inputs":[],"name":"totalLocked","outputs":[{"internalType":"uint256","name":"","type":"uint256"}],"stateMutability":"view","type":"function"},{"inputs":[{"internalType":"address","name":"from","type":"address"},{"internalType":"address","name":"to","type":"address"},{"internalType":"uint256","name":"amount","type":"uint256"}],"name":"transferLockedCollateral","outputs":[],"stateMutability":"nonpayable","type":"function"},{"inputs":[{"internalType":"address","name":"newOwner","type":"address"}],"name":"transferOwnership","outputs":[],"stateMutability":"nonpayable","type":"function"},{"inputs":[{"internalType":"address","name":"user","type":"address"},{"internalType":"uint256","name":"amount","type":"uint256"}],"name":"unlockCollateral","outputs":[],"stateMutability":"nonpayable","type":"function"},{"inputs":[{"internalType":"uint256","name":"amount","type":"uint256"}],"name":"withdraw","outputs":[],"stateMutability":"nonpayable","type":"function"}],"evm":{"bytecode":{"linkReferences":{},"object":"60a0346100f457601f610bcf38819003918201601f19168301916001600160401b038311848410176100f9578084926020946040528339810103126100f457516001600160a01b03808216918290036100f457600160005533156100db5760018054336001600160a01b03198216811790925560405192167f8be0079c531659141344cd1fd0a4f28419497f9722a3daafe3b4186f6b6457e0600080a381156100cc5750608052604051610abf9081610110823960805181818161034e015281816103da01526108090152f35b63d92e233d60e01b8152600490fd5b604051631e4fbdf760e01b815260006004820152602490fd5b600080fd5b634e487b7160e01b600052604160045260246000fdfe608060408181526004918236101561001657600080fd5b600092833560e01c9182630483a7f6146109535750816317f17498146108a457816327e235e31461086c5781632e1a7d4d1461073b57816330582b00146106235781634299b8a2146105e657816347a7d107146104fb57816356891412146104dc5781636c24a76f14610492578163715018a6146104325781638da5cb5b14610409578163b2016bd4146103c5578163b6b55f25146102bf578163c408689314610287578163f2862e6714610219578163f2fde38b14610189578163fa26958c1461010c575063ff50abdc146100eb57600080fd5b346101085781600319360112610108576020906005549051908152f35b5080fd5b9190503461018557602036600319011261018557610128610987565b6101306109a2565b6001600160a01b0316918215610177578284526020528220805460ff191690557f014dad1a8290ff4fc1990d6ffdfce4ef09f541b4e8e02abce86c42d4c310d0568280a280f35b905163d92e233d60e01b8152fd5b8280fd5b905034610185576020366003190112610185576101a4610987565b906101ad6109a2565b6001600160a01b03918216928315610203575050600154826bffffffffffffffffffffffff60a01b821617600155167f8be0079c531659141344cd1fd0a4f28419497f9722a3daafe3b4186f6b6457e08380a380f35b51631e4fbdf760e01b8152908101849052602490fd5b9190503461018557602036600319011261018557610235610987565b61023d6109a2565b6001600160a01b0316918215610177578284526020528220805460ff191660011790557fff192fe3e3e847428def87bbc2d04aa27048f6669caf7380828f868acd86bbfa8280a280f35b5050346101085760203660031901126101085760209181906001600160a01b036102af610987565b1681526003845220549051908152f35b838334610108576020366003190112610108578235906102dd610a59565b81156103b65733835260026020528083206102f98382546109ce565b9055610307826005546109ce565b60055580516323b872dd60e01b60208201523360248201523060448201526064808201849052815260a0810167ffffffffffffffff8111828210176103a3578252610372907f00000000000000000000000000000000000000000000000000000000000000006109f1565b519081527f2da466a7b24304f47e87fa2e1e5a81b9831ce54fec19055ce277ca2f39ba42c460203392a26001815580f35b634e487b7160e01b855260418652602485fd5b51631f2a200560e01b81528390fd5b505034610108578160031936011261010857517f00000000000000000000000000000000000000000000000000000000000000006001600160a01b03168152602090f35b50503461010857816003193601126101085760015490516001600160a01b039091168152602090f35b833461048f578060031936011261048f5761044b6109a2565b600180546001600160a01b0319811690915581906001600160a01b03167f8be0079c531659141344cd1fd0a4f28419497f9722a3daafe3b4186f6b6457e08280a380f35b80fd5b505034610108576020366003190112610108576020916104d5906001600160a01b036104bc610987565b1681526002845282808220549160038652205490610a7c565b9051908152f35b5050346101085781600319360112610108576020906006549051908152f35b905034610185578160031936011261018557610515610987565b91602435923385528260205260ff8286205416156105d85783156105ca576001600160a01b03169182156101775782855260026020526105618286205460036020528387205490610a7c565b84116105bc5750818452600360205280842061057e8482546109ce565b905561058c836006546109ce565b600655519182527f56b60085244fe1afa467f92231debadc8bcb6127e9dbf35dbb58ca8406a423fe60203393a380f35b905163e201ec7360e01b8152fd5b5051631f2a200560e01b8152fd5b5051630f6f4d9760e11b8152fd5b9050346101855760203660031901126101855760209260ff918391906001600160a01b03610612610987565b168252855220541690519015158152f35b9050346101855760603660031901126101855761063e610987565b6001600160a01b039260243584811693929190849003610737576044359433875260209284845260ff838920541615610727578615610717571692831561017757841561017757838752600383528187205486116107095750907f7b7ca9de228bea9c60ae26cfdb69368cad25bc85f68e26a703acf7c692d545ca91838752600382528087206106cf878254610a7c565b9055838752600282528087206106e6878254610a7c565b9055848752600282528087206106fd8782546109ce565b9055519485523394a480f35b9051631e9acf1760e31b8152fd5b8251631f2a200560e01b81528590fd5b8251630f6f4d9760e11b81528590fd5b8580fd5b838334610108576020806003193601126101855783359161075a610a59565b821561085d573384526002825261077c81852054600384528286205490610a7c565b831161084e5733845260028252808420610797848254610a7c565b90556107a583600554610a7c565b600555805163a9059cbb60e01b83820152336024820152604480820185905281526080810167ffffffffffffffff81118282101761083b57829161082d917f7084f5476618d8e60b11ef0d7d3f06914655adb8793e28ff7f018d4c76d505d59594527f00000000000000000000000000000000000000000000000000000000000000006109f1565b519283523392a26001815580f35b634e487b7160e01b865260418752602486fd5b5163e201ec7360e01b81528490fd5b51631f2a200560e01b81528490fd5b5050346101085760203660031901126101085760209181906001600160a01b03610894610987565b1681526002845220549051908152f35b9050346101855781600319360112610185576108be610987565b91602435923385528260205260ff8286205416156105d85783156105ca576001600160a01b031691821561017757828552600360205281852054841161070957508184526003602052808420610915848254610a7c565b905561092383600654610a7c565b600655519182527f817d69f45cb0984f7141c288a3bea0d2dd7bc075758f311056d0aa31798614fa60203393a380f35b84908434610185576020366003190112610185576020926001600160a01b0361097a610987565b1681526003845220548152f35b600435906001600160a01b038216820361099d57565b600080fd5b6001546001600160a01b031633036109b657565b60405163118cdaa760e01b8152336004820152602490fd5b919082018092116109db57565b634e487b7160e01b600052601160045260246000fd5b906000602091828151910182855af115610a4d576000513d610a4457506001600160a01b0381163b155b610a225750565b604051635274afe760e01b81526001600160a01b039091166004820152602490fd5b60011415610a1b565b6040513d6000823e3d90fd5b600260005414610a6a576002600055565b604051633ee5aeb560e01b8152600490fd5b919082039182116109db5756fea2646970667358221220c12c5cd22256ee7c524bd2261dc987dae031cf3be6812916161966cdee78460b64736f6c63430008140033","opcodes":"PUSH1 0xA0 CALLVALUE PUSH2 0xF4 JUMPI PUSH1 0x1F PUSH2 0xBCF CODESIZE DUP2 SWAP1 SUB SWAP2 DUP3 ADD PUSH1 0x1F NOT AND DUP4 ADD SWAP2 PUSH1 0x1 PUSH1 0x1 PUSH1 0x40 SHL SUB DUP4 GT DUP5 DUP5 LT OR PUSH2 0xF9 JUMPI DUP1 DUP5 SWAP3 PUSH1 0x20 SWAP5 PUSH1 0x40 MSTORE DUP4 CODECOPY DUP2 ADD SUB SLT PUSH2 0xF4 JUMPI MLOAD PUSH1 0x1 PUSH1 0x1 PUSH1 0xA0 SHL SUB DUP1 DUP3 AND SWAP2 DUP3 SWAP1 SUB PUSH2 0xF4 JUMPI PUSH1 0x1 PUSH1 0x0 SSTORE CALLER ISZERO PUSH2 0xDB JUMPI PUSH1 0x1 DUP1 SLOAD CALLER PUSH1 0x1 PUSH1 0x1 PUSH1 0xA0 SHL SUB NOT DUP3 AND DUP2 OR SWAP1 SWAP3 SSTORE PUSH1 0x40 MLOAD SWAP3 AND PUSH32 0x8BE0079C531659141344CD1FD0A4F28419497F9722A3DAAFE3B4186F6B6457E0 PUSH1 0x0 DUP1 LOG3 DUP2 ISZERO PUSH2 0xCC JUMPI POP PUSH1 0x80 MSTORE PUSH1 0x40 MLOAD PUSH2 0xABF SWAP1 DUP2 PUSH2 0x110 DUP3 CODECOPY PUSH1 0x80 MLOAD DUP2 DUP2 DUP2 PUSH2 0x34E ADD MSTORE DUP2 DUP2 PUSH2 0x3DA ADD MSTORE PUSH2 0x809 ADD MSTORE RETURN JUMPDEST PUSH4 0xD92E233D PUSH1 0xE0 SHL DUP2 MSTORE PUSH1 0x4 SWAP1 REVERT JUMPDEST PUSH1 0x40 MLOAD PUSH4 0x1E4FBDF7 PUSH1 0xE0 SHL DUP2 MSTORE PUSH1 0x0 PUSH1 0x4 DUP3 ADD MSTORE PUSH1 0x24 SWAP1 REVERT JUMPDEST PUSH1 0x0 DUP1 REVERT JUMPDEST PUSH4 0x4E487B71 PUSH1 0xE0 SHL PUSH1 0x0 MSTORE PUSH1 0x41 PUSH1 0x4 MSTORE PUSH1 0x24 PUSH1 0x0 REVERT INVALID PUSH1 0x80 PUSH1 0x40 DUP2 DUP2 MSTORE PUSH1 0x4 SWAP2 DUP3 CALLDATASIZE LT ISZERO PUSH2 0x16 JUMPI PUSH1 0x0 DUP1 REVERT JUMPDEST PUSH1 0x0 SWAP3 DUP4 CALLDATALOAD PUSH1 0xE0 SHR SWAP2 DUP3 PUSH4 0x483A7F6 EQ PUSH2 0x953 JUMPI POP DUP2 PUSH4 0x17F17498 EQ PUSH2 0x8A4 JUMPI DUP2 PUSH4 0x27E235E3 EQ PUSH2 0x86C JUMPI DUP2 PUSH4 0x2E1A7D4D EQ PUSH2 0x73B JUMPI DUP2 PUSH4 0x30582B00 EQ PUSH2 0x623 JUMPI DUP2 PUSH4 0x4299B8A2 EQ PUSH2 0x5E6 JUMPI DUP2 PUSH4 0x47A7D107 EQ PUSH2 0x4FB JUMPI DUP2 PUSH4 0x56891412 EQ PUSH2 0x4DC JUMPI DUP2 PUSH4 0x6C24A76F EQ PUSH2 0x492 JUMPI DUP2 PUSH4 0x715018A6 EQ PUSH2 0x432 JUMPI DUP2 PUSH4 0x8DA5CB5B EQ PUSH2 0x409 JUMPI DUP2 PUSH4 0xB2016BD4 EQ PUSH2 0x3C5 JUMPI DUP2 PUSH4 0xB6B55F25 EQ PUSH2 0x2BF JUMPI DUP2 PUSH4 0xC4086893 EQ PUSH2 0x287 JUMPI DUP2 PUSH4 0xF2862E67 EQ PUSH2 0x219 JUMPI DUP2 PUSH4 0xF2FDE38B EQ PUSH2 0x189 JUMPI DUP2 PUSH4 0xFA26958C EQ PUSH2 0x10C JUMPI POP PUSH4 0xFF50ABDC EQ PUSH2 0xEB JUMPI PUSH1 0x0 DUP1 REVERT JUMPDEST CALLVALUE PUSH2 0x108 JUMPI DUP2 PUSH1 0x3 NOT CALLDATASIZE ADD SLT PUSH2 0x108 JUMPI PUSH1 0x20 SWAP1 PUSH1 0x5 SLOAD SWAP1 MLOAD SWAP1 DUP2 MSTORE RETURN JUMPDEST POP DUP1 REVERT JUMPDEST SWAP2 SWAP1 POP CALLVALUE PUSH2 0x185 JUMPI PUSH1 0x20 CALLDATASIZE PUSH1 0x3 NOT ADD SLT PUSH2 0x185 JUMPI PUSH2 0x128 PUSH2 0x987 JUMP JUMPDEST PUSH2 0x130 PUSH2 0x9A2 JUMP JUMPDEST PUSH1 0x1 PUSH1 0x1 PUSH1 0xA0 SHL SUB AND SWAP2 DUP3 ISZERO PUSH2 0x177 JUMPI DUP3 DUP5 MSTORE PUSH1 0x20 MSTORE DUP3 KECCAK256 DUP1 SLOAD PUSH1 0xFF NOT AND SWAP1 SSTORE PUSH32 0x14DAD1A8290FF4FC1990D6FFDFCE4EF09F541B4E8E02ABCE86C42D4C310D056 DUP3 DUP1 LOG2 DUP1 RETURN JUMPDEST SWAP1 MLOAD PUSH4 0xD92E233D PUSH1 0xE0 SHL DUP2 MSTORE REVERT JUMPDEST DUP3 DUP1 REVERT JUMPDEST SWAP1 POP CALLVALUE PUSH2 0x185 JUMPI PUSH1 0x20 CALLDATASIZE PUSH1 0x3 NOT ADD SLT PUSH2 0x185 JUMPI PUSH2 0x1A4 PUSH2 0x987 JUMP JUMPDEST SWAP1 PUSH2 0x1AD PUSH2 0x9A2 JUMP JUMPDEST PUSH1 0x1 PUSH1 0x1 PUSH1 0xA0 SHL SUB SWAP2 DUP3 AND SWAP3 DUP4 ISZERO PUSH2 0x203 JUMPI POP POP PUSH1 0x1 SLOAD DUP3 PUSH12 0xFFFFFFFFFFFFFFFFFFFFFFFF PUSH1 0xA0 SHL DUP3 AND OR PUSH1 0x1 SSTORE AND PUSH32 0x8BE0079C531659141344CD1FD0A4F28419497F9722A3DAAFE3B4186F6B6457E0 DUP4 DUP1 LOG3 DUP1 RETURN JUMPDEST MLOAD PUSH4 0x1E4FBDF7 PUSH1 0xE0 SHL DUP2 MSTORE SWAP1 DUP2 ADD DUP5 SWAP1 MSTORE PUSH1 0x24 SWAP1 REVERT JUMPDEST SWAP2 SWAP1 POP CALLVALUE PUSH2 0x185 JUMPI PUSH1 0x20 CALLDATASIZE PUSH1 0x3 NOT ADD SLT PUSH2 0x185 JUMPI PUSH2 0x235 PUSH2 0x987 JUMP JUMPDEST PUSH2 0x23D PUSH2 0x9A2 JUMP JUMPDEST PUSH1 0x1 PUSH1 0x1 PUSH1 0xA0 SHL SUB AND SWAP2 DUP3 ISZERO PUSH2 0x177 JUMPI DUP3 DUP5 MSTORE PUSH1 0x20 MSTORE DUP3 KECCAK256 DUP1 SLOAD PUSH1 0xFF NOT AND PUSH1 0x1 OR SWAP1 SSTORE PUSH32 0xFF192FE3E3E847428DEF87BBC2D04AA27048F6669CAF7380828F868ACD86BBFA DUP3 DUP1 LOG2 DUP1 RETURN JUMPDEST POP POP CALLVALUE PUSH2 0x108 JUMPI PUSH1 0x20 CALLDATASIZE PUSH1 0x3 NOT ADD SLT PUSH2 0x108 JUMPI PUSH1 0x20 SWAP2 DUP2 SWAP1 PUSH1 0x1 PUSH1 0x1 PUSH1 0xA0 SHL SUB PUSH2 0x2AF PUSH2 0x987 JUMP JUMPDEST AND DUP2 MSTORE PUSH1 0x3 DUP5 MSTORE KECCAK256 SLOAD SWAP1 MLOAD SWAP1 DUP2 MSTORE RETURN JUMPDEST DUP4 DUP4 CALLVALUE PUSH2 0x108 JUMPI PUSH1 0x20 CALLDATASIZE PUSH1 0x3 NOT ADD SLT PUSH2 0x108 JUMPI DUP3 CALLDATALOAD SWAP1 PUSH2 0x2DD PUSH2 0xA59 JUMP JUMPDEST DUP2 ISZERO PUSH2 0x3B6 JUMPI CALLER DUP4 MSTORE PUSH1 0x2 PUSH1 0x20 MSTORE DUP1 DUP4 KECCAK256 PUSH2 0x2F9 DUP4 DUP3 SLOAD PUSH2 0x9CE JUMP JUMPDEST SWAP1 SSTORE PUSH2 0x307 DUP3 PUSH1 0x5 SLOAD PUSH2 0x9CE JUMP JUMPDEST PUSH1 0x5 SSTORE DUP1 MLOAD PUSH4 0x23B872DD PUSH1 0xE0 SHL PUSH1 0x20 DUP3 ADD MSTORE CALLER PUSH1 0x24 DUP3 ADD MSTORE ADDRESS PUSH1 0x44 DUP3 ADD MSTORE PUSH1 0x64 DUP1 DUP3 ADD DUP5 SWAP1 MSTORE DUP2 MSTORE PUSH1 0xA0 DUP2 ADD PUSH8 0xFFFFFFFFFFFFFFFF DUP2 GT DUP3 DUP3 LT OR PUSH2 0x3A3 JUMPI DUP3 MSTORE PUSH2 0x372 SWAP1 PUSH32 0x0 PUSH2 0x9F1 JUMP JUMPDEST MLOAD SWAP1 DUP2 MSTORE PUSH32 0x2DA466A7B24304F47E87FA2E1E5A81B9831CE54FEC19055CE277CA2F39BA42C4 PUSH1 0x20 CALLER SWAP3 LOG2 PUSH1 0x1 DUP2 SSTORE DUP1 RETURN JUMPDEST PUSH4 0x4E487B71 PUSH1 0xE0 SHL DUP6 MSTORE PUSH1 0x41 DUP7 MSTORE PUSH1 0x24 DUP6 REVERT JUMPDEST MLOAD PUSH4 0x1F2A2005 PUSH1 0xE0 SHL DUP2 MSTORE DUP4 SWAP1 REVERT JUMPDEST POP POP CALLVALUE PUSH2 0x108 JUMPI DUP2 PUSH1 0x3 NOT CALLDATASIZE ADD SLT PUSH2 0x108 JUMPI MLOAD PUSH32 0x0 PUSH1 0x1 PUSH1 0x1 PUSH1 0xA0 SHL SUB AND DUP2 MSTORE PUSH1 0x20 SWAP1 RETURN JUMPDEST POP POP CALLVALUE PUSH2 0x108 JUMPI DUP2 PUSH1 0x3 NOT CALLDATASIZE ADD SLT PUSH2 0x108 JUMPI PUSH1 0x1 SLOAD SWAP1 MLOAD PUSH1 0x1 PUSH1 0x1 PUSH1 0xA0 SHL SUB SWAP1 SWAP2 AND DUP2 MSTORE PUSH1 0x20 SWAP1 RETURN JUMPDEST DUP4 CALLVALUE PUSH2 0x48F JUMPI DUP1 PUSH1 0x3 NOT CALLDATASIZE ADD SLT PUSH2 0x48F JUMPI PUSH2 0x44B PUSH2 0x9A2 JUMP JUMPDEST PUSH1 0x1 DUP1 SLOAD PUSH1 0x1 PUSH1 0x1 PUSH1 0xA0 SHL SUB NOT DUP2 AND SWAP1 SWAP2 SSTORE DUP2 SWAP1 PUSH1 0x1 PUSH1 0x1 PUSH1 0xA0 SHL SUB AND PUSH32 0x8BE0079C531659141344CD1FD0A4F28419497F9722A3DAAFE3B4186F6B6457E0 DUP3 DUP1 LOG3 DUP1 RETURN JUMPDEST DUP1 REVERT JUMPDEST POP POP CALLVALUE PUSH2 0x108 JUMPI PUSH1 0x20 CALLDATASIZE PUSH1 0x3 NOT ADD SLT PUSH2 0x108 JUMPI PUSH1 0x20 SWAP2 PUSH2 0x4D5 SWAP1 PUSH1 0x1 PUSH1 0x1 PUSH1 0xA0 SHL SUB PUSH2 0x4BC PUSH2 0x987 JUMP JUMPDEST AND DUP2 MSTORE PUSH1 0x2 DUP5 MSTORE DUP3 DUP1 DUP3 KECCAK256 SLOAD SWAP2 PUSH1 0x3 DUP7 MSTORE KECCAK256 SLOAD SWAP1 PUSH2 0xA7C JUMP JUMPDEST SWAP1 MLOAD SWAP1 DUP2 MSTORE RETURN JUMPDEST POP POP CALLVALUE PUSH2 0x108 JUMPI DUP2 PUSH1 0x3 NOT CALLDATASIZE ADD SLT PUSH2 0x108 JUMPI PUSH1 0x20 SWAP1 PUSH1 0x6 SLOAD SWAP1 MLOAD SWAP1 DUP2 MSTORE RETURN JUMPDEST SWAP1 POP CALLVALUE PUSH2 0x185 JUMPI DUP2 PUSH1 0x3 NOT CALLDATASIZE ADD SLT PUSH2 0x185 JUMPI PUSH2 0x515 PUSH2 0x987 JUMP JUMPDEST SWAP2 PUSH1 0x24 CALLDATALOAD SWAP3 CALLER DUP6 MSTORE DUP3 PUSH1 0x20 MSTORE PUSH1 0xFF DUP3 DUP7 KECCAK256 SLOAD AND ISZERO PUSH2 0x5D8 JUMPI DUP4 ISZERO PUSH2 0x5CA JUMPI PUSH1 0x1 PUSH1 0x1 PUSH1 0xA0 SHL SUB AND SWAP2 DUP3 ISZERO PUSH2 0x177 JUMPI DUP3 DUP6 MSTORE PUSH1 0x2 PUSH1 0x20 MSTORE PUSH2 0x561 DUP3 DUP7 KECCAK256 SLOAD PUSH1 0x3 PUSH1 0x20 MSTORE DUP4 DUP8 KECCAK256 SLOAD SWAP1 PUSH2 0xA7C JUMP JUMPDEST DUP5 GT PUSH2 0x5BC JUMPI POP DUP2 DUP5 MSTORE PUSH1 0x3 PUSH1 0x20 MSTORE DUP1 DUP5 KECCAK256 PUSH2 0x57E DUP5 DUP3 SLOAD PUSH2 0x9CE JUMP JUMPDEST SWAP1 SSTORE PUSH2 0x58C DUP4 PUSH1 0x6 SLOAD PUSH2 0x9CE JUMP JUMPDEST PUSH1 0x6 SSTORE MLOAD SWAP2 DUP3 MSTORE PUSH32 0x56B60085244FE1AFA467F92231DEBADC8BCB6127E9DBF35DBB58CA8406A423FE PUSH1 0x20 CALLER SWAP4 LOG3 DUP1 RETURN JUMPDEST SWAP1 MLOAD PUSH4 0xE201EC73 PUSH1 0xE0 SHL DUP2 MSTORE REVERT JUMPDEST POP MLOAD PUSH4 0x1F2A2005 PUSH1 0xE0 SHL DUP2 MSTORE REVERT JUMPDEST POP MLOAD PUSH4 0xF6F4D97 PUSH1 0xE1 SHL DUP2 MSTORE REVERT JUMPDEST SWAP1 POP CALLVALUE PUSH2 0x185 JUMPI PUSH1 0x20 CALLDATASIZE PUSH1 0x3 NOT ADD SLT PUSH2 0x185 JUMPI PUSH1 0x20 SWAP3 PUSH1 0xFF SWAP2 DUP4 SWAP2 SWAP1 PUSH1 0x1 PUSH1 0x1 PUSH1 0xA0 SHL SUB PUSH2 0x612 PUSH2 0x987 JUMP JUMPDEST AND DUP3 MSTORE DUP6 MSTORE KECCAK256 SLOAD AND SWAP1 MLOAD SWAP1 ISZERO ISZERO DUP2 MSTORE RETURN JUMPDEST SWAP1 POP CALLVALUE PUSH2 0x185 JUMPI PUSH1 0x60 CALLDATASIZE PUSH1 0x3 NOT ADD SLT PUSH2 0x185 JUMPI PUSH2 0x63E PUSH2 0x987 JUMP JUMPDEST PUSH1 0x1 PUSH1 0x1 PUSH1 0xA0 SHL SUB SWAP3 PUSH1 0x24 CALLDATALOAD DUP5 DUP2 AND SWAP4 SWAP3 SWAP2 SWAP1 DUP5 SWAP1 SUB PUSH2 0x737 JUMPI PUSH1 0x44 CALLDATALOAD SWAP5 CALLER DUP8 MSTORE PUSH1 0x20 SWAP3 DUP5 DUP5 MSTORE PUSH1 0xFF DUP4 DUP10 KECCAK256 SLOAD AND ISZERO PUSH2 0x727 JUMPI DUP7 ISZERO PUSH2 0x717 JUMPI AND SWAP3 DUP4 ISZERO PUSH2 0x177 JUMPI DUP5 ISZERO PUSH2 0x177 JUMPI DUP4 DUP8 MSTORE PUSH1 0x3 DUP4 MSTORE DUP2 DUP8 KECCAK256 SLOAD DUP7 GT PUSH2 0x709 JUMPI POP SWAP1 PUSH32 0x7B7CA9DE228BEA9C60AE26CFDB69368CAD25BC85F68E26A703ACF7C692D545CA SWAP2 DUP4 DUP8 MSTORE PUSH1 0x3 DUP3 MSTORE DUP1 DUP8 KECCAK256 PUSH2 0x6CF DUP8 DUP3 SLOAD PUSH2 0xA7C JUMP JUMPDEST SWAP1 SSTORE DUP4 DUP8 MSTORE PUSH1 0x2 DUP3 MSTORE DUP1 DUP8 KECCAK256 PUSH2 0x6E6 DUP8 DUP3 SLOAD PUSH2 0xA7C JUMP JUMPDEST SWAP1 SSTORE DUP5 DUP8 MSTORE PUSH1 0x2 DUP3 MSTORE DUP1 DUP8 KECCAK256 PUSH2 0x6FD DUP8 DUP3 SLOAD PUSH2 0x9CE JUMP JUMPDEST SWAP1 SSTORE MLOAD SWAP5 DUP6 MSTORE CALLER SWAP5 LOG4 DUP1 RETURN JUMPDEST SWAP1 MLOAD PUSH4 0x1E9ACF17 PUSH1 0xE3 SHL DUP2 MSTORE REVERT JUMPDEST DUP3 MLOAD PUSH4 0x1F2A2005 PUSH1 0xE0 SHL DUP2 MSTORE DUP6 SWAP1 REVERT JUMPDEST DUP3 MLOAD PUSH4 0xF6F4D97 PUSH1 0xE1 SHL DUP2 MSTORE DUP6 SWAP1 REVERT JUMPDEST DUP6 DUP1 REVERT JUMPDEST DUP4 DUP4 CALLVALUE PUSH2 0x108 JUMPI PUSH1 0x20 DUP1 PUSH1 0x3 NOT CALLDATASIZE ADD SLT PUSH2 0x185 JUMPI DUP4 CALLDATALOAD SWAP2 PUSH2 0x75A PUSH2 0xA59 JUMP JUMPDEST DUP3 ISZERO PUSH2 0x85D JUMPI CALLER DUP5 MSTORE PUSH1 0x2 DUP3 MSTORE PUSH2 0x77C DUP2 DUP6 KECCAK256 SLOAD PUSH1 0x3 DUP5 MSTORE DUP3 DUP7 KECCAK256 SLOAD SWAP1 PUSH2 0xA7C JUMP JUMPDEST DUP4 GT PUSH2 0x84E JUMPI CALLER DUP5 MSTORE PUSH1 0x2 DUP3 MSTORE DUP1 DUP5 KECCAK256 PUSH2 0x797 DUP5 DUP3 SLOAD PUSH2 0xA7C JUMP JUMPDEST SWAP1 SSTORE PUSH2 0x7A5 DUP4 PUSH1 0x5 SLOAD PUSH2 0xA7C JUMP JUMPDEST PUSH1 0x5 SSTORE DUP1 MLOAD PUSH4 0xA9059CBB PUSH1 0xE0 SHL DUP4 DUP3 ADD MSTORE CALLER PUSH1 0x24 DUP3 ADD MSTORE PUSH1 0x44 DUP1 DUP3 ADD DUP6 SWAP1 MSTORE DUP2 MSTORE PUSH1 0x80 DUP2 ADD PUSH8 0xFFFFFFFFFFFFFFFF DUP2 GT DUP3 DUP3 LT OR PUSH2 0x83B JUMPI DUP3 SWAP2 PUSH2 0x82D SWAP2 PUSH32 0x7084F5476618D8E60B11EF0D7D3F06914655ADB8793E28FF7F018D4C76D505D5 SWAP6 SWAP5 MSTORE PUSH32 0x0 PUSH2 0x9F1 JUMP JUMPDEST MLOAD SWAP3 DUP4 MSTORE CALLER SWAP3 LOG2 PUSH1 0x1 DUP2 SSTORE DUP1 RETURN JUMPDEST PUSH4 0x4E487B71 PUSH1 0xE0 SHL DUP7 MSTORE PUSH1 0x41 DUP8 MSTORE PUSH1 0x24 DUP7 REVERT JUMPDEST MLOAD PUSH4 0xE201EC73 PUSH1 0xE0 SHL DUP2 MSTORE DUP5 SWAP1 REVERT JUMPDEST MLOAD PUSH4 0x1F2A2005 PUSH1 0xE0 SHL DUP2 MSTORE DUP5 SWAP1 REVERT JUMPDEST POP POP CALLVALUE PUSH2 0x108 JUMPI PUSH1 0x20 CALLDATASIZE PUSH1 0x3 NOT ADD SLT PUSH2 0x108 JUMPI PUSH1 0x20 SWAP2 DUP2 SWAP1 PUSH1 0x1 PUSH1 0x1 PUSH1 0xA0 SHL SUB PUSH2 0x894 PUSH2 0x987 JUMP JUMPDEST AND DUP2 MSTORE PUSH1 0x2 DUP5 MSTORE KECCAK256 SLOAD SWAP1 MLOAD SWAP1 DUP2 MSTORE RETURN JUMPDEST SWAP1 POP CALLVALUE PUSH2 0x185 JUMPI DUP2 PUSH1 0x3 NOT CALLDATASIZE ADD SLT PUSH2 0x185 JUMPI PUSH2 0x8BE PUSH2 0x987 JUMP JUMPDEST SWAP2 PUSH1 0x24 CALLDATALOAD SWAP3 CALLER DUP6 MSTORE DUP3 PUSH1 0x20 MSTORE PUSH1 0xFF DUP3 DUP7 KECCAK256 SLOAD AND ISZERO PUSH2 0x5D8 JUMPI DUP4 ISZERO PUSH2 0x5CA JUMPI PUSH1 0x1 PUSH1 0x1 PUSH1 0xA0 SHL SUB AND SWAP2 DUP3 ISZERO PUSH2 0x177 JUMPI DUP3 DUP6 MSTORE PUSH1 0x3 PUSH1 0x20 MSTORE DUP2 DUP6 KECCAK256 SLOAD DUP5 GT PUSH2 0x709 JUMPI POP DUP2 DUP5 MSTORE PUSH1 0x3 PUSH1 0x20 MSTORE DUP1 DUP5 KECCAK256 PUSH2 0x915 DUP5 DUP3 SLOAD PUSH2 0xA7C JUMP JUMPDEST SWAP1 SSTORE PUSH2 0x923 DUP4 PUSH1 0x6 SLOAD PUSH2 0xA7C JUMP JUMPDEST PUSH1 0x6 SSTORE MLOAD SWAP2 DUP3 MSTORE PUSH32 0x817D69F45CB0984F7141C288A3BEA0D2DD7BC075758F311056D0AA31798614FA PUSH1 0x20 CALLER SWAP4 LOG3 DUP1 RETURN JUMPDEST DUP5 SWAP1 DUP5 CALLVALUE PUSH2 0x185 JUMPI PUSH1 0x20 CALLDATASIZE PUSH1 0x3 NOT ADD SLT PUSH2 0x185 JUMPI PUSH1 0x20 SWAP3 PUSH1 0x1 PUSH1 0x1 PUSH1 0xA0 SHL SUB PUSH2 0x97A PUSH2 0x987 JUMP JUMPDEST AND DUP2 MSTORE PUSH1 0x3 DUP5 MSTORE KECCAK256 SLOAD DUP2 MSTORE RETURN JUMPDEST PUSH1 0x4 CALLDATALOAD SWAP1 PUSH1 0x1 PUSH1 0x1 PUSH1 0xA0 SHL SUB DUP3 AND DUP3 SUB PUSH2 0x99D JUMPI JUMP JUMPDEST PUSH1 0x0 DUP1 REVERT JUMPDEST PUSH1 0x1 SLOAD PUSH1 0x1 PUSH1 0x1 PUSH1 0xA0 SHL SUB AND CALLER SUB PUSH2 0x9B6 JUMPI JUMP JUMPDEST PUSH1 0x40 MLOAD PUSH4 0x118CDAA7 PUSH1 0xE0 SHL DUP2 MSTORE CALLER PUSH1 0x4 DUP3 ADD MSTORE PUSH1 0x24 SWAP1 REVERT JUMPDEST SWAP2 SWAP1 DUP3 ADD DUP1 SWAP3 GT PUSH2 0x9DB JUMPI JUMP JUMPDEST PUSH4 0x4E487B71 PUSH1 0xE0 SHL PUSH1 0x0 MSTORE PUSH1 0x11 PUSH1 0x4 MSTORE PUSH1 0x24 PUSH1 0x0 REVERT JUMPDEST SWAP1 PUSH1 0x0 PUSH1 0x20 SWAP2 DUP3 DUP2 MLOAD SWAP2 ADD DUP3 DUP6 GAS CALL ISZERO PUSH2 0xA4D JUMPI PUSH1 0x0 MLOAD RETURNDATASIZE PUSH2 0xA44 JUMPI POP PUSH1 0x1 PUSH1 0x1 PUSH1 0xA0 SHL SUB DUP2 AND EXTCODESIZE ISZERO JUMPDEST PUSH2 0xA22 JUMPI POP JUMP JUMPDEST PUSH1 0x40 MLOAD PUSH4 0x5274AFE7 PUSH1 0xE0 SHL DUP2 MSTORE PUSH1 0x1 PUSH1 0x1 PUSH1 0xA0 SHL SUB SWAP1 SWAP2 AND PUSH1 0x4 DUP3 ADD MSTORE PUSH1 0x24 SWAP1 REVERT JUMPDEST PUSH1 0x1 EQ ISZERO PUSH2 0xA1B JUMP JUMPDEST PUSH1 0x40 MLOAD RETURNDATASIZE PUSH1 0x0 DUP3 RETURNDATACOPY RETURNDATASIZE SWAP1 REVERT JUMPDEST PUSH1 0x2 PUSH1 0x0 SLOAD EQ PUSH2 0xA6A JUMPI PUSH1 0x2 PUSH1 0x0 SSTORE JUMP JUMPDEST PUSH1 0x40 MLOAD PUSH4 0x3EE5AEB5 PUSH1 0xE0 SHL DUP2 MSTORE PUSH1 0x4 SWAP1 REVERT JUMPDEST SWAP2 SWAP1 DUP3 SUB SWAP2 DUP3 GT PUSH2 0x9DB JUMPI JUMP INVALID LOG2 PUSH5 0x6970667358 0x22 SLT KECCAK256 0xC1 0x2C 0x5C 0xD2 0x22 JUMP 0xEE PUSH29 0x524BD2261DC987DAE031CF3BE6812916161966CDEE78460B64736F6C63 NUMBER STOP ADDMOD EQ STOP CALLER "},"methodIdentifiers":{"authorizeMarket(address)":"f2862e67","authorizedMarkets(address)":"4299b8a2","balances(address)":"27e235e3","collateralToken()":"b2016bd4","deauthorizeMarket(address)":"fa26958c","deposit(uint256)":"b6b55f25","getAvailableBalance(address)":"6c24a76f","getLockedBalance(address)":"c4086893","lockCollateral(address,uint256)":"47a7d107","lockedBalances(address)":"0483a7f6","owner()":"8da5cb5b","renounceOwnership()":"715018a6","totalDeposited()":"ff50abdc","totalLocked()":"56891412","transferLockedCollateral(address,address,uint256)":"30582b00","transferOwnership(address)":"f2fde38b","unlockCollateral(address,uint256)":"17f17498","withdraw(uint256)":"2e1a7d4d"}}}}}