{"contracts/PredictionMarket.sol":{"PredictionMarket":{"abi":[{"inputs":[{"internalType":"address","name":"_vault","type":"address"}],"stateMutability":"nonpayable","type":"constructor"},{"inputs":[],"name":"AccessControlBadConfirmation","type":"error"},{"inputs":[{"internalType":"address","name":"account","type":"address"},{"internalType":"bytes32","name":"neededRole","type":"bytes32"}],"name":"AccessControlUnauthorizedAccount","type":"error"},{"inputs":[],"name":"AlreadyClaimed","type":"error"},{"inputs":[],"name":"InsufficientBalance","type":"error"},{"inputs":[],"name":"InvalidOutcome","type":"error"},{"inputs":[],"name":"InvalidPrice","type":"error"},{"inputs":[],"name":"InvalidQuantity","type":"error"},{"inputs":[],"name":"MarketAlreadyExists","type":"error"},{"inputs":[],"name":"MarketDoesNotExist","type":"error"},{"inputs":[],"name":"MarketNotActive","type":"error"},{"inputs":[],"name":"MarketNotCancelled","type":"error"},{"inputs":[],"name":"MarketNotResolved","type":"error"},{"inputs":[],"name":"NoWinnings","type":"error"},{"inputs":[],"name":"NotOrderOwner","type":"error"},{"inputs":[],"name":"OrderDoesNotExist","type":"error"},{"inputs":[],"name":"OrderExpired","type":"error"},{"inputs":[],"name":"OrderNotOpen","type":"error"},{"inputs":[],"name":"ReentrancyGuardReentrantCall","type":"error"},{"inputs":[],"name":"UnauthorizedOperator","type":"error"},{"inputs":[],"name":"ZeroAddress","type":"error"},{"anonymous":false,"inputs":[{"indexed":true,"internalType":"bytes32","name":"marketId","type":"bytes32"},{"indexed":false,"internalType":"string","name":"question","type":"string"},{"indexed":false,"internalType":"address","name":"yesToken","type":"address"},{"indexed":false,"internalType":"address","name":"noToken","type":"address"},{"indexed":true,"internalType":"address","name":"operator","type":"address"},{"indexed":false,"internalType":"uint256","name":"expireTime","type":"uint256"}],"name":"MarketCreated","type":"event"},{"anonymous":false,"inputs":[{"indexed":true,"internalType":"bytes32","name":"marketId","type":"bytes32"},{"indexed":false,"internalType":"enum PredictionMarket.Outcome","name":"winningOutcome","type":"uint8"},{"indexed":true,"internalType":"address","name":"resolver","type":"address"}],"name":"MarketResolved","type":"event"},{"anonymous":false,"inputs":[{"indexed":true,"internalType":"bytes32","name":"marketId","type":"bytes32"},{"indexed":false,"internalType":"enum PredictionMarket.MarketStatus","name":"oldStatus","type":"uint8"},{"indexed":false,"internalType":"enum PredictionMarket.MarketStatus","name":"newStatus","type":"uint8"}],"name":"MarketStatusChanged","type":"event"},{"anonymous":false,"inputs":[{"indexed":false,"internalType":"uint256","name":"oldSize","type":"uint256"},{"indexed":false,"internalType":"uint256","name":"newSize","type":"uint256"}],"name":"MinOrderSizeUpdated","type":"event"},{"anonymous":false,"inputs":[{"indexed":true,"internalType":"bytes32","name":"orderId","type":"bytes32"},{"indexed":true,"internalType":"address","name":"trader","type":"address"}],"name":"OrderCancelled","type":"event"},{"anonymous":false,"inputs":[{"indexed":true,"internalType":"bytes32","name":"orderId","type":"bytes32"},{"indexed":false,"internalType":"uint256","name":"filledQuantity","type":"uint256"},{"indexed":false,"internalType":"uint256","name":"remainingQuantity","type":"uint256"}],"name":"OrderFilled","type":"event"},{"anonymous":false,"inputs":[{"indexed":true,"internalType":"bytes32","name":"orderId","type":"bytes32"},{"indexed":true,"internalType":"bytes32","name":"marketId","type":"bytes32"},{"indexed":true,"internalType":"address","name":"trader","type":"address"},{"indexed":false,"internalType":"enum PredictionMarket.OrderSide","name":"side","type":"uint8"},{"indexed":false,"internalType":"enum PredictionMarket.Outcome","name":"outcome","type":"uint8"},{"indexed":false,"internalType":"uint256","name":"price","type":"uint256"},{"indexed":false,"internalType":"uint256","name":"quantity","type":"uint256"}],"name":"OrderPlaced","type":"event"},{"anonymous":false,"inputs":[{"indexed":true,"internalType":"bytes32","name":"marketId","type":"bytes32"},{"indexed":true,"internalType":"address","name":"user","type":"address"},{"indexed":false,"internalType":"uint256","name":"amount","type":"uint256"}],"name":"RefundClaimed","type":"event"},{"anonymous":false,"inputs":[{"indexed":true,"internalType":"bytes32","name":"role","type":"bytes32"},{"indexed":true,"internalType":"bytes32","name":"previousAdminRole","type":"bytes32"},{"indexed":true,"internalType":"bytes32","name":"newAdminRole","type":"bytes32"}],"name":"RoleAdminChanged","type":"event"},{"anonymous":false,"inputs":[{"indexed":true,"internalType":"bytes32","name":"role","type":"bytes32"},{"indexed":true,"internalType":"address","name":"account","type":"address"},{"indexed":true,"internalType":"address","name":"sender","type":"address"}],"name":"RoleGranted","type":"event"},{"anonymous":false,"inputs":[{"indexed":true,"internalType":"bytes32","name":"role","type":"bytes32"},{"indexed":true,"internalType":"address","name":"account","type":"address"},{"indexed":true,"internalType":"address","name":"sender","type":"address"}],"name":"RoleRevoked","type":"event"},{"anonymous":false,"inputs":[{"indexed":true,"internalType":"bytes32","name":"marketId","type":"bytes32"},{"indexed":true,"internalType":"address","name":"holder","type":"address"},{"indexed":false,"internalType":"uint256","name":"yesAmount","type":"uint256"},{"indexed":false,"internalType":"uint256","name":"noAmount","type":"uint256"}],"name":"SharesBurned","type":"event"},{"anonymous":false,"inputs":[{"indexed":true,"internalType":"bytes32","name":"marketId","type":"bytes32"},{"indexed":true,"internalType":"address","name":"recipient","type":"address"},{"indexed":false,"internalType":"uint256","name":"yesAmount","type":"uint256"},{"indexed":false,"internalType":"uint256","name":"noAmount","type":"uint256"}],"name":"SharesMinted","type":"event"},{"anonymous":false,"inputs":[{"indexed":true,"internalType":"bytes32","name":"fillId","type":"bytes32"},{"indexed":true,"internalType":"bytes32","name":"marketId","type":"bytes32"},{"indexed":false,"internalType":"bytes32","name":"makerOrderId","type":"bytes32"},{"indexed":false,"internalType":"bytes32","name":"takerOrderId","type":"bytes32"},{"indexed":false,"internalType":"enum PredictionMarket.MatchType","name":"matchType","type":"uint8"},{"indexed":false,"internalType":"uint256","name":"quantity","type":"uint256"},{"indexed":false,"internalType":"uint256","name":"price","type":"uint256"}],"name":"Trade","type":"event"},{"anonymous":false,"inputs":[{"indexed":true,"internalType":"bytes32","name":"marketId","type":"bytes32"},{"indexed":true,"internalType":"address","name":"user","type":"address"},{"indexed":false,"internalType":"uint256","name":"amount","type":"uint256"},{"indexed":false,"internalType":"enum PredictionMarket.Outcome","name":"outcome","type":"uint8"}],"name":"WinningsClaimed","type":"event"},{"inputs":[],"name":"BASIS_POINTS","outputs":[{"internalType":"uint256","name":"","type":"uint256"}],"stateMutability":"view","type":"function"},{"inputs":[],"name":"DEFAULT_ADMIN_ROLE","outputs":[{"internalType":"bytes32","name":"","type":"bytes32"}],"stateMutability":"view","type":"function"},{"inputs":[],"name":"OPERATOR_ROLE","outputs":[{"internalType":"bytes32","name":"","type":"bytes32"}],"stateMutability":"view","type":"function"},{"inputs":[{"internalType":"bytes32","name":"marketId","type":"bytes32"}],"name":"cancelMarket","outputs":[],"stateMutability":"nonpayable","type":"function"},{"inputs":[{"internalType":"bytes32","name":"orderId","type":"bytes32"}],"name":"cancelOrder","outputs":[],"stateMutability":"nonpayable","type":"function"},{"inputs":[{"internalType":"bytes32","name":"marketId","type":"bytes32"}],"name":"claimRefund","outputs":[],"stateMutability":"nonpayable","type":"function"},{"inputs":[{"internalType":"bytes32","name":"marketId","type":"bytes32"}],"name":"claimWinnings","outputs":[],"stateMutability":"nonpayable","type":"function"},{"inputs":[{"internalType":"bytes32","name":"marketId","type":"bytes32"},{"internalType":"string","name":"question","type":"string"},{"internalType":"uint256","name":"expireTime","type":"uint256"},{"internalType":"address","name":"operator","type":"address"}],"name":"createMarket","outputs":[],"stateMutability":"nonpayable","type":"function"},{"inputs":[{"internalType":"bytes32","name":"marketId","type":"bytes32"}],"name":"getMarket","outputs":[{"components":[{"internalType":"bytes32","name":"marketId","type":"bytes32"},{"internalType":"string","name":"question","type":"string"},{"internalType":"address","name":"yesToken","type":"address"},{"internalType":"address","name":"noToken","type":"address"},{"internalType":"uint256","name":"yesSupply","type":"uint256"},{"internalType":"uint256","name":"noSupply","type":"uint256"},{"internalType":"uint256","name":"totalCollateral","type":"uint256"},{"internalType":"enum PredictionMarket.MarketStatus","name":"status","type":"uint8"},{"internalType":"enum PredictionMarket.Outcome","name":"winningOutcome","type":"uint8"},{"internalType":"uint256","name":"expireTime","type":"uint256"},{"internalType":"uint256","name":"createdAt","type":"uint256"},{"internalType":"address","name":"tournamentOperator","type":"address"}],"internalType":"struct PredictionMarket.Market","name":"","type":"tuple"}],"stateMutability":"view","type":"function"},{"inputs":[],"name":"getMarketIds","outputs":[{"internalType":"bytes32[]","name":"","type":"bytes32[]"}],"stateMutability":"view","type":"function"},{"inputs":[{"internalType":"bytes32","name":"orderId","type":"bytes32"}],"name":"getOrder","outputs":[{"components":[{"internalType":"bytes32","name":"orderId","type":"bytes32"},{"internalType":"bytes32","name":"marketId","type":"bytes32"},{"internalType":"address","name":"trader","type":"address"},{"internalType":"enum PredictionMarket.OrderSide","name":"side","type":"uint8"},{"internalType":"enum PredictionMarket.Outcome","name":"outcome","type":"uint8"},{"internalType":"uint256","name":"price","type":"uint256"},{"internalType":"uint256","name":"quantity","type":"uint256"},{"internalType":"uint256","name":"filled","type":"uint256"},{"internalType":"uint256","name":"collateralLocked","type":"uint256"},{"internalType":"enum PredictionMarket.OrderStatus","name":"status","type":"uint8"},{"internalType":"uint256","name":"createdAt","type":"uint256"},{"internalType":"uint256","name":"expireTime","type":"uint256"}],"internalType":"struct PredictionMarket.Order","name":"","type":"tuple"}],"stateMutability":"view","type":"function"},{"inputs":[{"internalType":"bytes32","name":"marketId","type":"bytes32"},{"internalType":"enum PredictionMarket.Outcome","name":"outcome","type":"uint8"},{"internalType":"enum PredictionMarket.OrderSide","name":"side","type":"uint8"}],"name":"getOrderBook","outputs":[{"internalType":"bytes32[]","name":"","type":"bytes32[]"}],"stateMutability":"view","type":"function"},{"inputs":[{"internalType":"bytes32","name":"role","type":"bytes32"}],"name":"getRoleAdmin","outputs":[{"internalType":"bytes32","name":"","type":"bytes32"}],"stateMutability":"view","type":"function"},{"inputs":[{"internalType":"address","name":"user","type":"address"}],"name":"getUserOrders","outputs":[{"internalType":"bytes32[]","name":"","type":"bytes32[]"}],"stateMutability":"view","type":"function"},{"inputs":[{"internalType":"bytes32","name":"role","type":"bytes32"},{"internalType":"address","name":"account","type":"address"}],"name":"grantRole","outputs":[],"stateMutability":"nonpayable","type":"function"},{"inputs":[{"internalType":"bytes32","name":"","type":"bytes32"},{"internalType":"address","name":"","type":"address"}],"name":"hasClaimed","outputs":[{"internalType":"bool","name":"","type":"bool"}],"stateMutability":"view","type":"function"},{"inputs":[{"internalType":"bytes32","name":"role","type":"bytes32"},{"internalType":"address","name":"account","type":"address"}],"name":"hasRole","outputs":[{"internalType":"bool","name":"","type":"bool"}],"stateMutability":"view","type":"function"},{"inputs":[{"internalType":"uint256","name":"","type":"uint256"}],"name":"marketIds","outputs":[{"internalType":"bytes32","name":"","type":"bytes32"}],"stateMutability":"view","type":"function"},{"inputs":[{"internalType":"bytes32","name":"","type":"bytes32"}],"name":"markets","outputs":[{"internalType":"bytes32","name":"marketId","type":"bytes32"},{"internalType":"string","name":"question","type":"string"},{"internalType":"address","name":"yesToken","type":"address"},{"internalType":"address","name":"noToken","type":"address"},{"internalType":"uint256","name":"yesSupply","type":"uint256"},{"internalType":"uint256","name":"noSupply","type":"uint256"},{"internalType":"uint256","name":"totalCollateral","type":"uint256"},{"internalType":"enum PredictionMarket.MarketStatus","name":"status","type":"uint8"},{"internalType":"enum PredictionMarket.Outcome","name":"winningOutcome","type":"uint8"},{"internalType":"uint256","name":"expireTime","type":"uint256"},{"internalType":"uint256","name":"createdAt","type":"uint256"},{"internalType":"address","name":"tournamentOperator","type":"address"}],"stateMutability":"view","type":"function"},{"inputs":[],"name":"minOrderSize","outputs":[{"internalType":"uint256","name":"","type":"uint256"}],"stateMutability":"view","type":"function"},{"inputs":[{"internalType":"bytes32","name":"","type":"bytes32"},{"internalType":"enum PredictionMarket.Outcome","name":"","type":"uint8"},{"internalType":"enum PredictionMarket.OrderSide","name":"","type":"uint8"},{"internalType":"uint256","name":"","type":"uint256"}],"name":"orderBook","outputs":[{"internalType":"bytes32","name":"","type":"bytes32"}],"stateMutability":"view","type":"function"},{"inputs":[{"internalType":"bytes32","name":"","type":"bytes32"}],"name":"orders","outputs":[{"internalType":"bytes32","name":"orderId","type":"bytes32"},{"internalType":"bytes32","name":"marketId","type":"bytes32"},{"internalType":"address","name":"trader","type":"address"},{"internalType":"enum PredictionMarket.OrderSide","name":"side","type":"uint8"},{"internalType":"enum PredictionMarket.Outcome","name":"outcome","type":"uint8"},{"internalType":"uint256","name":"price","type":"uint256"},{"internalType":"uint256","name":"quantity","type":"uint256"},{"internalType":"uint256","name":"filled","type":"uint256"},{"internalType":"uint256","name":"collateralLocked","type":"uint256"},{"internalType":"enum PredictionMarket.OrderStatus","name":"status","type":"uint8"},{"internalType":"uint256","name":"createdAt","type":"uint256"},{"internalType":"uint256","name":"expireTime","type":"uint256"}],"stateMutability":"view","type":"function"},{"inputs":[{"internalType":"bytes32","name":"marketId","type":"bytes32"}],"name":"pauseMarket","outputs":[],"stateMutability":"nonpayable","type":"function"},{"inputs":[{"internalType":"bytes32","name":"marketId","type":"bytes32"},{"internalType":"enum PredictionMarket.OrderSide","name":"side","type":"uint8"},{"internalType":"enum PredictionMarket.Outcome","name":"outcome","type":"uint8"},{"internalType":"uint256","name":"price","type":"uint256"},{"internalType":"uint256","name":"quantity","type":"uint256"},{"internalType":"uint256","name":"expireTime","type":"uint256"}],"name":"placeOrder","outputs":[{"internalType":"bytes32","name":"orderId","type":"bytes32"}],"stateMutability":"nonpayable","type":"function"},{"inputs":[{"internalType":"bytes32","name":"role","type":"bytes32"},{"internalType":"address","name":"callerConfirmation","type":"address"}],"name":"renounceRole","outputs":[],"stateMutability":"nonpayable","type":"function"},{"inputs":[{"internalType":"bytes32","name":"marketId","type":"bytes32"},{"internalType":"enum PredictionMarket.Outcome","name":"winningOutcome","type":"uint8"}],"name":"resolveMarket","outputs":[],"stateMutability":"nonpayable","type":"function"},{"inputs":[{"internalType":"bytes32","name":"marketId","type":"bytes32"}],"name":"resumeMarket","outputs":[],"stateMutability":"nonpayable","type":"function"},{"inputs":[{"internalType":"bytes32","name":"role","type":"bytes32"},{"internalType":"address","name":"account","type":"address"}],"name":"revokeRole","outputs":[],"stateMutability":"nonpayable","type":"function"},{"inputs":[{"internalType":"uint256","name":"newMinOrderSize","type":"uint256"}],"name":"setMinOrderSize","outputs":[],"stateMutability":"nonpayable","type":"function"},{"inputs":[{"internalType":"bytes4","name":"interfaceId","type":"bytes4"}],"name":"supportsInterface","outputs":[{"internalType":"bool","name":"","type":"bool"}],"stateMutability":"view","type":"function"},{"inputs":[{"internalType":"address","name":"","type":"address"},{"internalType":"uint256","name":"","type":"uint256"}],"name":"userOrders","outputs":[{"internalType":"bytes32","name":"","type":"bytes32"}],"stateMutability":"view","type":"function"},{"inputs":[],"name":"vault","outputs":[{"internalType":"contract CollateralVault","name":"","type":"address"}],"stateMutability":"view","type":"function"}],"evm":{"bytecode":{"linkReferences":{},"object":"60a0346200010a57601f620051ea38819003918201601f19168301916001600160401b038311848410176200010f578084926020946040528339810103126200010a57516001600160a01b038116908190036200010a57600160005560646002558015620000f857608052620000753362000125565b506040516150329081620001b882396080518181816101b90152818161035e0152818161106f015281816110ca0152818161151c0152818161157b01528181611bd401528181611c3f01528181611c9001528181611d40015281816122ba0152818161231801528181612363015281816123c101528181612d820152612fe30152f35b60405163d92e233d60e01b8152600490fd5b600080fd5b634e487b7160e01b600052604160045260246000fd5b6001600160a01b031660008181527fa6eef7e35abe7026729641147f7915573c7e97b47efa546f5f6e3230263bcb49602052604081205490919060ff16620001b35781805260016020526040822081835260205260408220600160ff1982541617905533917f2f8788117e7eff1d82e926ec794901d17c78024a50270940304540a733656f0d8180a4600190565b509056fe60e08060405260043610156200001457600080fd5b600090813560e01c90816301ffc9a714620037ea5750806305b6ac6b1462003761578063248a9ca314620037335780632f2ff15d14620036ed57806336568abe146200369e578063398c6f7e14620036215780635778472a14620034345780635e2c8eee14620033da5780635e38283714620032f557806363c69f08146200327957806371de2ffc1462002e815780637489ec231462002c7c5780637564912b1462002b91578063762f56181462002ad9578063779a96831462002a84578063856652e91462002a27578063865ec35e14620029b557806391d14854146200296557806392a42d1d14620029155780639c3f1e901462002840578063a217fddf1462002822578063a674537f1462002802578063b4a780881462002771578063b6507c2d1462000f6a578063bdb832891462000eff578063c3c95c7b1462000ce9578063d547741f1462000c9f578063d54c786e1462000607578063e1f1c4a714620005e8578063e49b606c1462000228578063f5b541a614620001eb5763fbfa77cf14620001a257600080fd5b34620001e85780600319360112620001e8576040517f00000000000000000000000000000000000000000000000000000000000000006001600160a01b03168152602090f35b80fd5b5034620001e85780600319360112620001e85760206040517f97667070c54ef182b0f5858b034beac1b6f3089aa2d3188bb1e8929f4fa9b9298152f35b5034620001e8576020806003193601126200051b576004356200024a62003d9e565b8083526005825260408320600781015460ff81166004811015620005d457600203620005c257828552600984526040852033600052845260ff60406000205416620005b05760081c60ff1690620002a18262003844565b816200057657600201546001600160a01b0316925b6040516370a0823160e01b8152336004820152936001600160a01b03908116908286602481855afa9586156200056b57879662000531575b5085156200051f57869185835260098452604083203360005284526040600020600160ff19825416179055803b15620004f457604051632770a7eb60e21b8152336004820152602481018890529083908290604490829084905af1908115620004ce57839162000503575b5050807f00000000000000000000000000000000000000000000000000000000000000001690813b15620004f4576040516302fe2e9360e31b815230600482015260248101889052838160448183875af18015620004f85785918591620004d9575b5050604051632c805af560e21b815292839060049082905afa8015620004ce57849284916200049a575b5060405163a9059cbb60e01b815233600482015260248101899052938492604492849291165af180156200048f576200045b575b506040519384526200042b8262003844565b8301527f5cf4a2169798b2cbf62119844933f2967a22195532e20571634dc50c4d1800cf60403393a36001815580f35b6200047f90823d841162000487575b62000476818362003995565b81019062003e05565b503862000419565b503d6200046a565b6040513d88823e3d90fd5b620004bf9150833d8511620004c6575b620004b6818362003995565b81019062003de4565b38620003e5565b503d620004aa565b6040513d85823e3d90fd5b620004e691925062003963565b620004f457838338620003bb565b8280fd5b6040513d86823e3d90fd5b6200050e9062003963565b6200051b57813862000359565b5080fd5b6040516330a748d360e11b8152600490fd5b9095508281813d831162000563575b6200054c818362003995565b810103126200055e57519438620002ee565b600080fd5b503d62000540565b6040513d89823e3d90fd5b620005818262003844565b600182036200059e57600301546001600160a01b031692620002b6565b60405163c74a206d60e01b8152600490fd5b604051630c8d9eab60e31b8152600490fd5b60405163174b639360e11b8152600490fd5b634e487b7160e01b86526021600452602486fd5b5034620001e85780600319360112620001e85760206040516127108152f35b5034620001e8576080366003190112620001e85767ffffffffffffffff60243511620001e857366023602435011215620001e85767ffffffffffffffff6024356004013511620001e8573660248035600401358135010111620001e8576064356001600160a01b03811690036200055e576200068262003ac4565b60043581526005602052600960408220015462000c8d576064356001600160a01b03161562000c7b57620006b860043562004044565b620006f660246040518093635945532d60e01b6020830152620006e5815180926020868601910162003a6a565b810103600481018452018262003995565b6200070360043562004044565b906200074160236040518094624e4f2d60e81b602083015262000730815180926020868601910162003a6a565b810103600381018552018362003995565b6040519081610ec781011067ffffffffffffffff610ec78401111762000c67578162000784604092610ec762004116843960a0610ec78401818152019062003a8f565b610ec78201808203602080830191909152600383526259455360e81b9083015260043584820152600160608201523060809091015203019083f090811562000c5c576040519081610ec781011067ffffffffffffffff610ec78401111762000c67578162000809604092610ec762004116843960a0610ec78401818152019062003a8f565b610ec7820180820360208083019190915260028352614e4f60f01b9083015260043584820152606081018790523060809091015203019083f0801562000c5c57604051620008578162003945565b60043581526200086d6024356004013562003cec565b6200087c604051918262003995565b602480356004810135808452910160208301378460206024356004013583010152602082015260018060a01b038316604082015260018060a01b03821660608201528360808201528360a08201528360c08201528360e082015260026101008201526044356101208201524261014082015260018060a01b0360643516610160820152600435845260056020526040842081518155602082015180519067ffffffffffffffff821162000c485781906200093a600185015462003908565b601f811162000bf2575b50602090601f831160011462000b7e57889262000b72575b50508160011b916000199060031b1c19161760018201555b600281019060018060a01b03604084015116916bffffffffffffffffffffffff60a01b92838254161790556003810160018060a01b03606085015116838254161790556080830151600482015560a0830151600582015560c083015160068201556007810160e0840151600481101562000b5e57600a929162000a159160ff801983541691161781556101008601519062000a0f8262003844565b62003d09565b61012084015160088201556101408401516009820155019161016060018060a01b039101511690825416179055600a54600160401b81101562000b48576001810180600a5581101562000b3257600a600052600435907fc65a7bb8d6351c1cf70c95a316cc6a92839c986682d98bc35f958f4883f9d2a8015562000a9b60643562003b44565b50604051916080835260243560040135608084015260243560040135602480350160a0850137600460243581013584810160a09081018790526001600160a01b03938416602087015293831660408601526044356060860152606435909216939035927fc1edba2980b5502d83071709308000bfb589c388cdd039afe22d22401939122892601f01601f191682018290030190a380f35b634e487b7160e01b600052603260045260246000fd5b634e487b7160e01b600052604160045260246000fd5b634e487b7160e01b88526021600452602488fd5b0151905038806200095c565b9250600184018852602088209088935b601f198416851062000bd6576001945083601f1981161062000bbc575b505050811b01600182015562000974565b015160001960f88460031b161c1916905538808062000bab565b8181015183556020948501946001909301929091019062000b8e565b90915060018401885260208820601f840160051c81016020851062000c40575b90849392915b601f830160051c8201811062000c3057505062000944565b6000815585945060010162000c18565b508062000c12565b634e487b7160e01b87526041600452602487fd5b6040513d84823e3d90fd5b634e487b7160e01b84526041600452602484fd5b60405163d92e233d60e01b8152600490fd5b604051630313b28560e01b8152600490fd5b5034620001e8576040366003190112620001e85762000ce560043562000cc462003881565b90808452600160205262000cdf600160408620015462003b1d565b62003c74565b5080f35b5034620001e8576020366003190112620001e85780604091610160835162000d118162003945565b8281526060602082015282858201528260608201528260808201528260a08201528260c08201528260e0820152826101008201528261012082015282610140820152015260043581526005602052206040519062000d6f8262003945565b8054825262000d8160018201620039b8565b602083015260028101546001600160a01b03908116604084015260038201541660608301526004808201546080840152600582015460a0840152600682015460c0840152600782015460ff81169182101562000ee95760ff9160e085015260081c1662000dee8162003844565b61010083015260088101546101208301526009810154610140830152600a60018060a01b03910154166101608201526040518091602082528051602083015262000e4a602082015161018060408501526101a084019062003a8f565b9060018060a01b03604082015116606084015260018060a01b036060820151166080840152608081015160a084015260a081015160c084015260c081015160e084015262000ea260e082015161010085019062003ab6565b61010081015162000eb38162003844565b61012084015261012081015161014084015261014081015161016084015261016060018060a01b03910151166101808301520390f35b634e487b7160e01b600052602160045260246000fd5b5034620001e8576020366003190112620001e857600435808252600560205260008051602062004fdd833981519152604060ff62000f5f600783872062000f468162003fab565b0180549060038419831617905583519283911662003ab6565b60036020820152a280f35b5034620001e85760c0366003190112620001e85760026024351015620001e85760036044351015620001e85762000fa062003d9e565b6004358152600560205260ff6007604083200154166004811015620020c3576200275f5760643515801562002750575b6200273f5762000fe260443562003844565b6002604435146200059e57608435156200272d576200100960843560643560243562003e92565b60025481106200272d57600354620010218162003d6b565b600355604051903360601b602083015260348201524260548201526054815280608081011067ffffffffffffffff60808301111762000b4857608081016040528051602082012060c05282907f00000000000000000000000000000000000000000000000000000000000000006001600160a01b03163b156200051b576347a7d10760e01b6080820190815233608483015260a482018490528290604481836001600160a01b037f0000000000000000000000000000000000000000000000000000000000000000165af1801562000c5c5762002712575b5050604051906200110a8262003945565b60c051825260043560208301523360408301526200112e6024356060840162003d91565b6200113b60443562003844565b604435608083015260643560a083015260843560c08301528260e0830152610100820152816101208201524261014082015260a43561016082015260c051825260066020526040822090805182556020810151600183015560018060a01b0360408201511660028301546060830151916002831015620005d4576080840151620011c58162003844565b620011d08162003844565b60ff60a81b9060a81b169260ff60a01b9060a01b169169ffffffffffffffffffff60b01b16171717600283015560a0810151600383015560c0810151600483015560e0810151600583015561010081015160068301556101208101516005811015620026fe576009916101609160ff801960078701541691161760078501556101408101516008850155015191015560043581526007602052604081206200127a60443562003844565b6044358252602052620012a060c0516200129a602435604085206200384f565b62003d2a565b3381526008602052620012b960c0516040832062003d2a565b604051620012ca81602435620038ec565b620012d760443562003844565b60443560208201526064356040820152608435606082015260c051903390827f4f8271a1b8113303635a3d766a78cff97a00afbf1b9b0ac18e5490fe68aa1ec5608060043593a4815260066020526040812060018101548083526005602052604083206080526002820154600260ff8260a01c161015620026fe5790620013989160ff8160a01c1615600014620026f6576001915b8552600760205260ff604086209160a81c16620013898162003844565b8552602052604084206200384f565b90825b8254811080620026e4575b156200186257620013b8818462003868565b90549060031b1c90818552600660205260408520620013d78162003e2d565b15620018555760ff600285015460a01c1660028110156200184157620018305760038085015491015411155b1562001824576001830154826000526006602052604060002060c0516000526040600020916200143d600483015460058401549062003dc2565b62001452600485015460058601549062003dc2565b808210156200181b5750925b600383015495600454620014728162003d6b565b6004556040516020810191825242604082015260408152620014948162003978565b51902096620014a886600587015462003e1f565b6005860155620014bd86600585015462003e1f565b600584015560ff600286015460a01c1694600286101562000ee957856200181157600181965b03620018095780955b612710620014fb848a62003dd0565b600283810154908a015492909104916001600160a01b0391821691908116907f0000000000000000000000000000000000000000000000000000000000000000163b156200055e576040516230582b60e81b81526001600160a01b03928316600482015291166024820152604481019190915260008180606481010381837f00000000000000000000000000000000000000000000000000000000000000006001600160a01b03165af18015620017c257620017f7575b5060ff600282015460a81c16620015c98162003844565b620017e057608051600201546001600160a01b0316965b600201546001600160a01b039081169088163b156200055e57604051632770a7eb60e21b81526001600160a01b0390911660048201526024810189905260008180604481010381836001600160a01b038d165af18015620017c257620017ce575b50600201546001600160a01b03908116969081163b156200055e576040516340c10f1960e01b81526001600160a01b0397881660048201526024810189905296600091889160449183918591165af1948515620017c2576001997fa891d459cc19a94041344fd3f05544a8e2ac8cd799b693377166f326745db07660a06200173f9560409a620017809a620017b0575b5060058601546004870154036200179c5760078601600260ff198254161790556200170e88600288015460ff8082871c169160a81c168862003ebe565b8a519088825260c051602083015260008c8301528c60608301526080820152a3600560048201549101549062003dc2565b84519086825260208201527fb38583f2adb435cac858db9d3e8d3ca952ccb32307e2f3d0053b415d2d293481948591a2600560048201549101549062003dc2565b6040519283526020830152604060c05192a201915b916200139b565b60078601805460ff19168f1790556200170e565b620017bb9062003963565b38620016d1565b6040513d6000823e3d90fd5b620017d99062003963565b3862001641565b608051600301546001600160a01b031696620015e0565b620018029062003963565b38620015b2565b8395620014ec565b60018496620014e3565b9050926200145e565b60019150019162001795565b600380850154910154101562001403565b634e487b7160e01b87526021600452602487fd5b5060019150019162001795565b83826002810154600260ff8260a01c161015620026d05760ff8160a01c161580620026be575b620020d7575b50906002820154600260ff8260a01c161015620020c357600160ff8260a01c161480620020b1575b62001938575b508160056001930154600482015481146000146200191757508060076200190a9201600260ff1982541617905560028482015491015460c0519160ff808360a01c169260a81c169062003ebe565b55602060405160c0518152f35b62001924575b506200190a565b600701805460ff191683179055826200191d565b60a81c60ff16620019498162003844565b620020aa5760015b60018301548252600760205260408220906200196d8162003844565b8252602052604081206001600052602052604060002060a052805b60a051805482108062002098575b156200208e5781620019a89162003868565b90549060031b1c808352600660205260408320620019c68162003e2d565b156200208257620019e4612710916003808801549101549062003e1f565b1115620019f9575b50600101905b9062001988565b60018401546000908282526006602052604082209260c051835260408320916004850180549162001a31600588019384549062003dc2565b95600486019586549762001a4c60058301998a549062003dc2565b80821015620020795750985b60038101549160045462001a6c8162003d6b565b600455604051602081019182524260408201526040815262001a8e8162003978565b5190209362001a9f8c895462003e1f565b885562001aae8c8c5462003e1f565b8b559060ff600284015460a81c169062001ac88262003844565b816200206f57600184925b62001ade8162003844565b03620020695750825b608051600290810154908301546001600160a01b039081169116803b156200055e57604051632770a7eb60e21b81526001600160a01b03929092166004830152602482018f90526000908290604490829084905af18015620017c25762002052575b506080516003015460028201546001600160a01b039182169116813b156200203657604051632770a7eb60e21b81526001600160a01b03919091166004820152602481018f90529084908290604490829084905af18015620004f8579084916200203a575b50508c62001bd161271062001bc860038601548462003dd0565b04809262003dc2565b907f00000000000000000000000000000000000000000000000000000000000000006001600160a01b03163b15620020365762001c3a8f8690604051809381926302fe2e9360e31b8352306004840160209093929193604081019460018060a01b031681520152565b0381837f00000000000000000000000000000000000000000000000000000000000000006001600160a01b03165af180156200048f579086916200201e575b5050604051632c805af560e21b81526020816004817f00000000000000000000000000000000000000000000000000000000000000006001600160a01b03165afa9081156200048f579160209162001d1093889162001ffc575b50600287015460405163a9059cbb60e01b81526001600160a01b039091166004820152602481019290925290928391908290899082906044820190565b03926001600160a01b03165af1801562001fcd5762001fd8575b50604051632c805af560e21b81526020816004817f00000000000000000000000000000000000000000000000000000000000000006001600160a01b03165afa90811562001fcd579160209162001dc093879162001fab575b50600285015460405163a9059cbb60e01b81526001600160a01b039091166004820152602481019290925290928391908290889082906044820190565b03926001600160a01b03165af18015620004f8579d60019f9e9660409d9a96829f9c98968f9662001f599f9c9897807fa891d459cc19a94041344fd3f05544a8e2ac8cd799b693377166f326745db0769860a09862001f1f9f9b62001f87575b5060046080510162001e3489825462003dc2565b905560056080510162001e4989825462003dc2565b905560066080510162001e5e89825462003dc2565b905560805154936001806002918c1b03910154168483518a81528760208201527f584c326a6e37f42e5dbbc22753ac897e22621db83435d9cb96b210d1558d0883958691a36002015481519485526020850188905260001960018a1b011693a38a895489541460001462001f7257600282600762001ef694018260ff19825416179055015460ff8082881c169160a81c168962003ebe565b8d51918a835260c051602084015260028f84015260608301526080820152a35490549062003dc2565b85519087825260208201527fb38583f2adb435cac858db9d3e8d3ca952ccb32307e2f3d0053b415d2d293481958691a25490549062003dc2565b6040519283526020830152604060c05192a290620019ec565b50600701805460ff1916600117905562001ef6565b62001fa39060203d602011620004875762000476818362003995565b503862001e20565b62001fc69150833d8511620004c657620004b6818362003995565b3862001d83565b6040513d87823e3d90fd5b62001ff49060203d602011620004875762000476818362003995565b503862001d2a565b620020179150833d8511620004c657620004b6818362003995565b3862001cd3565b620020299062003963565b6200203657843862001c79565b8480fd5b620020459062003963565b620004f457823862001bae565b6200205f91935062003963565b6000913862001b49565b62001ae7565b6001819262001ad3565b90509862001a58565b505060010190620019f2565b50506001620018bc565b50600584015460048501541162001996565b8062001951565b506005830154600484015411620018b6565b634e487b7160e01b82526021600452602482fd5b60a81c60ff16620020e88162003844565b620026b75760015b60018201548352600760205260408320906200210c8162003844565b83526020526040822060008052602052604060002090825b8254811080620026a5575b156200269b5762002141818462003868565b90549060031b1c90818552600660205260408520620021608162003e2d565b156200268e576200217e612710916003808701549101549062003e1f565b101562002194575b6001915001915b9162002124565b600183015482600052600660205260406000209260c051600052604060002091620021c9600486015460058701549062003dc2565b620021de600485015460058601549062003dc2565b80821015620026855750925b600386015492600454620021fe8162003d6b565b6004556040516020810191825242604082015260408152620022208162003978565b519020966200223486600583015462003e1f565b60058201556200224986600585015462003e1f565b600584015560ff600282015460a81c1690620022658262003844565b816200267b57600181925b6200227b8162003844565b03620026735780945b6127106200229760038501548a62003dd0565b04620022a4818a62003dc2565b60028501549091906001600160a01b03908116907f0000000000000000000000000000000000000000000000000000000000000000163b156200055e576040516230582b60e81b81526001600160a01b039091166004820152306024820152604481019190915260008180606481010381837f00000000000000000000000000000000000000000000000000000000000000006001600160a01b03165af18015620017c25762002661575b5060028701546001600160a01b03908116907f0000000000000000000000000000000000000000000000000000000000000000163b156200055e576040516230582b60e81b81526001600160a01b039091166004820152306024820152604481019190915260008180606481010381837f00000000000000000000000000000000000000000000000000000000000000006001600160a01b03165af18015620017c2576200264f575b50608051600290810154908401546001600160a01b039081169116803b156200055e576040516340c10f1960e01b81526001600160a01b03929092166004830152602482018a90526000908290604490829084905af18015620017c2576200263d575b506080516003015460028701546001600160a01b039081169b9116803b156200055e576040516340c10f1960e01b81526001600160a01b039c909c1660048d015260248c018a90528b6044815a6000948591f19a8b15620017c25760a06040998b6200173f9760019f8d620025ff9d7fa891d459cc19a94041344fd3f05544a8e2ac8cd799b693377166f326745db0769782936200262b575b506004608051016200250886825462003e1f565b90556005608051016200251d86825462003e1f565b90556006608051016200253286825462003e1f565b905560805154936001806002918a1b0391015416848351878152600060208201527f0e7d6cc8eb939f017f8adbee7567d9c5fbb41ad1208e3ffd7cba5ee580ea9173958691a3600180600291891b039101541693815190600082526020820152a36005860154600487015403620026175760078601600260ff19825416179055620025cf88600288015460ff8082871c169160a81c168862003ebe565b8a519088825260c05160208301528e8c8301528c60608301526080820152a3600560048201549101549062003dc2565b6040519283526020830152604060c05192a262002186565b60078601805460ff19168f179055620025cf565b620026369062003963565b38620024f4565b620026489062003963565b8d6200245b565b6200265a9062003963565b8d620023f8565b6200266c9062003963565b8e6200234f565b839462002284565b6001849262002270565b905092620021ea565b506001915001916200218d565b509050826200188e565b5060058201546004830154116200212f565b81620020f0565b50600582015460048301541162001888565b634e487b7160e01b83526021600452602483fd5b506005820154600483015411620013a6565b84916200136c565b634e487b7160e01b84526021600452602484fd5b608062002720910162003963565b6200051b578138620010f9565b60405163524f409b60e01b8152600490fd5b60405162bfc92160e01b8152600490fd5b50612710606435101562000fd0565b604051635a90bb8d60e11b8152600490fd5b5034620001e8576020366003190112620001e8576004358082526005602052600760408320620027a18162003fab565b01805460ff81166004811015620027ee57806200275f5760008051602062004fdd83398151915292600160409360ff1916179055620027e38251809262003ab6565b60016020820152a280f35b634e487b7160e01b85526021600452602485fd5b5034620001e85780600319360112620001e8576020600254604051908152f35b5034620001e85780600319360112620001e857602090604051908152f35b5034620001e8576020366003190112620001e857604061018091600435815260066020522080549060018101549062002907600282015460ff8160a81c1660038401546004850154600586015491600687015493620028d660ff60078a01541696600960088b01549a01549a6040519c8d5260208d015260018060a01b03811660408d015260ff60608d019160a01c16620038ec565b620028e18162003844565b60808a015260a089015260c088015260e0870152610100860152610120850190620038fa565b610140830152610160820152f35b5034620001e8576040366003190112620001e85760406200293562003881565b9160043581526009602052209060018060a01b0316600052602052602060ff604060002054166040519015158152f35b5034620001e8576040366003190112620001e85760406200298562003881565b9160043581526001602052209060018060a01b0316600052602052602060ff604060002054166040519015158152f35b5034620001e8576020366003190112620001e8576004358082526005602052600760408320620029e58162003fab565b01805460ff81166004811015620027ee576001036200275f5760ff1916905560008051602062004fdd833981519152604080516001815260006020820152a280f35b5034620001e8576040366003190112620001e85762002a4562003898565b6001600160a01b0316815260086020526040812080546024359290831015620001e857602062002a76848462003868565b90546040519160031b1c8152f35b5034620001e8576020366003190112620001e857600435600a548110156200051b57602090600a6000527fc65a7bb8d6351c1cf70c95a316cc6a92839c986682d98bc35f958f4883f9d2a80154604051908152f35b5034620001e8576060366003190112620001e85760243560038110156200051b576044356002811015620004f45762002b3690600435845260209260078452604085209062002b288162003844565b85528352604084206200384f565b916040518092808554928381520194835280832092905b82821062002b795762002b758562002b688189038262003995565b60405191829182620038af565b0390f35b83548652948501946001938401939091019062002b4d565b5034620001e8576020366003190112620001e8576040906004358152600560205220805462002bc360018301620039b8565b9160018060a01b0380600283015416918160038201541691600482015462002c556005840154600685015460078601549160ff8360081c1694600888015496600a60098a0154990154169862002c2d6040519d8e9d8e528d61018090816020820152019062003a8f565b9a60408d015260608c015260808b015260a08a015260c089015260ff60e08901911662003ab6565b62002c608162003844565b6101008601526101208501526101408401526101608301520390f35b5034620001e8576020366003190112620001e85760043562002c9d62003d9e565b80825260066020526040822060028101805490916001600160a01b0391821633810362002e6f57600782019283549160ff8316600581101562002e5b57801515908162002e4e575b5062002e3c5760048401549162002d1062002d0560058701548562003dc2565b600687015462003dd0565b95831562002e265760038a948a98049560ff19161790558362002d80575b5050505091600162002d5393015490549060ff808360a01c169260a81c169062003ebe565b33907fa6eb7cdc219e1518ced964e9a34e61d68a94e4f1569db3e84256ba981ba527538380a36001815580f35b7f00000000000000000000000000000000000000000000000000000000000000001694509091843b15620004f4576040516302fe2e9360e31b81526001600160a01b0392909216600483015260248201529281908490604490829084905af192831562002e1957859362002df8575b80829162002d2e565b62002e069192935062003963565b62002e15578290843862002def565b8380fd5b50604051903d90823e3d90fd5b634e487b7160e01b600052601260045260246000fd5b60405163206931ef60e01b8152600490fd5b6001915014153862002ce5565b634e487b7160e01b89526021600452602489fd5b604051637b2095ad60e11b8152600490fd5b5034620001e85760209081600319360112620001e85760043562002ea462003d9e565b80825260058352604082209060ff6007830154166004811015620026fe5760030362003267578083526009845260408320338452845260ff604084205416620005b057600282019360018060a01b0392838654166040519183836024816370a0823160e01b958682523360048301525afa9283156200056b57879362003231575b506003019683868954169260246040518095819382523360048301525afa9182156200056b578792620031fc575b5082158080620031f3575b6200051f57858852600985526040808920338a5286528820805460ff191660011790551562003195575b50848697829795969762003132575b505080821015620031295750935b8462002fe0575b507fe950d47bcc1a745a8ef1d8b86486b400a99681910425d126eb1a006d61f341b291506040519384523393a36001815580f35b807f00000000000000000000000000000000000000000000000000000000000000001690813b1562002e15576040516302fe2e9360e31b815230600482015260248101879052848160448183875af1801562001fcd57849186916200310e575b5050604051632c805af560e21b815292839060049082905afa8015620004f85783928591620030ec575b5060405163a9059cbb60e01b815233600482015260248101889052948592604492849291165af191821562001fcd577fe950d47bcc1a745a8ef1d8b86486b400a99681910425d126eb1a006d61f341b292620030ca575b85925062002fac565b620030e490823d8411620004875762000476818362003995565b5038620030c1565b620031079150833d8511620004c657620004b6818362003995565b386200306a565b6200311b91925062003963565b62002e155782843862003040565b90509362002fa5565b5416803b156200203657604051632770a7eb60e21b8152336004820152602481018390529085908290604490829084905af190811562001fcd5785916200317d575b87915062002f97565b620031889062003963565b62002e1557833862003174565b548516803b15620031ef57604051632770a7eb60e21b8152336004820152602481018490529087908290604490829084905af180156200056b571562002f885795620031e5869895969762003963565b9594939662002f88565b8680fd5b50821562002f5e565b9091508381813d831162003229575b62003217818362003995565b81010312620031ef5751903862002f53565b503d6200320b565b9092508381813d83116200325f575b6200324c818362003995565b81010312620031ef575191600362002f25565b503d62003240565b604051630a5a0fc560e31b8152600490fd5b5034620001e8576020806003193601126200051b576001600160a01b03620032a062003898565b1682526008815260408220916040518092808554928381520194835280832092905b828210620032dd5762002b758562002b688189038262003995565b835486529485019460019384019390910190620032c2565b5034620001e8576040366003190112620001e8576024356004356003821015620004f4578083526005602052600760408420620033328162003fab565b0180549060ff8216916004831015620005d45782151580620033ce575b6200275f5783926200337e8660008051602062004fdd83398151915294600260409560ff191617815562003d09565b6200338c8251809262003ab6565b60026020820152a260405191620033a38162003844565b82527f32c04ef1b4209cbe24e47a18ee52b8f81e4c88b295a7eb580de0cd651357986560203393a380f35b5060018314156200334f565b5034620001e8576020366003190112620001e8577f745bf4a6ce2743009b1b47f40128dd9086f6eed93b86263039a71c240c93357c60406004356200341e62003ac4565b600254908060025582519182526020820152a180f35b5034620001e8576020366003190112620001e857806101606040516200345a8162003945565b8281528260208201528260408201528260608201528260808201528260a08201528260c08201528260e0820152826101008201528261012082015282610140820152015260043581526006602052604081209060405190620034bc8262003945565b825482526001830154602083015260028301546001600160a01b038116604084015260ff90620034f660a082901c83166060860162003d91565b60a81c16620035058162003844565b6080830152600383015460a0830152600483015460c0830152600583015460e0830152600683015461010083015260ff6007840154169060058210156200360d5750610180926009916101208401526008810154610140840152015461016082015261016060405191805183526020810151602084015260018060a01b036040820151166040840152620035a260608201516060850190620038ec565b6080810151620035b28162003844565b608084015260a081015160a084015260c081015160c084015260e081015160e0840152610100810151610100840152620035f7610120820151610120850190620038fa565b6101408101516101408401520151610160820152f35b634e487b7160e01b81526021600452602490fd5b5034620001e85780600319360112620001e857604051600a80548083529083526020808301937fc65a7bb8d6351c1cf70c95a316cc6a92839c986682d98bc35f958f4883f9d2a892915b828210620036865762002b758562002b688189038262003995565b8354865294850194600193840193909101906200366b565b5034620001e8576040366003190112620001e857620036bc62003881565b336001600160a01b03821603620036db5762000ce59060043562003c74565b60405163334bd91960e11b8152600490fd5b5034620001e8576040366003190112620001e85762000ce56004356200371262003881565b9080845260016020526200372d600160408620015462003b1d565b62003bf8565b5034620001e8576020366003190112620001e857600160406020926004358152828452200154604051908152f35b5034620001e8576080366003190112620001e857602435906003821015620001e85760443560028110156200051b57620037c29060643593600435845260076020526040842090620037b38162003844565b8452602052604083206200384f565b908154831015620001e8576020620037db848462003868565b90549060031b1c604051908152f35b9050346200051b5760203660031901126200051b5760043563ffffffff60e01b8116809103620004f45760209250637965db0b60e01b811490811562003832575b5015158152f35b6301ffc9a760e01b149050386200382b565b6003111562000ee957565b90600281101562000ee957600052602052604060002090565b805482101562000b325760005260206000200190600090565b602435906001600160a01b03821682036200055e57565b600435906001600160a01b03821682036200055e57565b6020908160408183019282815285518094520193019160005b828110620038d7575050505090565b835185529381019392810192600101620038c8565b90600282101562000ee95752565b90600582101562000ee95752565b90600182811c921680156200393a575b60208310146200392457565b634e487b7160e01b600052602260045260246000fd5b91607f169162003918565b610180810190811067ffffffffffffffff82111762000b4857604052565b67ffffffffffffffff811162000b4857604052565b6060810190811067ffffffffffffffff82111762000b4857604052565b90601f8019910116810190811067ffffffffffffffff82111762000b4857604052565b9060405191826000825492620039ce8462003908565b90818452600194858116908160001462003a455750600114620039fe575b5050620039fc9250038362003995565b565b9093915060005260209081600020936000915b81831062003a2c575050620039fc93508201013880620039ec565b8554888401850152948501948794509183019162003a11565b915050620039fc94506020925060ff191682840152151560051b8201013880620039ec565b60005b83811062003a7e5750506000910152565b818101518382015260200162003a6d565b9060209162003aaa8151809281855285808601910162003a6a565b601f01601f1916010190565b90600482101562000ee95752565b3360009081527fa6eef7e35abe7026729641147f7915573c7e97b47efa546f5f6e3230263bcb49602052604081205460ff161562003aff5750565b6044906040519063e2517d3f60e01b82523360048301526024820152fd5b80600052600160205260406000203360005260205260ff604060002054161562003aff5750565b6001600160a01b031660008181527f31c1e66639f421f1853aeefe8ad6b62a3b96f3287efe23106923cd924aa025c260205260408120549091907f97667070c54ef182b0f5858b034beac1b6f3089aa2d3188bb1e8929f4fa9b9299060ff1662003bf35780835260016020526040832082845260205260408320600160ff198254161790557f2f8788117e7eff1d82e926ec794901d17c78024a50270940304540a733656f0d339380a4600190565b505090565b906000918083526001602052604083209160018060a01b03169182845260205260ff6040842054161560001462003bf35780835260016020526040832082845260205260408320600160ff198254161790557f2f8788117e7eff1d82e926ec794901d17c78024a50270940304540a733656f0d339380a4600190565b906000918083526001602052604083209160018060a01b03169182845260205260ff60408420541660001462003bf3578083526001602052604083208284526020526040832060ff1981541690557ff6391f5c32d9c69d2a47ea670b442974b53935d1edc7fd64eb21e047a839171b339380a4600190565b67ffffffffffffffff811162000b4857601f01601f191660200190565b9062003d158162003844565b61ff0082549160081b169061ff001916179055565b805490600160401b82101562000b48578162003d5091600162003d679401815562003868565b819391549060031b91821b91600019901b19161790565b9055565b600019811462003d7b5760010190565b634e487b7160e01b600052601160045260246000fd5b600282101562000ee95752565b60026000541462003db0576002600055565b604051633ee5aeb560e01b8152600490fd5b9190820391821162003d7b57565b8181029291811591840414171562003d7b57565b908160209103126200055e57516001600160a01b03811681036200055e5790565b908160209103126200055e575180151581036200055e5790565b9190820180921162003d7b57565b60ff600782015416600581101562000ee957801515908162003e85575b5062003e74576009810154801515908162003e7a575b5062003e7457600460058201549101541190565b50600090565b905042113862003e60565b6001915014153862003e4a565b919091600281101562000ee95762003eb7576127109162003eb39162003dd0565b0490565b5050600090565b929162003edf91600094855260076020526040852090620013898162003844565b825b81548082101562003fa457839062003efa838562003868565b929054600393841b1c1462003f1c57505062003f169062003d6b565b62003ee1565b92935093906000199283810190811162003f905762003d5062003f4462003f52928762003868565b905490881b1c928662003868565b9055825490811562003f7c575081019262003f6e848462003868565b81939154921b1b1916905555565b634e487b7160e01b81526031600452602490fd5b634e487b7160e01b83526011600452602483fd5b5050505050565b6009810154156200402057600a01546001600160a01b03163314158062003fe6575b62003fd457565b6040516326b9cdff60e11b8152600490fd5b503360009081527fa6eef7e35abe7026729641147f7915573c7e97b47efa546f5f6e3230263bcb49602052604090205460ff161562003fcd565b60405163b0cfa44760e01b8152600490fd5b60ff1660ff811462003d7b5760010190565b9060005b60ff8116602081109081620040f5575b501562004070576200406a9062004032565b62004048565b9060ff80921690620040828262003cec565b9162004092604051938462003995565b808352601f19620040a38262003cec565b0191602092368486013760005b8581169083821015620040ea578482101562000b3257855182101562000b3257818589620040e4941a918801015362004032565b620040b0565b505094505050905090565b901562000b325783901a60f81b6001600160f81b0319161515386200405856fe60c060405234620003c35762000ec7803803806200001d81620003c8565b92833981019060a081830312620003c35780516001600160401b0390818111620003c357836200004f918401620003ee565b906020938484015190828211620003c3576200006d918501620003ee565b936040840151926060850151948515158603620003c357608001516001600160a01b03968782169491859003620003c3578251828111620002c3576003918254916001958684811c94168015620003b8575b88851014620003a2578190601f948581116200034c575b508890858311600114620002e557600092620002d9575b505060001982861b1c191690861b1783555b8051938411620002c35760049586548681811c91168015620002b8575b82821014620002a35783811162000258575b5080928511600114620001ea5750938394918492600095620001de575b50501b92600019911b1c19161781555b8115620001c65750600580546001600160a01b03198116831790915560405194167f8be0079c531659141344cd1fd0a4f28419497f9722a3daafe3b4186f6b6457e0600080a360805260a052610a66908162000461823960805181610501015260a051816101fb0152f35b602490600060405191631e4fbdf760e01b8352820152fd5b0151935038806200014b565b92919084601f1981168860005285600020956000905b898383106200023d575050501062000222575b50505050811b0181556200015b565b01519060f884600019921b161c191690553880808062000213565b85870151895590970196948501948893509081019062000200565b87600052816000208480880160051c82019284891062000299575b0160051c019087905b8281106200028c5750506200012e565b600081550187906200027c565b9250819262000273565b602288634e487b7160e01b6000525260246000fd5b90607f16906200011c565b634e487b7160e01b600052604160045260246000fd5b015190503880620000ed565b90889350601f19831691876000528a6000209260005b8c8282106200033557505084116200031c575b505050811b018355620000ff565b015160001983881b60f8161c191690553880806200030e565b8385015186558c97909501949384019301620002fb565b90915085600052886000208580850160051c8201928b861062000398575b918a91869594930160051c01915b82811062000388575050620000d6565b600081558594508a910162000378565b925081926200036a565b634e487b7160e01b600052602260045260246000fd5b93607f1693620000bf565b600080fd5b6040519190601f01601f191682016001600160401b03811183821017620002c357604052565b919080601f84011215620003c35782516001600160401b038111620002c35760209062000424601f8201601f19168301620003c8565b92818452828287010111620003c35760005b8181106200044c57508260009394955001015290565b85810183015184820184015282016200043656fe6080604081815260048036101561001557600080fd5b600092833560e01c90816306fdde03146107b757508063095ea7b31461070e57806318160ddd146106ef57806323b872dd146105fc578063313ce567146105e057806340c10f19146105245780636ed71ede146104e957806370a08231146104b2578063715018a6146104525780638da5cb5b1461042957806395d89b41146103095780639dc29fac14610220578063a77df1c9146101e3578063a9059cbb146101b2578063dd62ed3e146101655763f2fde38b146100d357600080fd5b34610161576020366003190112610161576100ec6108f5565b906100f5610926565b6001600160a01b0391821692831561014b575050600554826bffffffffffffffffffffffff60a01b821617600555167f8be0079c531659141344cd1fd0a4f28419497f9722a3daafe3b4186f6b6457e08380a380f35b51631e4fbdf760e01b8152908101849052602490fd5b8280fd5b5050346101ae57806003193601126101ae57806020926101836108f5565b61018b610910565b6001600160a01b0391821683526001865283832091168252845220549051908152f35b5080fd5b5050346101ae57806003193601126101ae576020906101dc6101d26108f5565b6024359033610952565b5160018152f35b5050346101ae57816003193601126101ae57602090517f000000000000000000000000000000000000000000000000000000000000000015158152f35b508290346101ae57826003193601126101ae5761023b6108f5565b9060243590610248610926565b6001600160a01b0383169283156102fa5782156102eb578385528460205285852054918383106102b75750508184957fddf252ad1be2c89b69c2b068fc378daa952ba7f163c4a11628f55a4df523b3ef936020938688528785520381872055816002540360025551908152a380f35b865163391434e360e21b81526001600160a01b03909216908201908152602081018390526040810184905281906060010390fd5b508451631f2a200560e01b8152fd5b50845163d92e233d60e01b8152fd5b509190346101ae57816003193601126101ae57805190828454600181811c9080831692831561041f575b602093848410811461040c578388529081156103f0575060011461039b575b505050829003601f01601f191682019267ffffffffffffffff84118385101761038857508291826103849252826108ac565b0390f35b634e487b7160e01b815260418552602490fd5b8787529192508591837f8a35acfbc15ff81a39ae7d344fd709f28e8600b4aa8c65c6b64bfe7fe36bd19b5b8385106103dc5750505050830101388080610352565b8054888601830152930192849082016103c6565b60ff1916878501525050151560051b8401019050388080610352565b634e487b7160e01b895260228a52602489fd5b91607f1691610333565b5050346101ae57816003193601126101ae5760055490516001600160a01b039091168152602090f35b83346104af57806003193601126104af5761046b610926565b600580546001600160a01b0319811690915581906001600160a01b03167f8be0079c531659141344cd1fd0a4f28419497f9722a3daafe3b4186f6b6457e08280a380f35b80fd5b5050346101ae5760203660031901126101ae5760209181906001600160a01b036104da6108f5565b16815280845220549051908152f35b5050346101ae57816003193601126101ae57602090517f00000000000000000000000000000000000000000000000000000000000000008152f35b50903461016157806003193601126101615761053e6108f5565b906024359161054b610926565b6001600160a01b03169283156105d25782156105c457600254908382018092116105b1575084927fddf252ad1be2c89b69c2b068fc378daa952ba7f163c4a11628f55a4df523b3ef9260209260025585855284835280852082815401905551908152a380f35b634e487b7160e01b865260119052602485fd5b9051631f2a200560e01b8152fd5b905163d92e233d60e01b8152fd5b5050346101ae57816003193601126101ae576020905160068152f35b5082346104af5760603660031901126104af576106176108f5565b61061f610910565b916044359360018060a01b03831680835260016020528683203384526020528683205491600019831061065b575b6020886101dc898989610952565b8683106106c35781156106ac573315610695575082526001602090815286832033845281529186902090859003905582906101dc8761064d565b8751634a1406b160e11b8152908101849052602490fd5b875163e602df0560e01b8152908101849052602490fd5b8751637dc7a0d960e11b8152339181019182526020820193909352604081018790528291506060010390fd5b5050346101ae57816003193601126101ae576020906002549051908152f35b50346101615781600319360112610161576107276108f5565b6024359033156107a0576001600160a01b031691821561078957508083602095338152600187528181208582528752205582519081527f8c5be1e5ebec7d5bd14f71427d1e84f3dd0314c0f7b2291e5b200ac8c7c3b925843392a35160018152f35b8351634a1406b160e11b8152908101859052602490fd5b835163e602df0560e01b8152808401869052602490fd5b849150833461016157826003193601126101615782600354600181811c908083169283156108a2575b602093848410811461040c57838852908115610886575060011461083057505050829003601f01601f191682019267ffffffffffffffff84118385101761038857508291826103849252826108ac565b600387529192508591837fc2575a0e9e593c00f959f8c92f12db2869c3395a3b0502d05e2516446f71f85b5b8385106108725750505050830101858080610352565b80548886018301529301928490820161085c565b60ff1916878501525050151560051b8401019050858080610352565b91607f16916107e0565b6020808252825181830181905290939260005b8281106108e157505060409293506000838284010152601f8019910116010190565b8181018601518482016040015285016108bf565b600435906001600160a01b038216820361090b57565b600080fd5b602435906001600160a01b038216820361090b57565b6005546001600160a01b0316330361093a57565b60405163118cdaa760e01b8152336004820152602490fd5b916001600160a01b03808416928315610a1757169283156109fe57600090838252816020526040822054908382106109cc575091604082827fddf252ad1be2c89b69c2b068fc378daa952ba7f163c4a11628f55a4df523b3ef958760209652828652038282205586815220818154019055604051908152a3565b60405163391434e360e21b81526001600160a01b03919091166004820152602481019190915260448101839052606490fd5b60405163ec442f0560e01b815260006004820152602490fd5b604051634b637e8f60e11b815260006004820152602490fdfea2646970667358221220f9ca076697a7e2dc679ed54e584f447e12f207468735c0b583ba2c07efd4e5f964736f6c63430008140033692c548a7f365f05a7b3a4cf77c7871baf797e4b75547ffacc529c22e4565a95a2646970667358221220a13923ef14eac4d71f87259b4fc76b710e7f3559a524b9a80bb22dce53d3f56064736f6c63430008140033","opcodes":"PUSH1 0xA0 CALLVALUE PUSH3 0x10A JUMPI PUSH1 0x1F PUSH3 0x51EA CODESIZE DUP2 SWAP1 SUB SWAP2 DUP3 ADD PUSH1 0x1F NOT AND DUP4 ADD SWAP2 PUSH1 0x1 PUSH1 0x1 PUSH1 0x40 SHL SUB DUP4 GT DUP5 DUP5 LT OR PUSH3 0x10F JUMPI DUP1 DUP5 SWAP3 PUSH1 0x20 SWAP5 PUSH1 0x40 MSTORE DUP4 CODECOPY DUP2 ADD SUB SLT PUSH3 0x10A JUMPI MLOAD PUSH1 0x1 PUSH1 0x1 PUSH1 0xA0 SHL SUB DUP2 AND SWAP1 DUP2 SWAP1 SUB PUSH3 0x10A JUMPI PUSH1 0x1 PUSH1 0x0 SSTORE PUSH1 0x64 PUSH1 0x2 SSTORE DUP1 ISZERO PUSH3 0xF8 JUMPI PUSH1 0x80 MSTORE PUSH3 0x75 CALLER PUSH3 0x125 JUMP JUMPDEST POP PUSH1 0x40 MLOAD PUSH2 0x5032 SWAP1 DUP2 PUSH3 0x1B8 DUP3 CODECOPY PUSH1 0x80 MLOAD DUP2 DUP2 DUP2 PUSH2 0x1B9 ADD MSTORE DUP2 DUP2 PUSH2 0x35E ADD MSTORE DUP2 DUP2 PUSH2 0x106F ADD MSTORE DUP2 DUP2 PUSH2 0x10CA ADD MSTORE DUP2 DUP2 PUSH2 0x151C ADD MSTORE DUP2 DUP2 PUSH2 0x157B ADD MSTORE DUP2 DUP2 PUSH2 0x1BD4 ADD MSTORE DUP2 DUP2 PUSH2 0x1C3F ADD MSTORE DUP2 DUP2 PUSH2 0x1C90 ADD MSTORE DUP2 DUP2 PUSH2 0x1D40 ADD MSTORE DUP2 DUP2 PUSH2 0x22BA ADD MSTORE DUP2 DUP2 PUSH2 0x2318 ADD MSTORE DUP2 DUP2 PUSH2 0x2363 ADD MSTORE DUP2 DUP2 PUSH2 0x23C1 ADD MSTORE DUP2 DUP2 PUSH2 0x2D82 ADD MSTORE PUSH2 0x2FE3 ADD MSTORE RETURN JUMPDEST PUSH1 0x40 MLOAD PUSH4 0xD92E233D PUSH1 0xE0 SHL DUP2 MSTORE PUSH1 0x4 SWAP1 REVERT JUMPDEST PUSH1 0x0 DUP1 REVERT JUMPDEST PUSH4 0x4E487B71 PUSH1 0xE0 SHL PUSH1 0x0 MSTORE PUSH1 0x41 PUSH1 0x4 MSTORE PUSH1 0x24 PUSH1 0x0 REVERT JUMPDEST PUSH1 0x1 PUSH1 0x1 PUSH1 0xA0 SHL SUB AND PUSH1 0x0 DUP2 DUP2 MSTORE PUSH32 0xA6EEF7E35ABE7026729641147F7915573C7E97B47EFA546F5F6E3230263BCB49 PUSH1 0x20 MSTORE PUSH1 0x40 DUP2 KECCAK256 SLOAD SWAP1 SWAP2 SWAP1 PUSH1 0xFF AND PUSH3 0x1B3 JUMPI DUP2 DUP1 MSTORE PUSH1 0x1 PUSH1 0x20 MSTORE PUSH1 0x40 DUP3 KECCAK256 DUP2 DUP4 MSTORE PUSH1 0x20 MSTORE PUSH1 0x40 DUP3 KECCAK256 PUSH1 0x1 PUSH1 0xFF NOT DUP3 SLOAD AND OR SWAP1 SSTORE CALLER SWAP2 PUSH32 0x2F8788117E7EFF1D82E926EC794901D17C78024A50270940304540A733656F0D DUP2 DUP1 LOG4 PUSH1 0x1 SWAP1 JUMP JUMPDEST POP SWAP1 JUMP INVALID PUSH1 0xE0 DUP1 PUSH1 0x40 MSTORE PUSH1 0x4 CALLDATASIZE LT ISZERO PUSH3 0x14 JUMPI PUSH1 0x0 DUP1 REVERT JUMPDEST PUSH1 0x0 SWAP1 DUP2 CALLDATALOAD PUSH1 0xE0 SHR SWAP1 DUP2 PUSH4 0x1FFC9A7 EQ PUSH3 0x37EA JUMPI POP DUP1 PUSH4 0x5B6AC6B EQ PUSH3 0x3761 JUMPI DUP1 PUSH4 0x248A9CA3 EQ PUSH3 0x3733 JUMPI DUP1 PUSH4 0x2F2FF15D EQ PUSH3 0x36ED JUMPI DUP1 PUSH4 0x36568ABE EQ PUSH3 0x369E JUMPI DUP1 PUSH4 0x398C6F7E EQ PUSH3 0x3621 JUMPI DUP1 PUSH4 0x5778472A EQ PUSH3 0x3434 JUMPI DUP1 PUSH4 0x5E2C8EEE EQ PUSH3 0x33DA JUMPI DUP1 PUSH4 0x5E382837 EQ PUSH3 0x32F5 JUMPI DUP1 PUSH4 0x63C69F08 EQ PUSH3 0x3279 JUMPI DUP1 PUSH4 0x71DE2FFC EQ PUSH3 0x2E81 JUMPI DUP1 PUSH4 0x7489EC23 EQ PUSH3 0x2C7C JUMPI DUP1 PUSH4 0x7564912B EQ PUSH3 0x2B91 JUMPI DUP1 PUSH4 0x762F5618 EQ PUSH3 0x2AD9 JUMPI DUP1 PUSH4 0x779A9683 EQ PUSH3 0x2A84 JUMPI DUP1 PUSH4 0x856652E9 EQ PUSH3 0x2A27 JUMPI DUP1 PUSH4 0x865EC35E EQ PUSH3 0x29B5 JUMPI DUP1 PUSH4 0x91D14854 EQ PUSH3 0x2965 JUMPI DUP1 PUSH4 0x92A42D1D EQ PUSH3 0x2915 JUMPI DUP1 PUSH4 0x9C3F1E90 EQ PUSH3 0x2840 JUMPI DUP1 PUSH4 0xA217FDDF EQ PUSH3 0x2822 JUMPI DUP1 PUSH4 0xA674537F EQ PUSH3 0x2802 JUMPI DUP1 PUSH4 0xB4A78088 EQ PUSH3 0x2771 JUMPI DUP1 PUSH4 0xB6507C2D EQ PUSH3 0xF6A JUMPI DUP1 PUSH4 0xBDB83289 EQ PUSH3 0xEFF JUMPI DUP1 PUSH4 0xC3C95C7B EQ PUSH3 0xCE9 JUMPI DUP1 PUSH4 0xD547741F EQ PUSH3 0xC9F JUMPI DUP1 PUSH4 0xD54C786E EQ PUSH3 0x607 JUMPI DUP1 PUSH4 0xE1F1C4A7 EQ PUSH3 0x5E8 JUMPI DUP1 PUSH4 0xE49B606C EQ PUSH3 0x228 JUMPI DUP1 PUSH4 0xF5B541A6 EQ PUSH3 0x1EB JUMPI PUSH4 0xFBFA77CF EQ PUSH3 0x1A2 JUMPI PUSH1 0x0 DUP1 REVERT JUMPDEST CALLVALUE PUSH3 0x1E8 JUMPI DUP1 PUSH1 0x3 NOT CALLDATASIZE ADD SLT PUSH3 0x1E8 JUMPI PUSH1 0x40 MLOAD PUSH32 0x0 PUSH1 0x1 PUSH1 0x1 PUSH1 0xA0 SHL SUB AND DUP2 MSTORE PUSH1 0x20 SWAP1 RETURN JUMPDEST DUP1 REVERT JUMPDEST POP CALLVALUE PUSH3 0x1E8 JUMPI DUP1 PUSH1 0x3 NOT CALLDATASIZE ADD SLT PUSH3 0x1E8 JUMPI PUSH1 0x20 PUSH1 0x40 MLOAD PUSH32 0x97667070C54EF182B0F5858B034BEAC1B6F3089AA2D3188BB1E8929F4FA9B929 DUP2 MSTORE RETURN JUMPDEST POP CALLVALUE PUSH3 0x1E8 JUMPI PUSH1 0x20 DUP1 PUSH1 0x3 NOT CALLDATASIZE ADD SLT PUSH3 0x51B JUMPI PUSH1 0x4 CALLDATALOAD PUSH3 0x24A PUSH3 0x3D9E JUMP JUMPDEST DUP1 DUP4 MSTORE PUSH1 0x5 DUP3 MSTORE PUSH1 0x40 DUP4 KECCAK256 PUSH1 0x7 DUP2 ADD SLOAD PUSH1 0xFF DUP2 AND PUSH1 0x4 DUP2 LT ISZERO PUSH3 0x5D4 JUMPI PUSH1 0x2 SUB PUSH3 0x5C2 JUMPI DUP3 DUP6 MSTORE PUSH1 0x9 DUP5 MSTORE PUSH1 0x40 DUP6 KECCAK256 CALLER PUSH1 0x0 MSTORE DUP5 MSTORE PUSH1 0xFF PUSH1 0x40 PUSH1 0x0 KECCAK256 SLOAD AND PUSH3 0x5B0 JUMPI PUSH1 0x8 SHR PUSH1 0xFF AND SWAP1 PUSH3 0x2A1 DUP3 PUSH3 0x3844 JUMP JUMPDEST DUP2 PUSH3 0x576 JUMPI PUSH1 0x2 ADD SLOAD PUSH1 0x1 PUSH1 0x1 PUSH1 0xA0 SHL SUB AND SWAP3 JUMPDEST PUSH1 0x40 MLOAD PUSH4 0x70A08231 PUSH1 0xE0 SHL DUP2 MSTORE CALLER PUSH1 0x4 DUP3 ADD MSTORE SWAP4 PUSH1 0x1 PUSH1 0x1 PUSH1 0xA0 SHL SUB SWAP1 DUP2 AND SWAP1 DUP3 DUP7 PUSH1 0x24 DUP2 DUP6 GAS STATICCALL SWAP6 DUP7 ISZERO PUSH3 0x56B JUMPI DUP8 SWAP7 PUSH3 0x531 JUMPI JUMPDEST POP DUP6 ISZERO PUSH3 0x51F JUMPI DUP7 SWAP2 DUP6 DUP4 MSTORE PUSH1 0x9 DUP5 MSTORE PUSH1 0x40 DUP4 KECCAK256 CALLER PUSH1 0x0 MSTORE DUP5 MSTORE PUSH1 0x40 PUSH1 0x0 KECCAK256 PUSH1 0x1 PUSH1 0xFF NOT DUP3 SLOAD AND OR SWAP1 SSTORE DUP1 EXTCODESIZE ISZERO PUSH3 0x4F4 JUMPI PUSH1 0x40 MLOAD PUSH4 0x2770A7EB PUSH1 0xE2 SHL DUP2 MSTORE CALLER PUSH1 0x4 DUP3 ADD MSTORE PUSH1 0x24 DUP2 ADD DUP9 SWAP1 MSTORE SWAP1 DUP4 SWAP1 DUP3 SWAP1 PUSH1 0x44 SWAP1 DUP3 SWAP1 DUP5 SWAP1 GAS CALL SWAP1 DUP2 ISZERO PUSH3 0x4CE JUMPI DUP4 SWAP2 PUSH3 0x503 JUMPI JUMPDEST POP POP DUP1 PUSH32 0x0 AND SWAP1 DUP2 EXTCODESIZE ISZERO PUSH3 0x4F4 JUMPI PUSH1 0x40 MLOAD PUSH4 0x2FE2E93 PUSH1 0xE3 SHL DUP2 MSTORE ADDRESS PUSH1 0x4 DUP3 ADD MSTORE PUSH1 0x24 DUP2 ADD DUP9 SWAP1 MSTORE DUP4 DUP2 PUSH1 0x44 DUP2 DUP4 DUP8 GAS CALL DUP1 ISZERO PUSH3 0x4F8 JUMPI DUP6 SWAP2 DUP6 SWAP2 PUSH3 0x4D9 JUMPI JUMPDEST POP POP PUSH1 0x40 MLOAD PUSH4 0x2C805AF5 PUSH1 0xE2 SHL DUP2 MSTORE SWAP3 DUP4 SWAP1 PUSH1 0x4 SWAP1 DUP3 SWAP1 GAS STATICCALL DUP1 ISZERO PUSH3 0x4CE JUMPI DUP5 SWAP3 DUP5 SWAP2 PUSH3 0x49A JUMPI JUMPDEST POP PUSH1 0x40 MLOAD PUSH4 0xA9059CBB PUSH1 0xE0 SHL DUP2 MSTORE CALLER PUSH1 0x4 DUP3 ADD MSTORE PUSH1 0x24 DUP2 ADD DUP10 SWAP1 MSTORE SWAP4 DUP5 SWAP3 PUSH1 0x44 SWAP3 DUP5 SWAP3 SWAP2 AND GAS CALL DUP1 ISZERO PUSH3 0x48F JUMPI PUSH3 0x45B JUMPI JUMPDEST POP PUSH1 0x40 MLOAD SWAP4 DUP5 MSTORE PUSH3 0x42B DUP3 PUSH3 0x3844 JUMP JUMPDEST DUP4 ADD MSTORE PUSH32 0x5CF4A2169798B2CBF62119844933F2967A22195532E20571634DC50C4D1800CF PUSH1 0x40 CALLER SWAP4 LOG3 PUSH1 0x1 DUP2 SSTORE DUP1 RETURN JUMPDEST PUSH3 0x47F SWAP1 DUP3 RETURNDATASIZE DUP5 GT PUSH3 0x487 JUMPI JUMPDEST PUSH3 0x476 DUP2 DUP4 PUSH3 0x3995 JUMP JUMPDEST DUP2 ADD SWAP1 PUSH3 0x3E05 JUMP JUMPDEST POP CODESIZE PUSH3 0x419 JUMP JUMPDEST POP RETURNDATASIZE PUSH3 0x46A JUMP JUMPDEST PUSH1 0x40 MLOAD RETURNDATASIZE DUP9 DUP3 RETURNDATACOPY RETURNDATASIZE SWAP1 REVERT JUMPDEST PUSH3 0x4BF SWAP2 POP DUP4 RETURNDATASIZE DUP6 GT PUSH3 0x4C6 JUMPI JUMPDEST PUSH3 0x4B6 DUP2 DUP4 PUSH3 0x3995 JUMP JUMPDEST DUP2 ADD SWAP1 PUSH3 0x3DE4 JUMP JUMPDEST CODESIZE PUSH3 0x3E5 JUMP JUMPDEST POP RETURNDATASIZE PUSH3 0x4AA JUMP JUMPDEST PUSH1 0x40 MLOAD RETURNDATASIZE DUP6 DUP3 RETURNDATACOPY RETURNDATASIZE SWAP1 REVERT JUMPDEST PUSH3 0x4E6 SWAP2 SWAP3 POP PUSH3 0x3963 JUMP JUMPDEST PUSH3 0x4F4 JUMPI DUP4 DUP4 CODESIZE PUSH3 0x3BB JUMP JUMPDEST DUP3 DUP1 REVERT JUMPDEST PUSH1 0x40 MLOAD RETURNDATASIZE DUP7 DUP3 RETURNDATACOPY RETURNDATASIZE SWAP1 REVERT JUMPDEST PUSH3 0x50E SWAP1 PUSH3 0x3963 JUMP JUMPDEST PUSH3 0x51B JUMPI DUP2 CODESIZE PUSH3 0x359 JUMP JUMPDEST POP DUP1 REVERT JUMPDEST PUSH1 0x40 MLOAD PUSH4 0x30A748D3 PUSH1 0xE1 SHL DUP2 MSTORE PUSH1 0x4 SWAP1 REVERT JUMPDEST SWAP1 SWAP6 POP DUP3 DUP2 DUP2 RETURNDATASIZE DUP4 GT PUSH3 0x563 JUMPI JUMPDEST PUSH3 0x54C DUP2 DUP4 PUSH3 0x3995 JUMP JUMPDEST DUP2 ADD SUB SLT PUSH3 0x55E JUMPI MLOAD SWAP5 CODESIZE PUSH3 0x2EE JUMP JUMPDEST PUSH1 0x0 DUP1 REVERT JUMPDEST POP RETURNDATASIZE PUSH3 0x540 JUMP JUMPDEST PUSH1 0x40 MLOAD RETURNDATASIZE DUP10 DUP3 RETURNDATACOPY RETURNDATASIZE SWAP1 REVERT JUMPDEST PUSH3 0x581 DUP3 PUSH3 0x3844 JUMP JUMPDEST PUSH1 0x1 DUP3 SUB PUSH3 0x59E JUMPI PUSH1 0x3 ADD SLOAD PUSH1 0x1 PUSH1 0x1 PUSH1 0xA0 SHL SUB AND SWAP3 PUSH3 0x2B6 JUMP JUMPDEST PUSH1 0x40 MLOAD PUSH4 0xC74A206D PUSH1 0xE0 SHL DUP2 MSTORE PUSH1 0x4 SWAP1 REVERT JUMPDEST PUSH1 0x40 MLOAD PUSH4 0xC8D9EAB PUSH1 0xE3 SHL DUP2 MSTORE PUSH1 0x4 SWAP1 REVERT JUMPDEST PUSH1 0x40 MLOAD PUSH4 0x174B6393 PUSH1 0xE1 SHL DUP2 MSTORE PUSH1 0x4 SWAP1 REVERT JUMPDEST PUSH4 0x4E487B71 PUSH1 0xE0 SHL DUP7 MSTORE PUSH1 0x21 PUSH1 0x4 MSTORE PUSH1 0x24 DUP7 REVERT JUMPDEST POP CALLVALUE PUSH3 0x1E8 JUMPI DUP1 PUSH1 0x3 NOT CALLDATASIZE ADD SLT PUSH3 0x1E8 JUMPI PUSH1 0x20 PUSH1 0x40 MLOAD PUSH2 0x2710 DUP2 MSTORE RETURN JUMPDEST POP CALLVALUE PUSH3 0x1E8 JUMPI PUSH1 0x80 CALLDATASIZE PUSH1 0x3 NOT ADD SLT PUSH3 0x1E8 JUMPI PUSH8 0xFFFFFFFFFFFFFFFF PUSH1 0x24 CALLDATALOAD GT PUSH3 0x1E8 JUMPI CALLDATASIZE PUSH1 0x23 PUSH1 0x24 CALLDATALOAD ADD SLT ISZERO PUSH3 0x1E8 JUMPI PUSH8 0xFFFFFFFFFFFFFFFF PUSH1 0x24 CALLDATALOAD PUSH1 0x4 ADD CALLDATALOAD GT PUSH3 0x1E8 JUMPI CALLDATASIZE PUSH1 0x24 DUP1 CALLDATALOAD PUSH1 0x4 ADD CALLDATALOAD DUP2 CALLDATALOAD ADD ADD GT PUSH3 0x1E8 JUMPI PUSH1 0x64 CALLDATALOAD PUSH1 0x1 PUSH1 0x1 PUSH1 0xA0 SHL SUB DUP2 AND SWAP1 SUB PUSH3 0x55E JUMPI PUSH3 0x682 PUSH3 0x3AC4 JUMP JUMPDEST PUSH1 0x4 CALLDATALOAD DUP2 MSTORE PUSH1 0x5 PUSH1 0x20 MSTORE PUSH1 0x9 PUSH1 0x40 DUP3 KECCAK256 ADD SLOAD PUSH3 0xC8D JUMPI PUSH1 0x64 CALLDATALOAD PUSH1 0x1 PUSH1 0x1 PUSH1 0xA0 SHL SUB AND ISZERO PUSH3 0xC7B JUMPI PUSH3 0x6B8 PUSH1 0x4 CALLDATALOAD PUSH3 0x4044 JUMP JUMPDEST PUSH3 0x6F6 PUSH1 0x24 PUSH1 0x40 MLOAD DUP1 SWAP4 PUSH4 0x5945532D PUSH1 0xE0 SHL PUSH1 0x20 DUP4 ADD MSTORE PUSH3 0x6E5 DUP2 MLOAD DUP1 SWAP3 PUSH1 0x20 DUP7 DUP7 ADD SWAP2 ADD PUSH3 0x3A6A JUMP JUMPDEST DUP2 ADD SUB PUSH1 0x4 DUP2 ADD DUP5 MSTORE ADD DUP3 PUSH3 0x3995 JUMP JUMPDEST PUSH3 0x703 PUSH1 0x4 CALLDATALOAD PUSH3 0x4044 JUMP JUMPDEST SWAP1 PUSH3 0x741 PUSH1 0x23 PUSH1 0x40 MLOAD DUP1 SWAP5 PUSH3 0x4E4F2D PUSH1 0xE8 SHL PUSH1 0x20 DUP4 ADD MSTORE PUSH3 0x730 DUP2 MLOAD DUP1 SWAP3 PUSH1 0x20 DUP7 DUP7 ADD SWAP2 ADD PUSH3 0x3A6A JUMP JUMPDEST DUP2 ADD SUB PUSH1 0x3 DUP2 ADD DUP6 MSTORE ADD DUP4 PUSH3 0x3995 JUMP JUMPDEST PUSH1 0x40 MLOAD SWAP1 DUP2 PUSH2 0xEC7 DUP2 ADD LT PUSH8 0xFFFFFFFFFFFFFFFF PUSH2 0xEC7 DUP5 ADD GT OR PUSH3 0xC67 JUMPI DUP2 PUSH3 0x784 PUSH1 0x40 SWAP3 PUSH2 0xEC7 PUSH3 0x4116 DUP5 CODECOPY PUSH1 0xA0 PUSH2 0xEC7 DUP5 ADD DUP2 DUP2 MSTORE ADD SWAP1 PUSH3 0x3A8F JUMP JUMPDEST PUSH2 0xEC7 DUP3 ADD DUP1 DUP3 SUB PUSH1 0x20 DUP1 DUP4 ADD SWAP2 SWAP1 SWAP2 MSTORE PUSH1 0x3 DUP4 MSTORE PUSH3 0x594553 PUSH1 0xE8 SHL SWAP1 DUP4 ADD MSTORE PUSH1 0x4 CALLDATALOAD DUP5 DUP3 ADD MSTORE PUSH1 0x1 PUSH1 0x60 DUP3 ADD MSTORE ADDRESS PUSH1 0x80 SWAP1 SWAP2 ADD MSTORE SUB ADD SWAP1 DUP4 CREATE SWAP1 DUP2 ISZERO PUSH3 0xC5C JUMPI PUSH1 0x40 MLOAD SWAP1 DUP2 PUSH2 0xEC7 DUP2 ADD LT PUSH8 0xFFFFFFFFFFFFFFFF PUSH2 0xEC7 DUP5 ADD GT OR PUSH3 0xC67 JUMPI DUP2 PUSH3 0x809 PUSH1 0x40 SWAP3 PUSH2 0xEC7 PUSH3 0x4116 DUP5 CODECOPY PUSH1 0xA0 PUSH2 0xEC7 DUP5 ADD DUP2 DUP2 MSTORE ADD SWAP1 PUSH3 0x3A8F JUMP JUMPDEST PUSH2 0xEC7 DUP3 ADD DUP1 DUP3 SUB PUSH1 0x20 DUP1 DUP4 ADD SWAP2 SWAP1 SWAP2 MSTORE PUSH1 0x2 DUP4 MSTORE PUSH2 0x4E4F PUSH1 0xF0 SHL SWAP1 DUP4 ADD MSTORE PUSH1 0x4 CALLDATALOAD DUP5 DUP3 ADD MSTORE PUSH1 0x60 DUP2 ADD DUP8 SWAP1 MSTORE ADDRESS PUSH1 0x80 SWAP1 SWAP2 ADD MSTORE SUB ADD SWAP1 DUP4 CREATE DUP1 ISZERO PUSH3 0xC5C JUMPI PUSH1 0x40 MLOAD PUSH3 0x857 DUP2 PUSH3 0x3945 JUMP JUMPDEST PUSH1 0x4 CALLDATALOAD DUP2 MSTORE PUSH3 0x86D PUSH1 0x24 CALLDATALOAD PUSH1 0x4 ADD CALLDATALOAD PUSH3 0x3CEC JUMP JUMPDEST PUSH3 0x87C PUSH1 0x40 MLOAD SWAP2 DUP3 PUSH3 0x3995 JUMP JUMPDEST PUSH1 0x24 DUP1 CALLDATALOAD PUSH1 0x4 DUP2 ADD CALLDATALOAD DUP1 DUP5 MSTORE SWAP2 ADD PUSH1 0x20 DUP4 ADD CALLDATACOPY DUP5 PUSH1 0x20 PUSH1 0x24 CALLDATALOAD PUSH1 0x4 ADD CALLDATALOAD DUP4 ADD ADD MSTORE PUSH1 0x20 DUP3 ADD MSTORE PUSH1 0x1 DUP1 PUSH1 0xA0 SHL SUB DUP4 AND PUSH1 0x40 DUP3 ADD MSTORE PUSH1 0x1 DUP1 PUSH1 0xA0 SHL SUB DUP3 AND PUSH1 0x60 DUP3 ADD MSTORE DUP4 PUSH1 0x80 DUP3 ADD MSTORE DUP4 PUSH1 0xA0 DUP3 ADD MSTORE DUP4 PUSH1 0xC0 DUP3 ADD MSTORE DUP4 PUSH1 0xE0 DUP3 ADD MSTORE PUSH1 0x2 PUSH2 0x100 DUP3 ADD MSTORE PUSH1 0x44 CALLDATALOAD PUSH2 0x120 DUP3 ADD MSTORE TIMESTAMP PUSH2 0x140 DUP3 ADD MSTORE PUSH1 0x1 DUP1 PUSH1 0xA0 SHL SUB PUSH1 0x64 CALLDATALOAD AND PUSH2 0x160 DUP3 ADD MSTORE PUSH1 0x4 CALLDATALOAD DUP5 MSTORE PUSH1 0x5 PUSH1 0x20 MSTORE PUSH1 0x40 DUP5 KECCAK256 DUP2 MLOAD DUP2 SSTORE PUSH1 0x20 DUP3 ADD MLOAD DUP1 MLOAD SWAP1 PUSH8 0xFFFFFFFFFFFFFFFF DUP3 GT PUSH3 0xC48 JUMPI DUP2 SWAP1 PUSH3 0x93A PUSH1 0x1 DUP6 ADD SLOAD PUSH3 0x3908 JUMP JUMPDEST PUSH1 0x1F DUP2 GT PUSH3 0xBF2 JUMPI JUMPDEST POP PUSH1 0x20 SWAP1 PUSH1 0x1F DUP4 GT PUSH1 0x1 EQ PUSH3 0xB7E JUMPI DUP9 SWAP3 PUSH3 0xB72 JUMPI JUMPDEST POP POP DUP2 PUSH1 0x1 SHL SWAP2 PUSH1 0x0 NOT SWAP1 PUSH1 0x3 SHL SHR NOT AND OR PUSH1 0x1 DUP3 ADD SSTORE JUMPDEST PUSH1 0x2 DUP2 ADD SWAP1 PUSH1 0x1 DUP1 PUSH1 0xA0 SHL SUB PUSH1 0x40 DUP5 ADD MLOAD AND SWAP2 PUSH12 0xFFFFFFFFFFFFFFFFFFFFFFFF PUSH1 0xA0 SHL SWAP3 DUP4 DUP3 SLOAD AND OR SWAP1 SSTORE PUSH1 0x3 DUP2 ADD PUSH1 0x1 DUP1 PUSH1 0xA0 SHL SUB PUSH1 0x60 DUP6 ADD MLOAD AND DUP4 DUP3 SLOAD AND OR SWAP1 SSTORE PUSH1 0x80 DUP4 ADD MLOAD PUSH1 0x4 DUP3 ADD SSTORE PUSH1 0xA0 DUP4 ADD MLOAD PUSH1 0x5 DUP3 ADD SSTORE PUSH1 0xC0 DUP4 ADD MLOAD PUSH1 0x6 DUP3 ADD SSTORE PUSH1 0x7 DUP2 ADD PUSH1 0xE0 DUP5 ADD MLOAD PUSH1 0x4 DUP2 LT ISZERO PUSH3 0xB5E JUMPI PUSH1 0xA SWAP3 SWAP2 PUSH3 0xA15 SWAP2 PUSH1 0xFF DUP1 NOT DUP4 SLOAD AND SWAP2 AND OR DUP2 SSTORE PUSH2 0x100 DUP7 ADD MLOAD SWAP1 PUSH3 0xA0F DUP3 PUSH3 0x3844 JUMP JUMPDEST PUSH3 0x3D09 JUMP JUMPDEST PUSH2 0x120 DUP5 ADD MLOAD PUSH1 0x8 DUP3 ADD SSTORE PUSH2 0x140 DUP5 ADD MLOAD PUSH1 0x9 DUP3 ADD SSTORE ADD SWAP2 PUSH2 0x160 PUSH1 0x1 DUP1 PUSH1 0xA0 SHL SUB SWAP2 ADD MLOAD AND SWAP1 DUP3 SLOAD AND OR SWAP1 SSTORE PUSH1 0xA SLOAD PUSH1 0x1 PUSH1 0x40 SHL DUP2 LT ISZERO PUSH3 0xB48 JUMPI PUSH1 0x1 DUP2 ADD DUP1 PUSH1 0xA SSTORE DUP2 LT ISZERO PUSH3 0xB32 JUMPI PUSH1 0xA PUSH1 0x0 MSTORE PUSH1 0x4 CALLDATALOAD SWAP1 PUSH32 0xC65A7BB8D6351C1CF70C95A316CC6A92839C986682D98BC35F958F4883F9D2A8 ADD SSTORE PUSH3 0xA9B PUSH1 0x64 CALLDATALOAD PUSH3 0x3B44 JUMP JUMPDEST POP PUSH1 0x40 MLOAD SWAP2 PUSH1 0x80 DUP4 MSTORE PUSH1 0x24 CALLDATALOAD PUSH1 0x4 ADD CALLDATALOAD PUSH1 0x80 DUP5 ADD MSTORE PUSH1 0x24 CALLDATALOAD PUSH1 0x4 ADD CALLDATALOAD PUSH1 0x24 DUP1 CALLDATALOAD ADD PUSH1 0xA0 DUP6 ADD CALLDATACOPY PUSH1 0x4 PUSH1 0x24 CALLDATALOAD DUP2 ADD CALLDATALOAD DUP5 DUP2 ADD PUSH1 0xA0 SWAP1 DUP2 ADD DUP8 SWAP1 MSTORE PUSH1 0x1 PUSH1 0x1 PUSH1 0xA0 SHL SUB SWAP4 DUP5 AND PUSH1 0x20 DUP8 ADD MSTORE SWAP4 DUP4 AND PUSH1 0x40 DUP7 ADD MSTORE PUSH1 0x44 CALLDATALOAD PUSH1 0x60 DUP7 ADD MSTORE PUSH1 0x64 CALLDATALOAD SWAP1 SWAP3 AND SWAP4 SWAP1 CALLDATALOAD SWAP3 PUSH32 0xC1EDBA2980B5502D83071709308000BFB589C388CDD039AFE22D224019391228 SWAP3 PUSH1 0x1F ADD PUSH1 0x1F NOT AND DUP3 ADD DUP3 SWAP1 SUB ADD SWAP1 LOG3 DUP1 RETURN JUMPDEST PUSH4 0x4E487B71 PUSH1 0xE0 SHL PUSH1 0x0 MSTORE PUSH1 0x32 PUSH1 0x4 MSTORE PUSH1 0x24 PUSH1 0x0 REVERT JUMPDEST PUSH4 0x4E487B71 PUSH1 0xE0 SHL PUSH1 0x0 MSTORE PUSH1 0x41 PUSH1 0x4 MSTORE PUSH1 0x24 PUSH1 0x0 REVERT JUMPDEST PUSH4 0x4E487B71 PUSH1 0xE0 SHL DUP9 MSTORE PUSH1 0x21 PUSH1 0x4 MSTORE PUSH1 0x24 DUP9 REVERT JUMPDEST ADD MLOAD SWAP1 POP CODESIZE DUP1 PUSH3 0x95C JUMP JUMPDEST SWAP3 POP PUSH1 0x1 DUP5 ADD DUP9 MSTORE PUSH1 0x20 DUP9 KECCAK256 SWAP1 DUP9 SWAP4 JUMPDEST PUSH1 0x1F NOT DUP5 AND DUP6 LT PUSH3 0xBD6 JUMPI PUSH1 0x1 SWAP5 POP DUP4 PUSH1 0x1F NOT DUP2 AND LT PUSH3 0xBBC JUMPI JUMPDEST POP POP POP DUP2 SHL ADD PUSH1 0x1 DUP3 ADD SSTORE PUSH3 0x974 JUMP JUMPDEST ADD MLOAD PUSH1 0x0 NOT PUSH1 0xF8 DUP5 PUSH1 0x3 SHL AND SHR NOT AND SWAP1 SSTORE CODESIZE DUP1 DUP1 PUSH3 0xBAB JUMP JUMPDEST DUP2 DUP2 ADD MLOAD DUP4 SSTORE PUSH1 0x20 SWAP5 DUP6 ADD SWAP5 PUSH1 0x1 SWAP1 SWAP4 ADD SWAP3 SWAP1 SWAP2 ADD SWAP1 PUSH3 0xB8E JUMP JUMPDEST SWAP1 SWAP2 POP PUSH1 0x1 DUP5 ADD DUP9 MSTORE PUSH1 0x20 DUP9 KECCAK256 PUSH1 0x1F DUP5 ADD PUSH1 0x5 SHR DUP2 ADD PUSH1 0x20 DUP6 LT PUSH3 0xC40 JUMPI JUMPDEST SWAP1 DUP5 SWAP4 SWAP3 SWAP2 JUMPDEST PUSH1 0x1F DUP4 ADD PUSH1 0x5 SHR DUP3 ADD DUP2 LT PUSH3 0xC30 JUMPI POP POP PUSH3 0x944 JUMP JUMPDEST PUSH1 0x0 DUP2 SSTORE DUP6 SWAP5 POP PUSH1 0x1 ADD PUSH3 0xC18 JUMP JUMPDEST POP DUP1 PUSH3 0xC12 JUMP JUMPDEST PUSH4 0x4E487B71 PUSH1 0xE0 SHL DUP8 MSTORE PUSH1 0x41 PUSH1 0x4 MSTORE PUSH1 0x24 DUP8 REVERT JUMPDEST PUSH1 0x40 MLOAD RETURNDATASIZE DUP5 DUP3 RETURNDATACOPY RETURNDATASIZE SWAP1 REVERT JUMPDEST PUSH4 0x4E487B71 PUSH1 0xE0 SHL DUP5 MSTORE PUSH1 0x41 PUSH1 0x4 MSTORE PUSH1 0x24 DUP5 REVERT JUMPDEST PUSH1 0x40 MLOAD PUSH4 0xD92E233D PUSH1 0xE0 SHL DUP2 MSTORE PUSH1 0x4 SWAP1 REVERT JUMPDEST PUSH1 0x40 MLOAD PUSH4 0x313B285 PUSH1 0xE0 SHL DUP2 MSTORE PUSH1 0x4 SWAP1 REVERT JUMPDEST POP CALLVALUE PUSH3 0x1E8 JUMPI PUSH1 0x40 CALLDATASIZE PUSH1 0x3 NOT ADD SLT PUSH3 0x1E8 JUMPI PUSH3 0xCE5 PUSH1 0x4 CALLDATALOAD PUSH3 0xCC4 PUSH3 0x3881 JUMP JUMPDEST SWAP1 DUP1 DUP5 MSTORE PUSH1 0x1 PUSH1 0x20 MSTORE PUSH3 0xCDF PUSH1 0x1 PUSH1 0x40 DUP7 KECCAK256 ADD SLOAD PUSH3 0x3B1D JUMP JUMPDEST PUSH3 0x3C74 JUMP JUMPDEST POP DUP1 RETURN JUMPDEST POP CALLVALUE PUSH3 0x1E8 JUMPI PUSH1 0x20 CALLDATASIZE PUSH1 0x3 NOT ADD SLT PUSH3 0x1E8 JUMPI DUP1 PUSH1 0x40 SWAP2 PUSH2 0x160 DUP4 MLOAD PUSH3 0xD11 DUP2 PUSH3 0x3945 JUMP JUMPDEST DUP3 DUP2 MSTORE PUSH1 0x60 PUSH1 0x20 DUP3 ADD MSTORE DUP3 DUP6 DUP3 ADD MSTORE DUP3 PUSH1 0x60 DUP3 ADD MSTORE DUP3 PUSH1 0x80 DUP3 ADD MSTORE DUP3 PUSH1 0xA0 DUP3 ADD MSTORE DUP3 PUSH1 0xC0 DUP3 ADD MSTORE DUP3 PUSH1 0xE0 DUP3 ADD MSTORE DUP3 PUSH2 0x100 DUP3 ADD MSTORE DUP3 PUSH2 0x120 DUP3 ADD MSTORE DUP3 PUSH2 0x140 DUP3 ADD MSTORE ADD MSTORE PUSH1 0x4 CALLDATALOAD DUP2 MSTORE PUSH1 0x5 PUSH1 0x20 MSTORE KECCAK256 PUSH1 0x40 MLOAD SWAP1 PUSH3 0xD6F DUP3 PUSH3 0x3945 JUMP JUMPDEST DUP1 SLOAD DUP3 MSTORE PUSH3 0xD81 PUSH1 0x1 DUP3 ADD PUSH3 0x39B8 JUMP JUMPDEST PUSH1 0x20 DUP4 ADD MSTORE PUSH1 0x2 DUP2 ADD SLOAD PUSH1 0x1 PUSH1 0x1 PUSH1 0xA0 SHL SUB SWAP1 DUP2 AND PUSH1 0x40 DUP5 ADD MSTORE PUSH1 0x3 DUP3 ADD SLOAD AND PUSH1 0x60 DUP4 ADD MSTORE PUSH1 0x4 DUP1 DUP3 ADD SLOAD PUSH1 0x80 DUP5 ADD MSTORE PUSH1 0x5 DUP3 ADD SLOAD PUSH1 0xA0 DUP5 ADD MSTORE PUSH1 0x6 DUP3 ADD SLOAD PUSH1 0xC0 DUP5 ADD MSTORE PUSH1 0x7 DUP3 ADD SLOAD PUSH1 0xFF DUP2 AND SWAP2 DUP3 LT ISZERO PUSH3 0xEE9 JUMPI PUSH1 0xFF SWAP2 PUSH1 0xE0 DUP6 ADD MSTORE PUSH1 0x8 SHR AND PUSH3 0xDEE DUP2 PUSH3 0x3844 JUMP JUMPDEST PUSH2 0x100 DUP4 ADD MSTORE PUSH1 0x8 DUP2 ADD SLOAD PUSH2 0x120 DUP4 ADD MSTORE PUSH1 0x9 DUP2 ADD SLOAD PUSH2 0x140 DUP4 ADD MSTORE PUSH1 0xA PUSH1 0x1 DUP1 PUSH1 0xA0 SHL SUB SWAP2 ADD SLOAD AND PUSH2 0x160 DUP3 ADD MSTORE PUSH1 0x40 MLOAD DUP1 SWAP2 PUSH1 0x20 DUP3 MSTORE DUP1 MLOAD PUSH1 0x20 DUP4 ADD MSTORE PUSH3 0xE4A PUSH1 0x20 DUP3 ADD MLOAD PUSH2 0x180 PUSH1 0x40 DUP6 ADD MSTORE PUSH2 0x1A0 DUP5 ADD SWAP1 PUSH3 0x3A8F JUMP JUMPDEST SWAP1 PUSH1 0x1 DUP1 PUSH1 0xA0 SHL SUB PUSH1 0x40 DUP3 ADD MLOAD AND PUSH1 0x60 DUP5 ADD MSTORE PUSH1 0x1 DUP1 PUSH1 0xA0 SHL SUB PUSH1 0x60 DUP3 ADD MLOAD AND PUSH1 0x80 DUP5 ADD MSTORE PUSH1 0x80 DUP2 ADD MLOAD PUSH1 0xA0 DUP5 ADD MSTORE PUSH1 0xA0 DUP2 ADD MLOAD PUSH1 0xC0 DUP5 ADD MSTORE PUSH1 0xC0 DUP2 ADD MLOAD PUSH1 0xE0 DUP5 ADD MSTORE PUSH3 0xEA2 PUSH1 0xE0 DUP3 ADD MLOAD PUSH2 0x100 DUP6 ADD SWAP1 PUSH3 0x3AB6 JUMP JUMPDEST PUSH2 0x100 DUP2 ADD MLOAD PUSH3 0xEB3 DUP2 PUSH3 0x3844 JUMP JUMPDEST PUSH2 0x120 DUP5 ADD MSTORE PUSH2 0x120 DUP2 ADD MLOAD PUSH2 0x140 DUP5 ADD MSTORE PUSH2 0x140 DUP2 ADD MLOAD PUSH2 0x160 DUP5 ADD MSTORE PUSH2 0x160 PUSH1 0x1 DUP1 PUSH1 0xA0 SHL SUB SWAP2 ADD MLOAD AND PUSH2 0x180 DUP4 ADD MSTORE SUB SWAP1 RETURN JUMPDEST PUSH4 0x4E487B71 PUSH1 0xE0 SHL PUSH1 0x0 MSTORE PUSH1 0x21 PUSH1 0x4 MSTORE PUSH1 0x24 PUSH1 0x0 REVERT JUMPDEST POP CALLVALUE PUSH3 0x1E8 JUMPI PUSH1 0x20 CALLDATASIZE PUSH1 0x3 NOT ADD SLT PUSH3 0x1E8 JUMPI PUSH1 0x4 CALLDATALOAD DUP1 DUP3 MSTORE PUSH1 0x5 PUSH1 0x20 MSTORE PUSH1 0x0 DUP1 MLOAD PUSH1 0x20 PUSH3 0x4FDD DUP4 CODECOPY DUP2 MLOAD SWAP2 MSTORE PUSH1 0x40 PUSH1 0xFF PUSH3 0xF5F PUSH1 0x7 DUP4 DUP8 KECCAK256 PUSH3 0xF46 DUP2 PUSH3 0x3FAB JUMP JUMPDEST ADD DUP1 SLOAD SWAP1 PUSH1 0x3 DUP5 NOT DUP4 AND OR SWAP1 SSTORE DUP4 MLOAD SWAP3 DUP4 SWAP2 AND PUSH3 0x3AB6 JUMP JUMPDEST PUSH1 0x3 PUSH1 0x20 DUP3 ADD MSTORE LOG2 DUP1 RETURN JUMPDEST POP CALLVALUE PUSH3 0x1E8 JUMPI PUSH1 0xC0 CALLDATASIZE PUSH1 0x3 NOT ADD SLT PUSH3 0x1E8 JUMPI PUSH1 0x2 PUSH1 0x24 CALLDATALOAD LT ISZERO PUSH3 0x1E8 JUMPI PUSH1 0x3 PUSH1 0x44 CALLDATALOAD LT ISZERO PUSH3 0x1E8 JUMPI PUSH3 0xFA0 PUSH3 0x3D9E JUMP JUMPDEST PUSH1 0x4 CALLDATALOAD DUP2 MSTORE PUSH1 0x5 PUSH1 0x20 MSTORE PUSH1 0xFF PUSH1 0x7 PUSH1 0x40 DUP4 KECCAK256 ADD SLOAD AND PUSH1 0x4 DUP2 LT ISZERO PUSH3 0x20C3 JUMPI PUSH3 0x275F JUMPI PUSH1 0x64 CALLDATALOAD ISZERO DUP1 ISZERO PUSH3 0x2750 JUMPI JUMPDEST PUSH3 0x273F JUMPI PUSH3 0xFE2 PUSH1 0x44 CALLDATALOAD PUSH3 0x3844 JUMP JUMPDEST PUSH1 0x2 PUSH1 0x44 CALLDATALOAD EQ PUSH3 0x59E JUMPI PUSH1 0x84 CALLDATALOAD ISZERO PUSH3 0x272D JUMPI PUSH3 0x1009 PUSH1 0x84 CALLDATALOAD PUSH1 0x64 CALLDATALOAD PUSH1 0x24 CALLDATALOAD PUSH3 0x3E92 JUMP JUMPDEST PUSH1 0x2 SLOAD DUP2 LT PUSH3 0x272D JUMPI PUSH1 0x3 SLOAD PUSH3 0x1021 DUP2 PUSH3 0x3D6B JUMP JUMPDEST PUSH1 0x3 SSTORE PUSH1 0x40 MLOAD SWAP1 CALLER PUSH1 0x60 SHL PUSH1 0x20 DUP4 ADD MSTORE PUSH1 0x34 DUP3 ADD MSTORE TIMESTAMP PUSH1 0x54 DUP3 ADD MSTORE PUSH1 0x54 DUP2 MSTORE DUP1 PUSH1 0x80 DUP2 ADD LT PUSH8 0xFFFFFFFFFFFFFFFF PUSH1 0x80 DUP4 ADD GT OR PUSH3 0xB48 JUMPI PUSH1 0x80 DUP2 ADD PUSH1 0x40 MSTORE DUP1 MLOAD PUSH1 0x20 DUP3 ADD KECCAK256 PUSH1 0xC0 MSTORE DUP3 SWAP1 PUSH32 0x0 PUSH1 0x1 PUSH1 0x1 PUSH1 0xA0 SHL SUB AND EXTCODESIZE ISZERO PUSH3 0x51B JUMPI PUSH4 0x47A7D107 PUSH1 0xE0 SHL PUSH1 0x80 DUP3 ADD SWAP1 DUP2 MSTORE CALLER PUSH1 0x84 DUP4 ADD MSTORE PUSH1 0xA4 DUP3 ADD DUP5 SWAP1 MSTORE DUP3 SWAP1 PUSH1 0x44 DUP2 DUP4 PUSH1 0x1 PUSH1 0x1 PUSH1 0xA0 SHL SUB PUSH32 0x0 AND GAS CALL DUP1 ISZERO PUSH3 0xC5C JUMPI PUSH3 0x2712 JUMPI JUMPDEST POP POP PUSH1 0x40 MLOAD SWAP1 PUSH3 0x110A DUP3 PUSH3 0x3945 JUMP JUMPDEST PUSH1 0xC0 MLOAD DUP3 MSTORE PUSH1 0x4 CALLDATALOAD PUSH1 0x20 DUP4 ADD MSTORE CALLER PUSH1 0x40 DUP4 ADD MSTORE PUSH3 0x112E PUSH1 0x24 CALLDATALOAD PUSH1 0x60 DUP5 ADD PUSH3 0x3D91 JUMP JUMPDEST PUSH3 0x113B PUSH1 0x44 CALLDATALOAD PUSH3 0x3844 JUMP JUMPDEST PUSH1 0x44 CALLDATALOAD PUSH1 0x80 DUP4 ADD MSTORE PUSH1 0x64 CALLDATALOAD PUSH1 0xA0 DUP4 ADD MSTORE PUSH1 0x84 CALLDATALOAD PUSH1 0xC0 DUP4 ADD MSTORE DUP3 PUSH1 0xE0 DUP4 ADD MSTORE PUSH2 0x100 DUP3 ADD MSTORE DUP2 PUSH2 0x120 DUP3 ADD MSTORE TIMESTAMP PUSH2 0x140 DUP3 ADD MSTORE PUSH1 0xA4 CALLDATALOAD PUSH2 0x160 DUP3 ADD MSTORE PUSH1 0xC0 MLOAD DUP3 MSTORE PUSH1 0x6 PUSH1 0x20 MSTORE PUSH1 0x40 DUP3 KECCAK256 SWAP1 DUP1 MLOAD DUP3 SSTORE PUSH1 0x20 DUP2 ADD MLOAD PUSH1 0x1 DUP4 ADD SSTORE PUSH1 0x1 DUP1 PUSH1 0xA0 SHL SUB PUSH1 0x40 DUP3 ADD MLOAD AND PUSH1 0x2 DUP4 ADD SLOAD PUSH1 0x60 DUP4 ADD MLOAD SWAP2 PUSH1 0x2 DUP4 LT ISZERO PUSH3 0x5D4 JUMPI PUSH1 0x80 DUP5 ADD MLOAD PUSH3 0x11C5 DUP2 PUSH3 0x3844 JUMP JUMPDEST PUSH3 0x11D0 DUP2 PUSH3 0x3844 JUMP JUMPDEST PUSH1 0xFF PUSH1 0xA8 SHL SWAP1 PUSH1 0xA8 SHL AND SWAP3 PUSH1 0xFF PUSH1 0xA0 SHL SWAP1 PUSH1 0xA0 SHL AND SWAP2 PUSH10 0xFFFFFFFFFFFFFFFFFFFF PUSH1 0xB0 SHL AND OR OR OR PUSH1 0x2 DUP4 ADD SSTORE PUSH1 0xA0 DUP2 ADD MLOAD PUSH1 0x3 DUP4 ADD SSTORE PUSH1 0xC0 DUP2 ADD MLOAD PUSH1 0x4 DUP4 ADD SSTORE PUSH1 0xE0 DUP2 ADD MLOAD PUSH1 0x5 DUP4 ADD SSTORE PUSH2 0x100 DUP2 ADD MLOAD PUSH1 0x6 DUP4 ADD SSTORE PUSH2 0x120 DUP2 ADD MLOAD PUSH1 0x5 DUP2 LT ISZERO PUSH3 0x26FE JUMPI PUSH1 0x9 SWAP2 PUSH2 0x160 SWAP2 PUSH1 0xFF DUP1 NOT PUSH1 0x7 DUP8 ADD SLOAD AND SWAP2 AND OR PUSH1 0x7 DUP6 ADD SSTORE PUSH2 0x140 DUP2 ADD MLOAD PUSH1 0x8 DUP6 ADD SSTORE ADD MLOAD SWAP2 ADD SSTORE PUSH1 0x4 CALLDATALOAD DUP2 MSTORE PUSH1 0x7 PUSH1 0x20 MSTORE PUSH1 0x40 DUP2 KECCAK256 PUSH3 0x127A PUSH1 0x44 CALLDATALOAD PUSH3 0x3844 JUMP JUMPDEST PUSH1 0x44 CALLDATALOAD DUP3 MSTORE PUSH1 0x20 MSTORE PUSH3 0x12A0 PUSH1 0xC0 MLOAD PUSH3 0x129A PUSH1 0x24 CALLDATALOAD PUSH1 0x40 DUP6 KECCAK256 PUSH3 0x384F JUMP JUMPDEST PUSH3 0x3D2A JUMP JUMPDEST CALLER DUP2 MSTORE PUSH1 0x8 PUSH1 0x20 MSTORE PUSH3 0x12B9 PUSH1 0xC0 MLOAD PUSH1 0x40 DUP4 KECCAK256 PUSH3 0x3D2A JUMP JUMPDEST PUSH1 0x40 MLOAD PUSH3 0x12CA DUP2 PUSH1 0x24 CALLDATALOAD PUSH3 0x38EC JUMP JUMPDEST PUSH3 0x12D7 PUSH1 0x44 CALLDATALOAD PUSH3 0x3844 JUMP JUMPDEST PUSH1 0x44 CALLDATALOAD PUSH1 0x20 DUP3 ADD MSTORE PUSH1 0x64 CALLDATALOAD PUSH1 0x40 DUP3 ADD MSTORE PUSH1 0x84 CALLDATALOAD PUSH1 0x60 DUP3 ADD MSTORE PUSH1 0xC0 MLOAD SWAP1 CALLER SWAP1 DUP3 PUSH32 0x4F8271A1B8113303635A3D766A78CFF97A00AFBF1B9B0AC18E5490FE68AA1EC5 PUSH1 0x80 PUSH1 0x4 CALLDATALOAD SWAP4 LOG4 DUP2 MSTORE PUSH1 0x6 PUSH1 0x20 MSTORE PUSH1 0x40 DUP2 KECCAK256 PUSH1 0x1 DUP2 ADD SLOAD DUP1 DUP4 MSTORE PUSH1 0x5 PUSH1 0x20 MSTORE PUSH1 0x40 DUP4 KECCAK256 PUSH1 0x80 MSTORE PUSH1 0x2 DUP3 ADD SLOAD PUSH1 0x2 PUSH1 0xFF DUP3 PUSH1 0xA0 SHR AND LT ISZERO PUSH3 0x26FE JUMPI SWAP1 PUSH3 0x1398 SWAP2 PUSH1 0xFF DUP2 PUSH1 0xA0 SHR AND ISZERO PUSH1 0x0 EQ PUSH3 0x26F6 JUMPI PUSH1 0x1 SWAP2 JUMPDEST DUP6 MSTORE PUSH1 0x7 PUSH1 0x20 MSTORE PUSH1 0xFF PUSH1 0x40 DUP7 KECCAK256 SWAP2 PUSH1 0xA8 SHR AND PUSH3 0x1389 DUP2 PUSH3 0x3844 JUMP JUMPDEST DUP6 MSTORE PUSH1 0x20 MSTORE PUSH1 0x40 DUP5 KECCAK256 PUSH3 0x384F JUMP JUMPDEST SWAP1 DUP3 JUMPDEST DUP3 SLOAD DUP2 LT DUP1 PUSH3 0x26E4 JUMPI JUMPDEST ISZERO PUSH3 0x1862 JUMPI PUSH3 0x13B8 DUP2 DUP5 PUSH3 0x3868 JUMP JUMPDEST SWAP1 SLOAD SWAP1 PUSH1 0x3 SHL SHR SWAP1 DUP2 DUP6 MSTORE PUSH1 0x6 PUSH1 0x20 MSTORE PUSH1 0x40 DUP6 KECCAK256 PUSH3 0x13D7 DUP2 PUSH3 0x3E2D JUMP JUMPDEST ISZERO PUSH3 0x1855 JUMPI PUSH1 0xFF PUSH1 0x2 DUP6 ADD SLOAD PUSH1 0xA0 SHR AND PUSH1 0x2 DUP2 LT ISZERO PUSH3 0x1841 JUMPI PUSH3 0x1830 JUMPI PUSH1 0x3 DUP1 DUP6 ADD SLOAD SWAP2 ADD SLOAD GT ISZERO JUMPDEST ISZERO PUSH3 0x1824 JUMPI PUSH1 0x1 DUP4 ADD SLOAD DUP3 PUSH1 0x0 MSTORE PUSH1 0x6 PUSH1 0x20 MSTORE PUSH1 0x40 PUSH1 0x0 KECCAK256 PUSH1 0xC0 MLOAD PUSH1 0x0 MSTORE PUSH1 0x40 PUSH1 0x0 KECCAK256 SWAP2 PUSH3 0x143D PUSH1 0x4 DUP4 ADD SLOAD PUSH1 0x5 DUP5 ADD SLOAD SWAP1 PUSH3 0x3DC2 JUMP JUMPDEST PUSH3 0x1452 PUSH1 0x4 DUP6 ADD SLOAD PUSH1 0x5 DUP7 ADD SLOAD SWAP1 PUSH3 0x3DC2 JUMP JUMPDEST DUP1 DUP3 LT ISZERO PUSH3 0x181B JUMPI POP SWAP3 JUMPDEST PUSH1 0x3 DUP4 ADD SLOAD SWAP6 PUSH1 0x4 SLOAD PUSH3 0x1472 DUP2 PUSH3 0x3D6B JUMP JUMPDEST PUSH1 0x4 SSTORE PUSH1 0x40 MLOAD PUSH1 0x20 DUP2 ADD SWAP2 DUP3 MSTORE TIMESTAMP PUSH1 0x40 DUP3 ADD MSTORE PUSH1 0x40 DUP2 MSTORE PUSH3 0x1494 DUP2 PUSH3 0x3978 JUMP JUMPDEST MLOAD SWAP1 KECCAK256 SWAP7 PUSH3 0x14A8 DUP7 PUSH1 0x5 DUP8 ADD SLOAD PUSH3 0x3E1F JUMP JUMPDEST PUSH1 0x5 DUP7 ADD SSTORE PUSH3 0x14BD DUP7 PUSH1 0x5 DUP6 ADD SLOAD PUSH3 0x3E1F JUMP JUMPDEST PUSH1 0x5 DUP5 ADD SSTORE PUSH1 0xFF PUSH1 0x2 DUP7 ADD SLOAD PUSH1 0xA0 SHR AND SWAP5 PUSH1 0x2 DUP7 LT ISZERO PUSH3 0xEE9 JUMPI DUP6 PUSH3 0x1811 JUMPI PUSH1 0x1 DUP2 SWAP7 JUMPDEST SUB PUSH3 0x1809 JUMPI DUP1 SWAP6 JUMPDEST PUSH2 0x2710 PUSH3 0x14FB DUP5 DUP11 PUSH3 0x3DD0 JUMP JUMPDEST PUSH1 0x2 DUP4 DUP2 ADD SLOAD SWAP1 DUP11 ADD SLOAD SWAP3 SWAP1 SWAP2 DIV SWAP2 PUSH1 0x1 PUSH1 0x1 PUSH1 0xA0 SHL SUB SWAP2 DUP3 AND SWAP2 SWAP1 DUP2 AND SWAP1 PUSH32 0x0 AND EXTCODESIZE ISZERO PUSH3 0x55E JUMPI PUSH1 0x40 MLOAD PUSH3 0x30582B PUSH1 0xE8 SHL DUP2 MSTORE PUSH1 0x1 PUSH1 0x1 PUSH1 0xA0 SHL SUB SWAP3 DUP4 AND PUSH1 0x4 DUP3 ADD MSTORE SWAP2 AND PUSH1 0x24 DUP3 ADD MSTORE PUSH1 0x44 DUP2 ADD SWAP2 SWAP1 SWAP2 MSTORE PUSH1 0x0 DUP2 DUP1 PUSH1 0x64 DUP2 ADD SUB DUP2 DUP4 PUSH32 0x0 PUSH1 0x1 PUSH1 0x1 PUSH1 0xA0 SHL SUB AND GAS CALL DUP1 ISZERO PUSH3 0x17C2 JUMPI PUSH3 0x17F7 JUMPI JUMPDEST POP PUSH1 0xFF PUSH1 0x2 DUP3 ADD SLOAD PUSH1 0xA8 SHR AND PUSH3 0x15C9 DUP2 PUSH3 0x3844 JUMP JUMPDEST PUSH3 0x17E0 JUMPI PUSH1 0x80 MLOAD PUSH1 0x2 ADD SLOAD PUSH1 0x1 PUSH1 0x1 PUSH1 0xA0 SHL SUB AND SWAP7 JUMPDEST PUSH1 0x2 ADD SLOAD PUSH1 0x1 PUSH1 0x1 PUSH1 0xA0 SHL SUB SWAP1 DUP2 AND SWAP1 DUP9 AND EXTCODESIZE ISZERO PUSH3 0x55E JUMPI PUSH1 0x40 MLOAD PUSH4 0x2770A7EB PUSH1 0xE2 SHL DUP2 MSTORE PUSH1 0x1 PUSH1 0x1 PUSH1 0xA0 SHL SUB SWAP1 SWAP2 AND PUSH1 0x4 DUP3 ADD MSTORE PUSH1 0x24 DUP2 ADD DUP10 SWAP1 MSTORE PUSH1 0x0 DUP2 DUP1 PUSH1 0x44 DUP2 ADD SUB DUP2 DUP4 PUSH1 0x1 PUSH1 0x1 PUSH1 0xA0 SHL SUB DUP14 AND GAS CALL DUP1 ISZERO PUSH3 0x17C2 JUMPI PUSH3 0x17CE JUMPI JUMPDEST POP PUSH1 0x2 ADD SLOAD PUSH1 0x1 PUSH1 0x1 PUSH1 0xA0 SHL SUB SWAP1 DUP2 AND SWAP7 SWAP1 DUP2 AND EXTCODESIZE ISZERO PUSH3 0x55E JUMPI PUSH1 0x40 MLOAD PUSH4 0x40C10F19 PUSH1 0xE0 SHL DUP2 MSTORE PUSH1 0x1 PUSH1 0x1 PUSH1 0xA0 SHL SUB SWAP8 DUP9 AND PUSH1 0x4 DUP3 ADD MSTORE PUSH1 0x24 DUP2 ADD DUP10 SWAP1 MSTORE SWAP7 PUSH1 0x0 SWAP2 DUP9 SWAP2 PUSH1 0x44 SWAP2 DUP4 SWAP2 DUP6 SWAP2 AND GAS CALL SWAP5 DUP6 ISZERO PUSH3 0x17C2 JUMPI PUSH1 0x1 SWAP10 PUSH32 0xA891D459CC19A94041344FD3F05544A8E2AC8CD799B693377166F326745DB076 PUSH1 0xA0 PUSH3 0x173F SWAP6 PUSH1 0x40 SWAP11 PUSH3 0x1780 SWAP11 PUSH3 0x17B0 JUMPI JUMPDEST POP PUSH1 0x5 DUP7 ADD SLOAD PUSH1 0x4 DUP8 ADD SLOAD SUB PUSH3 0x179C JUMPI PUSH1 0x7 DUP7 ADD PUSH1 0x2 PUSH1 0xFF NOT DUP3 SLOAD AND OR SWAP1 SSTORE PUSH3 0x170E DUP9 PUSH1 0x2 DUP9 ADD SLOAD PUSH1 0xFF DUP1 DUP3 DUP8 SHR AND SWAP2 PUSH1 0xA8 SHR AND DUP9 PUSH3 0x3EBE JUMP JUMPDEST DUP11 MLOAD SWAP1 DUP9 DUP3 MSTORE PUSH1 0xC0 MLOAD PUSH1 0x20 DUP4 ADD MSTORE PUSH1 0x0 DUP13 DUP4 ADD MSTORE DUP13 PUSH1 0x60 DUP4 ADD MSTORE PUSH1 0x80 DUP3 ADD MSTORE LOG3 PUSH1 0x5 PUSH1 0x4 DUP3 ADD SLOAD SWAP2 ADD SLOAD SWAP1 PUSH3 0x3DC2 JUMP JUMPDEST DUP5 MLOAD SWAP1 DUP7 DUP3 MSTORE PUSH1 0x20 DUP3 ADD MSTORE PUSH32 0xB38583F2ADB435CAC858DB9D3E8D3CA952CCB32307E2F3D0053B415D2D293481 SWAP5 DUP6 SWAP2 LOG2 PUSH1 0x5 PUSH1 0x4 DUP3 ADD SLOAD SWAP2 ADD SLOAD SWAP1 PUSH3 0x3DC2 JUMP JUMPDEST PUSH1 0x40 MLOAD SWAP3 DUP4 MSTORE PUSH1 0x20 DUP4 ADD MSTORE PUSH1 0x40 PUSH1 0xC0 MLOAD SWAP3 LOG2 ADD SWAP2 JUMPDEST SWAP2 PUSH3 0x139B JUMP JUMPDEST PUSH1 0x7 DUP7 ADD DUP1 SLOAD PUSH1 0xFF NOT AND DUP16 OR SWAP1 SSTORE PUSH3 0x170E JUMP JUMPDEST PUSH3 0x17BB SWAP1 PUSH3 0x3963 JUMP JUMPDEST CODESIZE PUSH3 0x16D1 JUMP JUMPDEST PUSH1 0x40 MLOAD RETURNDATASIZE PUSH1 0x0 DUP3 RETURNDATACOPY RETURNDATASIZE SWAP1 REVERT JUMPDEST PUSH3 0x17D9 SWAP1 PUSH3 0x3963 JUMP JUMPDEST CODESIZE PUSH3 0x1641 JUMP JUMPDEST PUSH1 0x80 MLOAD PUSH1 0x3 ADD SLOAD PUSH1 0x1 PUSH1 0x1 PUSH1 0xA0 SHL SUB AND SWAP7 PUSH3 0x15E0 JUMP JUMPDEST PUSH3 0x1802 SWAP1 PUSH3 0x3963 JUMP JUMPDEST CODESIZE PUSH3 0x15B2 JUMP JUMPDEST DUP4 SWAP6 PUSH3 0x14EC JUMP JUMPDEST PUSH1 0x1 DUP5 SWAP7 PUSH3 0x14E3 JUMP JUMPDEST SWAP1 POP SWAP3 PUSH3 0x145E JUMP JUMPDEST PUSH1 0x1 SWAP2 POP ADD SWAP2 PUSH3 0x1795 JUMP JUMPDEST PUSH1 0x3 DUP1 DUP6 ADD SLOAD SWAP2 ADD SLOAD LT ISZERO PUSH3 0x1403 JUMP JUMPDEST PUSH4 0x4E487B71 PUSH1 0xE0 SHL DUP8 MSTORE PUSH1 0x21 PUSH1 0x4 MSTORE PUSH1 0x24 DUP8 REVERT JUMPDEST POP PUSH1 0x1 SWAP2 POP ADD SWAP2 PUSH3 0x1795 JUMP JUMPDEST DUP4 DUP3 PUSH1 0x2 DUP2 ADD SLOAD PUSH1 0x2 PUSH1 0xFF DUP3 PUSH1 0xA0 SHR AND LT ISZERO PUSH3 0x26D0 JUMPI PUSH1 0xFF DUP2 PUSH1 0xA0 SHR AND ISZERO DUP1 PUSH3 0x26BE JUMPI JUMPDEST PUSH3 0x20D7 JUMPI JUMPDEST POP SWAP1 PUSH1 0x2 DUP3 ADD SLOAD PUSH1 0x2 PUSH1 0xFF DUP3 PUSH1 0xA0 SHR AND LT ISZERO PUSH3 0x20C3 JUMPI PUSH1 0x1 PUSH1 0xFF DUP3 PUSH1 0xA0 SHR AND EQ DUP1 PUSH3 0x20B1 JUMPI JUMPDEST PUSH3 0x1938 JUMPI JUMPDEST POP DUP2 PUSH1 0x5 PUSH1 0x1 SWAP4 ADD SLOAD PUSH1 0x4 DUP3 ADD SLOAD DUP2 EQ PUSH1 0x0 EQ PUSH3 0x1917 JUMPI POP DUP1 PUSH1 0x7 PUSH3 0x190A SWAP3 ADD PUSH1 0x2 PUSH1 0xFF NOT DUP3 SLOAD AND OR SWAP1 SSTORE PUSH1 0x2 DUP5 DUP3 ADD SLOAD SWAP2 ADD SLOAD PUSH1 0xC0 MLOAD SWAP2 PUSH1 0xFF DUP1 DUP4 PUSH1 0xA0 SHR AND SWAP3 PUSH1 0xA8 SHR AND SWAP1 PUSH3 0x3EBE JUMP JUMPDEST SSTORE PUSH1 0x20 PUSH1 0x40 MLOAD PUSH1 0xC0 MLOAD DUP2 MSTORE RETURN JUMPDEST PUSH3 0x1924 JUMPI JUMPDEST POP PUSH3 0x190A JUMP JUMPDEST PUSH1 0x7 ADD DUP1 SLOAD PUSH1 0xFF NOT AND DUP4 OR SWAP1 SSTORE DUP3 PUSH3 0x191D JUMP JUMPDEST PUSH1 0xA8 SHR PUSH1 0xFF AND PUSH3 0x1949 DUP2 PUSH3 0x3844 JUMP JUMPDEST PUSH3 0x20AA JUMPI PUSH1 0x1 JUMPDEST PUSH1 0x1 DUP4 ADD SLOAD DUP3 MSTORE PUSH1 0x7 PUSH1 0x20 MSTORE PUSH1 0x40 DUP3 KECCAK256 SWAP1 PUSH3 0x196D DUP2 PUSH3 0x3844 JUMP JUMPDEST DUP3 MSTORE PUSH1 0x20 MSTORE PUSH1 0x40 DUP2 KECCAK256 PUSH1 0x1 PUSH1 0x0 MSTORE PUSH1 0x20 MSTORE PUSH1 0x40 PUSH1 0x0 KECCAK256 PUSH1 0xA0 MSTORE DUP1 JUMPDEST PUSH1 0xA0 MLOAD DUP1 SLOAD DUP3 LT DUP1 PUSH3 0x2098 JUMPI JUMPDEST ISZERO PUSH3 0x208E JUMPI DUP2 PUSH3 0x19A8 SWAP2 PUSH3 0x3868 JUMP JUMPDEST SWAP1 SLOAD SWAP1 PUSH1 0x3 SHL SHR DUP1 DUP4 MSTORE PUSH1 0x6 PUSH1 0x20 MSTORE PUSH1 0x40 DUP4 KECCAK256 PUSH3 0x19C6 DUP2 PUSH3 0x3E2D JUMP JUMPDEST ISZERO PUSH3 0x2082 JUMPI PUSH3 0x19E4 PUSH2 0x2710 SWAP2 PUSH1 0x3 DUP1 DUP9 ADD SLOAD SWAP2 ADD SLOAD SWAP1 PUSH3 0x3E1F JUMP JUMPDEST GT ISZERO PUSH3 0x19F9 JUMPI JUMPDEST POP PUSH1 0x1 ADD SWAP1 JUMPDEST SWAP1 PUSH3 0x1988 JUMP JUMPDEST PUSH1 0x1 DUP5 ADD SLOAD PUSH1 0x0 SWAP1 DUP3 DUP3 MSTORE PUSH1 0x6 PUSH1 0x20 MSTORE PUSH1 0x40 DUP3 KECCAK256 SWAP3 PUSH1 0xC0 MLOAD DUP4 MSTORE PUSH1 0x40 DUP4 KECCAK256 SWAP2 PUSH1 0x4 DUP6 ADD DUP1 SLOAD SWAP2 PUSH3 0x1A31 PUSH1 0x5 DUP9 ADD SWAP4 DUP5 SLOAD SWAP1 PUSH3 0x3DC2 JUMP JUMPDEST SWAP6 PUSH1 0x4 DUP7 ADD SWAP6 DUP7 SLOAD SWAP8 PUSH3 0x1A4C PUSH1 0x5 DUP4 ADD SWAP10 DUP11 SLOAD SWAP1 PUSH3 0x3DC2 JUMP JUMPDEST DUP1 DUP3 LT ISZERO PUSH3 0x2079 JUMPI POP SWAP9 JUMPDEST PUSH1 0x3 DUP2 ADD SLOAD SWAP2 PUSH1 0x4 SLOAD PUSH3 0x1A6C DUP2 PUSH3 0x3D6B JUMP JUMPDEST PUSH1 0x4 SSTORE PUSH1 0x40 MLOAD PUSH1 0x20 DUP2 ADD SWAP2 DUP3 MSTORE TIMESTAMP PUSH1 0x40 DUP3 ADD MSTORE PUSH1 0x40 DUP2 MSTORE PUSH3 0x1A8E DUP2 PUSH3 0x3978 JUMP JUMPDEST MLOAD SWAP1 KECCAK256 SWAP4 PUSH3 0x1A9F DUP13 DUP10 SLOAD PUSH3 0x3E1F JUMP JUMPDEST DUP9 SSTORE PUSH3 0x1AAE DUP13 DUP13 SLOAD PUSH3 0x3E1F JUMP JUMPDEST DUP12 SSTORE SWAP1 PUSH1 0xFF PUSH1 0x2 DUP5 ADD SLOAD PUSH1 0xA8 SHR AND SWAP1 PUSH3 0x1AC8 DUP3 PUSH3 0x3844 JUMP JUMPDEST DUP2 PUSH3 0x206F JUMPI PUSH1 0x1 DUP5 SWAP3 JUMPDEST PUSH3 0x1ADE DUP2 PUSH3 0x3844 JUMP JUMPDEST SUB PUSH3 0x2069 JUMPI POP DUP3 JUMPDEST PUSH1 0x80 MLOAD PUSH1 0x2 SWAP1 DUP2 ADD SLOAD SWAP1 DUP4 ADD SLOAD PUSH1 0x1 PUSH1 0x1 PUSH1 0xA0 SHL SUB SWAP1 DUP2 AND SWAP2 AND DUP1 EXTCODESIZE ISZERO PUSH3 0x55E JUMPI PUSH1 0x40 MLOAD PUSH4 0x2770A7EB PUSH1 0xE2 SHL DUP2 MSTORE PUSH1 0x1 PUSH1 0x1 PUSH1 0xA0 SHL SUB SWAP3 SWAP1 SWAP3 AND PUSH1 0x4 DUP4 ADD MSTORE PUSH1 0x24 DUP3 ADD DUP16 SWAP1 MSTORE PUSH1 0x0 SWAP1 DUP3 SWAP1 PUSH1 0x44 SWAP1 DUP3 SWAP1 DUP5 SWAP1 GAS CALL DUP1 ISZERO PUSH3 0x17C2 JUMPI PUSH3 0x2052 JUMPI JUMPDEST POP PUSH1 0x80 MLOAD PUSH1 0x3 ADD SLOAD PUSH1 0x2 DUP3 ADD SLOAD PUSH1 0x1 PUSH1 0x1 PUSH1 0xA0 SHL SUB SWAP2 DUP3 AND SWAP2 AND DUP2 EXTCODESIZE ISZERO PUSH3 0x2036 JUMPI PUSH1 0x40 MLOAD PUSH4 0x2770A7EB PUSH1 0xE2 SHL DUP2 MSTORE PUSH1 0x1 PUSH1 0x1 PUSH1 0xA0 SHL SUB SWAP2 SWAP1 SWAP2 AND PUSH1 0x4 DUP3 ADD MSTORE PUSH1 0x24 DUP2 ADD DUP16 SWAP1 MSTORE SWAP1 DUP5 SWAP1 DUP3 SWAP1 PUSH1 0x44 SWAP1 DUP3 SWAP1 DUP5 SWAP1 GAS CALL DUP1 ISZERO PUSH3 0x4F8 JUMPI SWAP1 DUP5 SWAP2 PUSH3 0x203A JUMPI JUMPDEST POP POP DUP13 PUSH3 0x1BD1 PUSH2 0x2710 PUSH3 0x1BC8 PUSH1 0x3 DUP7 ADD SLOAD DUP5 PUSH3 0x3DD0 JUMP JUMPDEST DIV DUP1 SWAP3 PUSH3 0x3DC2 JUMP JUMPDEST SWAP1 PUSH32 0x0 PUSH1 0x1 PUSH1 0x1 PUSH1 0xA0 SHL SUB AND EXTCODESIZE ISZERO PUSH3 0x2036 JUMPI PUSH3 0x1C3A DUP16 DUP7 SWAP1 PUSH1 0x40 MLOAD DUP1 SWAP4 DUP2 SWAP3 PUSH4 0x2FE2E93 PUSH1 0xE3 SHL DUP4 MSTORE ADDRESS PUSH1 0x4 DUP5 ADD PUSH1 0x20 SWAP1 SWAP4 SWAP3 SWAP2 SWAP4 PUSH1 0x40 DUP2 ADD SWAP5 PUSH1 0x1 DUP1 PUSH1 0xA0 SHL SUB AND DUP2 MSTORE ADD MSTORE JUMP JUMPDEST SUB DUP2 DUP4 PUSH32 0x0 PUSH1 0x1 PUSH1 0x1 PUSH1 0xA0 SHL SUB AND GAS CALL DUP1 ISZERO PUSH3 0x48F JUMPI SWAP1 DUP7 SWAP2 PUSH3 0x201E JUMPI JUMPDEST POP POP PUSH1 0x40 MLOAD PUSH4 0x2C805AF5 PUSH1 0xE2 SHL DUP2 MSTORE PUSH1 0x20 DUP2 PUSH1 0x4 DUP2 PUSH32 0x0 PUSH1 0x1 PUSH1 0x1 PUSH1 0xA0 SHL SUB AND GAS STATICCALL SWAP1 DUP2 ISZERO PUSH3 0x48F JUMPI SWAP2 PUSH1 0x20 SWAP2 PUSH3 0x1D10 SWAP4 DUP9 SWAP2 PUSH3 0x1FFC JUMPI JUMPDEST POP PUSH1 0x2 DUP8 ADD SLOAD PUSH1 0x40 MLOAD PUSH4 0xA9059CBB PUSH1 0xE0 SHL DUP2 MSTORE PUSH1 0x1 PUSH1 0x1 PUSH1 0xA0 SHL SUB SWAP1 SWAP2 AND PUSH1 0x4 DUP3 ADD MSTORE PUSH1 0x24 DUP2 ADD SWAP3 SWAP1 SWAP3 MSTORE SWAP1 SWAP3 DUP4 SWAP2 SWAP1 DUP3 SWAP1 DUP10 SWAP1 DUP3 SWAP1 PUSH1 0x44 DUP3 ADD SWAP1 JUMP JUMPDEST SUB SWAP3 PUSH1 0x1 PUSH1 0x1 PUSH1 0xA0 SHL SUB AND GAS CALL DUP1 ISZERO PUSH3 0x1FCD JUMPI PUSH3 0x1FD8 JUMPI JUMPDEST POP PUSH1 0x40 MLOAD PUSH4 0x2C805AF5 PUSH1 0xE2 SHL DUP2 MSTORE PUSH1 0x20 DUP2 PUSH1 0x4 DUP2 PUSH32 0x0 PUSH1 0x1 PUSH1 0x1 PUSH1 0xA0 SHL SUB AND GAS STATICCALL SWAP1 DUP2 ISZERO PUSH3 0x1FCD JUMPI SWAP2 PUSH1 0x20 SWAP2 PUSH3 0x1DC0 SWAP4 DUP8 SWAP2 PUSH3 0x1FAB JUMPI JUMPDEST POP PUSH1 0x2 DUP6 ADD SLOAD PUSH1 0x40 MLOAD PUSH4 0xA9059CBB PUSH1 0xE0 SHL DUP2 MSTORE PUSH1 0x1 PUSH1 0x1 PUSH1 0xA0 SHL SUB SWAP1 SWAP2 AND PUSH1 0x4 DUP3 ADD MSTORE PUSH1 0x24 DUP2 ADD SWAP3 SWAP1 SWAP3 MSTORE SWAP1 SWAP3 DUP4 SWAP2 SWAP1 DUP3 SWAP1 DUP9 SWAP1 DUP3 SWAP1 PUSH1 0x44 DUP3 ADD SWAP1 JUMP JUMPDEST SUB SWAP3 PUSH1 0x1 PUSH1 0x1 PUSH1 0xA0 SHL SUB AND GAS CALL DUP1 ISZERO PUSH3 0x4F8 JUMPI SWAP14 PUSH1 0x1 SWAP16 SWAP15 SWAP7 PUSH1 0x40 SWAP14 SWAP11 SWAP7 DUP3 SWAP16 SWAP13 SWAP9 SWAP7 DUP16 SWAP7 PUSH3 0x1F59 SWAP16 SWAP13 SWAP9 SWAP8 DUP1 PUSH32 0xA891D459CC19A94041344FD3F05544A8E2AC8CD799B693377166F326745DB076 SWAP9 PUSH1 0xA0 SWAP9 PUSH3 0x1F1F SWAP16 SWAP12 PUSH3 0x1F87 JUMPI JUMPDEST POP PUSH1 0x4 PUSH1 0x80 MLOAD ADD PUSH3 0x1E34 DUP10 DUP3 SLOAD PUSH3 0x3DC2 JUMP JUMPDEST SWAP1 SSTORE PUSH1 0x5 PUSH1 0x80 MLOAD ADD PUSH3 0x1E49 DUP10 DUP3 SLOAD PUSH3 0x3DC2 JUMP JUMPDEST SWAP1 SSTORE PUSH1 0x6 PUSH1 0x80 MLOAD ADD PUSH3 0x1E5E DUP10 DUP3 SLOAD PUSH3 0x3DC2 JUMP JUMPDEST SWAP1 SSTORE PUSH1 0x80 MLOAD SLOAD SWAP4 PUSH1 0x1 DUP1 PUSH1 0x2 SWAP2 DUP13 SHL SUB SWAP2 ADD SLOAD AND DUP5 DUP4 MLOAD DUP11 DUP2 MSTORE DUP8 PUSH1 0x20 DUP3 ADD MSTORE PUSH32 0x584C326A6E37F42E5DBBC22753AC897E22621DB83435D9CB96B210D1558D0883 SWAP6 DUP7 SWAP2 LOG3 PUSH1 0x2 ADD SLOAD DUP2 MLOAD SWAP5 DUP6 MSTORE PUSH1 0x20 DUP6 ADD DUP9 SWAP1 MSTORE PUSH1 0x0 NOT PUSH1 0x1 DUP11 SHL ADD AND SWAP4 LOG3 DUP11 DUP10 SLOAD DUP10 SLOAD EQ PUSH1 0x0 EQ PUSH3 0x1F72 JUMPI PUSH1 0x2 DUP3 PUSH1 0x7 PUSH3 0x1EF6 SWAP5 ADD DUP3 PUSH1 0xFF NOT DUP3 SLOAD AND OR SWAP1 SSTORE ADD SLOAD PUSH1 0xFF DUP1 DUP3 DUP9 SHR AND SWAP2 PUSH1 0xA8 SHR AND DUP10 PUSH3 0x3EBE JUMP JUMPDEST DUP14 MLOAD SWAP2 DUP11 DUP4 MSTORE PUSH1 0xC0 MLOAD PUSH1 0x20 DUP5 ADD MSTORE PUSH1 0x2 DUP16 DUP5 ADD MSTORE PUSH1 0x60 DUP4 ADD MSTORE PUSH1 0x80 DUP3 ADD MSTORE LOG3 SLOAD SWAP1 SLOAD SWAP1 PUSH3 0x3DC2 JUMP JUMPDEST DUP6 MLOAD SWAP1 DUP8 DUP3 MSTORE PUSH1 0x20 DUP3 ADD MSTORE PUSH32 0xB38583F2ADB435CAC858DB9D3E8D3CA952CCB32307E2F3D0053B415D2D293481 SWAP6 DUP7 SWAP2 LOG2 SLOAD SWAP1 SLOAD SWAP1 PUSH3 0x3DC2 JUMP JUMPDEST PUSH1 0x40 MLOAD SWAP3 DUP4 MSTORE PUSH1 0x20 DUP4 ADD MSTORE PUSH1 0x40 PUSH1 0xC0 MLOAD SWAP3 LOG2 SWAP1 PUSH3 0x19EC JUMP JUMPDEST POP PUSH1 0x7 ADD DUP1 SLOAD PUSH1 0xFF NOT AND PUSH1 0x1 OR SWAP1 SSTORE PUSH3 0x1EF6 JUMP JUMPDEST PUSH3 0x1FA3 SWAP1 PUSH1 0x20 RETURNDATASIZE PUSH1 0x20 GT PUSH3 0x487 JUMPI PUSH3 0x476 DUP2 DUP4 PUSH3 0x3995 JUMP JUMPDEST POP CODESIZE PUSH3 0x1E20 JUMP JUMPDEST PUSH3 0x1FC6 SWAP2 POP DUP4 RETURNDATASIZE DUP6 GT PUSH3 0x4C6 JUMPI PUSH3 0x4B6 DUP2 DUP4 PUSH3 0x3995 JUMP JUMPDEST CODESIZE PUSH3 0x1D83 JUMP JUMPDEST PUSH1 0x40 MLOAD RETURNDATASIZE DUP8 DUP3 RETURNDATACOPY RETURNDATASIZE SWAP1 REVERT JUMPDEST PUSH3 0x1FF4 SWAP1 PUSH1 0x20 RETURNDATASIZE PUSH1 0x20 GT PUSH3 0x487 JUMPI PUSH3 0x476 DUP2 DUP4 PUSH3 0x3995 JUMP JUMPDEST POP CODESIZE PUSH3 0x1D2A JUMP JUMPDEST PUSH3 0x2017 SWAP2 POP DUP4 RETURNDATASIZE DUP6 GT PUSH3 0x4C6 JUMPI PUSH3 0x4B6 DUP2 DUP4 PUSH3 0x3995 JUMP JUMPDEST CODESIZE PUSH3 0x1CD3 JUMP JUMPDEST PUSH3 0x2029 SWAP1 PUSH3 0x3963 JUMP JUMPDEST PUSH3 0x2036 JUMPI DUP5 CODESIZE PUSH3 0x1C79 JUMP JUMPDEST DUP5 DUP1 REVERT JUMPDEST PUSH3 0x2045 SWAP1 PUSH3 0x3963 JUMP JUMPDEST PUSH3 0x4F4 JUMPI DUP3 CODESIZE PUSH3 0x1BAE JUMP JUMPDEST PUSH3 0x205F SWAP2 SWAP4 POP PUSH3 0x3963 JUMP JUMPDEST PUSH1 0x0 SWAP2 CODESIZE PUSH3 0x1B49 JUMP JUMPDEST PUSH3 0x1AE7 JUMP JUMPDEST PUSH1 0x1 DUP2 SWAP3 PUSH3 0x1AD3 JUMP JUMPDEST SWAP1 POP SWAP9 PUSH3 0x1A58 JUMP JUMPDEST POP POP PUSH1 0x1 ADD SWAP1 PUSH3 0x19F2 JUMP JUMPDEST POP POP PUSH1 0x1 PUSH3 0x18BC JUMP JUMPDEST POP PUSH1 0x5 DUP5 ADD SLOAD PUSH1 0x4 DUP6 ADD SLOAD GT PUSH3 0x1996 JUMP JUMPDEST DUP1 PUSH3 0x1951 JUMP JUMPDEST POP PUSH1 0x5 DUP4 ADD SLOAD PUSH1 0x4 DUP5 ADD SLOAD GT PUSH3 0x18B6 JUMP JUMPDEST PUSH4 0x4E487B71 PUSH1 0xE0 SHL DUP3 MSTORE PUSH1 0x21 PUSH1 0x4 MSTORE PUSH1 0x24 DUP3 REVERT JUMPDEST PUSH1 0xA8 SHR PUSH1 0xFF AND PUSH3 0x20E8 DUP2 PUSH3 0x3844 JUMP JUMPDEST PUSH3 0x26B7 JUMPI PUSH1 0x1 JUMPDEST PUSH1 0x1 DUP3 ADD SLOAD DUP4 MSTORE PUSH1 0x7 PUSH1 0x20 MSTORE PUSH1 0x40 DUP4 KECCAK256 SWAP1 PUSH3 0x210C DUP2 PUSH3 0x3844 JUMP JUMPDEST DUP4 MSTORE PUSH1 0x20 MSTORE PUSH1 0x40 DUP3 KECCAK256 PUSH1 0x0 DUP1 MSTORE PUSH1 0x20 MSTORE PUSH1 0x40 PUSH1 0x0 KECCAK256 SWAP1 DUP3 JUMPDEST DUP3 SLOAD DUP2 LT DUP1 PUSH3 0x26A5 JUMPI JUMPDEST ISZERO PUSH3 0x269B JUMPI PUSH3 0x2141 DUP2 DUP5 PUSH3 0x3868 JUMP JUMPDEST SWAP1 SLOAD SWAP1 PUSH1 0x3 SHL SHR SWAP1 DUP2 DUP6 MSTORE PUSH1 0x6 PUSH1 0x20 MSTORE PUSH1 0x40 DUP6 KECCAK256 PUSH3 0x2160 DUP2 PUSH3 0x3E2D JUMP JUMPDEST ISZERO PUSH3 0x268E JUMPI PUSH3 0x217E PUSH2 0x2710 SWAP2 PUSH1 0x3 DUP1 DUP8 ADD SLOAD SWAP2 ADD SLOAD SWAP1 PUSH3 0x3E1F JUMP JUMPDEST LT ISZERO PUSH3 0x2194 JUMPI JUMPDEST PUSH1 0x1 SWAP2 POP ADD SWAP2 JUMPDEST SWAP2 PUSH3 0x2124 JUMP JUMPDEST PUSH1 0x1 DUP4 ADD SLOAD DUP3 PUSH1 0x0 MSTORE PUSH1 0x6 PUSH1 0x20 MSTORE PUSH1 0x40 PUSH1 0x0 KECCAK256 SWAP3 PUSH1 0xC0 MLOAD PUSH1 0x0 MSTORE PUSH1 0x40 PUSH1 0x0 KECCAK256 SWAP2 PUSH3 0x21C9 PUSH1 0x4 DUP7 ADD SLOAD PUSH1 0x5 DUP8 ADD SLOAD SWAP1 PUSH3 0x3DC2 JUMP JUMPDEST PUSH3 0x21DE PUSH1 0x4 DUP6 ADD SLOAD PUSH1 0x5 DUP7 ADD SLOAD SWAP1 PUSH3 0x3DC2 JUMP JUMPDEST DUP1 DUP3 LT ISZERO PUSH3 0x2685 JUMPI POP SWAP3 JUMPDEST PUSH1 0x3 DUP7 ADD SLOAD SWAP3 PUSH1 0x4 SLOAD PUSH3 0x21FE DUP2 PUSH3 0x3D6B JUMP JUMPDEST PUSH1 0x4 SSTORE PUSH1 0x40 MLOAD PUSH1 0x20 DUP2 ADD SWAP2 DUP3 MSTORE TIMESTAMP PUSH1 0x40 DUP3 ADD MSTORE PUSH1 0x40 DUP2 MSTORE PUSH3 0x2220 DUP2 PUSH3 0x3978 JUMP JUMPDEST MLOAD SWAP1 KECCAK256 SWAP7 PUSH3 0x2234 DUP7 PUSH1 0x5 DUP4 ADD SLOAD PUSH3 0x3E1F JUMP JUMPDEST PUSH1 0x5 DUP3 ADD SSTORE PUSH3 0x2249 DUP7 PUSH1 0x5 DUP6 ADD SLOAD PUSH3 0x3E1F JUMP JUMPDEST PUSH1 0x5 DUP5 ADD SSTORE PUSH1 0xFF PUSH1 0x2 DUP3 ADD SLOAD PUSH1 0xA8 SHR AND SWAP1 PUSH3 0x2265 DUP3 PUSH3 0x3844 JUMP JUMPDEST DUP2 PUSH3 0x267B JUMPI PUSH1 0x1 DUP2 SWAP3 JUMPDEST PUSH3 0x227B DUP2 PUSH3 0x3844 JUMP JUMPDEST SUB PUSH3 0x2673 JUMPI DUP1 SWAP5 JUMPDEST PUSH2 0x2710 PUSH3 0x2297 PUSH1 0x3 DUP6 ADD SLOAD DUP11 PUSH3 0x3DD0 JUMP JUMPDEST DIV PUSH3 0x22A4 DUP2 DUP11 PUSH3 0x3DC2 JUMP JUMPDEST PUSH1 0x2 DUP6 ADD SLOAD SWAP1 SWAP2 SWAP1 PUSH1 0x1 PUSH1 0x1 PUSH1 0xA0 SHL SUB SWAP1 DUP2 AND SWAP1 PUSH32 0x0 AND EXTCODESIZE ISZERO PUSH3 0x55E JUMPI PUSH1 0x40 MLOAD PUSH3 0x30582B PUSH1 0xE8 SHL DUP2 MSTORE PUSH1 0x1 PUSH1 0x1 PUSH1 0xA0 SHL SUB SWAP1 SWAP2 AND PUSH1 0x4 DUP3 ADD MSTORE ADDRESS PUSH1 0x24 DUP3 ADD MSTORE PUSH1 0x44 DUP2 ADD SWAP2 SWAP1 SWAP2 MSTORE PUSH1 0x0 DUP2 DUP1 PUSH1 0x64 DUP2 ADD SUB DUP2 DUP4 PUSH32 0x0 PUSH1 0x1 PUSH1 0x1 PUSH1 0xA0 SHL SUB AND GAS CALL DUP1 ISZERO PUSH3 0x17C2 JUMPI PUSH3 0x2661 JUMPI JUMPDEST POP PUSH1 0x2 DUP8 ADD SLOAD PUSH1 0x1 PUSH1 0x1 PUSH1 0xA0 SHL SUB SWAP1 DUP2 AND SWAP1 PUSH32 0x0 AND EXTCODESIZE ISZERO PUSH3 0x55E JUMPI PUSH1 0x40 MLOAD PUSH3 0x30582B PUSH1 0xE8 SHL DUP2 MSTORE PUSH1 0x1 PUSH1 0x1 PUSH1 0xA0 SHL SUB SWAP1 SWAP2 AND PUSH1 0x4 DUP3 ADD MSTORE ADDRESS PUSH1 0x24 DUP3 ADD MSTORE PUSH1 0x44 DUP2 ADD SWAP2 SWAP1 SWAP2 MSTORE PUSH1 0x0 DUP2 DUP1 PUSH1 0x64 DUP2 ADD SUB DUP2 DUP4 PUSH32 0x0 PUSH1 0x1 PUSH1 0x1 PUSH1 0xA0 SHL SUB AND GAS CALL DUP1 ISZERO PUSH3 0x17C2 JUMPI PUSH3 0x264F JUMPI JUMPDEST POP PUSH1 0x80 MLOAD PUSH1 0x2 SWAP1 DUP2 ADD SLOAD SWAP1 DUP5 ADD SLOAD PUSH1 0x1 PUSH1 0x1 PUSH1 0xA0 SHL SUB SWAP1 DUP2 AND SWAP2 AND DUP1 EXTCODESIZE ISZERO PUSH3 0x55E JUMPI PUSH1 0x40 MLOAD PUSH4 0x40C10F19 PUSH1 0xE0 SHL DUP2 MSTORE PUSH1 0x1 PUSH1 0x1 PUSH1 0xA0 SHL SUB SWAP3 SWAP1 SWAP3 AND PUSH1 0x4 DUP4 ADD MSTORE PUSH1 0x24 DUP3 ADD DUP11 SWAP1 MSTORE PUSH1 0x0 SWAP1 DUP3 SWAP1 PUSH1 0x44 SWAP1 DUP3 SWAP1 DUP5 SWAP1 GAS CALL DUP1 ISZERO PUSH3 0x17C2 JUMPI PUSH3 0x263D JUMPI JUMPDEST POP PUSH1 0x80 MLOAD PUSH1 0x3 ADD SLOAD PUSH1 0x2 DUP8 ADD SLOAD PUSH1 0x1 PUSH1 0x1 PUSH1 0xA0 SHL SUB SWAP1 DUP2 AND SWAP12 SWAP2 AND DUP1 EXTCODESIZE ISZERO PUSH3 0x55E JUMPI PUSH1 0x40 MLOAD PUSH4 0x40C10F19 PUSH1 0xE0 SHL DUP2 MSTORE PUSH1 0x1 PUSH1 0x1 PUSH1 0xA0 SHL SUB SWAP13 SWAP1 SWAP13 AND PUSH1 0x4 DUP14 ADD MSTORE PUSH1 0x24 DUP13 ADD DUP11 SWAP1 MSTORE DUP12 PUSH1 0x44 DUP2 GAS PUSH1 0x0 SWAP5 DUP6 SWAP2 CALL SWAP11 DUP12 ISZERO PUSH3 0x17C2 JUMPI PUSH1 0xA0 PUSH1 0x40 SWAP10 DUP12 PUSH3 0x173F SWAP8 PUSH1 0x1 SWAP16 DUP14 PUSH3 0x25FF SWAP14 PUSH32 0xA891D459CC19A94041344FD3F05544A8E2AC8CD799B693377166F326745DB076 SWAP8 DUP3 SWAP4 PUSH3 0x262B JUMPI JUMPDEST POP PUSH1 0x4 PUSH1 0x80 MLOAD ADD PUSH3 0x2508 DUP7 DUP3 SLOAD PUSH3 0x3E1F JUMP JUMPDEST SWAP1 SSTORE PUSH1 0x5 PUSH1 0x80 MLOAD ADD PUSH3 0x251D DUP7 DUP3 SLOAD PUSH3 0x3E1F JUMP JUMPDEST SWAP1 SSTORE PUSH1 0x6 PUSH1 0x80 MLOAD ADD PUSH3 0x2532 DUP7 DUP3 SLOAD PUSH3 0x3E1F JUMP JUMPDEST SWAP1 SSTORE PUSH1 0x80 MLOAD SLOAD SWAP4 PUSH1 0x1 DUP1 PUSH1 0x2 SWAP2 DUP11 SHL SUB SWAP2 ADD SLOAD AND DUP5 DUP4 MLOAD DUP8 DUP2 MSTORE PUSH1 0x0 PUSH1 0x20 DUP3 ADD MSTORE PUSH32 0xE7D6CC8EB939F017F8ADBEE7567D9C5FBB41AD1208E3FFD7CBA5EE580EA9173 SWAP6 DUP7 SWAP2 LOG3 PUSH1 0x1 DUP1 PUSH1 0x2 SWAP2 DUP10 SHL SUB SWAP2 ADD SLOAD AND SWAP4 DUP2 MLOAD SWAP1 PUSH1 0x0 DUP3 MSTORE PUSH1 0x20 DUP3 ADD MSTORE LOG3 PUSH1 0x5 DUP7 ADD SLOAD PUSH1 0x4 DUP8 ADD SLOAD SUB PUSH3 0x2617 JUMPI PUSH1 0x7 DUP7 ADD PUSH1 0x2 PUSH1 0xFF NOT DUP3 SLOAD AND OR SWAP1 SSTORE PUSH3 0x25CF DUP9 PUSH1 0x2 DUP9 ADD SLOAD PUSH1 0xFF DUP1 DUP3 DUP8 SHR AND SWAP2 PUSH1 0xA8 SHR AND DUP9 PUSH3 0x3EBE JUMP JUMPDEST DUP11 MLOAD SWAP1 DUP9 DUP3 MSTORE PUSH1 0xC0 MLOAD PUSH1 0x20 DUP4 ADD MSTORE DUP15 DUP13 DUP4 ADD MSTORE DUP13 PUSH1 0x60 DUP4 ADD MSTORE PUSH1 0x80 DUP3 ADD MSTORE LOG3 PUSH1 0x5 PUSH1 0x4 DUP3 ADD SLOAD SWAP2 ADD SLOAD SWAP1 PUSH3 0x3DC2 JUMP JUMPDEST PUSH1 0x40 MLOAD SWAP3 DUP4 MSTORE PUSH1 0x20 DUP4 ADD MSTORE PUSH1 0x40 PUSH1 0xC0 MLOAD SWAP3 LOG2 PUSH3 0x2186 JUMP JUMPDEST PUSH1 0x7 DUP7 ADD DUP1 SLOAD PUSH1 0xFF NOT AND DUP16 OR SWAP1 SSTORE PUSH3 0x25CF JUMP JUMPDEST PUSH3 0x2636 SWAP1 PUSH3 0x3963 JUMP JUMPDEST CODESIZE PUSH3 0x24F4 JUMP JUMPDEST PUSH3 0x2648 SWAP1 PUSH3 0x3963 JUMP JUMPDEST DUP14 PUSH3 0x245B JUMP JUMPDEST PUSH3 0x265A SWAP1 PUSH3 0x3963 JUMP JUMPDEST DUP14 PUSH3 0x23F8 JUMP JUMPDEST PUSH3 0x266C SWAP1 PUSH3 0x3963 JUMP JUMPDEST DUP15 PUSH3 0x234F JUMP JUMPDEST DUP4 SWAP5 PUSH3 0x2284 JUMP JUMPDEST PUSH1 0x1 DUP5 SWAP3 PUSH3 0x2270 JUMP JUMPDEST SWAP1 POP SWAP3 PUSH3 0x21EA JUMP JUMPDEST POP PUSH1 0x1 SWAP2 POP ADD SWAP2 PUSH3 0x218D JUMP JUMPDEST POP SWAP1 POP DUP3 PUSH3 0x188E JUMP JUMPDEST POP PUSH1 0x5 DUP3 ADD SLOAD PUSH1 0x4 DUP4 ADD SLOAD GT PUSH3 0x212F JUMP JUMPDEST DUP2 PUSH3 0x20F0 JUMP JUMPDEST POP PUSH1 0x5 DUP3 ADD SLOAD PUSH1 0x4 DUP4 ADD SLOAD GT PUSH3 0x1888 JUMP JUMPDEST PUSH4 0x4E487B71 PUSH1 0xE0 SHL DUP4 MSTORE PUSH1 0x21 PUSH1 0x4 MSTORE PUSH1 0x24 DUP4 REVERT JUMPDEST POP PUSH1 0x5 DUP3 ADD SLOAD PUSH1 0x4 DUP4 ADD SLOAD GT PUSH3 0x13A6 JUMP JUMPDEST DUP5 SWAP2 PUSH3 0x136C JUMP JUMPDEST PUSH4 0x4E487B71 PUSH1 0xE0 SHL DUP5 MSTORE PUSH1 0x21 PUSH1 0x4 MSTORE PUSH1 0x24 DUP5 REVERT JUMPDEST PUSH1 0x80 PUSH3 0x2720 SWAP2 ADD PUSH3 0x3963 JUMP JUMPDEST PUSH3 0x51B JUMPI DUP2 CODESIZE PUSH3 0x10F9 JUMP JUMPDEST PUSH1 0x40 MLOAD PUSH4 0x524F409B PUSH1 0xE0 SHL DUP2 MSTORE PUSH1 0x4 SWAP1 REVERT JUMPDEST PUSH1 0x40 MLOAD PUSH3 0xBFC921 PUSH1 0xE0 SHL DUP2 MSTORE PUSH1 0x4 SWAP1 REVERT JUMPDEST POP PUSH2 0x2710 PUSH1 0x64 CALLDATALOAD LT ISZERO PUSH3 0xFD0 JUMP JUMPDEST PUSH1 0x40 MLOAD PUSH4 0x5A90BB8D PUSH1 0xE1 SHL DUP2 MSTORE PUSH1 0x4 SWAP1 REVERT JUMPDEST POP CALLVALUE PUSH3 0x1E8 JUMPI PUSH1 0x20 CALLDATASIZE PUSH1 0x3 NOT ADD SLT PUSH3 0x1E8 JUMPI PUSH1 0x4 CALLDATALOAD DUP1 DUP3 MSTORE PUSH1 0x5 PUSH1 0x20 MSTORE PUSH1 0x7 PUSH1 0x40 DUP4 KECCAK256 PUSH3 0x27A1 DUP2 PUSH3 0x3FAB JUMP JUMPDEST ADD DUP1 SLOAD PUSH1 0xFF DUP2 AND PUSH1 0x4 DUP2 LT ISZERO PUSH3 0x27EE JUMPI DUP1 PUSH3 0x275F JUMPI PUSH1 0x0 DUP1 MLOAD PUSH1 0x20 PUSH3 0x4FDD DUP4 CODECOPY DUP2 MLOAD SWAP2 MSTORE SWAP3 PUSH1 0x1 PUSH1 0x40 SWAP4 PUSH1 0xFF NOT AND OR SWAP1 SSTORE PUSH3 0x27E3 DUP3 MLOAD DUP1 SWAP3 PUSH3 0x3AB6 JUMP JUMPDEST PUSH1 0x1 PUSH1 0x20 DUP3 ADD MSTORE LOG2 DUP1 RETURN JUMPDEST PUSH4 0x4E487B71 PUSH1 0xE0 SHL DUP6 MSTORE PUSH1 0x21 PUSH1 0x4 MSTORE PUSH1 0x24 DUP6 REVERT JUMPDEST POP CALLVALUE PUSH3 0x1E8 JUMPI DUP1 PUSH1 0x3 NOT CALLDATASIZE ADD SLT PUSH3 0x1E8 JUMPI PUSH1 0x20 PUSH1 0x2 SLOAD PUSH1 0x40 MLOAD SWAP1 DUP2 MSTORE RETURN JUMPDEST POP CALLVALUE PUSH3 0x1E8 JUMPI DUP1 PUSH1 0x3 NOT CALLDATASIZE ADD SLT PUSH3 0x1E8 JUMPI PUSH1 0x20 SWAP1 PUSH1 0x40 MLOAD SWAP1 DUP2 MSTORE RETURN JUMPDEST POP CALLVALUE PUSH3 0x1E8 JUMPI PUSH1 0x20 CALLDATASIZE PUSH1 0x3 NOT ADD SLT PUSH3 0x1E8 JUMPI PUSH1 0x40 PUSH2 0x180 SWAP2 PUSH1 0x4 CALLDATALOAD DUP2 MSTORE PUSH1 0x6 PUSH1 0x20 MSTORE KECCAK256 DUP1 SLOAD SWAP1 PUSH1 0x1 DUP2 ADD SLOAD SWAP1 PUSH3 0x2907 PUSH1 0x2 DUP3 ADD SLOAD PUSH1 0xFF DUP2 PUSH1 0xA8 SHR AND PUSH1 0x3 DUP5 ADD SLOAD PUSH1 0x4 DUP6 ADD SLOAD PUSH1 0x5 DUP7 ADD SLOAD SWAP2 PUSH1 0x6 DUP8 ADD SLOAD SWAP4 PUSH3 0x28D6 PUSH1 0xFF PUSH1 0x7 DUP11 ADD SLOAD AND SWAP7 PUSH1 0x9 PUSH1 0x8 DUP12 ADD SLOAD SWAP11 ADD SLOAD SWAP11 PUSH1 0x40 MLOAD SWAP13 DUP14 MSTORE PUSH1 0x20 DUP14 ADD MSTORE PUSH1 0x1 DUP1 PUSH1 0xA0 SHL SUB DUP2 AND PUSH1 0x40 DUP14 ADD MSTORE PUSH1 0xFF PUSH1 0x60 DUP14 ADD SWAP2 PUSH1 0xA0 SHR AND PUSH3 0x38EC JUMP JUMPDEST PUSH3 0x28E1 DUP2 PUSH3 0x3844 JUMP JUMPDEST PUSH1 0x80 DUP11 ADD MSTORE PUSH1 0xA0 DUP10 ADD MSTORE PUSH1 0xC0 DUP9 ADD MSTORE PUSH1 0xE0 DUP8 ADD MSTORE PUSH2 0x100 DUP7 ADD MSTORE PUSH2 0x120 DUP6 ADD SWAP1 PUSH3 0x38FA JUMP JUMPDEST PUSH2 0x140 DUP4 ADD MSTORE PUSH2 0x160 DUP3 ADD MSTORE RETURN JUMPDEST POP CALLVALUE PUSH3 0x1E8 JUMPI PUSH1 0x40 CALLDATASIZE PUSH1 0x3 NOT ADD SLT PUSH3 0x1E8 JUMPI PUSH1 0x40 PUSH3 0x2935 PUSH3 0x3881 JUMP JUMPDEST SWAP2 PUSH1 0x4 CALLDATALOAD DUP2 MSTORE PUSH1 0x9 PUSH1 0x20 MSTORE KECCAK256 SWAP1 PUSH1 0x1 DUP1 PUSH1 0xA0 SHL SUB AND PUSH1 0x0 MSTORE PUSH1 0x20 MSTORE PUSH1 0x20 PUSH1 0xFF PUSH1 0x40 PUSH1 0x0 KECCAK256 SLOAD AND PUSH1 0x40 MLOAD SWAP1 ISZERO ISZERO DUP2 MSTORE RETURN JUMPDEST POP CALLVALUE PUSH3 0x1E8 JUMPI PUSH1 0x40 CALLDATASIZE PUSH1 0x3 NOT ADD SLT PUSH3 0x1E8 JUMPI PUSH1 0x40 PUSH3 0x2985 PUSH3 0x3881 JUMP JUMPDEST SWAP2 PUSH1 0x4 CALLDATALOAD DUP2 MSTORE PUSH1 0x1 PUSH1 0x20 MSTORE KECCAK256 SWAP1 PUSH1 0x1 DUP1 PUSH1 0xA0 SHL SUB AND PUSH1 0x0 MSTORE PUSH1 0x20 MSTORE PUSH1 0x20 PUSH1 0xFF PUSH1 0x40 PUSH1 0x0 KECCAK256 SLOAD AND PUSH1 0x40 MLOAD SWAP1 ISZERO ISZERO DUP2 MSTORE RETURN JUMPDEST POP CALLVALUE PUSH3 0x1E8 JUMPI PUSH1 0x20 CALLDATASIZE PUSH1 0x3 NOT ADD SLT PUSH3 0x1E8 JUMPI PUSH1 0x4 CALLDATALOAD DUP1 DUP3 MSTORE PUSH1 0x5 PUSH1 0x20 MSTORE PUSH1 0x7 PUSH1 0x40 DUP4 KECCAK256 PUSH3 0x29E5 DUP2 PUSH3 0x3FAB JUMP JUMPDEST ADD DUP1 SLOAD PUSH1 0xFF DUP2 AND PUSH1 0x4 DUP2 LT ISZERO PUSH3 0x27EE JUMPI PUSH1 0x1 SUB PUSH3 0x275F JUMPI PUSH1 0xFF NOT AND SWAP1 SSTORE PUSH1 0x0 DUP1 MLOAD PUSH1 0x20 PUSH3 0x4FDD DUP4 CODECOPY DUP2 MLOAD SWAP2 MSTORE PUSH1 0x40 DUP1 MLOAD PUSH1 0x1 DUP2 MSTORE PUSH1 0x0 PUSH1 0x20 DUP3 ADD MSTORE LOG2 DUP1 RETURN JUMPDEST POP CALLVALUE PUSH3 0x1E8 JUMPI PUSH1 0x40 CALLDATASIZE PUSH1 0x3 NOT ADD SLT PUSH3 0x1E8 JUMPI PUSH3 0x2A45 PUSH3 0x3898 JUMP JUMPDEST PUSH1 0x1 PUSH1 0x1 PUSH1 0xA0 SHL SUB AND DUP2 MSTORE PUSH1 0x8 PUSH1 0x20 MSTORE PUSH1 0x40 DUP2 KECCAK256 DUP1 SLOAD PUSH1 0x24 CALLDATALOAD SWAP3 SWAP1 DUP4 LT ISZERO PUSH3 0x1E8 JUMPI PUSH1 0x20 PUSH3 0x2A76 DUP5 DUP5 PUSH3 0x3868 JUMP JUMPDEST SWAP1 SLOAD PUSH1 0x40 MLOAD SWAP2 PUSH1 0x3 SHL SHR DUP2 MSTORE RETURN JUMPDEST POP CALLVALUE PUSH3 0x1E8 JUMPI PUSH1 0x20 CALLDATASIZE PUSH1 0x3 NOT ADD SLT PUSH3 0x1E8 JUMPI PUSH1 0x4 CALLDATALOAD PUSH1 0xA SLOAD DUP2 LT ISZERO PUSH3 0x51B JUMPI PUSH1 0x20 SWAP1 PUSH1 0xA PUSH1 0x0 MSTORE PUSH32 0xC65A7BB8D6351C1CF70C95A316CC6A92839C986682D98BC35F958F4883F9D2A8 ADD SLOAD PUSH1 0x40 MLOAD SWAP1 DUP2 MSTORE RETURN JUMPDEST POP CALLVALUE PUSH3 0x1E8 JUMPI PUSH1 0x60 CALLDATASIZE PUSH1 0x3 NOT ADD SLT PUSH3 0x1E8 JUMPI PUSH1 0x24 CALLDATALOAD PUSH1 0x3 DUP2 LT ISZERO PUSH3 0x51B JUMPI PUSH1 0x44 CALLDATALOAD PUSH1 0x2 DUP2 LT ISZERO PUSH3 0x4F4 JUMPI PUSH3 0x2B36 SWAP1 PUSH1 0x4 CALLDATALOAD DUP5 MSTORE PUSH1 0x20 SWAP3 PUSH1 0x7 DUP5 MSTORE PUSH1 0x40 DUP6 KECCAK256 SWAP1 PUSH3 0x2B28 DUP2 PUSH3 0x3844 JUMP JUMPDEST DUP6 MSTORE DUP4 MSTORE PUSH1 0x40 DUP5 KECCAK256 PUSH3 0x384F JUMP JUMPDEST SWAP2 PUSH1 0x40 MLOAD DUP1 SWAP3 DUP1 DUP6 SLOAD SWAP3 DUP4 DUP2 MSTORE ADD SWAP5 DUP4 MSTORE DUP1 DUP4 KECCAK256 SWAP3 SWAP1 JUMPDEST DUP3 DUP3 LT PUSH3 0x2B79 JUMPI PUSH3 0x2B75 DUP6 PUSH3 0x2B68 DUP2 DUP10 SUB DUP3 PUSH3 0x3995 JUMP JUMPDEST PUSH1 0x40 MLOAD SWAP2 DUP3 SWAP2 DUP3 PUSH3 0x38AF JUMP JUMPDEST SUB SWAP1 RETURN JUMPDEST DUP4 SLOAD DUP7 MSTORE SWAP5 DUP6 ADD SWAP5 PUSH1 0x1 SWAP4 DUP5 ADD SWAP4 SWAP1 SWAP2 ADD SWAP1 PUSH3 0x2B4D JUMP JUMPDEST POP CALLVALUE PUSH3 0x1E8 JUMPI PUSH1 0x20 CALLDATASIZE PUSH1 0x3 NOT ADD SLT PUSH3 0x1E8 JUMPI PUSH1 0x40 SWAP1 PUSH1 0x4 CALLDATALOAD DUP2 MSTORE PUSH1 0x5 PUSH1 0x20 MSTORE KECCAK256 DUP1 SLOAD PUSH3 0x2BC3 PUSH1 0x1 DUP4 ADD PUSH3 0x39B8 JUMP JUMPDEST SWAP2 PUSH1 0x1 DUP1 PUSH1 0xA0 SHL SUB DUP1 PUSH1 0x2 DUP4 ADD SLOAD AND SWAP2 DUP2 PUSH1 0x3 DUP3 ADD SLOAD AND SWAP2 PUSH1 0x4 DUP3 ADD SLOAD PUSH3 0x2C55 PUSH1 0x5 DUP5 ADD SLOAD PUSH1 0x6 DUP6 ADD SLOAD PUSH1 0x7 DUP7 ADD SLOAD SWAP2 PUSH1 0xFF DUP4 PUSH1 0x8 SHR AND SWAP5 PUSH1 0x8 DUP9 ADD SLOAD SWAP7 PUSH1 0xA PUSH1 0x9 DUP11 ADD SLOAD SWAP10 ADD SLOAD AND SWAP9 PUSH3 0x2C2D PUSH1 0x40 MLOAD SWAP14 DUP15 SWAP14 DUP15 MSTORE DUP14 PUSH2 0x180 SWAP1 DUP2 PUSH1 0x20 DUP3 ADD MSTORE ADD SWAP1 PUSH3 0x3A8F JUMP JUMPDEST SWAP11 PUSH1 0x40 DUP14 ADD MSTORE PUSH1 0x60 DUP13 ADD MSTORE PUSH1 0x80 DUP12 ADD MSTORE PUSH1 0xA0 DUP11 ADD MSTORE PUSH1 0xC0 DUP10 ADD MSTORE PUSH1 0xFF PUSH1 0xE0 DUP10 ADD SWAP2 AND PUSH3 0x3AB6 JUMP JUMPDEST PUSH3 0x2C60 DUP2 PUSH3 0x3844 JUMP JUMPDEST PUSH2 0x100 DUP7 ADD MSTORE PUSH2 0x120 DUP6 ADD MSTORE PUSH2 0x140 DUP5 ADD MSTORE PUSH2 0x160 DUP4 ADD MSTORE SUB SWAP1 RETURN JUMPDEST POP CALLVALUE PUSH3 0x1E8 JUMPI PUSH1 0x20 CALLDATASIZE PUSH1 0x3 NOT ADD SLT PUSH3 0x1E8 JUMPI PUSH1 0x4 CALLDATALOAD PUSH3 0x2C9D PUSH3 0x3D9E JUMP JUMPDEST DUP1 DUP3 MSTORE PUSH1 0x6 PUSH1 0x20 MSTORE PUSH1 0x40 DUP3 KECCAK256 PUSH1 0x2 DUP2 ADD DUP1 SLOAD SWAP1 SWAP2 PUSH1 0x1 PUSH1 0x1 PUSH1 0xA0 SHL SUB SWAP2 DUP3 AND CALLER DUP2 SUB PUSH3 0x2E6F JUMPI PUSH1 0x7 DUP3 ADD SWAP3 DUP4 SLOAD SWAP2 PUSH1 0xFF DUP4 AND PUSH1 0x5 DUP2 LT ISZERO PUSH3 0x2E5B JUMPI DUP1 ISZERO ISZERO SWAP1 DUP2 PUSH3 0x2E4E JUMPI JUMPDEST POP PUSH3 0x2E3C JUMPI PUSH1 0x4 DUP5 ADD SLOAD SWAP2 PUSH3 0x2D10 PUSH3 0x2D05 PUSH1 0x5 DUP8 ADD SLOAD DUP6 PUSH3 0x3DC2 JUMP JUMPDEST PUSH1 0x6 DUP8 ADD SLOAD PUSH3 0x3DD0 JUMP JUMPDEST SWAP6 DUP4 ISZERO PUSH3 0x2E26 JUMPI PUSH1 0x3 DUP11 SWAP5 DUP11 SWAP9 DIV SWAP6 PUSH1 0xFF NOT AND OR SWAP1 SSTORE DUP4 PUSH3 0x2D80 JUMPI JUMPDEST POP POP POP POP SWAP2 PUSH1 0x1 PUSH3 0x2D53 SWAP4 ADD SLOAD SWAP1 SLOAD SWAP1 PUSH1 0xFF DUP1 DUP4 PUSH1 0xA0 SHR AND SWAP3 PUSH1 0xA8 SHR AND SWAP1 PUSH3 0x3EBE JUMP JUMPDEST CALLER SWAP1 PUSH32 0xA6EB7CDC219E1518CED964E9A34E61D68A94E4F1569DB3E84256BA981BA52753 DUP4 DUP1 LOG3 PUSH1 0x1 DUP2 SSTORE DUP1 RETURN JUMPDEST PUSH32 0x0 AND SWAP5 POP SWAP1 SWAP2 DUP5 EXTCODESIZE ISZERO PUSH3 0x4F4 JUMPI PUSH1 0x40 MLOAD PUSH4 0x2FE2E93 PUSH1 0xE3 SHL DUP2 MSTORE PUSH1 0x1 PUSH1 0x1 PUSH1 0xA0 SHL SUB SWAP3 SWAP1 SWAP3 AND PUSH1 0x4 DUP4 ADD MSTORE PUSH1 0x24 DUP3 ADD MSTORE SWAP3 DUP2 SWAP1 DUP5 SWAP1 PUSH1 0x44 SWAP1 DUP3 SWAP1 DUP5 SWAP1 GAS CALL SWAP3 DUP4 ISZERO PUSH3 0x2E19 JUMPI DUP6 SWAP4 PUSH3 0x2DF8 JUMPI JUMPDEST DUP1 DUP3 SWAP2 PUSH3 0x2D2E JUMP JUMPDEST PUSH3 0x2E06 SWAP2 SWAP3 SWAP4 POP PUSH3 0x3963 JUMP JUMPDEST PUSH3 0x2E15 JUMPI DUP3 SWAP1 DUP5 CODESIZE PUSH3 0x2DEF JUMP JUMPDEST DUP4 DUP1 REVERT JUMPDEST POP PUSH1 0x40 MLOAD SWAP1 RETURNDATASIZE SWAP1 DUP3 RETURNDATACOPY RETURNDATASIZE SWAP1 REVERT JUMPDEST PUSH4 0x4E487B71 PUSH1 0xE0 SHL PUSH1 0x0 MSTORE PUSH1 0x12 PUSH1 0x4 MSTORE PUSH1 0x24 PUSH1 0x0 REVERT JUMPDEST PUSH1 0x40 MLOAD PUSH4 0x206931EF PUSH1 0xE0 SHL DUP2 MSTORE PUSH1 0x4 SWAP1 REVERT JUMPDEST PUSH1 0x1 SWAP2 POP EQ ISZERO CODESIZE PUSH3 0x2CE5 JUMP JUMPDEST PUSH4 0x4E487B71 PUSH1 0xE0 SHL DUP10 MSTORE PUSH1 0x21 PUSH1 0x4 MSTORE PUSH1 0x24 DUP10 REVERT JUMPDEST PUSH1 0x40 MLOAD PUSH4 0x7B2095AD PUSH1 0xE1 SHL DUP2 MSTORE PUSH1 0x4 SWAP1 REVERT JUMPDEST POP CALLVALUE PUSH3 0x1E8 JUMPI PUSH1 0x20 SWAP1 DUP2 PUSH1 0x3 NOT CALLDATASIZE ADD SLT PUSH3 0x1E8 JUMPI PUSH1 0x4 CALLDATALOAD PUSH3 0x2EA4 PUSH3 0x3D9E JUMP JUMPDEST DUP1 DUP3 MSTORE PUSH1 0x5 DUP4 MSTORE PUSH1 0x40 DUP3 KECCAK256 SWAP1 PUSH1 0xFF PUSH1 0x7 DUP4 ADD SLOAD AND PUSH1 0x4 DUP2 LT ISZERO PUSH3 0x26FE JUMPI PUSH1 0x3 SUB PUSH3 0x3267 JUMPI DUP1 DUP4 MSTORE PUSH1 0x9 DUP5 MSTORE PUSH1 0x40 DUP4 KECCAK256 CALLER DUP5 MSTORE DUP5 MSTORE PUSH1 0xFF PUSH1 0x40 DUP5 KECCAK256 SLOAD AND PUSH3 0x5B0 JUMPI PUSH1 0x2 DUP3 ADD SWAP4 PUSH1 0x1 DUP1 PUSH1 0xA0 SHL SUB SWAP3 DUP4 DUP7 SLOAD AND PUSH1 0x40 MLOAD SWAP2 DUP4 DUP4 PUSH1 0x24 DUP2 PUSH4 0x70A08231 PUSH1 0xE0 SHL SWAP6 DUP7 DUP3 MSTORE CALLER PUSH1 0x4 DUP4 ADD MSTORE GAS STATICCALL SWAP3 DUP4 ISZERO PUSH3 0x56B JUMPI DUP8 SWAP4 PUSH3 0x3231 JUMPI JUMPDEST POP PUSH1 0x3 ADD SWAP7 DUP4 DUP7 DUP10 SLOAD AND SWAP3 PUSH1 0x24 PUSH1 0x40 MLOAD DUP1 SWAP6 DUP2 SWAP4 DUP3 MSTORE CALLER PUSH1 0x4 DUP4 ADD MSTORE GAS STATICCALL SWAP2 DUP3 ISZERO PUSH3 0x56B JUMPI DUP8 SWAP3 PUSH3 0x31FC JUMPI JUMPDEST POP DUP3 ISZERO DUP1 DUP1 PUSH3 0x31F3 JUMPI JUMPDEST PUSH3 0x51F JUMPI DUP6 DUP9 MSTORE PUSH1 0x9 DUP6 MSTORE PUSH1 0x40 DUP1 DUP10 KECCAK256 CALLER DUP11 MSTORE DUP7 MSTORE DUP9 KECCAK256 DUP1 SLOAD PUSH1 0xFF NOT AND PUSH1 0x1 OR SWAP1 SSTORE ISZERO PUSH3 0x3195 JUMPI JUMPDEST POP DUP5 DUP7 SWAP8 DUP3 SWAP8 SWAP6 SWAP7 SWAP8 PUSH3 0x3132 JUMPI JUMPDEST POP POP DUP1 DUP3 LT ISZERO PUSH3 0x3129 JUMPI POP SWAP4 JUMPDEST DUP5 PUSH3 0x2FE0 JUMPI JUMPDEST POP PUSH32 0xE950D47BCC1A745A8EF1D8B86486B400A99681910425D126EB1A006D61F341B2 SWAP2 POP PUSH1 0x40 MLOAD SWAP4 DUP5 MSTORE CALLER SWAP4 LOG3 PUSH1 0x1 DUP2 SSTORE DUP1 RETURN JUMPDEST DUP1 PUSH32 0x0 AND SWAP1 DUP2 EXTCODESIZE ISZERO PUSH3 0x2E15 JUMPI PUSH1 0x40 MLOAD PUSH4 0x2FE2E93 PUSH1 0xE3 SHL DUP2 MSTORE ADDRESS PUSH1 0x4 DUP3 ADD MSTORE PUSH1 0x24 DUP2 ADD DUP8 SWAP1 MSTORE DUP5 DUP2 PUSH1 0x44 DUP2 DUP4 DUP8 GAS CALL DUP1 ISZERO PUSH3 0x1FCD JUMPI DUP5 SWAP2 DUP7 SWAP2 PUSH3 0x310E JUMPI JUMPDEST POP POP PUSH1 0x40 MLOAD PUSH4 0x2C805AF5 PUSH1 0xE2 SHL DUP2 MSTORE SWAP3 DUP4 SWAP1 PUSH1 0x4 SWAP1 DUP3 SWAP1 GAS STATICCALL DUP1 ISZERO PUSH3 0x4F8 JUMPI DUP4 SWAP3 DUP6 SWAP2 PUSH3 0x30EC JUMPI JUMPDEST POP PUSH1 0x40 MLOAD PUSH4 0xA9059CBB PUSH1 0xE0 SHL DUP2 MSTORE CALLER PUSH1 0x4 DUP3 ADD MSTORE PUSH1 0x24 DUP2 ADD DUP9 SWAP1 MSTORE SWAP5 DUP6 SWAP3 PUSH1 0x44 SWAP3 DUP5 SWAP3 SWAP2 AND GAS CALL SWAP2 DUP3 ISZERO PUSH3 0x1FCD JUMPI PUSH32 0xE950D47BCC1A745A8EF1D8B86486B400A99681910425D126EB1A006D61F341B2 SWAP3 PUSH3 0x30CA JUMPI JUMPDEST DUP6 SWAP3 POP PUSH3 0x2FAC JUMP JUMPDEST PUSH3 0x30E4 SWAP1 DUP3 RETURNDATASIZE DUP5 GT PUSH3 0x487 JUMPI PUSH3 0x476 DUP2 DUP4 PUSH3 0x3995 JUMP JUMPDEST POP CODESIZE PUSH3 0x30C1 JUMP JUMPDEST PUSH3 0x3107 SWAP2 POP DUP4 RETURNDATASIZE DUP6 GT PUSH3 0x4C6 JUMPI PUSH3 0x4B6 DUP2 DUP4 PUSH3 0x3995 JUMP JUMPDEST CODESIZE PUSH3 0x306A JUMP JUMPDEST PUSH3 0x311B SWAP2 SWAP3 POP PUSH3 0x3963 JUMP JUMPDEST PUSH3 0x2E15 JUMPI DUP3 DUP5 CODESIZE PUSH3 0x3040 JUMP JUMPDEST SWAP1 POP SWAP4 PUSH3 0x2FA5 JUMP JUMPDEST SLOAD AND DUP1 EXTCODESIZE ISZERO PUSH3 0x2036 JUMPI PUSH1 0x40 MLOAD PUSH4 0x2770A7EB PUSH1 0xE2 SHL DUP2 MSTORE CALLER PUSH1 0x4 DUP3 ADD MSTORE PUSH1 0x24 DUP2 ADD DUP4 SWAP1 MSTORE SWAP1 DUP6 SWAP1 DUP3 SWAP1 PUSH1 0x44 SWAP1 DUP3 SWAP1 DUP5 SWAP1 GAS CALL SWAP1 DUP2 ISZERO PUSH3 0x1FCD JUMPI DUP6 SWAP2 PUSH3 0x317D JUMPI JUMPDEST DUP8 SWAP2 POP PUSH3 0x2F97 JUMP JUMPDEST PUSH3 0x3188 SWAP1 PUSH3 0x3963 JUMP JUMPDEST PUSH3 0x2E15 JUMPI DUP4 CODESIZE PUSH3 0x3174 JUMP JUMPDEST SLOAD DUP6 AND DUP1 EXTCODESIZE ISZERO PUSH3 0x31EF JUMPI PUSH1 0x40 MLOAD PUSH4 0x2770A7EB PUSH1 0xE2 SHL DUP2 MSTORE CALLER PUSH1 0x4 DUP3 ADD MSTORE PUSH1 0x24 DUP2 ADD DUP5 SWAP1 MSTORE SWAP1 DUP8 SWAP1 DUP3 SWAP1 PUSH1 0x44 SWAP1 DUP3 SWAP1 DUP5 SWAP1 GAS CALL DUP1 ISZERO PUSH3 0x56B JUMPI ISZERO PUSH3 0x2F88 JUMPI SWAP6 PUSH3 0x31E5 DUP7 SWAP9 SWAP6 SWAP7 SWAP8 PUSH3 0x3963 JUMP JUMPDEST SWAP6 SWAP5 SWAP4 SWAP7 PUSH3 0x2F88 JUMP JUMPDEST DUP7 DUP1 REVERT JUMPDEST POP DUP3 ISZERO PUSH3 0x2F5E JUMP JUMPDEST SWAP1 SWAP2 POP DUP4 DUP2 DUP2 RETURNDATASIZE DUP4 GT PUSH3 0x3229 JUMPI JUMPDEST PUSH3 0x3217 DUP2 DUP4 PUSH3 0x3995 JUMP JUMPDEST DUP2 ADD SUB SLT PUSH3 0x31EF JUMPI MLOAD SWAP1 CODESIZE PUSH3 0x2F53 JUMP JUMPDEST POP RETURNDATASIZE PUSH3 0x320B JUMP JUMPDEST SWAP1 SWAP3 POP DUP4 DUP2 DUP2 RETURNDATASIZE DUP4 GT PUSH3 0x325F JUMPI JUMPDEST PUSH3 0x324C DUP2 DUP4 PUSH3 0x3995 JUMP JUMPDEST DUP2 ADD SUB SLT PUSH3 0x31EF JUMPI MLOAD SWAP2 PUSH1 0x3 PUSH3 0x2F25 JUMP JUMPDEST POP RETURNDATASIZE PUSH3 0x3240 JUMP JUMPDEST PUSH1 0x40 MLOAD PUSH4 0xA5A0FC5 PUSH1 0xE3 SHL DUP2 MSTORE PUSH1 0x4 SWAP1 REVERT JUMPDEST POP CALLVALUE PUSH3 0x1E8 JUMPI PUSH1 0x20 DUP1 PUSH1 0x3 NOT CALLDATASIZE ADD SLT PUSH3 0x51B JUMPI PUSH1 0x1 PUSH1 0x1 PUSH1 0xA0 SHL SUB PUSH3 0x32A0 PUSH3 0x3898 JUMP JUMPDEST AND DUP3 MSTORE PUSH1 0x8 DUP2 MSTORE PUSH1 0x40 DUP3 KECCAK256 SWAP2 PUSH1 0x40 MLOAD DUP1 SWAP3 DUP1 DUP6 SLOAD SWAP3 DUP4 DUP2 MSTORE ADD SWAP5 DUP4 MSTORE DUP1 DUP4 KECCAK256 SWAP3 SWAP1 JUMPDEST DUP3 DUP3 LT PUSH3 0x32DD JUMPI PUSH3 0x2B75 DUP6 PUSH3 0x2B68 DUP2 DUP10 SUB DUP3 PUSH3 0x3995 JUMP JUMPDEST DUP4 SLOAD DUP7 MSTORE SWAP5 DUP6 ADD SWAP5 PUSH1 0x1 SWAP4 DUP5 ADD SWAP4 SWAP1 SWAP2 ADD SWAP1 PUSH3 0x32C2 JUMP JUMPDEST POP CALLVALUE PUSH3 0x1E8 JUMPI PUSH1 0x40 CALLDATASIZE PUSH1 0x3 NOT ADD SLT PUSH3 0x1E8 JUMPI PUSH1 0x24 CALLDATALOAD PUSH1 0x4 CALLDATALOAD PUSH1 0x3 DUP3 LT ISZERO PUSH3 0x4F4 JUMPI DUP1 DUP4 MSTORE PUSH1 0x5 PUSH1 0x20 MSTORE PUSH1 0x7 PUSH1 0x40 DUP5 KECCAK256 PUSH3 0x3332 DUP2 PUSH3 0x3FAB JUMP JUMPDEST ADD DUP1 SLOAD SWAP1 PUSH1 0xFF DUP3 AND SWAP2 PUSH1 0x4 DUP4 LT ISZERO PUSH3 0x5D4 JUMPI DUP3 ISZERO ISZERO DUP1 PUSH3 0x33CE JUMPI JUMPDEST PUSH3 0x275F JUMPI DUP4 SWAP3 PUSH3 0x337E DUP7 PUSH1 0x0 DUP1 MLOAD PUSH1 0x20 PUSH3 0x4FDD DUP4 CODECOPY DUP2 MLOAD SWAP2 MSTORE SWAP5 PUSH1 0x2 PUSH1 0x40 SWAP6 PUSH1 0xFF NOT AND OR DUP2 SSTORE PUSH3 0x3D09 JUMP JUMPDEST PUSH3 0x338C DUP3 MLOAD DUP1 SWAP3 PUSH3 0x3AB6 JUMP JUMPDEST PUSH1 0x2 PUSH1 0x20 DUP3 ADD MSTORE LOG2 PUSH1 0x40 MLOAD SWAP2 PUSH3 0x33A3 DUP2 PUSH3 0x3844 JUMP JUMPDEST DUP3 MSTORE PUSH32 0x32C04EF1B4209CBE24E47A18EE52B8F81E4C88B295A7EB580DE0CD6513579865 PUSH1 0x20 CALLER SWAP4 LOG3 DUP1 RETURN JUMPDEST POP PUSH1 0x1 DUP4 EQ ISZERO PUSH3 0x334F JUMP JUMPDEST POP CALLVALUE PUSH3 0x1E8 JUMPI PUSH1 0x20 CALLDATASIZE PUSH1 0x3 NOT ADD SLT PUSH3 0x1E8 JUMPI PUSH32 0x745BF4A6CE2743009B1B47F40128DD9086F6EED93B86263039A71C240C93357C PUSH1 0x40 PUSH1 0x4 CALLDATALOAD PUSH3 0x341E PUSH3 0x3AC4 JUMP JUMPDEST PUSH1 0x2 SLOAD SWAP1 DUP1 PUSH1 0x2 SSTORE DUP3 MLOAD SWAP2 DUP3 MSTORE PUSH1 0x20 DUP3 ADD MSTORE LOG1 DUP1 RETURN JUMPDEST POP CALLVALUE PUSH3 0x1E8 JUMPI PUSH1 0x20 CALLDATASIZE PUSH1 0x3 NOT ADD SLT PUSH3 0x1E8 JUMPI DUP1 PUSH2 0x160 PUSH1 0x40 MLOAD PUSH3 0x345A DUP2 PUSH3 0x3945 JUMP JUMPDEST DUP3 DUP2 MSTORE DUP3 PUSH1 0x20 DUP3 ADD MSTORE DUP3 PUSH1 0x40 DUP3 ADD MSTORE DUP3 PUSH1 0x60 DUP3 ADD MSTORE DUP3 PUSH1 0x80 DUP3 ADD MSTORE DUP3 PUSH1 0xA0 DUP3 ADD MSTORE DUP3 PUSH1 0xC0 DUP3 ADD MSTORE DUP3 PUSH1 0xE0 DUP3 ADD MSTORE DUP3 PUSH2 0x100 DUP3 ADD MSTORE DUP3 PUSH2 0x120 DUP3 ADD MSTORE DUP3 PUSH2 0x140 DUP3 ADD MSTORE ADD MSTORE PUSH1 0x4 CALLDATALOAD DUP2 MSTORE PUSH1 0x6 PUSH1 0x20 MSTORE PUSH1 0x40 DUP2 KECCAK256 SWAP1 PUSH1 0x40 MLOAD SWAP1 PUSH3 0x34BC DUP3 PUSH3 0x3945 JUMP JUMPDEST DUP3 SLOAD DUP3 MSTORE PUSH1 0x1 DUP4 ADD SLOAD PUSH1 0x20 DUP4 ADD MSTORE PUSH1 0x2 DUP4 ADD SLOAD PUSH1 0x1 PUSH1 0x1 PUSH1 0xA0 SHL SUB DUP2 AND PUSH1 0x40 DUP5 ADD MSTORE PUSH1 0xFF SWAP1 PUSH3 0x34F6 PUSH1 0xA0 DUP3 SWAP1 SHR DUP4 AND PUSH1 0x60 DUP7 ADD PUSH3 0x3D91 JUMP JUMPDEST PUSH1 0xA8 SHR AND PUSH3 0x3505 DUP2 PUSH3 0x3844 JUMP JUMPDEST PUSH1 0x80 DUP4 ADD MSTORE PUSH1 0x3 DUP4 ADD SLOAD PUSH1 0xA0 DUP4 ADD MSTORE PUSH1 0x4 DUP4 ADD SLOAD PUSH1 0xC0 DUP4 ADD MSTORE PUSH1 0x5 DUP4 ADD SLOAD PUSH1 0xE0 DUP4 ADD MSTORE PUSH1 0x6 DUP4 ADD SLOAD PUSH2 0x100 DUP4 ADD MSTORE PUSH1 0xFF PUSH1 0x7 DUP5 ADD SLOAD AND SWAP1 PUSH1 0x5 DUP3 LT ISZERO PUSH3 0x360D JUMPI POP PUSH2 0x180 SWAP3 PUSH1 0x9 SWAP2 PUSH2 0x120 DUP5 ADD MSTORE PUSH1 0x8 DUP2 ADD SLOAD PUSH2 0x140 DUP5 ADD MSTORE ADD SLOAD PUSH2 0x160 DUP3 ADD MSTORE PUSH2 0x160 PUSH1 0x40 MLOAD SWAP2 DUP1 MLOAD DUP4 MSTORE PUSH1 0x20 DUP2 ADD MLOAD PUSH1 0x20 DUP5 ADD MSTORE PUSH1 0x1 DUP1 PUSH1 0xA0 SHL SUB PUSH1 0x40 DUP3 ADD MLOAD AND PUSH1 0x40 DUP5 ADD MSTORE PUSH3 0x35A2 PUSH1 0x60 DUP3 ADD MLOAD PUSH1 0x60 DUP6 ADD SWAP1 PUSH3 0x38EC JUMP JUMPDEST PUSH1 0x80 DUP2 ADD MLOAD PUSH3 0x35B2 DUP2 PUSH3 0x3844 JUMP JUMPDEST PUSH1 0x80 DUP5 ADD MSTORE PUSH1 0xA0 DUP2 ADD MLOAD PUSH1 0xA0 DUP5 ADD MSTORE PUSH1 0xC0 DUP2 ADD MLOAD PUSH1 0xC0 DUP5 ADD MSTORE PUSH1 0xE0 DUP2 ADD MLOAD PUSH1 0xE0 DUP5 ADD MSTORE PUSH2 0x100 DUP2 ADD MLOAD PUSH2 0x100 DUP5 ADD MSTORE PUSH3 0x35F7 PUSH2 0x120 DUP3 ADD MLOAD PUSH2 0x120 DUP6 ADD SWAP1 PUSH3 0x38FA JUMP JUMPDEST PUSH2 0x140 DUP2 ADD MLOAD PUSH2 0x140 DUP5 ADD MSTORE ADD MLOAD PUSH2 0x160 DUP3 ADD MSTORE RETURN JUMPDEST PUSH4 0x4E487B71 PUSH1 0xE0 SHL DUP2 MSTORE PUSH1 0x21 PUSH1 0x4 MSTORE PUSH1 0x24 SWAP1 REVERT JUMPDEST POP CALLVALUE PUSH3 0x1E8 JUMPI DUP1 PUSH1 0x3 NOT CALLDATASIZE ADD SLT PUSH3 0x1E8 JUMPI PUSH1 0x40 MLOAD PUSH1 0xA DUP1 SLOAD DUP1 DUP4 MSTORE SWAP1 DUP4 MSTORE PUSH1 0x20 DUP1 DUP4 ADD SWAP4 PUSH32 0xC65A7BB8D6351C1CF70C95A316CC6A92839C986682D98BC35F958F4883F9D2A8 SWAP3 SWAP2 JUMPDEST DUP3 DUP3 LT PUSH3 0x3686 JUMPI PUSH3 0x2B75 DUP6 PUSH3 0x2B68 DUP2 DUP10 SUB DUP3 PUSH3 0x3995 JUMP JUMPDEST DUP4 SLOAD DUP7 MSTORE SWAP5 DUP6 ADD SWAP5 PUSH1 0x1 SWAP4 DUP5 ADD SWAP4 SWAP1 SWAP2 ADD SWAP1 PUSH3 0x366B JUMP JUMPDEST POP CALLVALUE PUSH3 0x1E8 JUMPI PUSH1 0x40 CALLDATASIZE PUSH1 0x3 NOT ADD SLT PUSH3 0x1E8 JUMPI PUSH3 0x36BC PUSH3 0x3881 JUMP JUMPDEST CALLER PUSH1 0x1 PUSH1 0x1 PUSH1 0xA0 SHL SUB DUP3 AND SUB PUSH3 0x36DB JUMPI PUSH3 0xCE5 SWAP1 PUSH1 0x4 CALLDATALOAD PUSH3 0x3C74 JUMP JUMPDEST PUSH1 0x40 MLOAD PUSH4 0x334BD919 PUSH1 0xE1 SHL DUP2 MSTORE PUSH1 0x4 SWAP1 REVERT JUMPDEST POP CALLVALUE PUSH3 0x1E8 JUMPI PUSH1 0x40 CALLDATASIZE PUSH1 0x3 NOT ADD SLT PUSH3 0x1E8 JUMPI PUSH3 0xCE5 PUSH1 0x4 CALLDATALOAD PUSH3 0x3712 PUSH3 0x3881 JUMP JUMPDEST SWAP1 DUP1 DUP5 MSTORE PUSH1 0x1 PUSH1 0x20 MSTORE PUSH3 0x372D PUSH1 0x1 PUSH1 0x40 DUP7 KECCAK256 ADD SLOAD PUSH3 0x3B1D JUMP JUMPDEST PUSH3 0x3BF8 JUMP JUMPDEST POP CALLVALUE PUSH3 0x1E8 JUMPI PUSH1 0x20 CALLDATASIZE PUSH1 0x3 NOT ADD SLT PUSH3 0x1E8 JUMPI PUSH1 0x1 PUSH1 0x40 PUSH1 0x20 SWAP3 PUSH1 0x4 CALLDATALOAD DUP2 MSTORE DUP3 DUP5 MSTORE KECCAK256 ADD SLOAD PUSH1 0x40 MLOAD SWAP1 DUP2 MSTORE RETURN JUMPDEST POP CALLVALUE PUSH3 0x1E8 JUMPI PUSH1 0x80 CALLDATASIZE PUSH1 0x3 NOT ADD SLT PUSH3 0x1E8 JUMPI PUSH1 0x24 CALLDATALOAD SWAP1 PUSH1 0x3 DUP3 LT ISZERO PUSH3 0x1E8 JUMPI PUSH1 0x44 CALLDATALOAD PUSH1 0x2 DUP2 LT ISZERO PUSH3 0x51B JUMPI PUSH3 0x37C2 SWAP1 PUSH1 0x64 CALLDATALOAD SWAP4 PUSH1 0x4 CALLDATALOAD DUP5 MSTORE PUSH1 0x7 PUSH1 0x20 MSTORE PUSH1 0x40 DUP5 KECCAK256 SWAP1 PUSH3 0x37B3 DUP2 PUSH3 0x3844 JUMP JUMPDEST DUP5 MSTORE PUSH1 0x20 MSTORE PUSH1 0x40 DUP4 KECCAK256 PUSH3 0x384F JUMP JUMPDEST SWAP1 DUP2 SLOAD DUP4 LT ISZERO PUSH3 0x1E8 JUMPI PUSH1 0x20 PUSH3 0x37DB DUP5 DUP5 PUSH3 0x3868 JUMP JUMPDEST SWAP1 SLOAD SWAP1 PUSH1 0x3 SHL SHR PUSH1 0x40 MLOAD SWAP1 DUP2 MSTORE RETURN JUMPDEST SWAP1 POP CALLVALUE PUSH3 0x51B JUMPI PUSH1 0x20 CALLDATASIZE PUSH1 0x3 NOT ADD SLT PUSH3 0x51B JUMPI PUSH1 0x4 CALLDATALOAD PUSH4 0xFFFFFFFF PUSH1 0xE0 SHL DUP2 AND DUP1 SWAP2 SUB PUSH3 0x4F4 JUMPI PUSH1 0x20 SWAP3 POP PUSH4 0x7965DB0B PUSH1 0xE0 SHL DUP2 EQ SWAP1 DUP2 ISZERO PUSH3 0x3832 JUMPI JUMPDEST POP ISZERO ISZERO DUP2 MSTORE RETURN JUMPDEST PUSH4 0x1FFC9A7 PUSH1 0xE0 SHL EQ SWAP1 POP CODESIZE PUSH3 0x382B JUMP JUMPDEST PUSH1 0x3 GT ISZERO PUSH3 0xEE9 JUMPI JUMP JUMPDEST SWAP1 PUSH1 0x2 DUP2 LT ISZERO PUSH3 0xEE9 JUMPI PUSH1 0x0 MSTORE PUSH1 0x20 MSTORE PUSH1 0x40 PUSH1 0x0 KECCAK256 SWAP1 JUMP JUMPDEST DUP1 SLOAD DUP3 LT ISZERO PUSH3 0xB32 JUMPI PUSH1 0x0 MSTORE PUSH1 0x20 PUSH1 0x0 KECCAK256 ADD SWAP1 PUSH1 0x0 SWAP1 JUMP JUMPDEST PUSH1 0x24 CALLDATALOAD SWAP1 PUSH1 0x1 PUSH1 0x1 PUSH1 0xA0 SHL SUB DUP3 AND DUP3 SUB PUSH3 0x55E JUMPI JUMP JUMPDEST PUSH1 0x4 CALLDATALOAD SWAP1 PUSH1 0x1 PUSH1 0x1 PUSH1 0xA0 SHL SUB DUP3 AND DUP3 SUB PUSH3 0x55E JUMPI JUMP JUMPDEST PUSH1 0x20 SWAP1 DUP2 PUSH1 0x40 DUP2 DUP4 ADD SWAP3 DUP3 DUP2 MSTORE DUP6 MLOAD DUP1 SWAP5 MSTORE ADD SWAP4 ADD SWAP2 PUSH1 0x0 JUMPDEST DUP3 DUP2 LT PUSH3 0x38D7 JUMPI POP POP POP POP SWAP1 JUMP JUMPDEST DUP4 MLOAD DUP6 MSTORE SWAP4 DUP2 ADD SWAP4 SWAP3 DUP2 ADD SWAP3 PUSH1 0x1 ADD PUSH3 0x38C8 JUMP JUMPDEST SWAP1 PUSH1 0x2 DUP3 LT ISZERO PUSH3 0xEE9 JUMPI MSTORE JUMP JUMPDEST SWAP1 PUSH1 0x5 DUP3 LT ISZERO PUSH3 0xEE9 JUMPI MSTORE JUMP JUMPDEST SWAP1 PUSH1 0x1 DUP3 DUP2 SHR SWAP3 AND DUP1 ISZERO PUSH3 0x393A JUMPI JUMPDEST PUSH1 0x20 DUP4 LT EQ PUSH3 0x3924 JUMPI JUMP JUMPDEST PUSH4 0x4E487B71 PUSH1 0xE0 SHL PUSH1 0x0 MSTORE PUSH1 0x22 PUSH1 0x4 MSTORE PUSH1 0x24 PUSH1 0x0 REVERT JUMPDEST SWAP2 PUSH1 0x7F AND SWAP2 PUSH3 0x3918 JUMP JUMPDEST PUSH2 0x180 DUP2 ADD SWAP1 DUP2 LT PUSH8 0xFFFFFFFFFFFFFFFF DUP3 GT OR PUSH3 0xB48 JUMPI PUSH1 0x40 MSTORE JUMP JUMPDEST PUSH8 0xFFFFFFFFFFFFFFFF DUP2 GT PUSH3 0xB48 JUMPI PUSH1 0x40 MSTORE JUMP JUMPDEST PUSH1 0x60 DUP2 ADD SWAP1 DUP2 LT PUSH8 0xFFFFFFFFFFFFFFFF DUP3 GT OR PUSH3 0xB48 JUMPI PUSH1 0x40 MSTORE JUMP JUMPDEST SWAP1 PUSH1 0x1F DUP1 NOT SWAP2 ADD AND DUP2 ADD SWAP1 DUP2 LT PUSH8 0xFFFFFFFFFFFFFFFF DUP3 GT OR PUSH3 0xB48 JUMPI PUSH1 0x40 MSTORE JUMP JUMPDEST SWAP1 PUSH1 0x40 MLOAD SWAP2 DUP3 PUSH1 0x0 DUP3 SLOAD SWAP3 PUSH3 0x39CE DUP5 PUSH3 0x3908 JUMP JUMPDEST SWAP1 DUP2 DUP5 MSTORE PUSH1 0x1 SWAP5 DUP6 DUP2 AND SWAP1 DUP2 PUSH1 0x0 EQ PUSH3 0x3A45 JUMPI POP PUSH1 0x1 EQ PUSH3 0x39FE JUMPI JUMPDEST POP POP PUSH3 0x39FC SWAP3 POP SUB DUP4 PUSH3 0x3995 JUMP JUMPDEST JUMP JUMPDEST SWAP1 SWAP4 SWAP2 POP PUSH1 0x0 MSTORE PUSH1 0x20 SWAP1 DUP2 PUSH1 0x0 KECCAK256 SWAP4 PUSH1 0x0 SWAP2 JUMPDEST DUP2 DUP4 LT PUSH3 0x3A2C JUMPI POP POP PUSH3 0x39FC SWAP4 POP DUP3 ADD ADD CODESIZE DUP1 PUSH3 0x39EC JUMP JUMPDEST DUP6 SLOAD DUP9 DUP5 ADD DUP6 ADD MSTORE SWAP5 DUP6 ADD SWAP5 DUP8 SWAP5 POP SWAP2 DUP4 ADD SWAP2 PUSH3 0x3A11 JUMP JUMPDEST SWAP2 POP POP PUSH3 0x39FC SWAP5 POP PUSH1 0x20 SWAP3 POP PUSH1 0xFF NOT AND DUP3 DUP5 ADD MSTORE ISZERO ISZERO PUSH1 0x5 SHL DUP3 ADD ADD CODESIZE DUP1 PUSH3 0x39EC JUMP JUMPDEST PUSH1 0x0 JUMPDEST DUP4 DUP2 LT PUSH3 0x3A7E JUMPI POP POP PUSH1 0x0 SWAP2 ADD MSTORE JUMP JUMPDEST DUP2 DUP2 ADD MLOAD DUP4 DUP3 ADD MSTORE PUSH1 0x20 ADD PUSH3 0x3A6D JUMP JUMPDEST SWAP1 PUSH1 0x20 SWAP2 PUSH3 0x3AAA DUP2 MLOAD DUP1 SWAP3 DUP2 DUP6 MSTORE DUP6 DUP1 DUP7 ADD SWAP2 ADD PUSH3 0x3A6A JUMP JUMPDEST PUSH1 0x1F ADD PUSH1 0x1F NOT AND ADD ADD SWAP1 JUMP JUMPDEST SWAP1 PUSH1 0x4 DUP3 LT ISZERO PUSH3 0xEE9 JUMPI MSTORE JUMP JUMPDEST CALLER PUSH1 0x0 SWAP1 DUP2 MSTORE PUSH32 0xA6EEF7E35ABE7026729641147F7915573C7E97B47EFA546F5F6E3230263BCB49 PUSH1 0x20 MSTORE PUSH1 0x40 DUP2 KECCAK256 SLOAD PUSH1 0xFF AND ISZERO PUSH3 0x3AFF JUMPI POP JUMP JUMPDEST PUSH1 0x44 SWAP1 PUSH1 0x40 MLOAD SWAP1 PUSH4 0xE2517D3F PUSH1 0xE0 SHL DUP3 MSTORE CALLER PUSH1 0x4 DUP4 ADD MSTORE PUSH1 0x24 DUP3 ADD MSTORE REVERT JUMPDEST DUP1 PUSH1 0x0 MSTORE PUSH1 0x1 PUSH1 0x20 MSTORE PUSH1 0x40 PUSH1 0x0 KECCAK256 CALLER PUSH1 0x0 MSTORE PUSH1 0x20 MSTORE PUSH1 0xFF PUSH1 0x40 PUSH1 0x0 KECCAK256 SLOAD AND ISZERO PUSH3 0x3AFF JUMPI POP JUMP JUMPDEST PUSH1 0x1 PUSH1 0x1 PUSH1 0xA0 SHL SUB AND PUSH1 0x0 DUP2 DUP2 MSTORE PUSH32 0x31C1E66639F421F1853AEEFE8AD6B62A3B96F3287EFE23106923CD924AA025C2 PUSH1 0x20 MSTORE PUSH1 0x40 DUP2 KECCAK256 SLOAD SWAP1 SWAP2 SWAP1 PUSH32 0x97667070C54EF182B0F5858B034BEAC1B6F3089AA2D3188BB1E8929F4FA9B929 SWAP1 PUSH1 0xFF AND PUSH3 0x3BF3 JUMPI DUP1 DUP4 MSTORE PUSH1 0x1 PUSH1 0x20 MSTORE PUSH1 0x40 DUP4 KECCAK256 DUP3 DUP5 MSTORE PUSH1 0x20 MSTORE PUSH1 0x40 DUP4 KECCAK256 PUSH1 0x1 PUSH1 0xFF NOT DUP3 SLOAD AND OR SWAP1 SSTORE PUSH32 0x2F8788117E7EFF1D82E926EC794901D17C78024A50270940304540A733656F0D CALLER SWAP4 DUP1 LOG4 PUSH1 0x1 SWAP1 JUMP JUMPDEST POP POP SWAP1 JUMP JUMPDEST SWAP1 PUSH1 0x0 SWAP2 DUP1 DUP4 MSTORE PUSH1 0x1 PUSH1 0x20 MSTORE PUSH1 0x40 DUP4 KECCAK256 SWAP2 PUSH1 0x1 DUP1 PUSH1 0xA0 SHL SUB AND SWAP2 DUP3 DUP5 MSTORE PUSH1 0x20 MSTORE PUSH1 0xFF PUSH1 0x40 DUP5 KECCAK256 SLOAD AND ISZERO PUSH1 0x0 EQ PUSH3 0x3BF3 JUMPI DUP1 DUP4 MSTORE PUSH1 0x1 PUSH1 0x20 MSTORE PUSH1 0x40 DUP4 KECCAK256 DUP3 DUP5 MSTORE PUSH1 0x20 MSTORE PUSH1 0x40 DUP4 KECCAK256 PUSH1 0x1 PUSH1 0xFF NOT DUP3 SLOAD AND OR SWAP1 SSTORE PUSH32 0x2F8788117E7EFF1D82E926EC794901D17C78024A50270940304540A733656F0D CALLER SWAP4 DUP1 LOG4 PUSH1 0x1 SWAP1 JUMP JUMPDEST SWAP1 PUSH1 0x0 SWAP2 DUP1 DUP4 MSTORE PUSH1 0x1 PUSH1 0x20 MSTORE PUSH1 0x40 DUP4 KECCAK256 SWAP2 PUSH1 0x1 DUP1 PUSH1 0xA0 SHL SUB AND SWAP2 DUP3 DUP5 MSTORE PUSH1 0x20 MSTORE PUSH1 0xFF PUSH1 0x40 DUP5 KECCAK256 SLOAD AND PUSH1 0x0 EQ PUSH3 0x3BF3 JUMPI DUP1 DUP4 MSTORE PUSH1 0x1 PUSH1 0x20 MSTORE PUSH1 0x40 DUP4 KECCAK256 DUP3 DUP5 MSTORE PUSH1 0x20 MSTORE PUSH1 0x40 DUP4 KECCAK256 PUSH1 0xFF NOT DUP2 SLOAD AND SWAP1 SSTORE PUSH32 0xF6391F5C32D9C69D2A47EA670B442974B53935D1EDC7FD64EB21E047A839171B CALLER SWAP4 DUP1 LOG4 PUSH1 0x1 SWAP1 JUMP JUMPDEST PUSH8 0xFFFFFFFFFFFFFFFF DUP2 GT PUSH3 0xB48 JUMPI PUSH1 0x1F ADD PUSH1 0x1F NOT AND PUSH1 0x20 ADD SWAP1 JUMP JUMPDEST SWAP1 PUSH3 0x3D15 DUP2 PUSH3 0x3844 JUMP JUMPDEST PUSH2 0xFF00 DUP3 SLOAD SWAP2 PUSH1 0x8 SHL AND SWAP1 PUSH2 0xFF00 NOT AND OR SWAP1 SSTORE JUMP JUMPDEST DUP1 SLOAD SWAP1 PUSH1 0x1 PUSH1 0x40 SHL DUP3 LT ISZERO PUSH3 0xB48 JUMPI DUP2 PUSH3 0x3D50 SWAP2 PUSH1 0x1 PUSH3 0x3D67 SWAP5 ADD DUP2 SSTORE PUSH3 0x3868 JUMP JUMPDEST DUP2 SWAP4 SWAP2 SLOAD SWAP1 PUSH1 0x3 SHL SWAP2 DUP3 SHL SWAP2 PUSH1 0x0 NOT SWAP1 SHL NOT AND OR SWAP1 JUMP JUMPDEST SWAP1 SSTORE JUMP JUMPDEST PUSH1 0x0 NOT DUP2 EQ PUSH3 0x3D7B JUMPI PUSH1 0x1 ADD SWAP1 JUMP JUMPDEST PUSH4 0x4E487B71 PUSH1 0xE0 SHL PUSH1 0x0 MSTORE PUSH1 0x11 PUSH1 0x4 MSTORE PUSH1 0x24 PUSH1 0x0 REVERT JUMPDEST PUSH1 0x2 DUP3 LT ISZERO PUSH3 0xEE9 JUMPI MSTORE JUMP JUMPDEST PUSH1 0x2 PUSH1 0x0 SLOAD EQ PUSH3 0x3DB0 JUMPI PUSH1 0x2 PUSH1 0x0 SSTORE JUMP JUMPDEST PUSH1 0x40 MLOAD PUSH4 0x3EE5AEB5 PUSH1 0xE0 SHL DUP2 MSTORE PUSH1 0x4 SWAP1 REVERT JUMPDEST SWAP2 SWAP1 DUP3 SUB SWAP2 DUP3 GT PUSH3 0x3D7B JUMPI JUMP JUMPDEST DUP2 DUP2 MUL SWAP3 SWAP2 DUP2 ISZERO SWAP2 DUP5 DIV EQ OR ISZERO PUSH3 0x3D7B JUMPI JUMP JUMPDEST SWAP1 DUP2 PUSH1 0x20 SWAP2 SUB SLT PUSH3 0x55E JUMPI MLOAD PUSH1 0x1 PUSH1 0x1 PUSH1 0xA0 SHL SUB DUP2 AND DUP2 SUB PUSH3 0x55E JUMPI SWAP1 JUMP JUMPDEST SWAP1 DUP2 PUSH1 0x20 SWAP2 SUB SLT PUSH3 0x55E JUMPI MLOAD DUP1 ISZERO ISZERO DUP2 SUB PUSH3 0x55E JUMPI SWAP1 JUMP JUMPDEST SWAP2 SWAP1 DUP3 ADD DUP1 SWAP3 GT PUSH3 0x3D7B JUMPI JUMP JUMPDEST PUSH1 0xFF PUSH1 0x7 DUP3 ADD SLOAD AND PUSH1 0x5 DUP2 LT ISZERO PUSH3 0xEE9 JUMPI DUP1 ISZERO ISZERO SWAP1 DUP2 PUSH3 0x3E85 JUMPI JUMPDEST POP PUSH3 0x3E74 JUMPI PUSH1 0x9 DUP2 ADD SLOAD DUP1 ISZERO ISZERO SWAP1 DUP2 PUSH3 0x3E7A JUMPI JUMPDEST POP PUSH3 0x3E74 JUMPI PUSH1 0x4 PUSH1 0x5 DUP3 ADD SLOAD SWAP2 ADD SLOAD GT SWAP1 JUMP JUMPDEST POP PUSH1 0x0 SWAP1 JUMP JUMPDEST SWAP1 POP TIMESTAMP GT CODESIZE PUSH3 0x3E60 JUMP JUMPDEST PUSH1 0x1 SWAP2 POP EQ ISZERO CODESIZE PUSH3 0x3E4A JUMP JUMPDEST SWAP2 SWAP1 SWAP2 PUSH1 0x2 DUP2 LT ISZERO PUSH3 0xEE9 JUMPI PUSH3 0x3EB7 JUMPI PUSH2 0x2710 SWAP2 PUSH3 0x3EB3 SWAP2 PUSH3 0x3DD0 JUMP JUMPDEST DIV SWAP1 JUMP JUMPDEST POP POP PUSH1 0x0 SWAP1 JUMP JUMPDEST SWAP3 SWAP2 PUSH3 0x3EDF SWAP2 PUSH1 0x0 SWAP5 DUP6 MSTORE PUSH1 0x7 PUSH1 0x20 MSTORE PUSH1 0x40 DUP6 KECCAK256 SWAP1 PUSH3 0x1389 DUP2 PUSH3 0x3844 JUMP JUMPDEST DUP3 JUMPDEST DUP2 SLOAD DUP1 DUP3 LT ISZERO PUSH3 0x3FA4 JUMPI DUP4 SWAP1 PUSH3 0x3EFA DUP4 DUP6 PUSH3 0x3868 JUMP JUMPDEST SWAP3 SWAP1 SLOAD PUSH1 0x3 SWAP4 DUP5 SHL SHR EQ PUSH3 0x3F1C JUMPI POP POP PUSH3 0x3F16 SWAP1 PUSH3 0x3D6B JUMP JUMPDEST PUSH3 0x3EE1 JUMP JUMPDEST SWAP3 SWAP4 POP SWAP4 SWAP1 PUSH1 0x0 NOT SWAP3 DUP4 DUP2 ADD SWAP1 DUP2 GT PUSH3 0x3F90 JUMPI PUSH3 0x3D50 PUSH3 0x3F44 PUSH3 0x3F52 SWAP3 DUP8 PUSH3 0x3868 JUMP JUMPDEST SWAP1 SLOAD SWAP1 DUP9 SHL SHR SWAP3 DUP7 PUSH3 0x3868 JUMP JUMPDEST SWAP1 SSTORE DUP3 SLOAD SWAP1 DUP2 ISZERO PUSH3 0x3F7C JUMPI POP DUP2 ADD SWAP3 PUSH3 0x3F6E DUP5 DUP5 PUSH3 0x3868 JUMP JUMPDEST DUP2 SWAP4 SWAP2 SLOAD SWAP3 SHL SHL NOT AND SWAP1 SSTORE SSTORE JUMP JUMPDEST PUSH4 0x4E487B71 PUSH1 0xE0 SHL DUP2 MSTORE PUSH1 0x31 PUSH1 0x4 MSTORE PUSH1 0x24 SWAP1 REVERT JUMPDEST PUSH4 0x4E487B71 PUSH1 0xE0 SHL DUP4 MSTORE PUSH1 0x11 PUSH1 0x4 MSTORE PUSH1 0x24 DUP4 REVERT JUMPDEST POP POP POP POP POP JUMP JUMPDEST PUSH1 0x9 DUP2 ADD SLOAD ISZERO PUSH3 0x4020 JUMPI PUSH1 0xA ADD SLOAD PUSH1 0x1 PUSH1 0x1 PUSH1 0xA0 SHL SUB AND CALLER EQ ISZERO DUP1 PUSH3 0x3FE6 JUMPI JUMPDEST PUSH3 0x3FD4 JUMPI JUMP JUMPDEST PUSH1 0x40 MLOAD PUSH4 0x26B9CDFF PUSH1 0xE1 SHL DUP2 MSTORE PUSH1 0x4 SWAP1 REVERT JUMPDEST POP CALLER PUSH1 0x0 SWAP1 DUP2 MSTORE PUSH32 0xA6EEF7E35ABE7026729641147F7915573C7E97B47EFA546F5F6E3230263BCB49 PUSH1 0x20 MSTORE PUSH1 0x40 SWAP1 KECCAK256 SLOAD PUSH1 0xFF AND ISZERO PUSH3 0x3FCD JUMP JUMPDEST PUSH1 0x40 MLOAD PUSH4 0xB0CFA447 PUSH1 0xE0 SHL DUP2 MSTORE PUSH1 0x4 SWAP1 REVERT JUMPDEST PUSH1 0xFF AND PUSH1 0xFF DUP2 EQ PUSH3 0x3D7B JUMPI PUSH1 0x1 ADD SWAP1 JUMP JUMPDEST SWAP1 PUSH1 0x0 JUMPDEST PUSH1 0xFF DUP2 AND PUSH1 0x20 DUP2 LT SWAP1 DUP2 PUSH3 0x40F5 JUMPI JUMPDEST POP ISZERO PUSH3 0x4070 JUMPI PUSH3 0x406A SWAP1 PUSH3 0x4032 JUMP JUMPDEST PUSH3 0x4048 JUMP JUMPDEST SWAP1 PUSH1 0xFF DUP1 SWAP3 AND SWAP1 PUSH3 0x4082 DUP3 PUSH3 0x3CEC JUMP JUMPDEST SWAP2 PUSH3 0x4092 PUSH1 0x40 MLOAD SWAP4 DUP5 PUSH3 0x3995 JUMP JUMPDEST DUP1 DUP4 MSTORE PUSH1 0x1F NOT PUSH3 0x40A3 DUP3 PUSH3 0x3CEC JUMP JUMPDEST ADD SWAP2 PUSH1 0x20 SWAP3 CALLDATASIZE DUP5 DUP7 ADD CALLDATACOPY PUSH1 0x0 JUMPDEST DUP6 DUP2 AND SWAP1 DUP4 DUP3 LT ISZERO PUSH3 0x40EA JUMPI DUP5 DUP3 LT ISZERO PUSH3 0xB32 JUMPI DUP6 MLOAD DUP3 LT ISZERO PUSH3 0xB32 JUMPI DUP2 DUP6 DUP10 PUSH3 0x40E4 SWAP5 BYTE SWAP2 DUP9 ADD ADD MSTORE8 PUSH3 0x4032 JUMP JUMPDEST PUSH3 0x40B0 JUMP JUMPDEST POP POP SWAP5 POP POP POP SWAP1 POP SWAP1 JUMP JUMPDEST SWAP1 ISZERO PUSH3 0xB32 JUMPI DUP4 SWAP1 BYTE PUSH1 0xF8 SHL PUSH1 0x1 PUSH1 0x1 PUSH1 0xF8 SHL SUB NOT AND ISZERO ISZERO CODESIZE PUSH3 0x4058 JUMP INVALID PUSH1 0xC0 PUSH1 0x40 MSTORE CALLVALUE PUSH3 0x3C3 JUMPI PUSH3 0xEC7 DUP1 CODESIZE SUB DUP1 PUSH3 0x1D DUP2 PUSH3 0x3C8 JUMP JUMPDEST SWAP3 DUP4 CODECOPY DUP2 ADD SWAP1 PUSH1 0xA0 DUP2 DUP4 SUB SLT PUSH3 0x3C3 JUMPI DUP1 MLOAD PUSH1 0x1 PUSH1 0x1 PUSH1 0x40 SHL SUB SWAP1 DUP2 DUP2 GT PUSH3 0x3C3 JUMPI DUP4 PUSH3 0x4F SWAP2 DUP5 ADD PUSH3 0x3EE JUMP JUMPDEST SWAP1 PUSH1 0x20 SWAP4 DUP5 DUP5 ADD MLOAD SWAP1 DUP3 DUP3 GT PUSH3 0x3C3 JUMPI PUSH3 0x6D SWAP2 DUP6 ADD PUSH3 0x3EE JUMP JUMPDEST SWAP4 PUSH1 0x40 DUP5 ADD MLOAD SWAP3 PUSH1 0x60 DUP6 ADD MLOAD SWAP5 DUP6 ISZERO ISZERO DUP7 SUB PUSH3 0x3C3 JUMPI PUSH1 0x80 ADD MLOAD PUSH1 0x1 PUSH1 0x1 PUSH1 0xA0 SHL SUB SWAP7 DUP8 DUP3 AND SWAP5 SWAP2 DUP6 SWAP1 SUB PUSH3 0x3C3 JUMPI DUP3 MLOAD DUP3 DUP2 GT PUSH3 0x2C3 JUMPI PUSH1 0x3 SWAP2 DUP3 SLOAD SWAP2 PUSH1 0x1 SWAP6 DUP7 DUP5 DUP2 SHR SWAP5 AND DUP1 ISZERO PUSH3 0x3B8 JUMPI JUMPDEST DUP9 DUP6 LT EQ PUSH3 0x3A2 JUMPI DUP2 SWAP1 PUSH1 0x1F SWAP5 DUP6 DUP2 GT PUSH3 0x34C JUMPI JUMPDEST POP DUP9 SWAP1 DUP6 DUP4 GT PUSH1 0x1 EQ PUSH3 0x2E5 JUMPI PUSH1 0x0 SWAP3 PUSH3 0x2D9 JUMPI JUMPDEST POP POP PUSH1 0x0 NOT DUP3 DUP7 SHL SHR NOT AND SWAP1 DUP7 SHL OR DUP4 SSTORE JUMPDEST DUP1 MLOAD SWAP4 DUP5 GT PUSH3 0x2C3 JUMPI PUSH1 0x4 SWAP6 DUP7 SLOAD DUP7 DUP2 DUP2 SHR SWAP2 AND DUP1 ISZERO PUSH3 0x2B8 JUMPI JUMPDEST DUP3 DUP3 LT EQ PUSH3 0x2A3 JUMPI DUP4 DUP2 GT PUSH3 0x258 JUMPI JUMPDEST POP DUP1 SWAP3 DUP6 GT PUSH1 0x1 EQ PUSH3 0x1EA JUMPI POP SWAP4 DUP4 SWAP5 SWAP2 DUP5 SWAP3 PUSH1 0x0 SWAP6 PUSH3 0x1DE JUMPI JUMPDEST POP POP SHL SWAP3 PUSH1 0x0 NOT SWAP2 SHL SHR NOT AND OR DUP2 SSTORE JUMPDEST DUP2 ISZERO PUSH3 0x1C6 JUMPI POP PUSH1 0x5 DUP1 SLOAD PUSH1 0x1 PUSH1 0x1 PUSH1 0xA0 SHL SUB NOT DUP2 AND DUP4 OR SWAP1 SWAP2 SSTORE PUSH1 0x40 MLOAD SWAP5 AND PUSH32 0x8BE0079C531659141344CD1FD0A4F28419497F9722A3DAAFE3B4186F6B6457E0 PUSH1 0x0 DUP1 LOG3 PUSH1 0x80 MSTORE PUSH1 0xA0 MSTORE PUSH2 0xA66 SWAP1 DUP2 PUSH3 0x461 DUP3 CODECOPY PUSH1 0x80 MLOAD DUP2 PUSH2 0x501 ADD MSTORE PUSH1 0xA0 MLOAD DUP2 PUSH2 0x1FB ADD MSTORE RETURN JUMPDEST PUSH1 0x24 SWAP1 PUSH1 0x0 PUSH1 0x40 MLOAD SWAP2 PUSH4 0x1E4FBDF7 PUSH1 0xE0 SHL DUP4 MSTORE DUP3 ADD MSTORE REVERT JUMPDEST ADD MLOAD SWAP4 POP CODESIZE DUP1 PUSH3 0x14B JUMP JUMPDEST SWAP3 SWAP2 SWAP1 DUP5 PUSH1 0x1F NOT DUP2 AND DUP9 PUSH1 0x0 MSTORE DUP6 PUSH1 0x0 KECCAK256 SWAP6 PUSH1 0x0 SWAP1 JUMPDEST DUP10 DUP4 DUP4 LT PUSH3 0x23D JUMPI POP POP POP LT PUSH3 0x222 JUMPI JUMPDEST POP POP POP POP DUP2 SHL ADD DUP2 SSTORE PUSH3 0x15B JUMP JUMPDEST ADD MLOAD SWAP1 PUSH1 0xF8 DUP5 PUSH1 0x0 NOT SWAP3 SHL AND SHR NOT AND SWAP1 SSTORE CODESIZE DUP1 DUP1 DUP1 PUSH3 0x213 JUMP JUMPDEST DUP6 DUP8 ADD MLOAD DUP10 SSTORE SWAP1 SWAP8 ADD SWAP7 SWAP5 DUP6 ADD SWAP5 DUP9 SWAP4 POP SWAP1 DUP2 ADD SWAP1 PUSH3 0x200 JUMP JUMPDEST DUP8 PUSH1 0x0 MSTORE DUP2 PUSH1 0x0 KECCAK256 DUP5 DUP1 DUP9 ADD PUSH1 0x5 SHR DUP3 ADD SWAP3 DUP5 DUP10 LT PUSH3 0x299 JUMPI JUMPDEST ADD PUSH1 0x5 SHR ADD SWAP1 DUP8 SWAP1 JUMPDEST DUP3 DUP2 LT PUSH3 0x28C JUMPI POP POP PUSH3 0x12E JUMP JUMPDEST PUSH1 0x0 DUP2 SSTORE ADD DUP8 SWAP1 PUSH3 0x27C JUMP JUMPDEST SWAP3 POP DUP2 SWAP3 PUSH3 0x273 JUMP JUMPDEST PUSH1 0x22 DUP9 PUSH4 0x4E487B71 PUSH1 0xE0 SHL PUSH1 0x0 MSTORE MSTORE PUSH1 0x24 PUSH1 0x0 REVERT JUMPDEST SWAP1 PUSH1 0x7F AND SWAP1 PUSH3 0x11C JUMP JUMPDEST PUSH4 0x4E487B71 PUSH1 0xE0 SHL PUSH1 0x0 MSTORE PUSH1 0x41 PUSH1 0x4 MSTORE PUSH1 0x24 PUSH1 0x0 REVERT JUMPDEST ADD MLOAD SWAP1 POP CODESIZE DUP1 PUSH3 0xED JUMP JUMPDEST SWAP1 DUP9 SWAP4 POP PUSH1 0x1F NOT DUP4 AND SWAP2 DUP8 PUSH1 0x0 MSTORE DUP11 PUSH1 0x0 KECCAK256 SWAP3 PUSH1 0x0 JUMPDEST DUP13 DUP3 DUP3 LT PUSH3 0x335 JUMPI POP POP DUP5 GT PUSH3 0x31C JUMPI JUMPDEST POP POP POP DUP2 SHL ADD DUP4 SSTORE PUSH3 0xFF JUMP JUMPDEST ADD MLOAD PUSH1 0x0 NOT DUP4 DUP9 SHL PUSH1 0xF8 AND SHR NOT AND SWAP1 SSTORE CODESIZE DUP1 DUP1 PUSH3 0x30E JUMP JUMPDEST DUP4 DUP6 ADD MLOAD DUP7 SSTORE DUP13 SWAP8 SWAP1 SWAP6 ADD SWAP5 SWAP4 DUP5 ADD SWAP4 ADD PUSH3 0x2FB JUMP JUMPDEST SWAP1 SWAP2 POP DUP6 PUSH1 0x0 MSTORE DUP9 PUSH1 0x0 KECCAK256 DUP6 DUP1 DUP6 ADD PUSH1 0x5 SHR DUP3 ADD SWAP3 DUP12 DUP7 LT PUSH3 0x398 JUMPI JUMPDEST SWAP2 DUP11 SWAP2 DUP7 SWAP6 SWAP5 SWAP4 ADD PUSH1 0x5 SHR ADD SWAP2 JUMPDEST DUP3 DUP2 LT PUSH3 0x388 JUMPI POP POP PUSH3 0xD6 JUMP JUMPDEST PUSH1 0x0 DUP2 SSTORE DUP6 SWAP5 POP DUP11 SWAP2 ADD PUSH3 0x378 JUMP JUMPDEST SWAP3 POP DUP2 SWAP3 PUSH3 0x36A JUMP JUMPDEST PUSH4 0x4E487B71 PUSH1 0xE0 SHL PUSH1 0x0 MSTORE PUSH1 0x22 PUSH1 0x4 MSTORE PUSH1 0x24 PUSH1 0x0 REVERT JUMPDEST SWAP4 PUSH1 0x7F AND SWAP4 PUSH3 0xBF JUMP JUMPDEST PUSH1 0x0 DUP1 REVERT JUMPDEST PUSH1 0x40 MLOAD SWAP2 SWAP1 PUSH1 0x1F ADD PUSH1 0x1F NOT AND DUP3 ADD PUSH1 0x1 PUSH1 0x1 PUSH1 0x40 SHL SUB DUP2 GT DUP4 DUP3 LT OR PUSH3 0x2C3 JUMPI PUSH1 0x40 MSTORE JUMP JUMPDEST SWAP2 SWAP1 DUP1 PUSH1 0x1F DUP5 ADD SLT ISZERO PUSH3 0x3C3 JUMPI DUP3 MLOAD PUSH1 0x1 PUSH1 0x1 PUSH1 0x40 SHL SUB DUP2 GT PUSH3 0x2C3 JUMPI PUSH1 0x20 SWAP1 PUSH3 0x424 PUSH1 0x1F DUP3 ADD PUSH1 0x1F NOT AND DUP4 ADD PUSH3 0x3C8 JUMP JUMPDEST SWAP3 DUP2 DUP5 MSTORE DUP3 DUP3 DUP8 ADD ADD GT PUSH3 0x3C3 JUMPI PUSH1 0x0 JUMPDEST DUP2 DUP2 LT PUSH3 0x44C JUMPI POP DUP3 PUSH1 0x0 SWAP4 SWAP5 SWAP6 POP ADD ADD MSTORE SWAP1 JUMP JUMPDEST DUP6 DUP2 ADD DUP4 ADD MLOAD DUP5 DUP3 ADD DUP5 ADD MSTORE DUP3 ADD PUSH3 0x436 JUMP INVALID PUSH1 0x80 PUSH1 0x40 DUP2 DUP2 MSTORE PUSH1 0x4 DUP1 CALLDATASIZE LT ISZERO PUSH2 0x15 JUMPI PUSH1 0x0 DUP1 REVERT JUMPDEST PUSH1 0x0 SWAP3 DUP4 CALLDATALOAD PUSH1 0xE0 SHR SWAP1 DUP2 PUSH4 0x6FDDE03 EQ PUSH2 0x7B7 JUMPI POP DUP1 PUSH4 0x95EA7B3 EQ PUSH2 0x70E JUMPI DUP1 PUSH4 0x18160DDD EQ PUSH2 0x6EF JUMPI DUP1 PUSH4 0x23B872DD EQ PUSH2 0x5FC JUMPI DUP1 PUSH4 0x313CE567 EQ PUSH2 0x5E0 JUMPI DUP1 PUSH4 0x40C10F19 EQ PUSH2 0x524 JUMPI DUP1 PUSH4 0x6ED71EDE EQ PUSH2 0x4E9 JUMPI DUP1 PUSH4 0x70A08231 EQ PUSH2 0x4B2 JUMPI DUP1 PUSH4 0x715018A6 EQ PUSH2 0x452 JUMPI DUP1 PUSH4 0x8DA5CB5B EQ PUSH2 0x429 JUMPI DUP1 PUSH4 0x95D89B41 EQ PUSH2 0x309 JUMPI DUP1 PUSH4 0x9DC29FAC EQ PUSH2 0x220 JUMPI DUP1 PUSH4 0xA77DF1C9 EQ PUSH2 0x1E3 JUMPI DUP1 PUSH4 0xA9059CBB EQ PUSH2 0x1B2 JUMPI DUP1 PUSH4 0xDD62ED3E EQ PUSH2 0x165 JUMPI PUSH4 0xF2FDE38B EQ PUSH2 0xD3 JUMPI PUSH1 0x0 DUP1 REVERT JUMPDEST CALLVALUE PUSH2 0x161 JUMPI PUSH1 0x20 CALLDATASIZE PUSH1 0x3 NOT ADD SLT PUSH2 0x161 JUMPI PUSH2 0xEC PUSH2 0x8F5 JUMP JUMPDEST SWAP1 PUSH2 0xF5 PUSH2 0x926 JUMP JUMPDEST PUSH1 0x1 PUSH1 0x1 PUSH1 0xA0 SHL SUB SWAP2 DUP3 AND SWAP3 DUP4 ISZERO PUSH2 0x14B JUMPI POP POP PUSH1 0x5 SLOAD DUP3 PUSH12 0xFFFFFFFFFFFFFFFFFFFFFFFF PUSH1 0xA0 SHL DUP3 AND OR PUSH1 0x5 SSTORE AND PUSH32 0x8BE0079C531659141344CD1FD0A4F28419497F9722A3DAAFE3B4186F6B6457E0 DUP4 DUP1 LOG3 DUP1 RETURN JUMPDEST MLOAD PUSH4 0x1E4FBDF7 PUSH1 0xE0 SHL DUP2 MSTORE SWAP1 DUP2 ADD DUP5 SWAP1 MSTORE PUSH1 0x24 SWAP1 REVERT JUMPDEST DUP3 DUP1 REVERT JUMPDEST POP POP CALLVALUE PUSH2 0x1AE JUMPI DUP1 PUSH1 0x3 NOT CALLDATASIZE ADD SLT PUSH2 0x1AE JUMPI DUP1 PUSH1 0x20 SWAP3 PUSH2 0x183 PUSH2 0x8F5 JUMP JUMPDEST PUSH2 0x18B PUSH2 0x910 JUMP JUMPDEST PUSH1 0x1 PUSH1 0x1 PUSH1 0xA0 SHL SUB SWAP2 DUP3 AND DUP4 MSTORE PUSH1 0x1 DUP7 MSTORE DUP4 DUP4 KECCAK256 SWAP2 AND DUP3 MSTORE DUP5 MSTORE KECCAK256 SLOAD SWAP1 MLOAD SWAP1 DUP2 MSTORE RETURN JUMPDEST POP DUP1 REVERT JUMPDEST POP POP CALLVALUE PUSH2 0x1AE JUMPI DUP1 PUSH1 0x3 NOT CALLDATASIZE ADD SLT PUSH2 0x1AE JUMPI PUSH1 0x20 SWAP1 PUSH2 0x1DC PUSH2 0x1D2 PUSH2 0x8F5 JUMP JUMPDEST PUSH1 0x24 CALLDATALOAD SWAP1 CALLER PUSH2 0x952 JUMP JUMPDEST MLOAD PUSH1 0x1 DUP2 MSTORE RETURN JUMPDEST POP POP CALLVALUE PUSH2 0x1AE JUMPI DUP2 PUSH1 0x3 NOT CALLDATASIZE ADD SLT PUSH2 0x1AE JUMPI PUSH1 0x20 SWAP1 MLOAD PUSH32 0x0 ISZERO ISZERO DUP2 MSTORE RETURN JUMPDEST POP DUP3 SWAP1 CALLVALUE PUSH2 0x1AE JUMPI DUP3 PUSH1 0x3 NOT CALLDATASIZE ADD SLT PUSH2 0x1AE JUMPI PUSH2 0x23B PUSH2 0x8F5 JUMP JUMPDEST SWAP1 PUSH1 0x24 CALLDATALOAD SWAP1 PUSH2 0x248 PUSH2 0x926 JUMP JUMPDEST PUSH1 0x1 PUSH1 0x1 PUSH1 0xA0 SHL SUB DUP4 AND SWAP3 DUP4 ISZERO PUSH2 0x2FA JUMPI DUP3 ISZERO PUSH2 0x2EB JUMPI DUP4 DUP6 MSTORE DUP5 PUSH1 0x20 MSTORE DUP6 DUP6 KECCAK256 SLOAD SWAP2 DUP4 DUP4 LT PUSH2 0x2B7 JUMPI POP POP DUP2 DUP5 SWAP6 PUSH32 0xDDF252AD1BE2C89B69C2B068FC378DAA952BA7F163C4A11628F55A4DF523B3EF SWAP4 PUSH1 0x20 SWAP4 DUP7 DUP9 MSTORE DUP8 DUP6 MSTORE SUB DUP2 DUP8 KECCAK256 SSTORE DUP2 PUSH1 0x2 SLOAD SUB PUSH1 0x2 SSTORE MLOAD SWAP1 DUP2 MSTORE LOG3 DUP1 RETURN JUMPDEST DUP7 MLOAD PUSH4 0x391434E3 PUSH1 0xE2 SHL DUP2 MSTORE PUSH1 0x1 PUSH1 0x1 PUSH1 0xA0 SHL SUB SWAP1 SWAP3 AND SWAP1 DUP3 ADD SWAP1 DUP2 MSTORE PUSH1 0x20 DUP2 ADD DUP4 SWAP1 MSTORE PUSH1 0x40 DUP2 ADD DUP5 SWAP1 MSTORE DUP2 SWAP1 PUSH1 0x60 ADD SUB SWAP1 REVERT JUMPDEST POP DUP5 MLOAD PUSH4 0x1F2A2005 PUSH1 0xE0 SHL DUP2 MSTORE REVERT JUMPDEST POP DUP5 MLOAD PUSH4 0xD92E233D PUSH1 0xE0 SHL DUP2 MSTORE REVERT JUMPDEST POP SWAP2 SWAP1 CALLVALUE PUSH2 0x1AE JUMPI DUP2 PUSH1 0x3 NOT CALLDATASIZE ADD SLT PUSH2 0x1AE JUMPI DUP1 MLOAD SWAP1 DUP3 DUP5 SLOAD PUSH1 0x1 DUP2 DUP2 SHR SWAP1 DUP1 DUP4 AND SWAP3 DUP4 ISZERO PUSH2 0x41F JUMPI JUMPDEST PUSH1 0x20 SWAP4 DUP5 DUP5 LT DUP2 EQ PUSH2 0x40C JUMPI DUP4 DUP9 MSTORE SWAP1 DUP2 ISZERO PUSH2 0x3F0 JUMPI POP PUSH1 0x1 EQ PUSH2 0x39B JUMPI JUMPDEST POP POP POP DUP3 SWAP1 SUB PUSH1 0x1F ADD PUSH1 0x1F NOT AND DUP3 ADD SWAP3 PUSH8 0xFFFFFFFFFFFFFFFF DUP5 GT DUP4 DUP6 LT OR PUSH2 0x388 JUMPI POP DUP3 SWAP2 DUP3 PUSH2 0x384 SWAP3 MSTORE DUP3 PUSH2 0x8AC JUMP JUMPDEST SUB SWAP1 RETURN JUMPDEST PUSH4 0x4E487B71 PUSH1 0xE0 SHL DUP2 MSTORE PUSH1 0x41 DUP6 MSTORE PUSH1 0x24 SWAP1 REVERT JUMPDEST DUP8 DUP8 MSTORE SWAP2 SWAP3 POP DUP6 SWAP2 DUP4 PUSH32 0x8A35ACFBC15FF81A39AE7D344FD709F28E8600B4AA8C65C6B64BFE7FE36BD19B JUMPDEST DUP4 DUP6 LT PUSH2 0x3DC JUMPI POP POP POP POP DUP4 ADD ADD CODESIZE DUP1 DUP1 PUSH2 0x352 JUMP JUMPDEST DUP1 SLOAD DUP9 DUP7 ADD DUP4 ADD MSTORE SWAP4 ADD SWAP3 DUP5 SWAP1 DUP3 ADD PUSH2 0x3C6 JUMP JUMPDEST PUSH1 0xFF NOT AND DUP8 DUP6 ADD MSTORE POP POP ISZERO ISZERO PUSH1 0x5 SHL DUP5 ADD ADD SWAP1 POP CODESIZE DUP1 DUP1 PUSH2 0x352 JUMP JUMPDEST PUSH4 0x4E487B71 PUSH1 0xE0 SHL DUP10 MSTORE PUSH1 0x22 DUP11 MSTORE PUSH1 0x24 DUP10 REVERT JUMPDEST SWAP2 PUSH1 0x7F AND SWAP2 PUSH2 0x333 JUMP JUMPDEST POP POP CALLVALUE PUSH2 0x1AE JUMPI DUP2 PUSH1 0x3 NOT CALLDATASIZE ADD SLT PUSH2 0x1AE JUMPI PUSH1 0x5 SLOAD SWAP1 MLOAD PUSH1 0x1 PUSH1 0x1 PUSH1 0xA0 SHL SUB SWAP1 SWAP2 AND DUP2 MSTORE PUSH1 0x20 SWAP1 RETURN JUMPDEST DUP4 CALLVALUE PUSH2 0x4AF JUMPI DUP1 PUSH1 0x3 NOT CALLDATASIZE ADD SLT PUSH2 0x4AF JUMPI PUSH2 0x46B PUSH2 0x926 JUMP JUMPDEST PUSH1 0x5 DUP1 SLOAD PUSH1 0x1 PUSH1 0x1 PUSH1 0xA0 SHL SUB NOT DUP2 AND SWAP1 SWAP2 SSTORE DUP2 SWAP1 PUSH1 0x1 PUSH1 0x1 PUSH1 0xA0 SHL SUB AND PUSH32 0x8BE0079C531659141344CD1FD0A4F28419497F9722A3DAAFE3B4186F6B6457E0 DUP3 DUP1 LOG3 DUP1 RETURN JUMPDEST DUP1 REVERT JUMPDEST POP POP CALLVALUE PUSH2 0x1AE JUMPI PUSH1 0x20 CALLDATASIZE PUSH1 0x3 NOT ADD SLT PUSH2 0x1AE JUMPI PUSH1 0x20 SWAP2 DUP2 SWAP1 PUSH1 0x1 PUSH1 0x1 PUSH1 0xA0 SHL SUB PUSH2 0x4DA PUSH2 0x8F5 JUMP JUMPDEST AND DUP2 MSTORE DUP1 DUP5 MSTORE KECCAK256 SLOAD SWAP1 MLOAD SWAP1 DUP2 MSTORE RETURN JUMPDEST POP POP CALLVALUE PUSH2 0x1AE JUMPI DUP2 PUSH1 0x3 NOT CALLDATASIZE ADD SLT PUSH2 0x1AE JUMPI PUSH1 0x20 SWAP1 MLOAD PUSH32 0x0 DUP2 MSTORE RETURN JUMPDEST POP SWAP1 CALLVALUE PUSH2 0x161 JUMPI DUP1 PUSH1 0x3 NOT CALLDATASIZE ADD SLT PUSH2 0x161 JUMPI PUSH2 0x53E PUSH2 0x8F5 JUMP JUMPDEST SWAP1 PUSH1 0x24 CALLDATALOAD SWAP2 PUSH2 0x54B PUSH2 0x926 JUMP JUMPDEST PUSH1 0x1 PUSH1 0x1 PUSH1 0xA0 SHL SUB AND SWAP3 DUP4 ISZERO PUSH2 0x5D2 JUMPI DUP3 ISZERO PUSH2 0x5C4 JUMPI PUSH1 0x2 SLOAD SWAP1 DUP4 DUP3 ADD DUP1 SWAP3 GT PUSH2 0x5B1 JUMPI POP DUP5 SWAP3 PUSH32 0xDDF252AD1BE2C89B69C2B068FC378DAA952BA7F163C4A11628F55A4DF523B3EF SWAP3 PUSH1 0x20 SWAP3 PUSH1 0x2 SSTORE DUP6 DUP6 MSTORE DUP5 DUP4 MSTORE DUP1 DUP6 KECCAK256 DUP3 DUP2 SLOAD ADD SWAP1 SSTORE MLOAD SWAP1 DUP2 MSTORE LOG3 DUP1 RETURN JUMPDEST PUSH4 0x4E487B71 PUSH1 0xE0 SHL DUP7 MSTORE PUSH1 0x11 SWAP1 MSTORE PUSH1 0x24 DUP6 REVERT JUMPDEST SWAP1 MLOAD PUSH4 0x1F2A2005 PUSH1 0xE0 SHL DUP2 MSTORE REVERT JUMPDEST SWAP1 MLOAD PUSH4 0xD92E233D PUSH1 0xE0 SHL DUP2 MSTORE REVERT JUMPDEST POP POP CALLVALUE PUSH2 0x1AE JUMPI DUP2 PUSH1 0x3 NOT CALLDATASIZE ADD SLT PUSH2 0x1AE JUMPI PUSH1 0x20 SWAP1 MLOAD PUSH1 0x6 DUP2 MSTORE RETURN JUMPDEST POP DUP3 CALLVALUE PUSH2 0x4AF JUMPI PUSH1 0x60 CALLDATASIZE PUSH1 0x3 NOT ADD SLT PUSH2 0x4AF JUMPI PUSH2 0x617 PUSH2 0x8F5 JUMP JUMPDEST PUSH2 0x61F PUSH2 0x910 JUMP JUMPDEST SWAP2 PUSH1 0x44 CALLDATALOAD SWAP4 PUSH1 0x1 DUP1 PUSH1 0xA0 SHL SUB DUP4 AND DUP1 DUP4 MSTORE PUSH1 0x1 PUSH1 0x20 MSTORE DUP7 DUP4 KECCAK256 CALLER DUP5 MSTORE PUSH1 0x20 MSTORE DUP7 DUP4 KECCAK256 SLOAD SWAP2 PUSH1 0x0 NOT DUP4 LT PUSH2 0x65B JUMPI JUMPDEST PUSH1 0x20 DUP9 PUSH2 0x1DC DUP10 DUP10 DUP10 PUSH2 0x952 JUMP JUMPDEST DUP7 DUP4 LT PUSH2 0x6C3 JUMPI DUP2 ISZERO PUSH2 0x6AC JUMPI CALLER ISZERO PUSH2 0x695 JUMPI POP DUP3 MSTORE PUSH1 0x1 PUSH1 0x20 SWAP1 DUP2 MSTORE DUP7 DUP4 KECCAK256 CALLER DUP5 MSTORE DUP2 MSTORE SWAP2 DUP7 SWAP1 KECCAK256 SWAP1 DUP6 SWAP1 SUB SWAP1 SSTORE DUP3 SWAP1 PUSH2 0x1DC DUP8 PUSH2 0x64D JUMP JUMPDEST DUP8 MLOAD PUSH4 0x4A1406B1 PUSH1 0xE1 SHL DUP2 MSTORE SWAP1 DUP2 ADD DUP5 SWAP1 MSTORE PUSH1 0x24 SWAP1 REVERT JUMPDEST DUP8 MLOAD PUSH4 0xE602DF05 PUSH1 0xE0 SHL DUP2 MSTORE SWAP1 DUP2 ADD DUP5 SWAP1 MSTORE PUSH1 0x24 SWAP1 REVERT JUMPDEST DUP8 MLOAD PUSH4 0x7DC7A0D9 PUSH1 0xE1 SHL DUP2 MSTORE CALLER SWAP2 DUP2 ADD SWAP2 DUP3 MSTORE PUSH1 0x20 DUP3 ADD SWAP4 SWAP1 SWAP4 MSTORE PUSH1 0x40 DUP2 ADD DUP8 SWAP1 MSTORE DUP3 SWAP2 POP PUSH1 0x60 ADD SUB SWAP1 REVERT JUMPDEST POP POP CALLVALUE PUSH2 0x1AE JUMPI DUP2 PUSH1 0x3 NOT CALLDATASIZE ADD SLT PUSH2 0x1AE JUMPI PUSH1 0x20 SWAP1 PUSH1 0x2 SLOAD SWAP1 MLOAD SWAP1 DUP2 MSTORE RETURN JUMPDEST POP CALLVALUE PUSH2 0x161 JUMPI DUP2 PUSH1 0x3 NOT CALLDATASIZE ADD SLT PUSH2 0x161 JUMPI PUSH2 0x727 PUSH2 0x8F5 JUMP JUMPDEST PUSH1 0x24 CALLDATALOAD SWAP1 CALLER ISZERO PUSH2 0x7A0 JUMPI PUSH1 0x1 PUSH1 0x1 PUSH1 0xA0 SHL SUB AND SWAP2 DUP3 ISZERO PUSH2 0x789 JUMPI POP DUP1 DUP4 PUSH1 0x20 SWAP6 CALLER DUP2 MSTORE PUSH1 0x1 DUP8 MSTORE DUP2 DUP2 KECCAK256 DUP6 DUP3 MSTORE DUP8 MSTORE KECCAK256 SSTORE DUP3 MLOAD SWAP1 DUP2 MSTORE PUSH32 0x8C5BE1E5EBEC7D5BD14F71427D1E84F3DD0314C0F7B2291E5B200AC8C7C3B925 DUP5 CALLER SWAP3 LOG3 MLOAD PUSH1 0x1 DUP2 MSTORE RETURN JUMPDEST DUP4 MLOAD PUSH4 0x4A1406B1 PUSH1 0xE1 SHL DUP2 MSTORE SWAP1 DUP2 ADD DUP6 SWAP1 MSTORE PUSH1 0x24 SWAP1 REVERT JUMPDEST DUP4 MLOAD PUSH4 0xE602DF05 PUSH1 0xE0 SHL DUP2 MSTORE DUP1 DUP5 ADD DUP7 SWAP1 MSTORE PUSH1 0x24 SWAP1 REVERT JUMPDEST DUP5 SWAP2 POP DUP4 CALLVALUE PUSH2 0x161 JUMPI DUP3 PUSH1 0x3 NOT CALLDATASIZE ADD SLT PUSH2 0x161 JUMPI DUP3 PUSH1 0x3 SLOAD PUSH1 0x1 DUP2 DUP2 SHR SWAP1 DUP1 DUP4 AND SWAP3 DUP4 ISZERO PUSH2 0x8A2 JUMPI JUMPDEST PUSH1 0x20 SWAP4 DUP5 DUP5 LT DUP2 EQ PUSH2 0x40C JUMPI DUP4 DUP9 MSTORE SWAP1 DUP2 ISZERO PUSH2 0x886 JUMPI POP PUSH1 0x1 EQ PUSH2 0x830 JUMPI POP POP POP DUP3 SWAP1 SUB PUSH1 0x1F ADD PUSH1 0x1F NOT AND DUP3 ADD SWAP3 PUSH8 0xFFFFFFFFFFFFFFFF DUP5 GT DUP4 DUP6 LT OR PUSH2 0x388 JUMPI POP DUP3 SWAP2 DUP3 PUSH2 0x384 SWAP3 MSTORE DUP3 PUSH2 0x8AC JUMP JUMPDEST PUSH1 0x3 DUP8 MSTORE SWAP2 SWAP3 POP DUP6 SWAP2 DUP4 PUSH32 0xC2575A0E9E593C00F959F8C92F12DB2869C3395A3B0502D05E2516446F71F85B JUMPDEST DUP4 DUP6 LT PUSH2 0x872 JUMPI POP POP POP POP DUP4 ADD ADD DUP6 DUP1 DUP1 PUSH2 0x352 JUMP JUMPDEST DUP1 SLOAD DUP9 DUP7 ADD DUP4 ADD MSTORE SWAP4 ADD SWAP3 DUP5 SWAP1 DUP3 ADD PUSH2 0x85C JUMP JUMPDEST PUSH1 0xFF NOT AND DUP8 DUP6 ADD MSTORE POP POP ISZERO ISZERO PUSH1 0x5 SHL DUP5 ADD ADD SWAP1 POP DUP6 DUP1 DUP1 PUSH2 0x352 JUMP JUMPDEST SWAP2 PUSH1 0x7F AND SWAP2 PUSH2 0x7E0 JUMP JUMPDEST PUSH1 0x20 DUP1 DUP3 MSTORE DUP3 MLOAD DUP2 DUP4 ADD DUP2 SWAP1 MSTORE SWAP1 SWAP4 SWAP3 PUSH1 0x0 JUMPDEST DUP3 DUP2 LT PUSH2 0x8E1 JUMPI POP POP PUSH1 0x40 SWAP3 SWAP4 POP PUSH1 0x0 DUP4 DUP3 DUP5 ADD ADD MSTORE PUSH1 0x1F DUP1 NOT SWAP2 ADD AND ADD ADD SWAP1 JUMP JUMPDEST DUP2 DUP2 ADD DUP7 ADD MLOAD DUP5 DUP3 ADD PUSH1 0x40 ADD MSTORE DUP6 ADD PUSH2 0x8BF JUMP JUMPDEST PUSH1 0x4 CALLDATALOAD SWAP1 PUSH1 0x1 PUSH1 0x1 PUSH1 0xA0 SHL SUB DUP3 AND DUP3 SUB PUSH2 0x90B JUMPI JUMP JUMPDEST PUSH1 0x0 DUP1 REVERT JUMPDEST PUSH1 0x24 CALLDATALOAD SWAP1 PUSH1 0x1 PUSH1 0x1 PUSH1 0xA0 SHL SUB DUP3 AND DUP3 SUB PUSH2 0x90B JUMPI JUMP JUMPDEST PUSH1 0x5 SLOAD PUSH1 0x1 PUSH1 0x1 PUSH1 0xA0 SHL SUB AND CALLER SUB PUSH2 0x93A JUMPI JUMP JUMPDEST PUSH1 0x40 MLOAD PUSH4 0x118CDAA7 PUSH1 0xE0 SHL DUP2 MSTORE CALLER PUSH1 0x4 DUP3 ADD MSTORE PUSH1 0x24 SWAP1 REVERT JUMPDEST SWAP2 PUSH1 0x1 PUSH1 0x1 PUSH1 0xA0 SHL SUB DUP1 DUP5 AND SWAP3 DUP4 ISZERO PUSH2 0xA17 JUMPI AND SWAP3 DUP4 ISZERO PUSH2 0x9FE JUMPI PUSH1 0x0 SWAP1 DUP4 DUP3 MSTORE DUP2 PUSH1 0x20 MSTORE PUSH1 0x40 DUP3 KECCAK256 SLOAD SWAP1 DUP4 DUP3 LT PUSH2 0x9CC JUMPI POP SWAP2 PUSH1 0x40 DUP3 DUP3 PUSH32 0xDDF252AD1BE2C89B69C2B068FC378DAA952BA7F163C4A11628F55A4DF523B3EF SWAP6 DUP8 PUSH1 0x20 SWAP7 MSTORE DUP3 DUP7 MSTORE SUB DUP3 DUP3 KECCAK256 SSTORE DUP7 DUP2 MSTORE KECCAK256 DUP2 DUP2 SLOAD ADD SWAP1 SSTORE PUSH1 0x40 MLOAD SWAP1 DUP2 MSTORE LOG3 JUMP JUMPDEST PUSH1 0x40 MLOAD PUSH4 0x391434E3 PUSH1 0xE2 SHL DUP2 MSTORE PUSH1 0x1 PUSH1 0x1 PUSH1 0xA0 SHL SUB SWAP2 SWAP1 SWAP2 AND PUSH1 0x4 DUP3 ADD MSTORE PUSH1 0x24 DUP2 ADD SWAP2 SWAP1 SWAP2 MSTORE PUSH1 0x44 DUP2 ADD DUP4 SWAP1 MSTORE PUSH1 0x64 SWAP1 REVERT JUMPDEST PUSH1 0x40 MLOAD PUSH4 0xEC442F05 PUSH1 0xE0 SHL DUP2 MSTORE PUSH1 0x0 PUSH1 0x4 DUP3 ADD MSTORE PUSH1 0x24 SWAP1 REVERT JUMPDEST PUSH1 0x40 MLOAD PUSH4 0x4B637E8F PUSH1 0xE1 SHL DUP2 MSTORE PUSH1 0x0 PUSH1 0x4 DUP3 ADD MSTORE PUSH1 0x24 SWAP1 REVERT INVALID LOG2 PUSH5 0x6970667358 0x22 SLT KECCAK256 0xF9 0xCA SMOD PUSH7 0x97A7E2DC679ED5 0x4E PC 0x4F PREVRANDAO PUSH31 0x12F207468735C0B583BA2C07EFD4E5F964736F6C63430008140033692C548A PUSH32 0x365F05A7B3A4CF77C7871BAF797E4B75547FFACC529C22E4565A95A264697066 PUSH20 0x58221220A13923EF14EAC4D71F87259B4FC76B71 0xE PUSH32 0x3559A524B9A80BB22DCE53D3F56064736F6C6343000814003300000000000000 "},"methodIdentifiers":{"BASIS_POINTS()":"e1f1c4a7","DEFAULT_ADMIN_ROLE()":"a217fddf","OPERATOR_ROLE()":"f5b541a6","cancelMarket(bytes32)":"bdb83289","cancelOrder(bytes32)":"7489ec23","claimRefund(bytes32)":"71de2ffc","claimWinnings(bytes32)":"e49b606c","createMarket(bytes32,string,uint256,address)":"d54c786e","getMarket(bytes32)":"c3c95c7b","getMarketIds()":"398c6f7e","getOrder(bytes32)":"5778472a","getOrderBook(bytes32,uint8,uint8)":"762f5618","getRoleAdmin(bytes32)":"248a9ca3","getUserOrders(address)":"63c69f08","grantRole(bytes32,address)":"2f2ff15d","hasClaimed(bytes32,address)":"92a42d1d","hasRole(bytes32,address)":"91d14854","marketIds(uint256)":"779a9683","markets(bytes32)":"7564912b","minOrderSize()":"a674537f","orderBook(bytes32,uint8,uint8,uint256)":"05b6ac6b","orders(bytes32)":"9c3f1e90","pauseMarket(bytes32)":"b4a78088","placeOrder(bytes32,uint8,uint8,uint256,uint256,uint256)":"b6507c2d","renounceRole(bytes32,address)":"36568abe","resolveMarket(bytes32,uint8)":"5e382837","resumeMarket(bytes32)":"865ec35e","revokeRole(bytes32,address)":"d547741f","setMinOrderSize(uint256)":"5e2c8eee","supportsInterface(bytes4)":"01ffc9a7","userOrders(address,uint256)":"856652e9","vault()":"fbfa77cf"}}}}}