{"contracts/Tournament.sol":{"Tournament":{"abi":[{"inputs":[{"internalType":"address","name":"_predictionMarket","type":"address"},{"internalType":"address","name":"_collateralToken","type":"address"}],"stateMutability":"nonpayable","type":"constructor"},{"inputs":[],"name":"AccessControlBadConfirmation","type":"error"},{"inputs":[{"internalType":"address","name":"account","type":"address"},{"internalType":"bytes32","name":"neededRole","type":"bytes32"}],"name":"AccessControlUnauthorizedAccount","type":"error"},{"inputs":[],"name":"AlreadyRegistered","type":"error"},{"inputs":[],"name":"EntryFeeBelowMinimum","type":"error"},{"inputs":[],"name":"InvalidStatus","type":"error"},{"inputs":[],"name":"InvalidTimeRange","type":"error"},{"inputs":[],"name":"MarketAlreadyInTournament","type":"error"},{"inputs":[],"name":"MarketNotInTournament","type":"error"},{"inputs":[],"name":"NoFeesToWithdraw","type":"error"},{"inputs":[],"name":"NotTournamentOperator","type":"error"},{"inputs":[],"name":"ReentrancyGuardReentrantCall","type":"error"},{"inputs":[],"name":"RegistrationClosed","type":"error"},{"inputs":[{"internalType":"address","name":"token","type":"address"}],"name":"SafeERC20FailedOperation","type":"error"},{"inputs":[],"name":"TournamentAlreadyExists","type":"error"},{"inputs":[],"name":"TournamentDoesNotExist","type":"error"},{"inputs":[],"name":"TournamentNotActive","type":"error"},{"inputs":[],"name":"ZeroAddress","type":"error"},{"anonymous":false,"inputs":[{"indexed":true,"internalType":"bytes32","name":"tournamentId","type":"bytes32"},{"indexed":true,"internalType":"address","name":"recipient","type":"address"},{"indexed":false,"internalType":"uint256","name":"amount","type":"uint256"}],"name":"EntryFeesWithdrawn","type":"event"},{"anonymous":false,"inputs":[{"indexed":true,"internalType":"bytes32","name":"tournamentId","type":"bytes32"},{"indexed":true,"internalType":"bytes32","name":"marketId","type":"bytes32"},{"indexed":false,"internalType":"string","name":"question","type":"string"}],"name":"MarketAddedToTournament","type":"event"},{"anonymous":false,"inputs":[{"indexed":true,"internalType":"bytes32","name":"tournamentId","type":"bytes32"},{"indexed":true,"internalType":"bytes32","name":"marketId","type":"bytes32"}],"name":"MarketRemovedFromTournament","type":"event"},{"anonymous":false,"inputs":[{"indexed":false,"internalType":"uint256","name":"oldFee","type":"uint256"},{"indexed":false,"internalType":"uint256","name":"newFee","type":"uint256"}],"name":"MinEntryFeeUpdated","type":"event"},{"anonymous":false,"inputs":[{"indexed":true,"internalType":"bytes32","name":"tournamentId","type":"bytes32"},{"indexed":true,"internalType":"address","name":"participant","type":"address"},{"indexed":false,"internalType":"uint256","name":"entryFee","type":"uint256"}],"name":"ParticipantRegistered","type":"event"},{"anonymous":false,"inputs":[{"indexed":true,"internalType":"bytes32","name":"role","type":"bytes32"},{"indexed":true,"internalType":"bytes32","name":"previousAdminRole","type":"bytes32"},{"indexed":true,"internalType":"bytes32","name":"newAdminRole","type":"bytes32"}],"name":"RoleAdminChanged","type":"event"},{"anonymous":false,"inputs":[{"indexed":true,"internalType":"bytes32","name":"role","type":"bytes32"},{"indexed":true,"internalType":"address","name":"account","type":"address"},{"indexed":true,"internalType":"address","name":"sender","type":"address"}],"name":"RoleGranted","type":"event"},{"anonymous":false,"inputs":[{"indexed":true,"internalType":"bytes32","name":"role","type":"bytes32"},{"indexed":true,"internalType":"address","name":"account","type":"address"},{"indexed":true,"internalType":"address","name":"sender","type":"address"}],"name":"RoleRevoked","type":"event"},{"anonymous":false,"inputs":[{"indexed":true,"internalType":"bytes32","name":"tournamentId","type":"bytes32"},{"indexed":false,"internalType":"string","name":"name","type":"string"},{"indexed":false,"internalType":"string","name":"game","type":"string"},{"indexed":true,"internalType":"address","name":"operator","type":"address"},{"indexed":false,"internalType":"uint256","name":"startTime","type":"uint256"},{"indexed":false,"internalType":"uint256","name":"endTime","type":"uint256"}],"name":"TournamentCreated","type":"event"},{"anonymous":false,"inputs":[{"indexed":true,"internalType":"bytes32","name":"tournamentId","type":"bytes32"},{"indexed":false,"internalType":"uint256","name":"oldFee","type":"uint256"},{"indexed":false,"internalType":"uint256","name":"newFee","type":"uint256"}],"name":"TournamentEntryFeeUpdated","type":"event"},{"anonymous":false,"inputs":[{"indexed":true,"internalType":"bytes32","name":"tournamentId","type":"bytes32"},{"indexed":true,"internalType":"address","name":"oldOperator","type":"address"},{"indexed":true,"internalType":"address","name":"newOperator","type":"address"}],"name":"TournamentOperatorChanged","type":"event"},{"anonymous":false,"inputs":[{"indexed":true,"internalType":"bytes32","name":"tournamentId","type":"bytes32"},{"indexed":false,"internalType":"enum Tournament.TournamentStatus","name":"oldStatus","type":"uint8"},{"indexed":false,"internalType":"enum Tournament.TournamentStatus","name":"newStatus","type":"uint8"}],"name":"TournamentStatusChanged","type":"event"},{"inputs":[],"name":"DEFAULT_ADMIN_ROLE","outputs":[{"internalType":"bytes32","name":"","type":"bytes32"}],"stateMutability":"view","type":"function"},{"inputs":[],"name":"TOURNAMENT_OPERATOR_ROLE","outputs":[{"internalType":"bytes32","name":"","type":"bytes32"}],"stateMutability":"view","type":"function"},{"inputs":[{"internalType":"bytes32","name":"tournamentId","type":"bytes32"},{"internalType":"bytes32","name":"marketId","type":"bytes32"}],"name":"cancelMarket","outputs":[],"stateMutability":"nonpayable","type":"function"},{"inputs":[{"internalType":"bytes32","name":"tournamentId","type":"bytes32"}],"name":"cancelTournament","outputs":[],"stateMutability":"nonpayable","type":"function"},{"inputs":[],"name":"collateralToken","outputs":[{"internalType":"contract IERC20","name":"","type":"address"}],"stateMutability":"view","type":"function"},{"inputs":[{"internalType":"bytes32","name":"tournamentId","type":"bytes32"}],"name":"completeTournament","outputs":[],"stateMutability":"nonpayable","type":"function"},{"inputs":[{"internalType":"bytes32","name":"tournamentId","type":"bytes32"},{"internalType":"bytes32","name":"marketId","type":"bytes32"},{"internalType":"string","name":"question","type":"string"},{"internalType":"uint256","name":"expireTime","type":"uint256"}],"name":"createMarketForTournament","outputs":[{"internalType":"bytes32","name":"","type":"bytes32"}],"stateMutability":"nonpayable","type":"function"},{"inputs":[{"internalType":"string","name":"name","type":"string"},{"internalType":"string","name":"game","type":"string"},{"internalType":"address","name":"operator","type":"address"},{"internalType":"uint256","name":"startTime","type":"uint256"},{"internalType":"uint256","name":"endTime","type":"uint256"},{"internalType":"uint256","name":"entryFee","type":"uint256"}],"name":"createTournament","outputs":[{"internalType":"bytes32","name":"tournamentId","type":"bytes32"}],"stateMutability":"nonpayable","type":"function"},{"inputs":[{"internalType":"bytes32","name":"marketId","type":"bytes32"}],"name":"getMarketTournament","outputs":[{"internalType":"bytes32","name":"","type":"bytes32"}],"stateMutability":"view","type":"function"},{"inputs":[{"internalType":"address","name":"operator","type":"address"}],"name":"getOperatorTournaments","outputs":[{"internalType":"bytes32[]","name":"","type":"bytes32[]"}],"stateMutability":"view","type":"function"},{"inputs":[{"internalType":"bytes32","name":"role","type":"bytes32"}],"name":"getRoleAdmin","outputs":[{"internalType":"bytes32","name":"","type":"bytes32"}],"stateMutability":"view","type":"function"},{"inputs":[{"internalType":"bytes32","name":"tournamentId","type":"bytes32"}],"name":"getTournament","outputs":[{"components":[{"internalType":"bytes32","name":"tournamentId","type":"bytes32"},{"internalType":"string","name":"name","type":"string"},{"internalType":"string","name":"game","type":"string"},{"internalType":"address","name":"operator","type":"address"},{"internalType":"enum Tournament.TournamentStatus","name":"status","type":"uint8"},{"internalType":"uint256","name":"startTime","type":"uint256"},{"internalType":"uint256","name":"endTime","type":"uint256"},{"internalType":"uint256","name":"createdAt","type":"uint256"},{"internalType":"bytes32[]","name":"marketIds","type":"bytes32[]"},{"internalType":"uint256","name":"entryFee","type":"uint256"},{"internalType":"uint256","name":"totalEntryFees","type":"uint256"},{"internalType":"uint256","name":"participantCount","type":"uint256"}],"internalType":"struct Tournament.TournamentInfo","name":"","type":"tuple"}],"stateMutability":"view","type":"function"},{"inputs":[],"name":"getTournamentIds","outputs":[{"internalType":"bytes32[]","name":"","type":"bytes32[]"}],"stateMutability":"view","type":"function"},{"inputs":[{"internalType":"bytes32","name":"tournamentId","type":"bytes32"}],"name":"getTournamentMarkets","outputs":[{"internalType":"bytes32[]","name":"","type":"bytes32[]"}],"stateMutability":"view","type":"function"},{"inputs":[{"internalType":"bytes32","name":"role","type":"bytes32"},{"internalType":"address","name":"account","type":"address"}],"name":"grantRole","outputs":[],"stateMutability":"nonpayable","type":"function"},{"inputs":[{"internalType":"bytes32","name":"role","type":"bytes32"},{"internalType":"address","name":"account","type":"address"}],"name":"hasRole","outputs":[{"internalType":"bool","name":"","type":"bool"}],"stateMutability":"view","type":"function"},{"inputs":[{"internalType":"bytes32","name":"","type":"bytes32"},{"internalType":"address","name":"","type":"address"}],"name":"isParticipant","outputs":[{"internalType":"bool","name":"","type":"bool"}],"stateMutability":"view","type":"function"},{"inputs":[{"internalType":"address","name":"account","type":"address"}],"name":"isTournamentOperator","outputs":[{"internalType":"bool","name":"","type":"bool"}],"stateMutability":"view","type":"function"},{"inputs":[{"internalType":"bytes32","name":"","type":"bytes32"}],"name":"marketToTournament","outputs":[{"internalType":"bytes32","name":"","type":"bytes32"}],"stateMutability":"view","type":"function"},{"inputs":[],"name":"minEntryFee","outputs":[{"internalType":"uint256","name":"","type":"uint256"}],"stateMutability":"view","type":"function"},{"inputs":[{"internalType":"address","name":"","type":"address"},{"internalType":"uint256","name":"","type":"uint256"}],"name":"operatorTournaments","outputs":[{"internalType":"bytes32","name":"","type":"bytes32"}],"stateMutability":"view","type":"function"},{"inputs":[{"internalType":"bytes32","name":"tournamentId","type":"bytes32"},{"internalType":"bytes32","name":"marketId","type":"bytes32"}],"name":"pauseMarket","outputs":[],"stateMutability":"nonpayable","type":"function"},{"inputs":[],"name":"predictionMarket","outputs":[{"internalType":"contract PredictionMarket","name":"","type":"address"}],"stateMutability":"view","type":"function"},{"inputs":[{"internalType":"bytes32","name":"tournamentId","type":"bytes32"}],"name":"registerForTournament","outputs":[],"stateMutability":"nonpayable","type":"function"},{"inputs":[{"internalType":"bytes32","name":"role","type":"bytes32"},{"internalType":"address","name":"callerConfirmation","type":"address"}],"name":"renounceRole","outputs":[],"stateMutability":"nonpayable","type":"function"},{"inputs":[{"internalType":"bytes32","name":"tournamentId","type":"bytes32"},{"internalType":"bytes32","name":"marketId","type":"bytes32"},{"internalType":"enum PredictionMarket.Outcome","name":"winningOutcome","type":"uint8"}],"name":"resolveMarket","outputs":[],"stateMutability":"nonpayable","type":"function"},{"inputs":[{"internalType":"bytes32","name":"tournamentId","type":"bytes32"},{"internalType":"bytes32","name":"marketId","type":"bytes32"}],"name":"resumeMarket","outputs":[],"stateMutability":"nonpayable","type":"function"},{"inputs":[{"internalType":"bytes32","name":"role","type":"bytes32"},{"internalType":"address","name":"account","type":"address"}],"name":"revokeRole","outputs":[],"stateMutability":"nonpayable","type":"function"},{"inputs":[{"internalType":"uint256","name":"newMinEntryFee","type":"uint256"}],"name":"setMinEntryFee","outputs":[],"stateMutability":"nonpayable","type":"function"},{"inputs":[{"internalType":"bytes32","name":"tournamentId","type":"bytes32"}],"name":"startTournament","outputs":[],"stateMutability":"nonpayable","type":"function"},{"inputs":[{"internalType":"bytes4","name":"interfaceId","type":"bytes4"}],"name":"supportsInterface","outputs":[{"internalType":"bool","name":"","type":"bool"}],"stateMutability":"view","type":"function"},{"inputs":[{"internalType":"uint256","name":"","type":"uint256"}],"name":"tournamentIds","outputs":[{"internalType":"bytes32","name":"","type":"bytes32"}],"stateMutability":"view","type":"function"},{"inputs":[{"internalType":"bytes32","name":"","type":"bytes32"}],"name":"tournaments","outputs":[{"internalType":"bytes32","name":"tournamentId","type":"bytes32"},{"internalType":"string","name":"name","type":"string"},{"internalType":"string","name":"game","type":"string"},{"internalType":"address","name":"operator","type":"address"},{"internalType":"enum Tournament.TournamentStatus","name":"status","type":"uint8"},{"internalType":"uint256","name":"startTime","type":"uint256"},{"internalType":"uint256","name":"endTime","type":"uint256"},{"internalType":"uint256","name":"createdAt","type":"uint256"},{"internalType":"uint256","name":"entryFee","type":"uint256"},{"internalType":"uint256","name":"totalEntryFees","type":"uint256"},{"internalType":"uint256","name":"participantCount","type":"uint256"}],"stateMutability":"view","type":"function"},{"inputs":[{"internalType":"bytes32","name":"tournamentId","type":"bytes32"},{"internalType":"address","name":"newOperator","type":"address"}],"name":"transferOperator","outputs":[],"stateMutability":"nonpayable","type":"function"},{"inputs":[{"internalType":"bytes32","name":"tournamentId","type":"bytes32"},{"internalType":"uint256","name":"newEntryFee","type":"uint256"}],"name":"updateTournamentEntryFee","outputs":[],"stateMutability":"nonpayable","type":"function"},{"inputs":[{"internalType":"bytes32","name":"tournamentId","type":"bytes32"},{"internalType":"address","name":"recipient","type":"address"}],"name":"withdrawEntryFees","outputs":[],"stateMutability":"nonpayable","type":"function"}],"evm":{"bytecode":{"linkReferences":{},"object":"60c034620000fe57601f6200265f38819003918201601f19168301916001600160401b0383118484101762000103578084926040948552833981010312620000fe576200005a6020620000528362000119565b920162000119565b6001805560646002556001600160a01b0391821691908215620000ec5716908115620000ec5760805260a05262000091336200012e565b5060405161249f9081620001c082396080518181816104bd0152818161059f0152818161075301528181610a5201528181610da801528181611325015261146c015260a051818181610419015281816108f10152610f5d0152f35b60405163d92e233d60e01b8152600490fd5b600080fd5b634e487b7160e01b600052604160045260246000fd5b51906001600160a01b0382168203620000fe57565b6001600160a01b031660008181527fad3228b676f7d3cd4284a5443f17f1962b36e491b30a40b2405849e597ba5fb5602052604081205490919060ff16620001bb57818052816020526040822081835260205260408220600160ff1982541617905533917f2f8788117e7eff1d82e926ec794901d17c78024a50270940304540a733656f0d8180a4600190565b509056fe608080604052600436101561001357600080fd5b60003560e01c90816301ffc9a714611e395750806302cd1dbe146117ee5780630d501596146109ac578063139cfab1146117145780631a082070146116b2578063248a9ca3146116835780632b17adfa1461158d5780632f2ff15d1461154e57806335dab121146113e757806336568abe146113a057806336ae92f3146112c757806349524aad146112765780635b027c3314611222578063639fb13e146111f35780636b17cbaf1461100357806376e5b86214610fe55780637e59689414610e235780638186dc1814610d4a5780638c5c9f3114610c4f5780638d4889b914610bf757806391d1485414610baa578063969c504414610acd578063998e804d146109f4578063a217fddf146109d8578063a78f25e0146109ac578063a97bdcba14610920578063b2016bd4146108db578063c44a89231461088e578063c854336414610697578063cb51cc3714610645578063cc67feb41461052d578063d547741f146104ec578063def114b6146104a7578063e184f1b214610317578063ea9245c8146102dc5763f664163b146101ab57600080fd5b346102d7576020806003193601126102d75760043590816000526003815260406000206006810154156102c557600301546001600160a01b0316331415806102a2575b6102905781600052600381526003604060002001805460ff8160a01c1690600482101561027a57816102685760ff60a01b1916600160a01b17909155604080517f391304af54b8296b07492d5d51da2921873cdb2109ff5f3c1125b130c74d82a09391929091600191610262908490612055565b820152a2005b6040516307a92f1960e51b8152600490fd5b634e487b7160e01b600052602160045260246000fd5b60405163dab3fa6d60e01b8152600490fd5b506000805260008152604060002033600052815260ff60406000205416156101ee565b604051637a30a6cf60e01b8152600490fd5b600080fd5b346102d75760003660031901126102d75760206040517fdadb2297d6981894ad3e8c71235c7ffa6953fa9a20346ecb4cbcf850c853fc108152f35b346102d75760403660031901126102d757600435610333611ecf565b9080600052602091600383526040600020906006820154156102c557600391909101546001600160a01b039190821633141580610484575b610290576103776123d7565b16918215610472578160005260038152604060002060ff600382015460a01c16600481101561027a576002036102685760090190815491821561046057600090556040519163a9059cbb60e01b8284015284602484015280604484015260448352608083018381106001600160401b0382111761044a577fa2acf4f27ad891a0666ec490e60edf93905c5580955e4d35a1f2c8a1519ed7a29361043d916040527f000000000000000000000000000000000000000000000000000000000000000061237b565b604051908152a360018055005b634e487b7160e01b600052604160045260246000fd5b604051630d00db4d60e31b8152600490fd5b60405163d92e233d60e01b8152600490fd5b506000805260008452604060002033600052845260ff604060002054161561036b565b346102d75760003660031901126102d7576040517f00000000000000000000000000000000000000000000000000000000000000006001600160a01b03168152602090f35b346102d75760403660031901126102d75761052b60043561050b611ecf565b9080600052600060205261052660016040600020015461210a565b61225b565b005b346102d75760603660031901126102d75760443560243560043560038310156102d7578060005260036020526040600020906006820154156102c557600391909101546001600160a01b03919082163314158061061e575b610290578260005260066020526040600020540361060c577f00000000000000000000000000000000000000000000000000000000000000001691823b156102d7576044600092836040519586948593635e38283760e01b8552600485015260248401525af18015610600576105f757005b61052b90611f3b565b6040513d6000823e3d90fd5b60405163475b3b6160e11b8152600490fd5b5033600090815260008051602061244a833981519152602052604090205460ff1615610585565b346102d75760203660031901126102d7576001600160a01b03610666611eb9565b16600052600560205261069361067f60406000206123fa565b604051918291602083526020830190612090565b0390f35b346102d75760803660031901126102d7576004356024356044356001600160401b0381116102d7576106cd903690600401611e8c565b9280600052602093600385526040600020926006840154156102c557600393909301546001600160a01b03939084163314158061086b575b61029057826000526003865260406000209160038301549460ff8660a01c16600481101561027a5760018114159081610861575b5061084f57866000526006885260406000205461083d57807f00000000000000000000000000000000000000000000000000000000000000001695863b156102d7576000968792604051988980948193636aa63c3760e11b83528d6004840152608060248401526107ae608484018a8c61235a565b91606435604485015216606483015203925af1928315610600578660076107ff9282987fd85c7fb0a51bb27dd51297f7e7f22a880144219ec43cb9941a97d0690efe0b789761082e575b5001612325565b8460005260068752836040600020556108236040519283928984528984019161235a565b0390a3604051908152f35b61083790611f3b565b8b6107f8565b60405163206fe6a360e01b8152600490fd5b604051631d042a8d60e11b8152600490fd5b9050151589610739565b506000805260008652604060002033600052865260ff6040600020541615610705565b346102d75760403660031901126102d7576108a7611ecf565b600435600052600760205260406000209060018060a01b0316600052602052602060ff604060002054166040519015158152f35b346102d75760003660031901126102d7576040517f00000000000000000000000000000000000000000000000000000000000000006001600160a01b03168152602090f35b346102d75760003660031901126102d7576040518060045480825282602080930160046000527f8a35acfbc15ff81a39ae7d344fd709f28e8600b4aa8c65c6b64bfe7fe36bd19b9260005b858282106109965750505061098292500383611f4e565b610693604051928284938452830190612090565b855484526001958601958895509301920161096b565b346102d75760203660031901126102d75760043560005260066020526020604060002054604051908152f35b346102d75760003660031901126102d757602060405160008152f35b346102d757610a0236612062565b908060005260036020526040600020906006820154156102c557600391909101546001600160a01b039190821633141580610aa6575b610290578260005260066020526040600020540361060c577f00000000000000000000000000000000000000000000000000000000000000001690813b156102d75760009160248392604051948593849263bdb8328960e01b845260048401525af18015610600576105f757005b5033600090815260008051602061244a833981519152602052604090205460ff1615610a38565b346102d7576020806003193601126102d75760043590816000526003815260406000206006810154156102c557600301546001600160a01b031633141580610b87575b6102905781600052600381526003604060002001805460ff8160a01c1690600482101561027a57600182036102685760ff60a01b1916600160a11b17909155604080517f391304af54b8296b07492d5d51da2921873cdb2109ff5f3c1125b130c74d82a09391929091600291610262908490612055565b506000805260008152604060002033600052815260ff6040600020541615610b10565b346102d75760403660031901126102d757610bc3611ecf565b600435600052600060205260406000209060018060a01b0316600052602052602060ff604060002054166040519015158152f35b346102d75760403660031901126102d757610c10611eb9565b6001600160a01b03166000908152600560205260409020805460243591908210156102d757602091610c4191612078565b90546040519160031b1c8152f35b346102d75760403660031901126102d75760043560243581600052600360205260406000206006810154156102c557600301546001600160a01b031633141580610d23575b61029057816000526003602052604060002060ff600382015460a01c16600481101561027a576102685781151580610d18575b610d06577f64600efee5630db56204f04a3c797f1d09d9d33cb5830f9c0c1637d48a914f199160086040920190808254925582519182526020820152a2005b6040516358fc25d160e11b8152600490fd5b506002548210610cc7565b5033600090815260008051602061244a833981519152602052604090205460ff1615610c94565b346102d757610d5836612062565b908060005260036020526040600020906006820154156102c557600391909101546001600160a01b039190821633141580610dfc575b610290578260005260066020526040600020540361060c577f00000000000000000000000000000000000000000000000000000000000000001690813b156102d75760009160248392604051948593849263432f61af60e11b845260048401525af18015610600576105f757005b5033600090815260008051602061244a833981519152602052604090205460ff1615610d8e565b346102d7576020806003193601126102d757600435610e406123d7565b8060005260038252600660406000200154156102c5578060005260038252604060002060ff600382015460a01c16600481101561027a578015159081610fd9575b50610fc7578160005260078352604060002033600052835260ff60406000205416610fb55760088101805480610f18575b50600a7f3c1931621919866b644a5a5281a766e9ee577ccae9dccdc3f24c43f32548ebf492846000526007865260406000203360005286526040600020600160ff1982541617905501610f0581546122d0565b905554926040519384523393a360018055005b604051906323b872dd60e01b8683015233602483015230604483015260648201526064815260a08101908082106001600160401b0383111761044a57610f81916040527f000000000000000000000000000000000000000000000000000000000000000061237b565b80549160098101908154938401809411610f9f57929055600a610eb2565b634e487b7160e01b600052601160045260246000fd5b604051630ea075bf60e21b8152600490fd5b604051632fc209f360e01b8152600490fd5b60019150141584610e81565b346102d75760003660031901126102d7576020600254604051908152f35b346102d75760203660031901126102d757600061016060405161102581611f1f565b82815260606020820152606060408201528260608201528260808201528260a08201528260c08201528260e0820152606061010082015282610120820152826101408201520152600435600052600360205260406000206040519061108982611f1f565b8054825261109960018201611f6f565b60208301526110aa60028201611f6f565b604083015260038101546001600160a01b038116606084015260a01c60ff1690600482101561027a57600a916080840152600481015460a0840152600581015460c0840152600681015460e0840152611105600782016123fa565b610100840152600881015461012084015260098101546101408401520154610160820152604051809160208252805160208301526101606111d061115a602084015161018060408701526101a0860190612015565b611176604085015191601f199283888303016060890152612015565b9060018060a01b03606086015116608087015261119b608086015160a0880190612055565b60a085015160c087015260c085015160e087015260e08501516101008701526101008501519086830301610120870152612090565b916101208101516101408501526101408101518285015201516101808301520390f35b346102d75760203660031901126102d757600435600052600360205261069361067f60076040600020016123fa565b346102d75760203660031901126102d7577fcfd511869f5b3d09f8e041d86b06852ca3a86d0c1099e1ab42f65e48e3f62c6360406004356112616120c4565b600254908060025582519182526020820152a1005b346102d75760203660031901126102d7576004356004548110156102d75760209060046000527f8a35acfbc15ff81a39ae7d344fd709f28e8600b4aa8c65c6b64bfe7fe36bd19b0154604051908152f35b346102d7576112d536612062565b908060005260036020526040600020906006820154156102c557600391909101546001600160a01b039190821633141580611379575b610290578260005260066020526040600020540361060c577f00000000000000000000000000000000000000000000000000000000000000001690813b156102d757600091602483926040519485938492631694f01160e31b845260048401525af18015610600576105f757005b5033600090815260008051602061244a833981519152602052604090205460ff161561130b565b346102d75760403660031901126102d7576113b9611ecf565b336001600160a01b038216036113d55761052b9060043561225b565b60405163334bd91960e11b8152600490fd5b346102d7576020806003193601126102d75760043580600052600380835260406000206006810154156102c5578101546001600160a01b039081163314158061152b575b610290578260005281845260406000209282840180549060ff8260a01c1691600483101561027a57600283146102685760ff60a01b1916600360a01b1790557f000000000000000000000000000000000000000000000000000000000000000090921694936007019160005b83548110156114f8576114aa8185612078565b905490861b1c90873b156102d7576114e4916040519063bdb8328960e01b82526004820152600081602481838d5af16114e9575b506122d0565b611497565b6114f290611f3b565b886114de565b5060407f391304af54b8296b07492d5d51da2921873cdb2109ff5f3c1125b130c74d82a091858761026284518094612055565b506000805260008452604060002033600052845260ff604060002054161561142b565b346102d75760403660031901126102d75761052b60043561156d611ecf565b9080600052600060205261158860016040600020015461210a565b6121e2565b346102d75760403660031901126102d7576004356115a9611ecf565b9080600052600360205260406000206006810154156102c557600301546001600160a01b039081163314158061165c575b6102905780831692831561047257826000526003602052611632600360406000200191825492866bffffffffffffffffffffffff60a01b851617905585600052600560205261162d856040600020612325565b612130565b5016907fc494ad1dae0c28508cbc489886c5e9e9b33e92af56180e94b2674ead62b03574600080a4005b5033600090815260008051602061244a833981519152602052604090205460ff16156115da565b346102d75760203660031901126102d75760043560005260006020526020600160406000200154604051908152f35b346102d75760203660031901126102d7576116cb611eb9565b6001600160a01b031660009081527f20c4aacfd5d637b449f1f17151b05651f15d96513fb0d93e91d95cf2b92cbaf1602090815260409182902054915160ff9092161515825290f35b346102d75760203660031901126102d75760043560005260036020526040600020805461174360018301611f6f565b9161175060028201611f6f565b600382015491600481015460058201546006830154906008840154926117c96117a9600a60098801549701549761179b6040519c8d9c8d5260208d61016091829101528d0190612015565b908b820360408d0152612015565b6001600160a01b03891660608b01529760808a019060a01c60ff16612055565b60a088015260c087015260e08601526101008501526101208401526101408301520390f35b346102d75760c03660031901126102d7576004356001600160401b0381116102d75761181e903690600401611e8c565b906024356001600160401b0381116102d75761183e903690600401611e8c565b9092906044356001600160a01b03811690036102d75761185c6120c4565b6044356001600160a01b031615610472576064356084351115611e275760a435151580611e1a575b610d0657600854611894816122d0565b6008556040516118d360608260208101948789873786888301818c60208301600081523701906020820152426040820152036040810184520182611f4e565b51902092836000526003602052600660406000200154611e08576040518060208101106001600160401b0360208301111761044a5760208101604052600081526040519061192082611f1f565b85825261192e3686856122df565b602083015261193e3685896122df565b604083015260018060a01b036044351660608301526000608083015260643560a083015260843560c08301524260e083015261010082015260a435610120820152600061014082015260006101608201528460005260036020526040600020908051825560208101518051906001600160401b03821161044a5781906119c76001860154611ee5565b601f8111611db5575b50602090601f8311600114611d4357600092611d38575b50508160011b916000199060031b1c19161760018301555b60408101518051906001600160401b03821161044a578190611a246002860154611ee5565b601f8111611ce5575b50602090601f8311600114611c7357600092611c68575b50508160011b916000199060031b1c19161760028301555b6003820160018060a01b036060830151168154906080840151600481101561027a576001600160a81b03199092161760a091821b60ff60a01b1617909155810151600483015560c0810151600583015560e081015160068301556101008101518051906001600160401b03821161044a57600160401b821161044a576007840154826007860155808310611c3b575b5060200160078401600052602060002060005b838110611c27575050505061016081610120600a93015160088501556101408101516009850155015191015560045490600160401b82101561044a576001820180600455821015611c11576020958593611bd9611be693867fe071379f93965677cbcfe7fcc83082a571dda54fc69af47bdfe5a95a08203242967f8a35acfbc15ff81a39ae7d344fd709f28e8600b4aa8c65c6b64bfe7fe36bd19b015560018060a01b036044351660005260058a52611bbb876040600020612325565b611bc6604435612130565b506040519760808952608089019161235a565b918683038988015261235a565b606435604085015260843560608501526044356001600160a01b0316939081900390a3604051908152f35b634e487b7160e01b600052603260045260246000fd5b600190602084519401938184015501611afe565b600785016000526020600020908382015b8183018110611c5c575050611aeb565b60008155600101611c4c565b015190508980611a44565b9250600285016000526020600020906000935b601f1984168510611cca576001945083601f19811610611cb1575b505050811b016002830155611a5c565b015160001960f88460031b161c19169055898080611ca1565b81810151835560209485019460019093019290910190611c86565b909150600285016000526020600020601f840160051c810160208510611d31575b90849392915b601f830160051c82018110611d22575050611a2d565b60008155859450600101611d0c565b5080611d06565b0151905089806119e7565b9250600185016000526020600020906000935b601f1984168510611d9a576001945083601f19811610611d81575b505050811b0160018301556119ff565b015160001960f88460031b161c19169055898080611d71565b81810151835560209485019460019093019290910190611d56565b909150600185016000526020600020601f840160051c810160208510611e01575b90849392915b601f830160051c82018110611df25750506119d0565b60008155859450600101611ddc565b5080611dd6565b604051632c7131bb60e01b8152600490fd5b5060025460a43510611884565b60405163536a71af60e01b8152600490fd5b346102d75760203660031901126102d7576004359063ffffffff60e01b82168092036102d757602091637965db0b60e01b8114908115611e7b575b5015158152f35b6301ffc9a760e01b14905083611e74565b9181601f840112156102d7578235916001600160401b0383116102d757602083818601950101116102d757565b600435906001600160a01b03821682036102d757565b602435906001600160a01b03821682036102d757565b90600182811c92168015611f15575b6020831014611eff57565b634e487b7160e01b600052602260045260246000fd5b91607f1691611ef4565b61018081019081106001600160401b0382111761044a57604052565b6001600160401b03811161044a57604052565b90601f801991011681019081106001600160401b0382111761044a57604052565b9060405191826000825492611f8384611ee5565b908184526001948581169081600014611ff25750600114611faf575b5050611fad92500383611f4e565b565b9093915060005260209081600020936000915b818310611fda575050611fad93508201013880611f9f565b85548884018501529485019487945091830191611fc2565b915050611fad94506020925060ff191682840152151560051b8201013880611f9f565b919082519283825260005b848110612041575050826000602080949584010152601f8019910116010190565b602081830181015184830182015201612020565b90600482101561027a5752565b60409060031901126102d7576004359060243590565b8054821015611c115760005260206000200190600090565b90815180825260208080930193019160005b8281106120b0575050505090565b8351855293810193928101926001016120a2565b33600090815260008051602061244a833981519152602052604081205460ff16156120ec5750565b6044906040519063e2517d3f60e01b82523360048301526024820152fd5b80600052600060205260406000203360005260205260ff60406000205416156120ec5750565b6001600160a01b031660008181527f20c4aacfd5d637b449f1f17151b05651f15d96513fb0d93e91d95cf2b92cbaf160205260408120549091907fdadb2297d6981894ad3e8c71235c7ffa6953fa9a20346ecb4cbcf850c853fc109060ff166121dd57808352826020526040832082845260205260408320600160ff198254161790557f2f8788117e7eff1d82e926ec794901d17c78024a50270940304540a733656f0d339380a4600190565b505090565b9060009180835282602052604083209160018060a01b03169182845260205260ff604084205416156000146121dd57808352826020526040832082845260205260408320600160ff198254161790557f2f8788117e7eff1d82e926ec794901d17c78024a50270940304540a733656f0d339380a4600190565b9060009180835282602052604083209160018060a01b03169182845260205260ff6040842054166000146121dd5780835282602052604083208284526020526040832060ff1981541690557ff6391f5c32d9c69d2a47ea670b442974b53935d1edc7fd64eb21e047a839171b339380a4600190565b6000198114610f9f5760010190565b9291926001600160401b03821161044a5760405191612308601f8201601f191660200184611f4e565b8294818452818301116102d7578281602093846000960137010152565b8054600160401b81101561044a5761234291600182018155612078565b819291549060031b91821b91600019901b1916179055565b908060209392818452848401376000828201840152601f01601f1916010190565b906000602091828151910182855af115610600576000513d6123ce57506001600160a01b0381163b155b6123ac5750565b604051635274afe760e01b81526001600160a01b039091166004820152602490fd5b600114156123a5565b6002600154146123e8576002600155565b604051633ee5aeb560e01b8152600490fd5b9060405191828154918282526020928383019160005283600020936000905b82821061242f57505050611fad92500383611f4e565b85548452600195860195889550938101939091019061241956fead3228b676f7d3cd4284a5443f17f1962b36e491b30a40b2405849e597ba5fb5a26469706673582212207ec1473eed64fd8499c429fdac0f31955dfaae0208053ccad15749d37078159f64736f6c63430008140033","opcodes":"PUSH1 0xC0 CALLVALUE PUSH3 0xFE JUMPI PUSH1 0x1F PUSH3 0x265F CODESIZE DUP2 SWAP1 SUB SWAP2 DUP3 ADD PUSH1 0x1F NOT AND DUP4 ADD SWAP2 PUSH1 0x1 PUSH1 0x1 PUSH1 0x40 SHL SUB DUP4 GT DUP5 DUP5 LT OR PUSH3 0x103 JUMPI DUP1 DUP5 SWAP3 PUSH1 0x40 SWAP5 DUP6 MSTORE DUP4 CODECOPY DUP2 ADD SUB SLT PUSH3 0xFE JUMPI PUSH3 0x5A PUSH1 0x20 PUSH3 0x52 DUP4 PUSH3 0x119 JUMP JUMPDEST SWAP3 ADD PUSH3 0x119 JUMP JUMPDEST PUSH1 0x1 DUP1 SSTORE PUSH1 0x64 PUSH1 0x2 SSTORE PUSH1 0x1 PUSH1 0x1 PUSH1 0xA0 SHL SUB SWAP2 DUP3 AND SWAP2 SWAP1 DUP3 ISZERO PUSH3 0xEC JUMPI AND SWAP1 DUP2 ISZERO PUSH3 0xEC JUMPI PUSH1 0x80 MSTORE PUSH1 0xA0 MSTORE PUSH3 0x91 CALLER PUSH3 0x12E JUMP JUMPDEST POP PUSH1 0x40 MLOAD PUSH2 0x249F SWAP1 DUP2 PUSH3 0x1C0 DUP3 CODECOPY PUSH1 0x80 MLOAD DUP2 DUP2 DUP2 PUSH2 0x4BD ADD MSTORE DUP2 DUP2 PUSH2 0x59F ADD MSTORE DUP2 DUP2 PUSH2 0x753 ADD MSTORE DUP2 DUP2 PUSH2 0xA52 ADD MSTORE DUP2 DUP2 PUSH2 0xDA8 ADD MSTORE DUP2 DUP2 PUSH2 0x1325 ADD MSTORE PUSH2 0x146C ADD MSTORE PUSH1 0xA0 MLOAD DUP2 DUP2 DUP2 PUSH2 0x419 ADD MSTORE DUP2 DUP2 PUSH2 0x8F1 ADD MSTORE PUSH2 0xF5D ADD MSTORE RETURN JUMPDEST PUSH1 0x40 MLOAD PUSH4 0xD92E233D PUSH1 0xE0 SHL DUP2 MSTORE PUSH1 0x4 SWAP1 REVERT JUMPDEST PUSH1 0x0 DUP1 REVERT JUMPDEST PUSH4 0x4E487B71 PUSH1 0xE0 SHL PUSH1 0x0 MSTORE PUSH1 0x41 PUSH1 0x4 MSTORE PUSH1 0x24 PUSH1 0x0 REVERT JUMPDEST MLOAD SWAP1 PUSH1 0x1 PUSH1 0x1 PUSH1 0xA0 SHL SUB DUP3 AND DUP3 SUB PUSH3 0xFE JUMPI JUMP JUMPDEST PUSH1 0x1 PUSH1 0x1 PUSH1 0xA0 SHL SUB AND PUSH1 0x0 DUP2 DUP2 MSTORE PUSH32 0xAD3228B676F7D3CD4284A5443F17F1962B36E491B30A40B2405849E597BA5FB5 PUSH1 0x20 MSTORE PUSH1 0x40 DUP2 KECCAK256 SLOAD SWAP1 SWAP2 SWAP1 PUSH1 0xFF AND PUSH3 0x1BB JUMPI DUP2 DUP1 MSTORE DUP2 PUSH1 0x20 MSTORE PUSH1 0x40 DUP3 KECCAK256 DUP2 DUP4 MSTORE PUSH1 0x20 MSTORE PUSH1 0x40 DUP3 KECCAK256 PUSH1 0x1 PUSH1 0xFF NOT DUP3 SLOAD AND OR SWAP1 SSTORE CALLER SWAP2 PUSH32 0x2F8788117E7EFF1D82E926EC794901D17C78024A50270940304540A733656F0D DUP2 DUP1 LOG4 PUSH1 0x1 SWAP1 JUMP JUMPDEST POP SWAP1 JUMP INVALID PUSH1 0x80 DUP1 PUSH1 0x40 MSTORE PUSH1 0x4 CALLDATASIZE LT ISZERO PUSH2 0x13 JUMPI PUSH1 0x0 DUP1 REVERT JUMPDEST PUSH1 0x0 CALLDATALOAD PUSH1 0xE0 SHR SWAP1 DUP2 PUSH4 0x1FFC9A7 EQ PUSH2 0x1E39 JUMPI POP DUP1 PUSH4 0x2CD1DBE EQ PUSH2 0x17EE JUMPI DUP1 PUSH4 0xD501596 EQ PUSH2 0x9AC JUMPI DUP1 PUSH4 0x139CFAB1 EQ PUSH2 0x1714 JUMPI DUP1 PUSH4 0x1A082070 EQ PUSH2 0x16B2 JUMPI DUP1 PUSH4 0x248A9CA3 EQ PUSH2 0x1683 JUMPI DUP1 PUSH4 0x2B17ADFA EQ PUSH2 0x158D JUMPI DUP1 PUSH4 0x2F2FF15D EQ PUSH2 0x154E JUMPI DUP1 PUSH4 0x35DAB121 EQ PUSH2 0x13E7 JUMPI DUP1 PUSH4 0x36568ABE EQ PUSH2 0x13A0 JUMPI DUP1 PUSH4 0x36AE92F3 EQ PUSH2 0x12C7 JUMPI DUP1 PUSH4 0x49524AAD EQ PUSH2 0x1276 JUMPI DUP1 PUSH4 0x5B027C33 EQ PUSH2 0x1222 JUMPI DUP1 PUSH4 0x639FB13E EQ PUSH2 0x11F3 JUMPI DUP1 PUSH4 0x6B17CBAF EQ PUSH2 0x1003 JUMPI DUP1 PUSH4 0x76E5B862 EQ PUSH2 0xFE5 JUMPI DUP1 PUSH4 0x7E596894 EQ PUSH2 0xE23 JUMPI DUP1 PUSH4 0x8186DC18 EQ PUSH2 0xD4A JUMPI DUP1 PUSH4 0x8C5C9F31 EQ PUSH2 0xC4F JUMPI DUP1 PUSH4 0x8D4889B9 EQ PUSH2 0xBF7 JUMPI DUP1 PUSH4 0x91D14854 EQ PUSH2 0xBAA JUMPI DUP1 PUSH4 0x969C5044 EQ PUSH2 0xACD JUMPI DUP1 PUSH4 0x998E804D EQ PUSH2 0x9F4 JUMPI DUP1 PUSH4 0xA217FDDF EQ PUSH2 0x9D8 JUMPI DUP1 PUSH4 0xA78F25E0 EQ PUSH2 0x9AC JUMPI DUP1 PUSH4 0xA97BDCBA EQ PUSH2 0x920 JUMPI DUP1 PUSH4 0xB2016BD4 EQ PUSH2 0x8DB JUMPI DUP1 PUSH4 0xC44A8923 EQ PUSH2 0x88E JUMPI DUP1 PUSH4 0xC8543364 EQ PUSH2 0x697 JUMPI DUP1 PUSH4 0xCB51CC37 EQ PUSH2 0x645 JUMPI DUP1 PUSH4 0xCC67FEB4 EQ PUSH2 0x52D JUMPI DUP1 PUSH4 0xD547741F EQ PUSH2 0x4EC JUMPI DUP1 PUSH4 0xDEF114B6 EQ PUSH2 0x4A7 JUMPI DUP1 PUSH4 0xE184F1B2 EQ PUSH2 0x317 JUMPI DUP1 PUSH4 0xEA9245C8 EQ PUSH2 0x2DC JUMPI PUSH4 0xF664163B EQ PUSH2 0x1AB JUMPI PUSH1 0x0 DUP1 REVERT JUMPDEST CALLVALUE PUSH2 0x2D7 JUMPI PUSH1 0x20 DUP1 PUSH1 0x3 NOT CALLDATASIZE ADD SLT PUSH2 0x2D7 JUMPI PUSH1 0x4 CALLDATALOAD SWAP1 DUP2 PUSH1 0x0 MSTORE PUSH1 0x3 DUP2 MSTORE PUSH1 0x40 PUSH1 0x0 KECCAK256 PUSH1 0x6 DUP2 ADD SLOAD ISZERO PUSH2 0x2C5 JUMPI PUSH1 0x3 ADD SLOAD PUSH1 0x1 PUSH1 0x1 PUSH1 0xA0 SHL SUB AND CALLER EQ ISZERO DUP1 PUSH2 0x2A2 JUMPI JUMPDEST PUSH2 0x290 JUMPI DUP2 PUSH1 0x0 MSTORE PUSH1 0x3 DUP2 MSTORE PUSH1 0x3 PUSH1 0x40 PUSH1 0x0 KECCAK256 ADD DUP1 SLOAD PUSH1 0xFF DUP2 PUSH1 0xA0 SHR AND SWAP1 PUSH1 0x4 DUP3 LT ISZERO PUSH2 0x27A JUMPI DUP2 PUSH2 0x268 JUMPI PUSH1 0xFF PUSH1 0xA0 SHL NOT AND PUSH1 0x1 PUSH1 0xA0 SHL OR SWAP1 SWAP2 SSTORE PUSH1 0x40 DUP1 MLOAD PUSH32 0x391304AF54B8296B07492D5D51DA2921873CDB2109FF5F3C1125B130C74D82A0 SWAP4 SWAP2 SWAP3 SWAP1 SWAP2 PUSH1 0x1 SWAP2 PUSH2 0x262 SWAP1 DUP5 SWAP1 PUSH2 0x2055 JUMP JUMPDEST DUP3 ADD MSTORE LOG2 STOP JUMPDEST PUSH1 0x40 MLOAD PUSH4 0x7A92F19 PUSH1 0xE5 SHL DUP2 MSTORE PUSH1 0x4 SWAP1 REVERT JUMPDEST PUSH4 0x4E487B71 PUSH1 0xE0 SHL PUSH1 0x0 MSTORE PUSH1 0x21 PUSH1 0x4 MSTORE PUSH1 0x24 PUSH1 0x0 REVERT JUMPDEST PUSH1 0x40 MLOAD PUSH4 0xDAB3FA6D PUSH1 0xE0 SHL DUP2 MSTORE PUSH1 0x4 SWAP1 REVERT JUMPDEST POP PUSH1 0x0 DUP1 MSTORE PUSH1 0x0 DUP2 MSTORE PUSH1 0x40 PUSH1 0x0 KECCAK256 CALLER PUSH1 0x0 MSTORE DUP2 MSTORE PUSH1 0xFF PUSH1 0x40 PUSH1 0x0 KECCAK256 SLOAD AND ISZERO PUSH2 0x1EE JUMP JUMPDEST PUSH1 0x40 MLOAD PUSH4 0x7A30A6CF PUSH1 0xE0 SHL DUP2 MSTORE PUSH1 0x4 SWAP1 REVERT JUMPDEST PUSH1 0x0 DUP1 REVERT JUMPDEST CALLVALUE PUSH2 0x2D7 JUMPI PUSH1 0x0 CALLDATASIZE PUSH1 0x3 NOT ADD SLT PUSH2 0x2D7 JUMPI PUSH1 0x20 PUSH1 0x40 MLOAD PUSH32 0xDADB2297D6981894AD3E8C71235C7FFA6953FA9A20346ECB4CBCF850C853FC10 DUP2 MSTORE RETURN JUMPDEST CALLVALUE PUSH2 0x2D7 JUMPI PUSH1 0x40 CALLDATASIZE PUSH1 0x3 NOT ADD SLT PUSH2 0x2D7 JUMPI PUSH1 0x4 CALLDATALOAD PUSH2 0x333 PUSH2 0x1ECF JUMP JUMPDEST SWAP1 DUP1 PUSH1 0x0 MSTORE PUSH1 0x20 SWAP2 PUSH1 0x3 DUP4 MSTORE PUSH1 0x40 PUSH1 0x0 KECCAK256 SWAP1 PUSH1 0x6 DUP3 ADD SLOAD ISZERO PUSH2 0x2C5 JUMPI PUSH1 0x3 SWAP2 SWAP1 SWAP2 ADD SLOAD PUSH1 0x1 PUSH1 0x1 PUSH1 0xA0 SHL SUB SWAP2 SWAP1 DUP3 AND CALLER EQ ISZERO DUP1 PUSH2 0x484 JUMPI JUMPDEST PUSH2 0x290 JUMPI PUSH2 0x377 PUSH2 0x23D7 JUMP JUMPDEST AND SWAP2 DUP3 ISZERO PUSH2 0x472 JUMPI DUP2 PUSH1 0x0 MSTORE PUSH1 0x3 DUP2 MSTORE PUSH1 0x40 PUSH1 0x0 KECCAK256 PUSH1 0xFF PUSH1 0x3 DUP3 ADD SLOAD PUSH1 0xA0 SHR AND PUSH1 0x4 DUP2 LT ISZERO PUSH2 0x27A JUMPI PUSH1 0x2 SUB PUSH2 0x268 JUMPI PUSH1 0x9 ADD SWAP1 DUP2 SLOAD SWAP2 DUP3 ISZERO PUSH2 0x460 JUMPI PUSH1 0x0 SWAP1 SSTORE PUSH1 0x40 MLOAD SWAP2 PUSH4 0xA9059CBB PUSH1 0xE0 SHL DUP3 DUP5 ADD MSTORE DUP5 PUSH1 0x24 DUP5 ADD MSTORE DUP1 PUSH1 0x44 DUP5 ADD MSTORE PUSH1 0x44 DUP4 MSTORE PUSH1 0x80 DUP4 ADD DUP4 DUP2 LT PUSH1 0x1 PUSH1 0x1 PUSH1 0x40 SHL SUB DUP3 GT OR PUSH2 0x44A JUMPI PUSH32 0xA2ACF4F27AD891A0666EC490E60EDF93905C5580955E4D35A1F2C8A1519ED7A2 SWAP4 PUSH2 0x43D SWAP2 PUSH1 0x40 MSTORE PUSH32 0x0 PUSH2 0x237B JUMP JUMPDEST PUSH1 0x40 MLOAD SWAP1 DUP2 MSTORE LOG3 PUSH1 0x1 DUP1 SSTORE STOP JUMPDEST PUSH4 0x4E487B71 PUSH1 0xE0 SHL PUSH1 0x0 MSTORE PUSH1 0x41 PUSH1 0x4 MSTORE PUSH1 0x24 PUSH1 0x0 REVERT JUMPDEST PUSH1 0x40 MLOAD PUSH4 0xD00DB4D PUSH1 0xE3 SHL DUP2 MSTORE PUSH1 0x4 SWAP1 REVERT JUMPDEST PUSH1 0x40 MLOAD PUSH4 0xD92E233D PUSH1 0xE0 SHL DUP2 MSTORE PUSH1 0x4 SWAP1 REVERT JUMPDEST POP PUSH1 0x0 DUP1 MSTORE PUSH1 0x0 DUP5 MSTORE PUSH1 0x40 PUSH1 0x0 KECCAK256 CALLER PUSH1 0x0 MSTORE DUP5 MSTORE PUSH1 0xFF PUSH1 0x40 PUSH1 0x0 KECCAK256 SLOAD AND ISZERO PUSH2 0x36B JUMP JUMPDEST CALLVALUE PUSH2 0x2D7 JUMPI PUSH1 0x0 CALLDATASIZE PUSH1 0x3 NOT ADD SLT PUSH2 0x2D7 JUMPI PUSH1 0x40 MLOAD PUSH32 0x0 PUSH1 0x1 PUSH1 0x1 PUSH1 0xA0 SHL SUB AND DUP2 MSTORE PUSH1 0x20 SWAP1 RETURN JUMPDEST CALLVALUE PUSH2 0x2D7 JUMPI PUSH1 0x40 CALLDATASIZE PUSH1 0x3 NOT ADD SLT PUSH2 0x2D7 JUMPI PUSH2 0x52B PUSH1 0x4 CALLDATALOAD PUSH2 0x50B PUSH2 0x1ECF JUMP JUMPDEST SWAP1 DUP1 PUSH1 0x0 MSTORE PUSH1 0x0 PUSH1 0x20 MSTORE PUSH2 0x526 PUSH1 0x1 PUSH1 0x40 PUSH1 0x0 KECCAK256 ADD SLOAD PUSH2 0x210A JUMP JUMPDEST PUSH2 0x225B JUMP JUMPDEST STOP JUMPDEST CALLVALUE PUSH2 0x2D7 JUMPI PUSH1 0x60 CALLDATASIZE PUSH1 0x3 NOT ADD SLT PUSH2 0x2D7 JUMPI PUSH1 0x44 CALLDATALOAD PUSH1 0x24 CALLDATALOAD PUSH1 0x4 CALLDATALOAD PUSH1 0x3 DUP4 LT ISZERO PUSH2 0x2D7 JUMPI DUP1 PUSH1 0x0 MSTORE PUSH1 0x3 PUSH1 0x20 MSTORE PUSH1 0x40 PUSH1 0x0 KECCAK256 SWAP1 PUSH1 0x6 DUP3 ADD SLOAD ISZERO PUSH2 0x2C5 JUMPI PUSH1 0x3 SWAP2 SWAP1 SWAP2 ADD SLOAD PUSH1 0x1 PUSH1 0x1 PUSH1 0xA0 SHL SUB SWAP2 SWAP1 DUP3 AND CALLER EQ ISZERO DUP1 PUSH2 0x61E JUMPI JUMPDEST PUSH2 0x290 JUMPI DUP3 PUSH1 0x0 MSTORE PUSH1 0x6 PUSH1 0x20 MSTORE PUSH1 0x40 PUSH1 0x0 KECCAK256 SLOAD SUB PUSH2 0x60C JUMPI PUSH32 0x0 AND SWAP2 DUP3 EXTCODESIZE ISZERO PUSH2 0x2D7 JUMPI PUSH1 0x44 PUSH1 0x0 SWAP3 DUP4 PUSH1 0x40 MLOAD SWAP6 DUP7 SWAP5 DUP6 SWAP4 PUSH4 0x5E382837 PUSH1 0xE0 SHL DUP6 MSTORE PUSH1 0x4 DUP6 ADD MSTORE PUSH1 0x24 DUP5 ADD MSTORE GAS CALL DUP1 ISZERO PUSH2 0x600 JUMPI PUSH2 0x5F7 JUMPI STOP JUMPDEST PUSH2 0x52B SWAP1 PUSH2 0x1F3B JUMP JUMPDEST PUSH1 0x40 MLOAD RETURNDATASIZE PUSH1 0x0 DUP3 RETURNDATACOPY RETURNDATASIZE SWAP1 REVERT JUMPDEST PUSH1 0x40 MLOAD PUSH4 0x475B3B61 PUSH1 0xE1 SHL DUP2 MSTORE PUSH1 0x4 SWAP1 REVERT JUMPDEST POP CALLER PUSH1 0x0 SWAP1 DUP2 MSTORE PUSH1 0x0 DUP1 MLOAD PUSH1 0x20 PUSH2 0x244A DUP4 CODECOPY DUP2 MLOAD SWAP2 MSTORE PUSH1 0x20 MSTORE PUSH1 0x40 SWAP1 KECCAK256 SLOAD PUSH1 0xFF AND ISZERO PUSH2 0x585 JUMP JUMPDEST CALLVALUE PUSH2 0x2D7 JUMPI PUSH1 0x20 CALLDATASIZE PUSH1 0x3 NOT ADD SLT PUSH2 0x2D7 JUMPI PUSH1 0x1 PUSH1 0x1 PUSH1 0xA0 SHL SUB PUSH2 0x666 PUSH2 0x1EB9 JUMP JUMPDEST AND PUSH1 0x0 MSTORE PUSH1 0x5 PUSH1 0x20 MSTORE PUSH2 0x693 PUSH2 0x67F PUSH1 0x40 PUSH1 0x0 KECCAK256 PUSH2 0x23FA JUMP JUMPDEST PUSH1 0x40 MLOAD SWAP2 DUP3 SWAP2 PUSH1 0x20 DUP4 MSTORE PUSH1 0x20 DUP4 ADD SWAP1 PUSH2 0x2090 JUMP JUMPDEST SUB SWAP1 RETURN JUMPDEST CALLVALUE PUSH2 0x2D7 JUMPI PUSH1 0x80 CALLDATASIZE PUSH1 0x3 NOT ADD SLT PUSH2 0x2D7 JUMPI PUSH1 0x4 CALLDATALOAD PUSH1 0x24 CALLDATALOAD PUSH1 0x44 CALLDATALOAD PUSH1 0x1 PUSH1 0x1 PUSH1 0x40 SHL SUB DUP2 GT PUSH2 0x2D7 JUMPI PUSH2 0x6CD SWAP1 CALLDATASIZE SWAP1 PUSH1 0x4 ADD PUSH2 0x1E8C JUMP JUMPDEST SWAP3 DUP1 PUSH1 0x0 MSTORE PUSH1 0x20 SWAP4 PUSH1 0x3 DUP6 MSTORE PUSH1 0x40 PUSH1 0x0 KECCAK256 SWAP3 PUSH1 0x6 DUP5 ADD SLOAD ISZERO PUSH2 0x2C5 JUMPI PUSH1 0x3 SWAP4 SWAP1 SWAP4 ADD SLOAD PUSH1 0x1 PUSH1 0x1 PUSH1 0xA0 SHL SUB SWAP4 SWAP1 DUP5 AND CALLER EQ ISZERO DUP1 PUSH2 0x86B JUMPI JUMPDEST PUSH2 0x290 JUMPI DUP3 PUSH1 0x0 MSTORE PUSH1 0x3 DUP7 MSTORE PUSH1 0x40 PUSH1 0x0 KECCAK256 SWAP2 PUSH1 0x3 DUP4 ADD SLOAD SWAP5 PUSH1 0xFF DUP7 PUSH1 0xA0 SHR AND PUSH1 0x4 DUP2 LT ISZERO PUSH2 0x27A JUMPI PUSH1 0x1 DUP2 EQ ISZERO SWAP1 DUP2 PUSH2 0x861 JUMPI JUMPDEST POP PUSH2 0x84F JUMPI DUP7 PUSH1 0x0 MSTORE PUSH1 0x6 DUP9 MSTORE PUSH1 0x40 PUSH1 0x0 KECCAK256 SLOAD PUSH2 0x83D JUMPI DUP1 PUSH32 0x0 AND SWAP6 DUP7 EXTCODESIZE ISZERO PUSH2 0x2D7 JUMPI PUSH1 0x0 SWAP7 DUP8 SWAP3 PUSH1 0x40 MLOAD SWAP9 DUP10 DUP1 SWAP5 DUP2 SWAP4 PUSH4 0x6AA63C37 PUSH1 0xE1 SHL DUP4 MSTORE DUP14 PUSH1 0x4 DUP5 ADD MSTORE PUSH1 0x80 PUSH1 0x24 DUP5 ADD MSTORE PUSH2 0x7AE PUSH1 0x84 DUP5 ADD DUP11 DUP13 PUSH2 0x235A JUMP JUMPDEST SWAP2 PUSH1 0x64 CALLDATALOAD PUSH1 0x44 DUP6 ADD MSTORE AND PUSH1 0x64 DUP4 ADD MSTORE SUB SWAP3 GAS CALL SWAP3 DUP4 ISZERO PUSH2 0x600 JUMPI DUP7 PUSH1 0x7 PUSH2 0x7FF SWAP3 DUP3 SWAP9 PUSH32 0xD85C7FB0A51BB27DD51297F7E7F22A880144219EC43CB9941A97D0690EFE0B78 SWAP8 PUSH2 0x82E JUMPI JUMPDEST POP ADD PUSH2 0x2325 JUMP JUMPDEST DUP5 PUSH1 0x0 MSTORE PUSH1 0x6 DUP8 MSTORE DUP4 PUSH1 0x40 PUSH1 0x0 KECCAK256 SSTORE PUSH2 0x823 PUSH1 0x40 MLOAD SWAP3 DUP4 SWAP3 DUP10 DUP5 MSTORE DUP10 DUP5 ADD SWAP2 PUSH2 0x235A JUMP JUMPDEST SUB SWAP1 LOG3 PUSH1 0x40 MLOAD SWAP1 DUP2 MSTORE RETURN JUMPDEST PUSH2 0x837 SWAP1 PUSH2 0x1F3B JUMP JUMPDEST DUP12 PUSH2 0x7F8 JUMP JUMPDEST PUSH1 0x40 MLOAD PUSH4 0x206FE6A3 PUSH1 0xE0 SHL DUP2 MSTORE PUSH1 0x4 SWAP1 REVERT JUMPDEST PUSH1 0x40 MLOAD PUSH4 0x1D042A8D PUSH1 0xE1 SHL DUP2 MSTORE PUSH1 0x4 SWAP1 REVERT JUMPDEST SWAP1 POP ISZERO ISZERO DUP10 PUSH2 0x739 JUMP JUMPDEST POP PUSH1 0x0 DUP1 MSTORE PUSH1 0x0 DUP7 MSTORE PUSH1 0x40 PUSH1 0x0 KECCAK256 CALLER PUSH1 0x0 MSTORE DUP7 MSTORE PUSH1 0xFF PUSH1 0x40 PUSH1 0x0 KECCAK256 SLOAD AND ISZERO PUSH2 0x705 JUMP JUMPDEST CALLVALUE PUSH2 0x2D7 JUMPI PUSH1 0x40 CALLDATASIZE PUSH1 0x3 NOT ADD SLT PUSH2 0x2D7 JUMPI PUSH2 0x8A7 PUSH2 0x1ECF JUMP JUMPDEST PUSH1 0x4 CALLDATALOAD PUSH1 0x0 MSTORE PUSH1 0x7 PUSH1 0x20 MSTORE PUSH1 0x40 PUSH1 0x0 KECCAK256 SWAP1 PUSH1 0x1 DUP1 PUSH1 0xA0 SHL SUB AND PUSH1 0x0 MSTORE PUSH1 0x20 MSTORE PUSH1 0x20 PUSH1 0xFF PUSH1 0x40 PUSH1 0x0 KECCAK256 SLOAD AND PUSH1 0x40 MLOAD SWAP1 ISZERO ISZERO DUP2 MSTORE RETURN JUMPDEST CALLVALUE PUSH2 0x2D7 JUMPI PUSH1 0x0 CALLDATASIZE PUSH1 0x3 NOT ADD SLT PUSH2 0x2D7 JUMPI PUSH1 0x40 MLOAD PUSH32 0x0 PUSH1 0x1 PUSH1 0x1 PUSH1 0xA0 SHL SUB AND DUP2 MSTORE PUSH1 0x20 SWAP1 RETURN JUMPDEST CALLVALUE PUSH2 0x2D7 JUMPI PUSH1 0x0 CALLDATASIZE PUSH1 0x3 NOT ADD SLT PUSH2 0x2D7 JUMPI PUSH1 0x40 MLOAD DUP1 PUSH1 0x4 SLOAD DUP1 DUP3 MSTORE DUP3 PUSH1 0x20 DUP1 SWAP4 ADD PUSH1 0x4 PUSH1 0x0 MSTORE PUSH32 0x8A35ACFBC15FF81A39AE7D344FD709F28E8600B4AA8C65C6B64BFE7FE36BD19B SWAP3 PUSH1 0x0 JUMPDEST DUP6 DUP3 DUP3 LT PUSH2 0x996 JUMPI POP POP POP PUSH2 0x982 SWAP3 POP SUB DUP4 PUSH2 0x1F4E JUMP JUMPDEST PUSH2 0x693 PUSH1 0x40 MLOAD SWAP3 DUP3 DUP5 SWAP4 DUP5 MSTORE DUP4 ADD SWAP1 PUSH2 0x2090 JUMP JUMPDEST DUP6 SLOAD DUP5 MSTORE PUSH1 0x1 SWAP6 DUP7 ADD SWAP6 DUP9 SWAP6 POP SWAP4 ADD SWAP3 ADD PUSH2 0x96B JUMP JUMPDEST CALLVALUE PUSH2 0x2D7 JUMPI PUSH1 0x20 CALLDATASIZE PUSH1 0x3 NOT ADD SLT PUSH2 0x2D7 JUMPI PUSH1 0x4 CALLDATALOAD PUSH1 0x0 MSTORE PUSH1 0x6 PUSH1 0x20 MSTORE PUSH1 0x20 PUSH1 0x40 PUSH1 0x0 KECCAK256 SLOAD PUSH1 0x40 MLOAD SWAP1 DUP2 MSTORE RETURN JUMPDEST CALLVALUE PUSH2 0x2D7 JUMPI PUSH1 0x0 CALLDATASIZE PUSH1 0x3 NOT ADD SLT PUSH2 0x2D7 JUMPI PUSH1 0x20 PUSH1 0x40 MLOAD PUSH1 0x0 DUP2 MSTORE RETURN JUMPDEST CALLVALUE PUSH2 0x2D7 JUMPI PUSH2 0xA02 CALLDATASIZE PUSH2 0x2062 JUMP JUMPDEST SWAP1 DUP1 PUSH1 0x0 MSTORE PUSH1 0x3 PUSH1 0x20 MSTORE PUSH1 0x40 PUSH1 0x0 KECCAK256 SWAP1 PUSH1 0x6 DUP3 ADD SLOAD ISZERO PUSH2 0x2C5 JUMPI PUSH1 0x3 SWAP2 SWAP1 SWAP2 ADD SLOAD PUSH1 0x1 PUSH1 0x1 PUSH1 0xA0 SHL SUB SWAP2 SWAP1 DUP3 AND CALLER EQ ISZERO DUP1 PUSH2 0xAA6 JUMPI JUMPDEST PUSH2 0x290 JUMPI DUP3 PUSH1 0x0 MSTORE PUSH1 0x6 PUSH1 0x20 MSTORE PUSH1 0x40 PUSH1 0x0 KECCAK256 SLOAD SUB PUSH2 0x60C JUMPI PUSH32 0x0 AND SWAP1 DUP2 EXTCODESIZE ISZERO PUSH2 0x2D7 JUMPI PUSH1 0x0 SWAP2 PUSH1 0x24 DUP4 SWAP3 PUSH1 0x40 MLOAD SWAP5 DUP6 SWAP4 DUP5 SWAP3 PUSH4 0xBDB83289 PUSH1 0xE0 SHL DUP5 MSTORE PUSH1 0x4 DUP5 ADD MSTORE GAS CALL DUP1 ISZERO PUSH2 0x600 JUMPI PUSH2 0x5F7 JUMPI STOP JUMPDEST POP CALLER PUSH1 0x0 SWAP1 DUP2 MSTORE PUSH1 0x0 DUP1 MLOAD PUSH1 0x20 PUSH2 0x244A DUP4 CODECOPY DUP2 MLOAD SWAP2 MSTORE PUSH1 0x20 MSTORE PUSH1 0x40 SWAP1 KECCAK256 SLOAD PUSH1 0xFF AND ISZERO PUSH2 0xA38 JUMP JUMPDEST CALLVALUE PUSH2 0x2D7 JUMPI PUSH1 0x20 DUP1 PUSH1 0x3 NOT CALLDATASIZE ADD SLT PUSH2 0x2D7 JUMPI PUSH1 0x4 CALLDATALOAD SWAP1 DUP2 PUSH1 0x0 MSTORE PUSH1 0x3 DUP2 MSTORE PUSH1 0x40 PUSH1 0x0 KECCAK256 PUSH1 0x6 DUP2 ADD SLOAD ISZERO PUSH2 0x2C5 JUMPI PUSH1 0x3 ADD SLOAD PUSH1 0x1 PUSH1 0x1 PUSH1 0xA0 SHL SUB AND CALLER EQ ISZERO DUP1 PUSH2 0xB87 JUMPI JUMPDEST PUSH2 0x290 JUMPI DUP2 PUSH1 0x0 MSTORE PUSH1 0x3 DUP2 MSTORE PUSH1 0x3 PUSH1 0x40 PUSH1 0x0 KECCAK256 ADD DUP1 SLOAD PUSH1 0xFF DUP2 PUSH1 0xA0 SHR AND SWAP1 PUSH1 0x4 DUP3 LT ISZERO PUSH2 0x27A JUMPI PUSH1 0x1 DUP3 SUB PUSH2 0x268 JUMPI PUSH1 0xFF PUSH1 0xA0 SHL NOT AND PUSH1 0x1 PUSH1 0xA1 SHL OR SWAP1 SWAP2 SSTORE PUSH1 0x40 DUP1 MLOAD PUSH32 0x391304AF54B8296B07492D5D51DA2921873CDB2109FF5F3C1125B130C74D82A0 SWAP4 SWAP2 SWAP3 SWAP1 SWAP2 PUSH1 0x2 SWAP2 PUSH2 0x262 SWAP1 DUP5 SWAP1 PUSH2 0x2055 JUMP JUMPDEST POP PUSH1 0x0 DUP1 MSTORE PUSH1 0x0 DUP2 MSTORE PUSH1 0x40 PUSH1 0x0 KECCAK256 CALLER PUSH1 0x0 MSTORE DUP2 MSTORE PUSH1 0xFF PUSH1 0x40 PUSH1 0x0 KECCAK256 SLOAD AND ISZERO PUSH2 0xB10 JUMP JUMPDEST CALLVALUE PUSH2 0x2D7 JUMPI PUSH1 0x40 CALLDATASIZE PUSH1 0x3 NOT ADD SLT PUSH2 0x2D7 JUMPI PUSH2 0xBC3 PUSH2 0x1ECF JUMP JUMPDEST PUSH1 0x4 CALLDATALOAD PUSH1 0x0 MSTORE PUSH1 0x0 PUSH1 0x20 MSTORE PUSH1 0x40 PUSH1 0x0 KECCAK256 SWAP1 PUSH1 0x1 DUP1 PUSH1 0xA0 SHL SUB AND PUSH1 0x0 MSTORE PUSH1 0x20 MSTORE PUSH1 0x20 PUSH1 0xFF PUSH1 0x40 PUSH1 0x0 KECCAK256 SLOAD AND PUSH1 0x40 MLOAD SWAP1 ISZERO ISZERO DUP2 MSTORE RETURN JUMPDEST CALLVALUE PUSH2 0x2D7 JUMPI PUSH1 0x40 CALLDATASIZE PUSH1 0x3 NOT ADD SLT PUSH2 0x2D7 JUMPI PUSH2 0xC10 PUSH2 0x1EB9 JUMP JUMPDEST PUSH1 0x1 PUSH1 0x1 PUSH1 0xA0 SHL SUB AND PUSH1 0x0 SWAP1 DUP2 MSTORE PUSH1 0x5 PUSH1 0x20 MSTORE PUSH1 0x40 SWAP1 KECCAK256 DUP1 SLOAD PUSH1 0x24 CALLDATALOAD SWAP2 SWAP1 DUP3 LT ISZERO PUSH2 0x2D7 JUMPI PUSH1 0x20 SWAP2 PUSH2 0xC41 SWAP2 PUSH2 0x2078 JUMP JUMPDEST SWAP1 SLOAD PUSH1 0x40 MLOAD SWAP2 PUSH1 0x3 SHL SHR DUP2 MSTORE RETURN JUMPDEST CALLVALUE PUSH2 0x2D7 JUMPI PUSH1 0x40 CALLDATASIZE PUSH1 0x3 NOT ADD SLT PUSH2 0x2D7 JUMPI PUSH1 0x4 CALLDATALOAD PUSH1 0x24 CALLDATALOAD DUP2 PUSH1 0x0 MSTORE PUSH1 0x3 PUSH1 0x20 MSTORE PUSH1 0x40 PUSH1 0x0 KECCAK256 PUSH1 0x6 DUP2 ADD SLOAD ISZERO PUSH2 0x2C5 JUMPI PUSH1 0x3 ADD SLOAD PUSH1 0x1 PUSH1 0x1 PUSH1 0xA0 SHL SUB AND CALLER EQ ISZERO DUP1 PUSH2 0xD23 JUMPI JUMPDEST PUSH2 0x290 JUMPI DUP2 PUSH1 0x0 MSTORE PUSH1 0x3 PUSH1 0x20 MSTORE PUSH1 0x40 PUSH1 0x0 KECCAK256 PUSH1 0xFF PUSH1 0x3 DUP3 ADD SLOAD PUSH1 0xA0 SHR AND PUSH1 0x4 DUP2 LT ISZERO PUSH2 0x27A JUMPI PUSH2 0x268 JUMPI DUP2 ISZERO ISZERO DUP1 PUSH2 0xD18 JUMPI JUMPDEST PUSH2 0xD06 JUMPI PUSH32 0x64600EFEE5630DB56204F04A3C797F1D09D9D33CB5830F9C0C1637D48A914F19 SWAP2 PUSH1 0x8 PUSH1 0x40 SWAP3 ADD SWAP1 DUP1 DUP3 SLOAD SWAP3 SSTORE DUP3 MLOAD SWAP2 DUP3 MSTORE PUSH1 0x20 DUP3 ADD MSTORE LOG2 STOP JUMPDEST PUSH1 0x40 MLOAD PUSH4 0x58FC25D1 PUSH1 0xE1 SHL DUP2 MSTORE PUSH1 0x4 SWAP1 REVERT JUMPDEST POP PUSH1 0x2 SLOAD DUP3 LT PUSH2 0xCC7 JUMP JUMPDEST POP CALLER PUSH1 0x0 SWAP1 DUP2 MSTORE PUSH1 0x0 DUP1 MLOAD PUSH1 0x20 PUSH2 0x244A DUP4 CODECOPY DUP2 MLOAD SWAP2 MSTORE PUSH1 0x20 MSTORE PUSH1 0x40 SWAP1 KECCAK256 SLOAD PUSH1 0xFF AND ISZERO PUSH2 0xC94 JUMP JUMPDEST CALLVALUE PUSH2 0x2D7 JUMPI PUSH2 0xD58 CALLDATASIZE PUSH2 0x2062 JUMP JUMPDEST SWAP1 DUP1 PUSH1 0x0 MSTORE PUSH1 0x3 PUSH1 0x20 MSTORE PUSH1 0x40 PUSH1 0x0 KECCAK256 SWAP1 PUSH1 0x6 DUP3 ADD SLOAD ISZERO PUSH2 0x2C5 JUMPI PUSH1 0x3 SWAP2 SWAP1 SWAP2 ADD SLOAD PUSH1 0x1 PUSH1 0x1 PUSH1 0xA0 SHL SUB SWAP2 SWAP1 DUP3 AND CALLER EQ ISZERO DUP1 PUSH2 0xDFC JUMPI JUMPDEST PUSH2 0x290 JUMPI DUP3 PUSH1 0x0 MSTORE PUSH1 0x6 PUSH1 0x20 MSTORE PUSH1 0x40 PUSH1 0x0 KECCAK256 SLOAD SUB PUSH2 0x60C JUMPI PUSH32 0x0 AND SWAP1 DUP2 EXTCODESIZE ISZERO PUSH2 0x2D7 JUMPI PUSH1 0x0 SWAP2 PUSH1 0x24 DUP4 SWAP3 PUSH1 0x40 MLOAD SWAP5 DUP6 SWAP4 DUP5 SWAP3 PUSH4 0x432F61AF PUSH1 0xE1 SHL DUP5 MSTORE PUSH1 0x4 DUP5 ADD MSTORE GAS CALL DUP1 ISZERO PUSH2 0x600 JUMPI PUSH2 0x5F7 JUMPI STOP JUMPDEST POP CALLER PUSH1 0x0 SWAP1 DUP2 MSTORE PUSH1 0x0 DUP1 MLOAD PUSH1 0x20 PUSH2 0x244A DUP4 CODECOPY DUP2 MLOAD SWAP2 MSTORE PUSH1 0x20 MSTORE PUSH1 0x40 SWAP1 KECCAK256 SLOAD PUSH1 0xFF AND ISZERO PUSH2 0xD8E JUMP JUMPDEST CALLVALUE PUSH2 0x2D7 JUMPI PUSH1 0x20 DUP1 PUSH1 0x3 NOT CALLDATASIZE ADD SLT PUSH2 0x2D7 JUMPI PUSH1 0x4 CALLDATALOAD PUSH2 0xE40 PUSH2 0x23D7 JUMP JUMPDEST DUP1 PUSH1 0x0 MSTORE PUSH1 0x3 DUP3 MSTORE PUSH1 0x6 PUSH1 0x40 PUSH1 0x0 KECCAK256 ADD SLOAD ISZERO PUSH2 0x2C5 JUMPI DUP1 PUSH1 0x0 MSTORE PUSH1 0x3 DUP3 MSTORE PUSH1 0x40 PUSH1 0x0 KECCAK256 PUSH1 0xFF PUSH1 0x3 DUP3 ADD SLOAD PUSH1 0xA0 SHR AND PUSH1 0x4 DUP2 LT ISZERO PUSH2 0x27A JUMPI DUP1 ISZERO ISZERO SWAP1 DUP2 PUSH2 0xFD9 JUMPI JUMPDEST POP PUSH2 0xFC7 JUMPI DUP2 PUSH1 0x0 MSTORE PUSH1 0x7 DUP4 MSTORE PUSH1 0x40 PUSH1 0x0 KECCAK256 CALLER PUSH1 0x0 MSTORE DUP4 MSTORE PUSH1 0xFF PUSH1 0x40 PUSH1 0x0 KECCAK256 SLOAD AND PUSH2 0xFB5 JUMPI PUSH1 0x8 DUP2 ADD DUP1 SLOAD DUP1 PUSH2 0xF18 JUMPI JUMPDEST POP PUSH1 0xA PUSH32 0x3C1931621919866B644A5A5281A766E9EE577CCAE9DCCDC3F24C43F32548EBF4 SWAP3 DUP5 PUSH1 0x0 MSTORE PUSH1 0x7 DUP7 MSTORE PUSH1 0x40 PUSH1 0x0 KECCAK256 CALLER PUSH1 0x0 MSTORE DUP7 MSTORE PUSH1 0x40 PUSH1 0x0 KECCAK256 PUSH1 0x1 PUSH1 0xFF NOT DUP3 SLOAD AND OR SWAP1 SSTORE ADD PUSH2 0xF05 DUP2 SLOAD PUSH2 0x22D0 JUMP JUMPDEST SWAP1 SSTORE SLOAD SWAP3 PUSH1 0x40 MLOAD SWAP4 DUP5 MSTORE CALLER SWAP4 LOG3 PUSH1 0x1 DUP1 SSTORE STOP JUMPDEST PUSH1 0x40 MLOAD SWAP1 PUSH4 0x23B872DD PUSH1 0xE0 SHL DUP7 DUP4 ADD MSTORE CALLER PUSH1 0x24 DUP4 ADD MSTORE ADDRESS PUSH1 0x44 DUP4 ADD MSTORE PUSH1 0x64 DUP3 ADD MSTORE PUSH1 0x64 DUP2 MSTORE PUSH1 0xA0 DUP2 ADD SWAP1 DUP1 DUP3 LT PUSH1 0x1 PUSH1 0x1 PUSH1 0x40 SHL SUB DUP4 GT OR PUSH2 0x44A JUMPI PUSH2 0xF81 SWAP2 PUSH1 0x40 MSTORE PUSH32 0x0 PUSH2 0x237B JUMP JUMPDEST DUP1 SLOAD SWAP2 PUSH1 0x9 DUP2 ADD SWAP1 DUP2 SLOAD SWAP4 DUP5 ADD DUP1 SWAP5 GT PUSH2 0xF9F JUMPI SWAP3 SWAP1 SSTORE PUSH1 0xA PUSH2 0xEB2 JUMP JUMPDEST PUSH4 0x4E487B71 PUSH1 0xE0 SHL PUSH1 0x0 MSTORE PUSH1 0x11 PUSH1 0x4 MSTORE PUSH1 0x24 PUSH1 0x0 REVERT JUMPDEST PUSH1 0x40 MLOAD PUSH4 0xEA075BF PUSH1 0xE2 SHL DUP2 MSTORE PUSH1 0x4 SWAP1 REVERT JUMPDEST PUSH1 0x40 MLOAD PUSH4 0x2FC209F3 PUSH1 0xE0 SHL DUP2 MSTORE PUSH1 0x4 SWAP1 REVERT JUMPDEST PUSH1 0x1 SWAP2 POP EQ ISZERO DUP5 PUSH2 0xE81 JUMP JUMPDEST CALLVALUE PUSH2 0x2D7 JUMPI PUSH1 0x0 CALLDATASIZE PUSH1 0x3 NOT ADD SLT PUSH2 0x2D7 JUMPI PUSH1 0x20 PUSH1 0x2 SLOAD PUSH1 0x40 MLOAD SWAP1 DUP2 MSTORE RETURN JUMPDEST CALLVALUE PUSH2 0x2D7 JUMPI PUSH1 0x20 CALLDATASIZE PUSH1 0x3 NOT ADD SLT PUSH2 0x2D7 JUMPI PUSH1 0x0 PUSH2 0x160 PUSH1 0x40 MLOAD PUSH2 0x1025 DUP2 PUSH2 0x1F1F JUMP JUMPDEST DUP3 DUP2 MSTORE PUSH1 0x60 PUSH1 0x20 DUP3 ADD MSTORE PUSH1 0x60 PUSH1 0x40 DUP3 ADD MSTORE DUP3 PUSH1 0x60 DUP3 ADD MSTORE DUP3 PUSH1 0x80 DUP3 ADD MSTORE DUP3 PUSH1 0xA0 DUP3 ADD MSTORE DUP3 PUSH1 0xC0 DUP3 ADD MSTORE DUP3 PUSH1 0xE0 DUP3 ADD MSTORE PUSH1 0x60 PUSH2 0x100 DUP3 ADD MSTORE DUP3 PUSH2 0x120 DUP3 ADD MSTORE DUP3 PUSH2 0x140 DUP3 ADD MSTORE ADD MSTORE PUSH1 0x4 CALLDATALOAD PUSH1 0x0 MSTORE PUSH1 0x3 PUSH1 0x20 MSTORE PUSH1 0x40 PUSH1 0x0 KECCAK256 PUSH1 0x40 MLOAD SWAP1 PUSH2 0x1089 DUP3 PUSH2 0x1F1F JUMP JUMPDEST DUP1 SLOAD DUP3 MSTORE PUSH2 0x1099 PUSH1 0x1 DUP3 ADD PUSH2 0x1F6F JUMP JUMPDEST PUSH1 0x20 DUP4 ADD MSTORE PUSH2 0x10AA PUSH1 0x2 DUP3 ADD PUSH2 0x1F6F JUMP JUMPDEST PUSH1 0x40 DUP4 ADD MSTORE PUSH1 0x3 DUP2 ADD SLOAD PUSH1 0x1 PUSH1 0x1 PUSH1 0xA0 SHL SUB DUP2 AND PUSH1 0x60 DUP5 ADD MSTORE PUSH1 0xA0 SHR PUSH1 0xFF AND SWAP1 PUSH1 0x4 DUP3 LT ISZERO PUSH2 0x27A JUMPI PUSH1 0xA SWAP2 PUSH1 0x80 DUP5 ADD MSTORE PUSH1 0x4 DUP2 ADD SLOAD PUSH1 0xA0 DUP5 ADD MSTORE PUSH1 0x5 DUP2 ADD SLOAD PUSH1 0xC0 DUP5 ADD MSTORE PUSH1 0x6 DUP2 ADD SLOAD PUSH1 0xE0 DUP5 ADD MSTORE PUSH2 0x1105 PUSH1 0x7 DUP3 ADD PUSH2 0x23FA JUMP JUMPDEST PUSH2 0x100 DUP5 ADD MSTORE PUSH1 0x8 DUP2 ADD SLOAD PUSH2 0x120 DUP5 ADD MSTORE PUSH1 0x9 DUP2 ADD SLOAD PUSH2 0x140 DUP5 ADD MSTORE ADD SLOAD PUSH2 0x160 DUP3 ADD MSTORE PUSH1 0x40 MLOAD DUP1 SWAP2 PUSH1 0x20 DUP3 MSTORE DUP1 MLOAD PUSH1 0x20 DUP4 ADD MSTORE PUSH2 0x160 PUSH2 0x11D0 PUSH2 0x115A PUSH1 0x20 DUP5 ADD MLOAD PUSH2 0x180 PUSH1 0x40 DUP8 ADD MSTORE PUSH2 0x1A0 DUP7 ADD SWAP1 PUSH2 0x2015 JUMP JUMPDEST PUSH2 0x1176 PUSH1 0x40 DUP6 ADD MLOAD SWAP2 PUSH1 0x1F NOT SWAP3 DUP4 DUP9 DUP4 SUB ADD PUSH1 0x60 DUP10 ADD MSTORE PUSH2 0x2015 JUMP JUMPDEST SWAP1 PUSH1 0x1 DUP1 PUSH1 0xA0 SHL SUB PUSH1 0x60 DUP7 ADD MLOAD AND PUSH1 0x80 DUP8 ADD MSTORE PUSH2 0x119B PUSH1 0x80 DUP7 ADD MLOAD PUSH1 0xA0 DUP9 ADD SWAP1 PUSH2 0x2055 JUMP JUMPDEST PUSH1 0xA0 DUP6 ADD MLOAD PUSH1 0xC0 DUP8 ADD MSTORE PUSH1 0xC0 DUP6 ADD MLOAD PUSH1 0xE0 DUP8 ADD MSTORE PUSH1 0xE0 DUP6 ADD MLOAD PUSH2 0x100 DUP8 ADD MSTORE PUSH2 0x100 DUP6 ADD MLOAD SWAP1 DUP7 DUP4 SUB ADD PUSH2 0x120 DUP8 ADD MSTORE PUSH2 0x2090 JUMP JUMPDEST SWAP2 PUSH2 0x120 DUP2 ADD MLOAD PUSH2 0x140 DUP6 ADD MSTORE PUSH2 0x140 DUP2 ADD MLOAD DUP3 DUP6 ADD MSTORE ADD MLOAD PUSH2 0x180 DUP4 ADD MSTORE SUB SWAP1 RETURN JUMPDEST CALLVALUE PUSH2 0x2D7 JUMPI PUSH1 0x20 CALLDATASIZE PUSH1 0x3 NOT ADD SLT PUSH2 0x2D7 JUMPI PUSH1 0x4 CALLDATALOAD PUSH1 0x0 MSTORE PUSH1 0x3 PUSH1 0x20 MSTORE PUSH2 0x693 PUSH2 0x67F PUSH1 0x7 PUSH1 0x40 PUSH1 0x0 KECCAK256 ADD PUSH2 0x23FA JUMP JUMPDEST CALLVALUE PUSH2 0x2D7 JUMPI PUSH1 0x20 CALLDATASIZE PUSH1 0x3 NOT ADD SLT PUSH2 0x2D7 JUMPI PUSH32 0xCFD511869F5B3D09F8E041D86B06852CA3A86D0C1099E1AB42F65E48E3F62C63 PUSH1 0x40 PUSH1 0x4 CALLDATALOAD PUSH2 0x1261 PUSH2 0x20C4 JUMP JUMPDEST PUSH1 0x2 SLOAD SWAP1 DUP1 PUSH1 0x2 SSTORE DUP3 MLOAD SWAP2 DUP3 MSTORE PUSH1 0x20 DUP3 ADD MSTORE LOG1 STOP JUMPDEST CALLVALUE PUSH2 0x2D7 JUMPI PUSH1 0x20 CALLDATASIZE PUSH1 0x3 NOT ADD SLT PUSH2 0x2D7 JUMPI PUSH1 0x4 CALLDATALOAD PUSH1 0x4 SLOAD DUP2 LT ISZERO PUSH2 0x2D7 JUMPI PUSH1 0x20 SWAP1 PUSH1 0x4 PUSH1 0x0 MSTORE PUSH32 0x8A35ACFBC15FF81A39AE7D344FD709F28E8600B4AA8C65C6B64BFE7FE36BD19B ADD SLOAD PUSH1 0x40 MLOAD SWAP1 DUP2 MSTORE RETURN JUMPDEST CALLVALUE PUSH2 0x2D7 JUMPI PUSH2 0x12D5 CALLDATASIZE PUSH2 0x2062 JUMP JUMPDEST SWAP1 DUP1 PUSH1 0x0 MSTORE PUSH1 0x3 PUSH1 0x20 MSTORE PUSH1 0x40 PUSH1 0x0 KECCAK256 SWAP1 PUSH1 0x6 DUP3 ADD SLOAD ISZERO PUSH2 0x2C5 JUMPI PUSH1 0x3 SWAP2 SWAP1 SWAP2 ADD SLOAD PUSH1 0x1 PUSH1 0x1 PUSH1 0xA0 SHL SUB SWAP2 SWAP1 DUP3 AND CALLER EQ ISZERO DUP1 PUSH2 0x1379 JUMPI JUMPDEST PUSH2 0x290 JUMPI DUP3 PUSH1 0x0 MSTORE PUSH1 0x6 PUSH1 0x20 MSTORE PUSH1 0x40 PUSH1 0x0 KECCAK256 SLOAD SUB PUSH2 0x60C JUMPI PUSH32 0x0 AND SWAP1 DUP2 EXTCODESIZE ISZERO PUSH2 0x2D7 JUMPI PUSH1 0x0 SWAP2 PUSH1 0x24 DUP4 SWAP3 PUSH1 0x40 MLOAD SWAP5 DUP6 SWAP4 DUP5 SWAP3 PUSH4 0x1694F011 PUSH1 0xE3 SHL DUP5 MSTORE PUSH1 0x4 DUP5 ADD MSTORE GAS CALL DUP1 ISZERO PUSH2 0x600 JUMPI PUSH2 0x5F7 JUMPI STOP JUMPDEST POP CALLER PUSH1 0x0 SWAP1 DUP2 MSTORE PUSH1 0x0 DUP1 MLOAD PUSH1 0x20 PUSH2 0x244A DUP4 CODECOPY DUP2 MLOAD SWAP2 MSTORE PUSH1 0x20 MSTORE PUSH1 0x40 SWAP1 KECCAK256 SLOAD PUSH1 0xFF AND ISZERO PUSH2 0x130B JUMP JUMPDEST CALLVALUE PUSH2 0x2D7 JUMPI PUSH1 0x40 CALLDATASIZE PUSH1 0x3 NOT ADD SLT PUSH2 0x2D7 JUMPI PUSH2 0x13B9 PUSH2 0x1ECF JUMP JUMPDEST CALLER PUSH1 0x1 PUSH1 0x1 PUSH1 0xA0 SHL SUB DUP3 AND SUB PUSH2 0x13D5 JUMPI PUSH2 0x52B SWAP1 PUSH1 0x4 CALLDATALOAD PUSH2 0x225B JUMP JUMPDEST PUSH1 0x40 MLOAD PUSH4 0x334BD919 PUSH1 0xE1 SHL DUP2 MSTORE PUSH1 0x4 SWAP1 REVERT JUMPDEST CALLVALUE PUSH2 0x2D7 JUMPI PUSH1 0x20 DUP1 PUSH1 0x3 NOT CALLDATASIZE ADD SLT PUSH2 0x2D7 JUMPI PUSH1 0x4 CALLDATALOAD DUP1 PUSH1 0x0 MSTORE PUSH1 0x3 DUP1 DUP4 MSTORE PUSH1 0x40 PUSH1 0x0 KECCAK256 PUSH1 0x6 DUP2 ADD SLOAD ISZERO PUSH2 0x2C5 JUMPI DUP2 ADD SLOAD PUSH1 0x1 PUSH1 0x1 PUSH1 0xA0 SHL SUB SWAP1 DUP2 AND CALLER EQ ISZERO DUP1 PUSH2 0x152B JUMPI JUMPDEST PUSH2 0x290 JUMPI DUP3 PUSH1 0x0 MSTORE DUP2 DUP5 MSTORE PUSH1 0x40 PUSH1 0x0 KECCAK256 SWAP3 DUP3 DUP5 ADD DUP1 SLOAD SWAP1 PUSH1 0xFF DUP3 PUSH1 0xA0 SHR AND SWAP2 PUSH1 0x4 DUP4 LT ISZERO PUSH2 0x27A JUMPI PUSH1 0x2 DUP4 EQ PUSH2 0x268 JUMPI PUSH1 0xFF PUSH1 0xA0 SHL NOT AND PUSH1 0x3 PUSH1 0xA0 SHL OR SWAP1 SSTORE PUSH32 0x0 SWAP1 SWAP3 AND SWAP5 SWAP4 PUSH1 0x7 ADD SWAP2 PUSH1 0x0 JUMPDEST DUP4 SLOAD DUP2 LT ISZERO PUSH2 0x14F8 JUMPI PUSH2 0x14AA DUP2 DUP6 PUSH2 0x2078 JUMP JUMPDEST SWAP1 SLOAD SWAP1 DUP7 SHL SHR SWAP1 DUP8 EXTCODESIZE ISZERO PUSH2 0x2D7 JUMPI PUSH2 0x14E4 SWAP2 PUSH1 0x40 MLOAD SWAP1 PUSH4 0xBDB83289 PUSH1 0xE0 SHL DUP3 MSTORE PUSH1 0x4 DUP3 ADD MSTORE PUSH1 0x0 DUP2 PUSH1 0x24 DUP2 DUP4 DUP14 GAS CALL PUSH2 0x14E9 JUMPI JUMPDEST POP PUSH2 0x22D0 JUMP JUMPDEST PUSH2 0x1497 JUMP JUMPDEST PUSH2 0x14F2 SWAP1 PUSH2 0x1F3B JUMP JUMPDEST DUP9 PUSH2 0x14DE JUMP JUMPDEST POP PUSH1 0x40 PUSH32 0x391304AF54B8296B07492D5D51DA2921873CDB2109FF5F3C1125B130C74D82A0 SWAP2 DUP6 DUP8 PUSH2 0x262 DUP5 MLOAD DUP1 SWAP5 PUSH2 0x2055 JUMP JUMPDEST POP PUSH1 0x0 DUP1 MSTORE PUSH1 0x0 DUP5 MSTORE PUSH1 0x40 PUSH1 0x0 KECCAK256 CALLER PUSH1 0x0 MSTORE DUP5 MSTORE PUSH1 0xFF PUSH1 0x40 PUSH1 0x0 KECCAK256 SLOAD AND ISZERO PUSH2 0x142B JUMP JUMPDEST CALLVALUE PUSH2 0x2D7 JUMPI PUSH1 0x40 CALLDATASIZE PUSH1 0x3 NOT ADD SLT PUSH2 0x2D7 JUMPI PUSH2 0x52B PUSH1 0x4 CALLDATALOAD PUSH2 0x156D PUSH2 0x1ECF JUMP JUMPDEST SWAP1 DUP1 PUSH1 0x0 MSTORE PUSH1 0x0 PUSH1 0x20 MSTORE PUSH2 0x1588 PUSH1 0x1 PUSH1 0x40 PUSH1 0x0 KECCAK256 ADD SLOAD PUSH2 0x210A JUMP JUMPDEST PUSH2 0x21E2 JUMP JUMPDEST CALLVALUE PUSH2 0x2D7 JUMPI PUSH1 0x40 CALLDATASIZE PUSH1 0x3 NOT ADD SLT PUSH2 0x2D7 JUMPI PUSH1 0x4 CALLDATALOAD PUSH2 0x15A9 PUSH2 0x1ECF JUMP JUMPDEST SWAP1 DUP1 PUSH1 0x0 MSTORE PUSH1 0x3 PUSH1 0x20 MSTORE PUSH1 0x40 PUSH1 0x0 KECCAK256 PUSH1 0x6 DUP2 ADD SLOAD ISZERO PUSH2 0x2C5 JUMPI PUSH1 0x3 ADD SLOAD PUSH1 0x1 PUSH1 0x1 PUSH1 0xA0 SHL SUB SWAP1 DUP2 AND CALLER EQ ISZERO DUP1 PUSH2 0x165C JUMPI JUMPDEST PUSH2 0x290 JUMPI DUP1 DUP4 AND SWAP3 DUP4 ISZERO PUSH2 0x472 JUMPI DUP3 PUSH1 0x0 MSTORE PUSH1 0x3 PUSH1 0x20 MSTORE PUSH2 0x1632 PUSH1 0x3 PUSH1 0x40 PUSH1 0x0 KECCAK256 ADD SWAP2 DUP3 SLOAD SWAP3 DUP7 PUSH12 0xFFFFFFFFFFFFFFFFFFFFFFFF PUSH1 0xA0 SHL DUP6 AND OR SWAP1 SSTORE DUP6 PUSH1 0x0 MSTORE PUSH1 0x5 PUSH1 0x20 MSTORE PUSH2 0x162D DUP6 PUSH1 0x40 PUSH1 0x0 KECCAK256 PUSH2 0x2325 JUMP JUMPDEST PUSH2 0x2130 JUMP JUMPDEST POP AND SWAP1 PUSH32 0xC494AD1DAE0C28508CBC489886C5E9E9B33E92AF56180E94B2674EAD62B03574 PUSH1 0x0 DUP1 LOG4 STOP JUMPDEST POP CALLER PUSH1 0x0 SWAP1 DUP2 MSTORE PUSH1 0x0 DUP1 MLOAD PUSH1 0x20 PUSH2 0x244A DUP4 CODECOPY DUP2 MLOAD SWAP2 MSTORE PUSH1 0x20 MSTORE PUSH1 0x40 SWAP1 KECCAK256 SLOAD PUSH1 0xFF AND ISZERO PUSH2 0x15DA JUMP JUMPDEST CALLVALUE PUSH2 0x2D7 JUMPI PUSH1 0x20 CALLDATASIZE PUSH1 0x3 NOT ADD SLT PUSH2 0x2D7 JUMPI PUSH1 0x4 CALLDATALOAD PUSH1 0x0 MSTORE PUSH1 0x0 PUSH1 0x20 MSTORE PUSH1 0x20 PUSH1 0x1 PUSH1 0x40 PUSH1 0x0 KECCAK256 ADD SLOAD PUSH1 0x40 MLOAD SWAP1 DUP2 MSTORE RETURN JUMPDEST CALLVALUE PUSH2 0x2D7 JUMPI PUSH1 0x20 CALLDATASIZE PUSH1 0x3 NOT ADD SLT PUSH2 0x2D7 JUMPI PUSH2 0x16CB PUSH2 0x1EB9 JUMP JUMPDEST PUSH1 0x1 PUSH1 0x1 PUSH1 0xA0 SHL SUB AND PUSH1 0x0 SWAP1 DUP2 MSTORE PUSH32 0x20C4AACFD5D637B449F1F17151B05651F15D96513FB0D93E91D95CF2B92CBAF1 PUSH1 0x20 SWAP1 DUP2 MSTORE PUSH1 0x40 SWAP2 DUP3 SWAP1 KECCAK256 SLOAD SWAP2 MLOAD PUSH1 0xFF SWAP1 SWAP3 AND ISZERO ISZERO DUP3 MSTORE SWAP1 RETURN JUMPDEST CALLVALUE PUSH2 0x2D7 JUMPI PUSH1 0x20 CALLDATASIZE PUSH1 0x3 NOT ADD SLT PUSH2 0x2D7 JUMPI PUSH1 0x4 CALLDATALOAD PUSH1 0x0 MSTORE PUSH1 0x3 PUSH1 0x20 MSTORE PUSH1 0x40 PUSH1 0x0 KECCAK256 DUP1 SLOAD PUSH2 0x1743 PUSH1 0x1 DUP4 ADD PUSH2 0x1F6F JUMP JUMPDEST SWAP2 PUSH2 0x1750 PUSH1 0x2 DUP3 ADD PUSH2 0x1F6F JUMP JUMPDEST PUSH1 0x3 DUP3 ADD SLOAD SWAP2 PUSH1 0x4 DUP2 ADD SLOAD PUSH1 0x5 DUP3 ADD SLOAD PUSH1 0x6 DUP4 ADD SLOAD SWAP1 PUSH1 0x8 DUP5 ADD SLOAD SWAP3 PUSH2 0x17C9 PUSH2 0x17A9 PUSH1 0xA PUSH1 0x9 DUP9 ADD SLOAD SWAP8 ADD SLOAD SWAP8 PUSH2 0x179B PUSH1 0x40 MLOAD SWAP13 DUP14 SWAP13 DUP14 MSTORE PUSH1 0x20 DUP14 PUSH2 0x160 SWAP2 DUP3 SWAP2 ADD MSTORE DUP14 ADD SWAP1 PUSH2 0x2015 JUMP JUMPDEST SWAP1 DUP12 DUP3 SUB PUSH1 0x40 DUP14 ADD MSTORE PUSH2 0x2015 JUMP JUMPDEST PUSH1 0x1 PUSH1 0x1 PUSH1 0xA0 SHL SUB DUP10 AND PUSH1 0x60 DUP12 ADD MSTORE SWAP8 PUSH1 0x80 DUP11 ADD SWAP1 PUSH1 0xA0 SHR PUSH1 0xFF AND PUSH2 0x2055 JUMP JUMPDEST PUSH1 0xA0 DUP9 ADD MSTORE PUSH1 0xC0 DUP8 ADD MSTORE PUSH1 0xE0 DUP7 ADD MSTORE PUSH2 0x100 DUP6 ADD MSTORE PUSH2 0x120 DUP5 ADD MSTORE PUSH2 0x140 DUP4 ADD MSTORE SUB SWAP1 RETURN JUMPDEST CALLVALUE PUSH2 0x2D7 JUMPI PUSH1 0xC0 CALLDATASIZE PUSH1 0x3 NOT ADD SLT PUSH2 0x2D7 JUMPI PUSH1 0x4 CALLDATALOAD PUSH1 0x1 PUSH1 0x1 PUSH1 0x40 SHL SUB DUP2 GT PUSH2 0x2D7 JUMPI PUSH2 0x181E SWAP1 CALLDATASIZE SWAP1 PUSH1 0x4 ADD PUSH2 0x1E8C JUMP JUMPDEST SWAP1 PUSH1 0x24 CALLDATALOAD PUSH1 0x1 PUSH1 0x1 PUSH1 0x40 SHL SUB DUP2 GT PUSH2 0x2D7 JUMPI PUSH2 0x183E SWAP1 CALLDATASIZE SWAP1 PUSH1 0x4 ADD PUSH2 0x1E8C JUMP JUMPDEST SWAP1 SWAP3 SWAP1 PUSH1 0x44 CALLDATALOAD PUSH1 0x1 PUSH1 0x1 PUSH1 0xA0 SHL SUB DUP2 AND SWAP1 SUB PUSH2 0x2D7 JUMPI PUSH2 0x185C PUSH2 0x20C4 JUMP JUMPDEST PUSH1 0x44 CALLDATALOAD PUSH1 0x1 PUSH1 0x1 PUSH1 0xA0 SHL SUB AND ISZERO PUSH2 0x472 JUMPI PUSH1 0x64 CALLDATALOAD PUSH1 0x84 CALLDATALOAD GT ISZERO PUSH2 0x1E27 JUMPI PUSH1 0xA4 CALLDATALOAD ISZERO ISZERO DUP1 PUSH2 0x1E1A JUMPI JUMPDEST PUSH2 0xD06 JUMPI PUSH1 0x8 SLOAD PUSH2 0x1894 DUP2 PUSH2 0x22D0 JUMP JUMPDEST PUSH1 0x8 SSTORE PUSH1 0x40 MLOAD PUSH2 0x18D3 PUSH1 0x60 DUP3 PUSH1 0x20 DUP2 ADD SWAP5 DUP8 DUP10 DUP8 CALLDATACOPY DUP7 DUP9 DUP4 ADD DUP2 DUP13 PUSH1 0x20 DUP4 ADD PUSH1 0x0 DUP2 MSTORE CALLDATACOPY ADD SWAP1 PUSH1 0x20 DUP3 ADD MSTORE TIMESTAMP PUSH1 0x40 DUP3 ADD MSTORE SUB PUSH1 0x40 DUP2 ADD DUP5 MSTORE ADD DUP3 PUSH2 0x1F4E JUMP JUMPDEST MLOAD SWAP1 KECCAK256 SWAP3 DUP4 PUSH1 0x0 MSTORE PUSH1 0x3 PUSH1 0x20 MSTORE PUSH1 0x6 PUSH1 0x40 PUSH1 0x0 KECCAK256 ADD SLOAD PUSH2 0x1E08 JUMPI PUSH1 0x40 MLOAD DUP1 PUSH1 0x20 DUP2 ADD LT PUSH1 0x1 PUSH1 0x1 PUSH1 0x40 SHL SUB PUSH1 0x20 DUP4 ADD GT OR PUSH2 0x44A JUMPI PUSH1 0x20 DUP2 ADD PUSH1 0x40 MSTORE PUSH1 0x0 DUP2 MSTORE PUSH1 0x40 MLOAD SWAP1 PUSH2 0x1920 DUP3 PUSH2 0x1F1F JUMP JUMPDEST DUP6 DUP3 MSTORE PUSH2 0x192E CALLDATASIZE DUP7 DUP6 PUSH2 0x22DF JUMP JUMPDEST PUSH1 0x20 DUP4 ADD MSTORE PUSH2 0x193E CALLDATASIZE DUP6 DUP10 PUSH2 0x22DF JUMP JUMPDEST PUSH1 0x40 DUP4 ADD MSTORE PUSH1 0x1 DUP1 PUSH1 0xA0 SHL SUB PUSH1 0x44 CALLDATALOAD AND PUSH1 0x60 DUP4 ADD MSTORE PUSH1 0x0 PUSH1 0x80 DUP4 ADD MSTORE PUSH1 0x64 CALLDATALOAD PUSH1 0xA0 DUP4 ADD MSTORE PUSH1 0x84 CALLDATALOAD PUSH1 0xC0 DUP4 ADD MSTORE TIMESTAMP PUSH1 0xE0 DUP4 ADD MSTORE PUSH2 0x100 DUP3 ADD MSTORE PUSH1 0xA4 CALLDATALOAD PUSH2 0x120 DUP3 ADD MSTORE PUSH1 0x0 PUSH2 0x140 DUP3 ADD MSTORE PUSH1 0x0 PUSH2 0x160 DUP3 ADD MSTORE DUP5 PUSH1 0x0 MSTORE PUSH1 0x3 PUSH1 0x20 MSTORE PUSH1 0x40 PUSH1 0x0 KECCAK256 SWAP1 DUP1 MLOAD DUP3 SSTORE PUSH1 0x20 DUP2 ADD MLOAD DUP1 MLOAD SWAP1 PUSH1 0x1 PUSH1 0x1 PUSH1 0x40 SHL SUB DUP3 GT PUSH2 0x44A JUMPI DUP2 SWAP1 PUSH2 0x19C7 PUSH1 0x1 DUP7 ADD SLOAD PUSH2 0x1EE5 JUMP JUMPDEST PUSH1 0x1F DUP2 GT PUSH2 0x1DB5 JUMPI JUMPDEST POP PUSH1 0x20 SWAP1 PUSH1 0x1F DUP4 GT PUSH1 0x1 EQ PUSH2 0x1D43 JUMPI PUSH1 0x0 SWAP3 PUSH2 0x1D38 JUMPI JUMPDEST POP POP DUP2 PUSH1 0x1 SHL SWAP2 PUSH1 0x0 NOT SWAP1 PUSH1 0x3 SHL SHR NOT AND OR PUSH1 0x1 DUP4 ADD SSTORE JUMPDEST PUSH1 0x40 DUP2 ADD MLOAD DUP1 MLOAD SWAP1 PUSH1 0x1 PUSH1 0x1 PUSH1 0x40 SHL SUB DUP3 GT PUSH2 0x44A JUMPI DUP2 SWAP1 PUSH2 0x1A24 PUSH1 0x2 DUP7 ADD SLOAD PUSH2 0x1EE5 JUMP JUMPDEST PUSH1 0x1F DUP2 GT PUSH2 0x1CE5 JUMPI JUMPDEST POP PUSH1 0x20 SWAP1 PUSH1 0x1F DUP4 GT PUSH1 0x1 EQ PUSH2 0x1C73 JUMPI PUSH1 0x0 SWAP3 PUSH2 0x1C68 JUMPI JUMPDEST POP POP DUP2 PUSH1 0x1 SHL SWAP2 PUSH1 0x0 NOT SWAP1 PUSH1 0x3 SHL SHR NOT AND OR PUSH1 0x2 DUP4 ADD SSTORE JUMPDEST PUSH1 0x3 DUP3 ADD PUSH1 0x1 DUP1 PUSH1 0xA0 SHL SUB PUSH1 0x60 DUP4 ADD MLOAD AND DUP2 SLOAD SWAP1 PUSH1 0x80 DUP5 ADD MLOAD PUSH1 0x4 DUP2 LT ISZERO PUSH2 0x27A JUMPI PUSH1 0x1 PUSH1 0x1 PUSH1 0xA8 SHL SUB NOT SWAP1 SWAP3 AND OR PUSH1 0xA0 SWAP2 DUP3 SHL PUSH1 0xFF PUSH1 0xA0 SHL AND OR SWAP1 SWAP2 SSTORE DUP2 ADD MLOAD PUSH1 0x4 DUP4 ADD SSTORE PUSH1 0xC0 DUP2 ADD MLOAD PUSH1 0x5 DUP4 ADD SSTORE PUSH1 0xE0 DUP2 ADD MLOAD PUSH1 0x6 DUP4 ADD SSTORE PUSH2 0x100 DUP2 ADD MLOAD DUP1 MLOAD SWAP1 PUSH1 0x1 PUSH1 0x1 PUSH1 0x40 SHL SUB DUP3 GT PUSH2 0x44A JUMPI PUSH1 0x1 PUSH1 0x40 SHL DUP3 GT PUSH2 0x44A JUMPI PUSH1 0x7 DUP5 ADD SLOAD DUP3 PUSH1 0x7 DUP7 ADD SSTORE DUP1 DUP4 LT PUSH2 0x1C3B JUMPI JUMPDEST POP PUSH1 0x20 ADD PUSH1 0x7 DUP5 ADD PUSH1 0x0 MSTORE PUSH1 0x20 PUSH1 0x0 KECCAK256 PUSH1 0x0 JUMPDEST DUP4 DUP2 LT PUSH2 0x1C27 JUMPI POP POP POP POP PUSH2 0x160 DUP2 PUSH2 0x120 PUSH1 0xA SWAP4 ADD MLOAD PUSH1 0x8 DUP6 ADD SSTORE PUSH2 0x140 DUP2 ADD MLOAD PUSH1 0x9 DUP6 ADD SSTORE ADD MLOAD SWAP2 ADD SSTORE PUSH1 0x4 SLOAD SWAP1 PUSH1 0x1 PUSH1 0x40 SHL DUP3 LT ISZERO PUSH2 0x44A JUMPI PUSH1 0x1 DUP3 ADD DUP1 PUSH1 0x4 SSTORE DUP3 LT ISZERO PUSH2 0x1C11 JUMPI PUSH1 0x20 SWAP6 DUP6 SWAP4 PUSH2 0x1BD9 PUSH2 0x1BE6 SWAP4 DUP7 PUSH32 0xE071379F93965677CBCFE7FCC83082A571DDA54FC69AF47BDFE5A95A08203242 SWAP7 PUSH32 0x8A35ACFBC15FF81A39AE7D344FD709F28E8600B4AA8C65C6B64BFE7FE36BD19B ADD SSTORE PUSH1 0x1 DUP1 PUSH1 0xA0 SHL SUB PUSH1 0x44 CALLDATALOAD AND PUSH1 0x0 MSTORE PUSH1 0x5 DUP11 MSTORE PUSH2 0x1BBB DUP8 PUSH1 0x40 PUSH1 0x0 KECCAK256 PUSH2 0x2325 JUMP JUMPDEST PUSH2 0x1BC6 PUSH1 0x44 CALLDATALOAD PUSH2 0x2130 JUMP JUMPDEST POP PUSH1 0x40 MLOAD SWAP8 PUSH1 0x80 DUP10 MSTORE PUSH1 0x80 DUP10 ADD SWAP2 PUSH2 0x235A JUMP JUMPDEST SWAP2 DUP7 DUP4 SUB DUP10 DUP9 ADD MSTORE PUSH2 0x235A JUMP JUMPDEST PUSH1 0x64 CALLDATALOAD PUSH1 0x40 DUP6 ADD MSTORE PUSH1 0x84 CALLDATALOAD PUSH1 0x60 DUP6 ADD MSTORE PUSH1 0x44 CALLDATALOAD PUSH1 0x1 PUSH1 0x1 PUSH1 0xA0 SHL SUB AND SWAP4 SWAP1 DUP2 SWAP1 SUB SWAP1 LOG3 PUSH1 0x40 MLOAD SWAP1 DUP2 MSTORE RETURN JUMPDEST PUSH4 0x4E487B71 PUSH1 0xE0 SHL PUSH1 0x0 MSTORE PUSH1 0x32 PUSH1 0x4 MSTORE PUSH1 0x24 PUSH1 0x0 REVERT JUMPDEST PUSH1 0x1 SWAP1 PUSH1 0x20 DUP5 MLOAD SWAP5 ADD SWAP4 DUP2 DUP5 ADD SSTORE ADD PUSH2 0x1AFE JUMP JUMPDEST PUSH1 0x7 DUP6 ADD PUSH1 0x0 MSTORE PUSH1 0x20 PUSH1 0x0 KECCAK256 SWAP1 DUP4 DUP3 ADD JUMPDEST DUP2 DUP4 ADD DUP2 LT PUSH2 0x1C5C JUMPI POP POP PUSH2 0x1AEB JUMP JUMPDEST PUSH1 0x0 DUP2 SSTORE PUSH1 0x1 ADD PUSH2 0x1C4C JUMP JUMPDEST ADD MLOAD SWAP1 POP DUP10 DUP1 PUSH2 0x1A44 JUMP JUMPDEST SWAP3 POP PUSH1 0x2 DUP6 ADD PUSH1 0x0 MSTORE PUSH1 0x20 PUSH1 0x0 KECCAK256 SWAP1 PUSH1 0x0 SWAP4 JUMPDEST PUSH1 0x1F NOT DUP5 AND DUP6 LT PUSH2 0x1CCA JUMPI PUSH1 0x1 SWAP5 POP DUP4 PUSH1 0x1F NOT DUP2 AND LT PUSH2 0x1CB1 JUMPI JUMPDEST POP POP POP DUP2 SHL ADD PUSH1 0x2 DUP4 ADD SSTORE PUSH2 0x1A5C JUMP JUMPDEST ADD MLOAD PUSH1 0x0 NOT PUSH1 0xF8 DUP5 PUSH1 0x3 SHL AND SHR NOT AND SWAP1 SSTORE DUP10 DUP1 DUP1 PUSH2 0x1CA1 JUMP JUMPDEST DUP2 DUP2 ADD MLOAD DUP4 SSTORE PUSH1 0x20 SWAP5 DUP6 ADD SWAP5 PUSH1 0x1 SWAP1 SWAP4 ADD SWAP3 SWAP1 SWAP2 ADD SWAP1 PUSH2 0x1C86 JUMP JUMPDEST SWAP1 SWAP2 POP PUSH1 0x2 DUP6 ADD PUSH1 0x0 MSTORE PUSH1 0x20 PUSH1 0x0 KECCAK256 PUSH1 0x1F DUP5 ADD PUSH1 0x5 SHR DUP2 ADD PUSH1 0x20 DUP6 LT PUSH2 0x1D31 JUMPI JUMPDEST SWAP1 DUP5 SWAP4 SWAP3 SWAP2 JUMPDEST PUSH1 0x1F DUP4 ADD PUSH1 0x5 SHR DUP3 ADD DUP2 LT PUSH2 0x1D22 JUMPI POP POP PUSH2 0x1A2D JUMP JUMPDEST PUSH1 0x0 DUP2 SSTORE DUP6 SWAP5 POP PUSH1 0x1 ADD PUSH2 0x1D0C JUMP JUMPDEST POP DUP1 PUSH2 0x1D06 JUMP JUMPDEST ADD MLOAD SWAP1 POP DUP10 DUP1 PUSH2 0x19E7 JUMP JUMPDEST SWAP3 POP PUSH1 0x1 DUP6 ADD PUSH1 0x0 MSTORE PUSH1 0x20 PUSH1 0x0 KECCAK256 SWAP1 PUSH1 0x0 SWAP4 JUMPDEST PUSH1 0x1F NOT DUP5 AND DUP6 LT PUSH2 0x1D9A JUMPI PUSH1 0x1 SWAP5 POP DUP4 PUSH1 0x1F NOT DUP2 AND LT PUSH2 0x1D81 JUMPI JUMPDEST POP POP POP DUP2 SHL ADD PUSH1 0x1 DUP4 ADD SSTORE PUSH2 0x19FF JUMP JUMPDEST ADD MLOAD PUSH1 0x0 NOT PUSH1 0xF8 DUP5 PUSH1 0x3 SHL AND SHR NOT AND SWAP1 SSTORE DUP10 DUP1 DUP1 PUSH2 0x1D71 JUMP JUMPDEST DUP2 DUP2 ADD MLOAD DUP4 SSTORE PUSH1 0x20 SWAP5 DUP6 ADD SWAP5 PUSH1 0x1 SWAP1 SWAP4 ADD SWAP3 SWAP1 SWAP2 ADD SWAP1 PUSH2 0x1D56 JUMP JUMPDEST SWAP1 SWAP2 POP PUSH1 0x1 DUP6 ADD PUSH1 0x0 MSTORE PUSH1 0x20 PUSH1 0x0 KECCAK256 PUSH1 0x1F DUP5 ADD PUSH1 0x5 SHR DUP2 ADD PUSH1 0x20 DUP6 LT PUSH2 0x1E01 JUMPI JUMPDEST SWAP1 DUP5 SWAP4 SWAP3 SWAP2 JUMPDEST PUSH1 0x1F DUP4 ADD PUSH1 0x5 SHR DUP3 ADD DUP2 LT PUSH2 0x1DF2 JUMPI POP POP PUSH2 0x19D0 JUMP JUMPDEST PUSH1 0x0 DUP2 SSTORE DUP6 SWAP5 POP PUSH1 0x1 ADD PUSH2 0x1DDC JUMP JUMPDEST POP DUP1 PUSH2 0x1DD6 JUMP JUMPDEST PUSH1 0x40 MLOAD PUSH4 0x2C7131BB PUSH1 0xE0 SHL DUP2 MSTORE PUSH1 0x4 SWAP1 REVERT JUMPDEST POP PUSH1 0x2 SLOAD PUSH1 0xA4 CALLDATALOAD LT PUSH2 0x1884 JUMP JUMPDEST PUSH1 0x40 MLOAD PUSH4 0x536A71AF PUSH1 0xE0 SHL DUP2 MSTORE PUSH1 0x4 SWAP1 REVERT JUMPDEST CALLVALUE PUSH2 0x2D7 JUMPI PUSH1 0x20 CALLDATASIZE PUSH1 0x3 NOT ADD SLT PUSH2 0x2D7 JUMPI PUSH1 0x4 CALLDATALOAD SWAP1 PUSH4 0xFFFFFFFF PUSH1 0xE0 SHL DUP3 AND DUP1 SWAP3 SUB PUSH2 0x2D7 JUMPI PUSH1 0x20 SWAP2 PUSH4 0x7965DB0B PUSH1 0xE0 SHL DUP2 EQ SWAP1 DUP2 ISZERO PUSH2 0x1E7B JUMPI JUMPDEST POP ISZERO ISZERO DUP2 MSTORE RETURN JUMPDEST PUSH4 0x1FFC9A7 PUSH1 0xE0 SHL EQ SWAP1 POP DUP4 PUSH2 0x1E74 JUMP JUMPDEST SWAP2 DUP2 PUSH1 0x1F DUP5 ADD SLT ISZERO PUSH2 0x2D7 JUMPI DUP3 CALLDATALOAD SWAP2 PUSH1 0x1 PUSH1 0x1 PUSH1 0x40 SHL SUB DUP4 GT PUSH2 0x2D7 JUMPI PUSH1 0x20 DUP4 DUP2 DUP7 ADD SWAP6 ADD ADD GT PUSH2 0x2D7 JUMPI JUMP JUMPDEST PUSH1 0x4 CALLDATALOAD SWAP1 PUSH1 0x1 PUSH1 0x1 PUSH1 0xA0 SHL SUB DUP3 AND DUP3 SUB PUSH2 0x2D7 JUMPI JUMP JUMPDEST PUSH1 0x24 CALLDATALOAD SWAP1 PUSH1 0x1 PUSH1 0x1 PUSH1 0xA0 SHL SUB DUP3 AND DUP3 SUB PUSH2 0x2D7 JUMPI JUMP JUMPDEST SWAP1 PUSH1 0x1 DUP3 DUP2 SHR SWAP3 AND DUP1 ISZERO PUSH2 0x1F15 JUMPI JUMPDEST PUSH1 0x20 DUP4 LT EQ PUSH2 0x1EFF JUMPI JUMP JUMPDEST PUSH4 0x4E487B71 PUSH1 0xE0 SHL PUSH1 0x0 MSTORE PUSH1 0x22 PUSH1 0x4 MSTORE PUSH1 0x24 PUSH1 0x0 REVERT JUMPDEST SWAP2 PUSH1 0x7F AND SWAP2 PUSH2 0x1EF4 JUMP JUMPDEST PUSH2 0x180 DUP2 ADD SWAP1 DUP2 LT PUSH1 0x1 PUSH1 0x1 PUSH1 0x40 SHL SUB DUP3 GT OR PUSH2 0x44A JUMPI PUSH1 0x40 MSTORE JUMP JUMPDEST PUSH1 0x1 PUSH1 0x1 PUSH1 0x40 SHL SUB DUP2 GT PUSH2 0x44A JUMPI PUSH1 0x40 MSTORE JUMP JUMPDEST SWAP1 PUSH1 0x1F DUP1 NOT SWAP2 ADD AND DUP2 ADD SWAP1 DUP2 LT PUSH1 0x1 PUSH1 0x1 PUSH1 0x40 SHL SUB DUP3 GT OR PUSH2 0x44A JUMPI PUSH1 0x40 MSTORE JUMP JUMPDEST SWAP1 PUSH1 0x40 MLOAD SWAP2 DUP3 PUSH1 0x0 DUP3 SLOAD SWAP3 PUSH2 0x1F83 DUP5 PUSH2 0x1EE5 JUMP JUMPDEST SWAP1 DUP2 DUP5 MSTORE PUSH1 0x1 SWAP5 DUP6 DUP2 AND SWAP1 DUP2 PUSH1 0x0 EQ PUSH2 0x1FF2 JUMPI POP PUSH1 0x1 EQ PUSH2 0x1FAF JUMPI JUMPDEST POP POP PUSH2 0x1FAD SWAP3 POP SUB DUP4 PUSH2 0x1F4E JUMP JUMPDEST JUMP JUMPDEST SWAP1 SWAP4 SWAP2 POP PUSH1 0x0 MSTORE PUSH1 0x20 SWAP1 DUP2 PUSH1 0x0 KECCAK256 SWAP4 PUSH1 0x0 SWAP2 JUMPDEST DUP2 DUP4 LT PUSH2 0x1FDA JUMPI POP POP PUSH2 0x1FAD SWAP4 POP DUP3 ADD ADD CODESIZE DUP1 PUSH2 0x1F9F JUMP JUMPDEST DUP6 SLOAD DUP9 DUP5 ADD DUP6 ADD MSTORE SWAP5 DUP6 ADD SWAP5 DUP8 SWAP5 POP SWAP2 DUP4 ADD SWAP2 PUSH2 0x1FC2 JUMP JUMPDEST SWAP2 POP POP PUSH2 0x1FAD SWAP5 POP PUSH1 0x20 SWAP3 POP PUSH1 0xFF NOT AND DUP3 DUP5 ADD MSTORE ISZERO ISZERO PUSH1 0x5 SHL DUP3 ADD ADD CODESIZE DUP1 PUSH2 0x1F9F JUMP JUMPDEST SWAP2 SWAP1 DUP3 MLOAD SWAP3 DUP4 DUP3 MSTORE PUSH1 0x0 JUMPDEST DUP5 DUP2 LT PUSH2 0x2041 JUMPI POP POP DUP3 PUSH1 0x0 PUSH1 0x20 DUP1 SWAP5 SWAP6 DUP5 ADD ADD MSTORE PUSH1 0x1F DUP1 NOT SWAP2 ADD AND ADD ADD SWAP1 JUMP JUMPDEST PUSH1 0x20 DUP2 DUP4 ADD DUP2 ADD MLOAD DUP5 DUP4 ADD DUP3 ADD MSTORE ADD PUSH2 0x2020 JUMP JUMPDEST SWAP1 PUSH1 0x4 DUP3 LT ISZERO PUSH2 0x27A JUMPI MSTORE JUMP JUMPDEST PUSH1 0x40 SWAP1 PUSH1 0x3 NOT ADD SLT PUSH2 0x2D7 JUMPI PUSH1 0x4 CALLDATALOAD SWAP1 PUSH1 0x24 CALLDATALOAD SWAP1 JUMP JUMPDEST DUP1 SLOAD DUP3 LT ISZERO PUSH2 0x1C11 JUMPI PUSH1 0x0 MSTORE PUSH1 0x20 PUSH1 0x0 KECCAK256 ADD SWAP1 PUSH1 0x0 SWAP1 JUMP JUMPDEST SWAP1 DUP2 MLOAD DUP1 DUP3 MSTORE PUSH1 0x20 DUP1 DUP1 SWAP4 ADD SWAP4 ADD SWAP2 PUSH1 0x0 JUMPDEST DUP3 DUP2 LT PUSH2 0x20B0 JUMPI POP POP POP POP SWAP1 JUMP JUMPDEST DUP4 MLOAD DUP6 MSTORE SWAP4 DUP2 ADD SWAP4 SWAP3 DUP2 ADD SWAP3 PUSH1 0x1 ADD PUSH2 0x20A2 JUMP JUMPDEST CALLER PUSH1 0x0 SWAP1 DUP2 MSTORE PUSH1 0x0 DUP1 MLOAD PUSH1 0x20 PUSH2 0x244A DUP4 CODECOPY DUP2 MLOAD SWAP2 MSTORE PUSH1 0x20 MSTORE PUSH1 0x40 DUP2 KECCAK256 SLOAD PUSH1 0xFF AND ISZERO PUSH2 0x20EC JUMPI POP JUMP JUMPDEST PUSH1 0x44 SWAP1 PUSH1 0x40 MLOAD SWAP1 PUSH4 0xE2517D3F PUSH1 0xE0 SHL DUP3 MSTORE CALLER PUSH1 0x4 DUP4 ADD MSTORE PUSH1 0x24 DUP3 ADD MSTORE REVERT JUMPDEST DUP1 PUSH1 0x0 MSTORE PUSH1 0x0 PUSH1 0x20 MSTORE PUSH1 0x40 PUSH1 0x0 KECCAK256 CALLER PUSH1 0x0 MSTORE PUSH1 0x20 MSTORE PUSH1 0xFF PUSH1 0x40 PUSH1 0x0 KECCAK256 SLOAD AND ISZERO PUSH2 0x20EC JUMPI POP JUMP JUMPDEST PUSH1 0x1 PUSH1 0x1 PUSH1 0xA0 SHL SUB AND PUSH1 0x0 DUP2 DUP2 MSTORE PUSH32 0x20C4AACFD5D637B449F1F17151B05651F15D96513FB0D93E91D95CF2B92CBAF1 PUSH1 0x20 MSTORE PUSH1 0x40 DUP2 KECCAK256 SLOAD SWAP1 SWAP2 SWAP1 PUSH32 0xDADB2297D6981894AD3E8C71235C7FFA6953FA9A20346ECB4CBCF850C853FC10 SWAP1 PUSH1 0xFF AND PUSH2 0x21DD JUMPI DUP1 DUP4 MSTORE DUP3 PUSH1 0x20 MSTORE PUSH1 0x40 DUP4 KECCAK256 DUP3 DUP5 MSTORE PUSH1 0x20 MSTORE PUSH1 0x40 DUP4 KECCAK256 PUSH1 0x1 PUSH1 0xFF NOT DUP3 SLOAD AND OR SWAP1 SSTORE PUSH32 0x2F8788117E7EFF1D82E926EC794901D17C78024A50270940304540A733656F0D CALLER SWAP4 DUP1 LOG4 PUSH1 0x1 SWAP1 JUMP JUMPDEST POP POP SWAP1 JUMP JUMPDEST SWAP1 PUSH1 0x0 SWAP2 DUP1 DUP4 MSTORE DUP3 PUSH1 0x20 MSTORE PUSH1 0x40 DUP4 KECCAK256 SWAP2 PUSH1 0x1 DUP1 PUSH1 0xA0 SHL SUB AND SWAP2 DUP3 DUP5 MSTORE PUSH1 0x20 MSTORE PUSH1 0xFF PUSH1 0x40 DUP5 KECCAK256 SLOAD AND ISZERO PUSH1 0x0 EQ PUSH2 0x21DD JUMPI DUP1 DUP4 MSTORE DUP3 PUSH1 0x20 MSTORE PUSH1 0x40 DUP4 KECCAK256 DUP3 DUP5 MSTORE PUSH1 0x20 MSTORE PUSH1 0x40 DUP4 KECCAK256 PUSH1 0x1 PUSH1 0xFF NOT DUP3 SLOAD AND OR SWAP1 SSTORE PUSH32 0x2F8788117E7EFF1D82E926EC794901D17C78024A50270940304540A733656F0D CALLER SWAP4 DUP1 LOG4 PUSH1 0x1 SWAP1 JUMP JUMPDEST SWAP1 PUSH1 0x0 SWAP2 DUP1 DUP4 MSTORE DUP3 PUSH1 0x20 MSTORE PUSH1 0x40 DUP4 KECCAK256 SWAP2 PUSH1 0x1 DUP1 PUSH1 0xA0 SHL SUB AND SWAP2 DUP3 DUP5 MSTORE PUSH1 0x20 MSTORE PUSH1 0xFF PUSH1 0x40 DUP5 KECCAK256 SLOAD AND PUSH1 0x0 EQ PUSH2 0x21DD JUMPI DUP1 DUP4 MSTORE DUP3 PUSH1 0x20 MSTORE PUSH1 0x40 DUP4 KECCAK256 DUP3 DUP5 MSTORE PUSH1 0x20 MSTORE PUSH1 0x40 DUP4 KECCAK256 PUSH1 0xFF NOT DUP2 SLOAD AND SWAP1 SSTORE PUSH32 0xF6391F5C32D9C69D2A47EA670B442974B53935D1EDC7FD64EB21E047A839171B CALLER SWAP4 DUP1 LOG4 PUSH1 0x1 SWAP1 JUMP JUMPDEST PUSH1 0x0 NOT DUP2 EQ PUSH2 0xF9F JUMPI PUSH1 0x1 ADD SWAP1 JUMP JUMPDEST SWAP3 SWAP2 SWAP3 PUSH1 0x1 PUSH1 0x1 PUSH1 0x40 SHL SUB DUP3 GT PUSH2 0x44A JUMPI PUSH1 0x40 MLOAD SWAP2 PUSH2 0x2308 PUSH1 0x1F DUP3 ADD PUSH1 0x1F NOT AND PUSH1 0x20 ADD DUP5 PUSH2 0x1F4E JUMP JUMPDEST DUP3 SWAP5 DUP2 DUP5 MSTORE DUP2 DUP4 ADD GT PUSH2 0x2D7 JUMPI DUP3 DUP2 PUSH1 0x20 SWAP4 DUP5 PUSH1 0x0 SWAP7 ADD CALLDATACOPY ADD ADD MSTORE JUMP JUMPDEST DUP1 SLOAD PUSH1 0x1 PUSH1 0x40 SHL DUP2 LT ISZERO PUSH2 0x44A JUMPI PUSH2 0x2342 SWAP2 PUSH1 0x1 DUP3 ADD DUP2 SSTORE PUSH2 0x2078 JUMP JUMPDEST DUP2 SWAP3 SWAP2 SLOAD SWAP1 PUSH1 0x3 SHL SWAP2 DUP3 SHL SWAP2 PUSH1 0x0 NOT SWAP1 SHL NOT AND OR SWAP1 SSTORE JUMP JUMPDEST SWAP1 DUP1 PUSH1 0x20 SWAP4 SWAP3 DUP2 DUP5 MSTORE DUP5 DUP5 ADD CALLDATACOPY PUSH1 0x0 DUP3 DUP3 ADD DUP5 ADD MSTORE PUSH1 0x1F ADD PUSH1 0x1F NOT AND ADD ADD SWAP1 JUMP JUMPDEST SWAP1 PUSH1 0x0 PUSH1 0x20 SWAP2 DUP3 DUP2 MLOAD SWAP2 ADD DUP3 DUP6 GAS CALL ISZERO PUSH2 0x600 JUMPI PUSH1 0x0 MLOAD RETURNDATASIZE PUSH2 0x23CE JUMPI POP PUSH1 0x1 PUSH1 0x1 PUSH1 0xA0 SHL SUB DUP2 AND EXTCODESIZE ISZERO JUMPDEST PUSH2 0x23AC JUMPI POP JUMP JUMPDEST PUSH1 0x40 MLOAD PUSH4 0x5274AFE7 PUSH1 0xE0 SHL DUP2 MSTORE PUSH1 0x1 PUSH1 0x1 PUSH1 0xA0 SHL SUB SWAP1 SWAP2 AND PUSH1 0x4 DUP3 ADD MSTORE PUSH1 0x24 SWAP1 REVERT JUMPDEST PUSH1 0x1 EQ ISZERO PUSH2 0x23A5 JUMP JUMPDEST PUSH1 0x2 PUSH1 0x1 SLOAD EQ PUSH2 0x23E8 JUMPI PUSH1 0x2 PUSH1 0x1 SSTORE JUMP JUMPDEST PUSH1 0x40 MLOAD PUSH4 0x3EE5AEB5 PUSH1 0xE0 SHL DUP2 MSTORE PUSH1 0x4 SWAP1 REVERT JUMPDEST SWAP1 PUSH1 0x40 MLOAD SWAP2 DUP3 DUP2 SLOAD SWAP2 DUP3 DUP3 MSTORE PUSH1 0x20 SWAP3 DUP4 DUP4 ADD SWAP2 PUSH1 0x0 MSTORE DUP4 PUSH1 0x0 KECCAK256 SWAP4 PUSH1 0x0 SWAP1 JUMPDEST DUP3 DUP3 LT PUSH2 0x242F JUMPI POP POP POP PUSH2 0x1FAD SWAP3 POP SUB DUP4 PUSH2 0x1F4E JUMP JUMPDEST DUP6 SLOAD DUP5 MSTORE PUSH1 0x1 SWAP6 DUP7 ADD SWAP6 DUP9 SWAP6 POP SWAP4 DUP2 ADD SWAP4 SWAP1 SWAP2 ADD SWAP1 PUSH2 0x2419 JUMP INVALID 0xAD ORIGIN 0x28 0xB6 PUSH23 0xF7D3CD4284A5443F17F1962B36E491B30A40B2405849E5 SWAP8 0xBA PUSH0 0xB5 LOG2 PUSH5 0x6970667358 0x22 SLT KECCAK256 PUSH31 0xC1473EED64FD8499C429FDAC0F31955DFAAE0208053CCAD15749D37078159F PUSH5 0x736F6C6343 STOP ADDMOD EQ STOP CALLER "},"methodIdentifiers":{"DEFAULT_ADMIN_ROLE()":"a217fddf","TOURNAMENT_OPERATOR_ROLE()":"ea9245c8","cancelMarket(bytes32,bytes32)":"998e804d","cancelTournament(bytes32)":"35dab121","collateralToken()":"b2016bd4","completeTournament(bytes32)":"969c5044","createMarketForTournament(bytes32,bytes32,string,uint256)":"c8543364","createTournament(string,string,address,uint256,uint256,uint256)":"02cd1dbe","getMarketTournament(bytes32)":"0d501596","getOperatorTournaments(address)":"cb51cc37","getRoleAdmin(bytes32)":"248a9ca3","getTournament(bytes32)":"6b17cbaf","getTournamentIds()":"a97bdcba","getTournamentMarkets(bytes32)":"639fb13e","grantRole(bytes32,address)":"2f2ff15d","hasRole(bytes32,address)":"91d14854","isParticipant(bytes32,address)":"c44a8923","isTournamentOperator(address)":"1a082070","marketToTournament(bytes32)":"a78f25e0","minEntryFee()":"76e5b862","operatorTournaments(address,uint256)":"8d4889b9","pauseMarket(bytes32,bytes32)":"36ae92f3","predictionMarket()":"def114b6","registerForTournament(bytes32)":"7e596894","renounceRole(bytes32,address)":"36568abe","resolveMarket(bytes32,bytes32,uint8)":"cc67feb4","resumeMarket(bytes32,bytes32)":"8186dc18","revokeRole(bytes32,address)":"d547741f","setMinEntryFee(uint256)":"5b027c33","startTournament(bytes32)":"f664163b","supportsInterface(bytes4)":"01ffc9a7","tournamentIds(uint256)":"49524aad","tournaments(bytes32)":"139cfab1","transferOperator(bytes32,address)":"2b17adfa","updateTournamentEntryFee(bytes32,uint256)":"8c5c9f31","withdrawEntryFees(bytes32,address)":"e184f1b2"}}}}}