{"contracts/PredictionMarket.sol":{"PredictionMarket":{"abi":[{"inputs":[{"internalType":"address","name":"_vault","type":"address"}],"stateMutability":"nonpayable","type":"constructor"},{"inputs":[],"name":"AccessControlBadConfirmation","type":"error"},{"inputs":[{"internalType":"address","name":"account","type":"address"},{"internalType":"bytes32","name":"neededRole","type":"bytes32"}],"name":"AccessControlUnauthorizedAccount","type":"error"},{"inputs":[],"name":"AlreadyClaimed","type":"error"},{"inputs":[],"name":"InsufficientBalance","type":"error"},{"inputs":[],"name":"InvalidOutcome","type":"error"},{"inputs":[],"name":"InvalidPrice","type":"error"},{"inputs":[],"name":"InvalidQuantity","type":"error"},{"inputs":[],"name":"MarketAlreadyExists","type":"error"},{"inputs":[],"name":"MarketDoesNotExist","type":"error"},{"inputs":[],"name":"MarketNotActive","type":"error"},{"inputs":[],"name":"MarketNotCancelled","type":"error"},{"inputs":[],"name":"MarketNotResolved","type":"error"},{"inputs":[],"name":"NoWinnings","type":"error"},{"inputs":[],"name":"NotOrderOwner","type":"error"},{"inputs":[],"name":"OrderDoesNotExist","type":"error"},{"inputs":[],"name":"OrderExpired","type":"error"},{"inputs":[],"name":"OrderNotOpen","type":"error"},{"inputs":[],"name":"ReentrancyGuardReentrantCall","type":"error"},{"inputs":[],"name":"UnauthorizedOperator","type":"error"},{"inputs":[],"name":"ZeroAddress","type":"error"},{"anonymous":false,"inputs":[{"indexed":true,"internalType":"bytes32","name":"marketId","type":"bytes32"},{"indexed":false,"internalType":"string","name":"question","type":"string"},{"indexed":false,"internalType":"address","name":"yesToken","type":"address"},{"indexed":false,"internalType":"address","name":"noToken","type":"address"},{"indexed":true,"internalType":"address","name":"operator","type":"address"},{"indexed":false,"internalType":"uint256","name":"expireTime","type":"uint256"}],"name":"MarketCreated","type":"event"},{"anonymous":false,"inputs":[{"indexed":true,"internalType":"bytes32","name":"marketId","type":"bytes32"},{"indexed":false,"internalType":"enum PredictionMarket.Outcome","name":"winningOutcome","type":"uint8"},{"indexed":true,"internalType":"address","name":"resolver","type":"address"}],"name":"MarketResolved","type":"event"},{"anonymous":false,"inputs":[{"indexed":true,"internalType":"bytes32","name":"marketId","type":"bytes32"},{"indexed":false,"internalType":"enum PredictionMarket.MarketStatus","name":"oldStatus","type":"uint8"},{"indexed":false,"internalType":"enum PredictionMarket.MarketStatus","name":"newStatus","type":"uint8"}],"name":"MarketStatusChanged","type":"event"},{"anonymous":false,"inputs":[{"indexed":false,"internalType":"uint256","name":"oldSize","type":"uint256"},{"indexed":false,"internalType":"uint256","name":"newSize","type":"uint256"}],"name":"MinOrderSizeUpdated","type":"event"},{"anonymous":false,"inputs":[{"indexed":true,"internalType":"bytes32","name":"orderId","type":"bytes32"},{"indexed":true,"internalType":"address","name":"trader","type":"address"}],"name":"OrderCancelled","type":"event"},{"anonymous":false,"inputs":[{"indexed":true,"internalType":"bytes32","name":"orderId","type":"bytes32"},{"indexed":false,"internalType":"uint256","name":"filledQuantity","type":"uint256"},{"indexed":false,"internalType":"uint256","name":"remainingQuantity","type":"uint256"}],"name":"OrderFilled","type":"event"},{"anonymous":false,"inputs":[{"indexed":true,"internalType":"bytes32","name":"orderId","type":"bytes32"},{"indexed":true,"internalType":"bytes32","name":"marketId","type":"bytes32"},{"indexed":true,"internalType":"address","name":"trader","type":"address"},{"indexed":false,"internalType":"enum PredictionMarket.OrderSide","name":"side","type":"uint8"},{"indexed":false,"internalType":"enum PredictionMarket.Outcome","name":"outcome","type":"uint8"},{"indexed":false,"internalType":"uint256","name":"price","type":"uint256"},{"indexed":false,"internalType":"uint256","name":"quantity","type":"uint256"}],"name":"OrderPlaced","type":"event"},{"anonymous":false,"inputs":[{"indexed":true,"internalType":"bytes32","name":"marketId","type":"bytes32"},{"indexed":true,"internalType":"address","name":"user","type":"address"},{"indexed":false,"internalType":"uint256","name":"amount","type":"uint256"}],"name":"RefundClaimed","type":"event"},{"anonymous":false,"inputs":[{"indexed":true,"internalType":"bytes32","name":"role","type":"bytes32"},{"indexed":true,"internalType":"bytes32","name":"previousAdminRole","type":"bytes32"},{"indexed":true,"internalType":"bytes32","name":"newAdminRole","type":"bytes32"}],"name":"RoleAdminChanged","type":"event"},{"anonymous":false,"inputs":[{"indexed":true,"internalType":"bytes32","name":"role","type":"bytes32"},{"indexed":true,"internalType":"address","name":"account","type":"address"},{"indexed":true,"internalType":"address","name":"sender","type":"address"}],"name":"RoleGranted","type":"event"},{"anonymous":false,"inputs":[{"indexed":true,"internalType":"bytes32","name":"role","type":"bytes32"},{"indexed":true,"internalType":"address","name":"account","type":"address"},{"indexed":true,"internalType":"address","name":"sender","type":"address"}],"name":"RoleRevoked","type":"event"},{"anonymous":false,"inputs":[{"indexed":true,"internalType":"bytes32","name":"marketId","type":"bytes32"},{"indexed":true,"internalType":"address","name":"holder","type":"address"},{"indexed":false,"internalType":"uint256","name":"yesAmount","type":"uint256"},{"indexed":false,"internalType":"uint256","name":"noAmount","type":"uint256"}],"name":"SharesBurned","type":"event"},{"anonymous":false,"inputs":[{"indexed":true,"internalType":"bytes32","name":"marketId","type":"bytes32"},{"indexed":true,"internalType":"address","name":"recipient","type":"address"},{"indexed":false,"internalType":"uint256","name":"yesAmount","type":"uint256"},{"indexed":false,"internalType":"uint256","name":"noAmount","type":"uint256"}],"name":"SharesMinted","type":"event"},{"anonymous":false,"inputs":[{"indexed":true,"internalType":"bytes32","name":"fillId","type":"bytes32"},{"indexed":true,"internalType":"bytes32","name":"marketId","type":"bytes32"},{"indexed":false,"internalType":"bytes32","name":"makerOrderId","type":"bytes32"},{"indexed":false,"internalType":"bytes32","name":"takerOrderId","type":"bytes32"},{"indexed":false,"internalType":"enum PredictionMarket.MatchType","name":"matchType","type":"uint8"},{"indexed":false,"internalType":"uint256","name":"quantity","type":"uint256"},{"indexed":false,"internalType":"uint256","name":"price","type":"uint256"}],"name":"Trade","type":"event"},{"anonymous":false,"inputs":[{"indexed":true,"internalType":"bytes32","name":"marketId","type":"bytes32"},{"indexed":true,"internalType":"address","name":"user","type":"address"},{"indexed":false,"internalType":"uint256","name":"amount","type":"uint256"},{"indexed":false,"internalType":"enum PredictionMarket.Outcome","name":"outcome","type":"uint8"}],"name":"WinningsClaimed","type":"event"},{"inputs":[],"name":"BASIS_POINTS","outputs":[{"internalType":"uint256","name":"","type":"uint256"}],"stateMutability":"view","type":"function"},{"inputs":[],"name":"DEFAULT_ADMIN_ROLE","outputs":[{"internalType":"bytes32","name":"","type":"bytes32"}],"stateMutability":"view","type":"function"},{"inputs":[],"name":"OPERATOR_ROLE","outputs":[{"internalType":"bytes32","name":"","type":"bytes32"}],"stateMutability":"view","type":"function"},{"inputs":[{"internalType":"bytes32","name":"marketId","type":"bytes32"}],"name":"cancelMarket","outputs":[],"stateMutability":"nonpayable","type":"function"},{"inputs":[{"internalType":"bytes32","name":"orderId","type":"bytes32"}],"name":"cancelOrder","outputs":[],"stateMutability":"nonpayable","type":"function"},{"inputs":[{"internalType":"bytes32","name":"marketId","type":"bytes32"}],"name":"claimRefund","outputs":[],"stateMutability":"nonpayable","type":"function"},{"inputs":[{"internalType":"bytes32","name":"marketId","type":"bytes32"}],"name":"claimWinnings","outputs":[],"stateMutability":"nonpayable","type":"function"},{"inputs":[{"internalType":"bytes32","name":"marketId","type":"bytes32"},{"internalType":"string","name":"question","type":"string"},{"internalType":"uint256","name":"expireTime","type":"uint256"},{"internalType":"address","name":"operator","type":"address"}],"name":"createMarket","outputs":[],"stateMutability":"nonpayable","type":"function"},{"inputs":[{"internalType":"bytes32","name":"marketId","type":"bytes32"}],"name":"getMarket","outputs":[{"components":[{"internalType":"bytes32","name":"marketId","type":"bytes32"},{"internalType":"string","name":"question","type":"string"},{"internalType":"address","name":"yesToken","type":"address"},{"internalType":"address","name":"noToken","type":"address"},{"internalType":"uint256","name":"yesSupply","type":"uint256"},{"internalType":"uint256","name":"noSupply","type":"uint256"},{"internalType":"uint256","name":"totalCollateral","type":"uint256"},{"internalType":"enum PredictionMarket.MarketStatus","name":"status","type":"uint8"},{"internalType":"enum PredictionMarket.Outcome","name":"winningOutcome","type":"uint8"},{"internalType":"uint256","name":"expireTime","type":"uint256"},{"internalType":"uint256","name":"createdAt","type":"uint256"},{"internalType":"address","name":"tournamentOperator","type":"address"}],"internalType":"struct PredictionMarket.Market","name":"","type":"tuple"}],"stateMutability":"view","type":"function"},{"inputs":[],"name":"getMarketIds","outputs":[{"internalType":"bytes32[]","name":"","type":"bytes32[]"}],"stateMutability":"view","type":"function"},{"inputs":[{"internalType":"bytes32","name":"orderId","type":"bytes32"}],"name":"getOrder","outputs":[{"components":[{"internalType":"bytes32","name":"orderId","type":"bytes32"},{"internalType":"bytes32","name":"marketId","type":"bytes32"},{"internalType":"address","name":"trader","type":"address"},{"internalType":"enum PredictionMarket.OrderSide","name":"side","type":"uint8"},{"internalType":"enum PredictionMarket.Outcome","name":"outcome","type":"uint8"},{"internalType":"uint256","name":"price","type":"uint256"},{"internalType":"uint256","name":"quantity","type":"uint256"},{"internalType":"uint256","name":"filled","type":"uint256"},{"internalType":"uint256","name":"collateralLocked","type":"uint256"},{"internalType":"enum PredictionMarket.OrderStatus","name":"status","type":"uint8"},{"internalType":"uint256","name":"createdAt","type":"uint256"},{"internalType":"uint256","name":"expireTime","type":"uint256"}],"internalType":"struct PredictionMarket.Order","name":"","type":"tuple"}],"stateMutability":"view","type":"function"},{"inputs":[{"internalType":"bytes32","name":"marketId","type":"bytes32"},{"internalType":"enum PredictionMarket.Outcome","name":"outcome","type":"uint8"},{"internalType":"enum PredictionMarket.OrderSide","name":"side","type":"uint8"}],"name":"getOrderBook","outputs":[{"internalType":"bytes32[]","name":"","type":"bytes32[]"}],"stateMutability":"view","type":"function"},{"inputs":[{"internalType":"bytes32","name":"role","type":"bytes32"}],"name":"getRoleAdmin","outputs":[{"internalType":"bytes32","name":"","type":"bytes32"}],"stateMutability":"view","type":"function"},{"inputs":[{"internalType":"address","name":"user","type":"address"}],"name":"getUserOrders","outputs":[{"internalType":"bytes32[]","name":"","type":"bytes32[]"}],"stateMutability":"view","type":"function"},{"inputs":[{"internalType":"bytes32","name":"role","type":"bytes32"},{"internalType":"address","name":"account","type":"address"}],"name":"grantRole","outputs":[],"stateMutability":"nonpayable","type":"function"},{"inputs":[{"internalType":"bytes32","name":"","type":"bytes32"},{"internalType":"address","name":"","type":"address"}],"name":"hasClaimed","outputs":[{"internalType":"bool","name":"","type":"bool"}],"stateMutability":"view","type":"function"},{"inputs":[{"internalType":"bytes32","name":"role","type":"bytes32"},{"internalType":"address","name":"account","type":"address"}],"name":"hasRole","outputs":[{"internalType":"bool","name":"","type":"bool"}],"stateMutability":"view","type":"function"},{"inputs":[{"internalType":"uint256","name":"","type":"uint256"}],"name":"marketIds","outputs":[{"internalType":"bytes32","name":"","type":"bytes32"}],"stateMutability":"view","type":"function"},{"inputs":[{"internalType":"bytes32","name":"","type":"bytes32"}],"name":"markets","outputs":[{"internalType":"bytes32","name":"marketId","type":"bytes32"},{"internalType":"string","name":"question","type":"string"},{"internalType":"address","name":"yesToken","type":"address"},{"internalType":"address","name":"noToken","type":"address"},{"internalType":"uint256","name":"yesSupply","type":"uint256"},{"internalType":"uint256","name":"noSupply","type":"uint256"},{"internalType":"uint256","name":"totalCollateral","type":"uint256"},{"internalType":"enum PredictionMarket.MarketStatus","name":"status","type":"uint8"},{"internalType":"enum PredictionMarket.Outcome","name":"winningOutcome","type":"uint8"},{"internalType":"uint256","name":"expireTime","type":"uint256"},{"internalType":"uint256","name":"createdAt","type":"uint256"},{"internalType":"address","name":"tournamentOperator","type":"address"}],"stateMutability":"view","type":"function"},{"inputs":[],"name":"minOrderSize","outputs":[{"internalType":"uint256","name":"","type":"uint256"}],"stateMutability":"view","type":"function"},{"inputs":[{"internalType":"bytes32","name":"","type":"bytes32"},{"internalType":"enum PredictionMarket.Outcome","name":"","type":"uint8"},{"internalType":"enum PredictionMarket.OrderSide","name":"","type":"uint8"},{"internalType":"uint256","name":"","type":"uint256"}],"name":"orderBook","outputs":[{"internalType":"bytes32","name":"","type":"bytes32"}],"stateMutability":"view","type":"function"},{"inputs":[{"internalType":"bytes32","name":"","type":"bytes32"}],"name":"orders","outputs":[{"internalType":"bytes32","name":"orderId","type":"bytes32"},{"internalType":"bytes32","name":"marketId","type":"bytes32"},{"internalType":"address","name":"trader","type":"address"},{"internalType":"enum PredictionMarket.OrderSide","name":"side","type":"uint8"},{"internalType":"enum PredictionMarket.Outcome","name":"outcome","type":"uint8"},{"internalType":"uint256","name":"price","type":"uint256"},{"internalType":"uint256","name":"quantity","type":"uint256"},{"internalType":"uint256","name":"filled","type":"uint256"},{"internalType":"uint256","name":"collateralLocked","type":"uint256"},{"internalType":"enum PredictionMarket.OrderStatus","name":"status","type":"uint8"},{"internalType":"uint256","name":"createdAt","type":"uint256"},{"internalType":"uint256","name":"expireTime","type":"uint256"}],"stateMutability":"view","type":"function"},{"inputs":[{"internalType":"bytes32","name":"marketId","type":"bytes32"}],"name":"pauseMarket","outputs":[],"stateMutability":"nonpayable","type":"function"},{"inputs":[{"internalType":"bytes32","name":"marketId","type":"bytes32"},{"internalType":"enum PredictionMarket.OrderSide","name":"side","type":"uint8"},{"internalType":"enum PredictionMarket.Outcome","name":"outcome","type":"uint8"},{"internalType":"uint256","name":"price","type":"uint256"},{"internalType":"uint256","name":"quantity","type":"uint256"},{"internalType":"uint256","name":"expireTime","type":"uint256"}],"name":"placeOrder","outputs":[{"internalType":"bytes32","name":"orderId","type":"bytes32"}],"stateMutability":"nonpayable","type":"function"},{"inputs":[{"internalType":"bytes32","name":"role","type":"bytes32"},{"internalType":"address","name":"callerConfirmation","type":"address"}],"name":"renounceRole","outputs":[],"stateMutability":"nonpayable","type":"function"},{"inputs":[{"internalType":"bytes32","name":"marketId","type":"bytes32"},{"internalType":"enum PredictionMarket.Outcome","name":"winningOutcome","type":"uint8"}],"name":"resolveMarket","outputs":[],"stateMutability":"nonpayable","type":"function"},{"inputs":[{"internalType":"bytes32","name":"marketId","type":"bytes32"}],"name":"resumeMarket","outputs":[],"stateMutability":"nonpayable","type":"function"},{"inputs":[{"internalType":"bytes32","name":"role","type":"bytes32"},{"internalType":"address","name":"account","type":"address"}],"name":"revokeRole","outputs":[],"stateMutability":"nonpayable","type":"function"},{"inputs":[{"internalType":"uint256","name":"newMinOrderSize","type":"uint256"}],"name":"setMinOrderSize","outputs":[],"stateMutability":"nonpayable","type":"function"},{"inputs":[{"internalType":"bytes4","name":"interfaceId","type":"bytes4"}],"name":"supportsInterface","outputs":[{"internalType":"bool","name":"","type":"bool"}],"stateMutability":"view","type":"function"},{"inputs":[{"internalType":"address","name":"","type":"address"},{"internalType":"uint256","name":"","type":"uint256"}],"name":"userOrders","outputs":[{"internalType":"bytes32","name":"","type":"bytes32"}],"stateMutability":"view","type":"function"},{"inputs":[],"name":"vault","outputs":[{"internalType":"contract CollateralVault","name":"","type":"address"}],"stateMutability":"view","type":"function"}],"evm":{"bytecode":{"linkReferences":{},"object":"60a0346200010a57601f6200546b38819003918201601f19168301916001600160401b038311848410176200010f578084926020946040528339810103126200010a57516001600160a01b038116908190036200010a57600160005560646002558015620000f857608052620000753362000125565b506040516152b39081620001b882396080518181816101c00152818161037f0152818161111801528181611173015281816116090152818161166801528181611cff01528181611d5c01528181611da201528181611e4f0152818161241d0152818161247b015281816124c60152818161252401528181612fc901526132320152f35b60405163d92e233d60e01b8152600490fd5b600080fd5b634e487b7160e01b600052604160045260246000fd5b6001600160a01b031660008181527fa6eef7e35abe7026729641147f7915573c7e97b47efa546f5f6e3230263bcb49602052604081205490919060ff16620001b35781805260016020526040822081835260205260408220600160ff1982541617905533917f2f8788117e7eff1d82e926ec794901d17c78024a50270940304540a733656f0d8180a4600190565b509056fe6101808060405260043610156200001557600080fd5b600060e05260003560e01c90816301ffc9a71462003a5e5750806305b6ac6b14620039e3578063248a9ca314620039b05780632f2ff15d146200396757806336568abe1462003919578063398c6f7e14620038935780635778472a14620036a25780635e2c8eee14620036465780635e382837146200355b57806363c69f0814620034d657806371de2ffc14620030ab5780637489ec231462002ebd5780637564912b1462002dcf578063762f56181462002d0a578063779a96831462002cb6578063856652e91462002c56578063865ec35e1462002bde57806391d148541462002b8b57806392a42d1d1462002b385780639c3f1e901462002a60578063a217fddf1462002a40578063a674537f1462002a1e578063b4a78088146200299b578063b6507c2d1462001000578063bdb832891462000f8f578063c3c95c7b1462000d5d578063d547741f1462000d0d578063d54c786e1462000617578063e1f1c4a714620005f6578063e49b606c1462000237578063f5b541a614620001f85763fbfa77cf14620001a657600080fd5b34620001f25760e05180600319360112620001ef576040517f00000000000000000000000000000000000000000000000000000000000000006001600160a01b03168152602090f35b80fd5b60e05180fd5b34620001f25760e05180600319360112620001ef5760206040517f97667070c54ef182b0f5858b034beac1b6f3089aa2d3188bb1e8929f4fa9b9298152f35b34620001f257602080600319360112620001f2576004356200025862004010565b8060e051526005825260e051604081209060078201549060ff8216906004821015620005df5750600203620005cd578260e0515260098452604060e0512033600052845260ff60406000205416620005bb5760081c60ff1690620002bc8262003ab6565b816200058157600201546001600160a01b0316925b6040516370a0823160e01b8152336004820152936001600160a01b039081168286602481845afa958615620004bf5760e0519662000547575b50851562000535578460e051526009835260e051604081203360005284526040600020600160ff19825416179055813b15620001ef5750604051632770a7eb60e21b815260e0805133600484015260248301899052905191929091839160449183915af18015620004bf576200051d575b50807f000000000000000000000000000000000000000000000000000000000000000016803b15620001f2576040516302fe2e9360e31b815260e05130600483015260248201889052818060448101038160e051865af1908115620004bf57849162000500575b50604051632c805af560e21b815291829060049082905afa8015620004bf57839160e05191620004cc575b5060405163a9059cbb60e01b81523360048201526024810188905260e0519093849260449284929091165af18015620004bf576200048b575b50604051938452620004588262003ab6565b8301527f5cf4a2169798b2cbf62119844933f2967a22195532e20571634dc50c4d1800cf60403393a360e0516001815580f35b620004af90823d8411620004b7575b620004a6818362003c07565b81019062004077565b508462000446565b503d6200049a565b6040513d60e051823e3d90fd5b620004f19150823d8411620004f8575b620004e8818362003c07565b81019062004056565b876200040d565b503d620004dc565b6200050c915062003bd5565b60e05180620001ef578390620003e2565b620005289062003bd5565b60e05180156200037b5780fd5b6040516330a748d360e11b8152600490fd5b9095508281813d831162000579575b62000562818362003c07565b8101031262000574575194866200030a565b600080fd5b503d62000556565b6200058c8262003ab6565b60018203620005a957600301546001600160a01b031692620002d1565b60405163c74a206d60e01b8152600490fd5b604051630c8d9eab60e31b8152600490fd5b60405163174b639360e11b8152600490fd5b634e487b7160e01b9052602160045260e051602490fd5b34620001f25760e05180600319360112620001ef5760206040516127108152f35b34620001f2576080366003190112620001f25767ffffffffffffffff60243511620001f257366023602435011215620001f25767ffffffffffffffff6024356004013511620001f2573660248035600401358135010111620001f2576064356001600160a01b038116900362000574576200069162003d36565b60043560e0515260056020526009604060e05120015462000cfb576064356001600160a01b03161562000ce957620006cb600435620042c5565b6200070960246040518093635945532d60e01b6020830152620006f8815180926020868601910162003cdc565b810103600481018452018262003c07565b62000716600435620042c5565b6200075360236040518093624e4f2d60e81b602083015262000742815180926020868601910162003cdc565b810103600381018452018262003c07565b6040519182610ec781011067ffffffffffffffff610ec78501111762000cd1576200079390610ec762004397853960a0610ec78501818152019062003d01565b91610ec7810183036020610ec783010152600383526259455360e81b60208401526004356040610ec78301015260016060610ec783010152306080610ec78301015260408160e0519403019083f091821562000cc557506040519081610ec781011067ffffffffffffffff610ec78401111762000cd1576200082a90610ec762004397843960a0610ec78401818152019062003d01565b90610ec7810182036020610ec78301015260028252614e4f60f01b60208301526004356040610ec78301015260e0516060610ec783010152306080610ec78301015260408160e0519303019082f090811562000cc557506040516200088f8162003bb7565b6004358152620008a56024356004013562003f5e565b620008b4604051918262003c07565b6024803560048101358084529101602083013760e05160206024356004013583010152602082015260018060a01b038316604082015260018060a01b038216606082015260e051608082015260e05160a082015260e05160c082015260e05160e082015260026101008201526044356101208201524261014082015260018060a01b036064351661016082015260043560e05152600560205260e051604081209082518255602083015180519167ffffffffffffffff831162000cae5750819062000983600185015462003b7a565b601f811162000c54575b5060e05190602091601f841160011462000bdd575060e0519262000bd1575b50508160011b916000199060031b1c19161760018201555b600281019060018060a01b03604084015116916bffffffffffffffffffffffff60a01b92838254161790556003810160018060a01b03606085015116838254161790556080830151600482015560a0830151600582015560c08301516006820155600781019060e0840151600481101562000bb957600a9262000a659160ff801983541691161781556101008601519062000a5f8262003ab6565b62003f7b565b61012084015160088201556101408401516009820155019161016060018060a01b039101511690825416179055600a54600160401b81101562000ba3576001810180600a5581101562000b8d57600a600052600435907fc65a7bb8d6351c1cf70c95a316cc6a92839c986682d98bc35f958f4883f9d2a8015562000aeb60643562003db6565b50604051916080835260243560040135608084015260243560040135602480350160a085013760e051600460243581013585810160a0908101939093526001600160a01b03938416602087015293831660408601526044356060860152606435909216939135927fc1edba2980b5502d83071709308000bfb589c388cdd039afe22d22401939122892601f909101601f1916810181900390910190a360e05180f35b634e487b7160e01b600052603260045260246000fd5b634e487b7160e01b600052604160045260246000fd5b634e487b7160e01b60e051526021600452602460e051fd5b015190508680620009ac565b60018601905260e0516020812090945091905b601f198416851062000c38576001945083601f1981161062000c1e575b505050811b016001820155620009c4565b015160001960f88460031b161c1916905586808062000c0d565b8181015183556020948501946001909301929091019062000bf0565b9091506001840160e05152602060e05120601f840160051c81016020851062000ca6575b90849392915b601f830160051c8201811062000c965750506200098d565b6000815585945060010162000c7e565b508062000c78565b634e487b7160e01b9052604160045260e051602490fd5b604051903d90823e3d90fd5b634e487b7160e01b60e051526041600452602460e051fd5b60405163d92e233d60e01b8152600490fd5b604051630313b28560e01b8152600490fd5b34620001f2576040366003190112620001f25762000d5660043562000d3162003af3565b908060e05152600160205262000d506001604060e05120015462003d8f565b62003ee6565b5060e05180f35b34620001f2576020366003190112620001f25760405162000d7e8162003bb7565b60e05181526060602082015260e051604082015260e051606082015260e051608082015260e05160a082015260e05160c082015260e05160e082015260e05161010082015260e05161012082015260e05161014082015261016060e05191015260043560e051526005602052604060e051206040519062000dff8262003bb7565b8054825262000e116001820162003c2a565b602083015260028101546001600160a01b03908116604084015260038201541660608301526004808201546080840152600582015460a0840152600682015460c0840152600782015460ff81169182101562000f795760ff9160e085015260081c1662000e7e8162003ab6565b61010083015260088101546101208301526009810154610140830152600a60018060a01b03910154166101608201526040518091602082528051602083015262000eda602082015161018060408501526101a084019062003d01565b9060018060a01b03604082015116606084015260018060a01b036060820151166080840152608081015160a084015260a081015160c084015260c081015160e084015262000f3260e082015161010085019062003d28565b61010081015162000f438162003ab6565b61012084015261012081015161014084015261014081015161016084015261016060018060a01b03910151166101808301520390f35b634e487b7160e01b600052602160045260246000fd5b34620001f2576020366003190112620001f2576004358060e0515260056020526000805160206200525e833981519152604060ff62000ff260078360e0512062000fd9816200422c565b0180549060038419831617905583519283911662003d28565b60036020820152a260e05180f35b34620001f25760c0366003190112620001f25760026024351015620001f25760036044351015620001f2576200103562004010565b60043560e05152600560205260e051604081209060ff600783015416906004821015620005df575062002989576064351580156200297a575b62002969576200108060443562003ab6565b600260443514620005a957608435156200288c576001602435146200289e575b50620010b460843560643560243562004104565b60025481106200288c57600354620010cc8162003fdd565b600355604051903360601b602083015260348201524260548201526054815280608081011067ffffffffffffffff60808301111762000ba35760808181016040528151602083012090527f00000000000000000000000000000000000000000000000000000000000000006001600160a01b03163b15620001f2576347a7d10760e01b6080820190815260e0805133608485015260a48401859052905190919060449082907f00000000000000000000000000000000000000000000000000000000000000006001600160a01b03165af18015620004bf5762002871575b5060405190620011ba8262003bb7565b60805182526004356020830152336040830152620011de6024356060840162004003565b620011eb60443562003ab6565b604435608083015260643560a083015260843560c083015260e05160e083015261010082015260e0516101208201524261014082015260a43561016082015260805160e05152600660205260e051906040822091815183556020820151600184015560018060a01b036040830151166002840154906060840151926002841015620005df57506080840151620012818162003ab6565b6200128c8162003ab6565b60ff60a81b9060a81b169260ff60a01b9060a01b169169ffffffffffffffffffff60b01b16171717600283015560a0810151600383015560c0810151600483015560e081015160058301556101008101516006830155610120810151600581101562000bb9576009916101609160ff801960078701541691161760078501556101408101516008850155015191015560043560e051526007602052604060e051206200133a60443562003ab6565b60443560e05152602052620013646080516200135e602435604060e0512062003ac1565b62003f9c565b3360e05152600860205262001381608051604060e0512062003f9c565b604051620013928160243562003b5e565b6200139f60443562003ab6565b604435602082015260643560408201526084356060820152608051903390827f4f8271a1b8113303635a3d766a78cff97a00afbf1b9b0ac18e5490fe68aa1ec5608060043593a460e05152600660205260e0516001604082208060a0520154809152600560205260e051906040822061014052600260a0510154600260ff8260a01c1610156200285a576200147a925060e051918260ff8360a01c16156000146200285357506001925b52600760205260ff604060e051209160a81c16620014678162003ab6565b60e05152602052604060e0512062003ac1565b60e0515b81548110806200283e575b156200193f576200149b818362003ada565b90549060031b1c908160e051526006602052604060e05120620014be816200409f565b15620019325760ff600260a051015460a01c16600281101562000bb9576200191f5760038060a051015491015411155b156200191357600160a051015482600052600660205260406000206080516000526040600020916200152a600483015460058401549062004034565b6200153f600485015460058601549062004034565b808210156200190a5750925b6003830154956004546200155f8162003fdd565b6004556040516020810191825242604082015260408152620015818162003bea565b519020966200159586600587015462004091565b6005860155620015aa86600585015462004091565b600584015560ff600286015460a01c1694600286101562000f7957856200190057600181965b03620018f85780955b612710620015e8848a62004042565b600283810154908a015492909104916001600160a01b0391821691908116907f0000000000000000000000000000000000000000000000000000000000000000163b1562000574576040516230582b60e81b81526001600160a01b03928316600482015291166024820152604481019190915260008180606481010381837f00000000000000000000000000000000000000000000000000000000000000006001600160a01b03165af18015620018b057620018e6575b5060ff600282015460a81c16620016b68162003ab6565b620018ce5761014051600201546001600160a01b0316965b600201546001600160a01b039081169088163b156200057457604051632770a7eb60e21b81526001600160a01b0390911660048201526024810189905260008180604481010381836001600160a01b038d165af18015620018b057620018bc575b50600201546001600160a01b03908116969081163b1562000574576040516340c10f1960e01b81526001600160a01b0397881660048201526024810189905296600091889160449183918591165af1948515620018b0576001997fa891d459cc19a94041344fd3f05544a8e2ac8cd799b693377166f326745db07660a06200182d9560409a6200186e9a6200189e575b5060058601546004870154036200188a5760078601600260ff19825416179055620017fc88600288015460ff8082871c169160a81c168862004130565b8a5190888252608051602083015260008c8301528c60608301526080820152a3600560048201549101549062004034565b84519086825260208201527fb38583f2adb435cac858db9d3e8d3ca952ccb32307e2f3d0053b415d2d293481948591a2600560048201549101549062004034565b6040519283526020830152604060805192a201905b906200147e565b60078601805460ff19168f179055620017fc565b620018a99062003bd5565b8f620017bf565b6040513d6000823e3d90fd5b620018c79062003bd5565b8b6200172f565b61014051600301546001600160a01b031696620016ce565b620018f19062003bd5565b8b6200169f565b8395620015d9565b60018496620015d0565b9050926200154b565b60019150019062001883565b60038060a05101549101541015620014ee565b5060019150019062001883565b600260a0510154600260ff8260a01c16101562000bb95760ff8160a01c16158062002829575b6200221f575b50600260a0510154600260ff8260a01c16101562000bb957600160ff8260a01c1614806200220a575b62001a1a575b5060a051600581015460048201548103620019f85750806007620019e69201600260ff19825416179055600260018201549101546080519160ff808360a01c169260a81c169062004130565b600160e0515560206040516080518152f35b62001a05575b50620019e6565b600701805460ff1916600117905580620019fe565b60a81c60ff1662001a2b8162003ab6565b60e0518091156000146200220357506001905b600160a051015490526007602052604060e051209062001a5e8162003ab6565b60e0515260205260e051604081206001600052602052604060002061012052610160525b6101205180546101605190811080620021ee575b15620021e55762001aa79162003ada565b90549060031b1c8060e051526006602052604060e0512062001ac9816200409f565b15620021d25762001ae96127109160038060a05101549101549062004091565b111562001b03575b50600161016051016101605262001a82565b600160a05101549080600052600660205260406000209060805160005260406000209162001b3f600482018060c0525460058301549062004034565b62001b54600485015460058601549062004034565b80821015620021c75750610100525b60038101549360045462001b778162003fdd565b600455604051602081019182524260408201526040815262001b998162003bea565b51902062001baf61010051600585015462004091565b600584015562001bc761010051600587015462004091565b600586015560009560ff600285015460a81c1662001be58162003ab6565b80620021bd57600185915b62001bfb8162003ab6565b03620021b657845b61014051600290810154908301546001600160a01b039081169116803b156200057457604051632770a7eb60e21b8152610100516001600160a01b0393909316600482015260248101929092526000908290604490829084905af18015620018b0576200219f575b50610140516003015460028201548a916001600160a01b039182169116803b156200219b57604051632770a7eb60e21b8152610100516001600160a01b03939093166004820152602481019290925282908290604490829084905af1801562002158576200217f575b505061271062001cec60038401546101005162004042565b0462001cfc816101005162004034565b907f00000000000000000000000000000000000000000000000000000000000000006001600160a01b03163b156200217b576040516302fe2e9360e31b81526101005130600483015260248201528b908181604481836001600160a01b037f0000000000000000000000000000000000000000000000000000000000000000165af18015620021585762002163575b50604051632c805af560e21b8152916020836004817f00000000000000000000000000000000000000000000000000000000000000006001600160a01b03165afa8015620021585762001e1f936020939162002136575b50600287015460405163a9059cbb60e01b81526001600160a01b0390911660048201526024810192909252909283919082908f9082906044820190565b03926001600160a01b03165af18015620021075762002112575b50604051632c805af560e21b81526020816004817f00000000000000000000000000000000000000000000000000000000000000006001600160a01b03165afa918215620021075762001ece926020928d91620020e5575b50600285015460405163a9059cbb60e01b81526001600160a01b0390911660048201526024810192909252909283919082908e9082906044820190565b03926001600160a01b03165af18015620020da579360409a620020839a999896948c807fa891d459cc19a94041344fd3f05544a8e2ac8cd799b693377166f326745db0769660a0966200203f9c9a620020b6575b506004610140510162001f3a61010051825462004034565b90556005610140510162001f5361010051825462004034565b90556006610140510162001f6c61010051825462004034565b905561014051549360026001808a1b03910154168483516101005181528760208201527f584c326a6e37f42e5dbbc22753ac897e22621db83435d9cb96b210d1558d0883958691a36002015481519485526101005160208601526000196001881b011693a3600586015460c0515403620020a15760078601600260ff198254161790556200200c88600288015460ff8082871c169160a81c168862004130565b8a5190888252608051602083015260028c8301526101005160608301526080820152a3600560c051549101549062004034565b84519061010051825260208201527fb38583f2adb435cac858db9d3e8d3ca952ccb32307e2f3d0053b415d2d293481948591a2600560048201549101549062004034565b90604051916101005183526020830152604060805192a28062001af1565b60078601805460ff191660011790556200200c565b620020d29060203d602011620004b757620004a6818362003c07565b503862001f22565b6040513d8c823e3d90fd5b620021009150833d8511620004f857620004e8818362003c07565b8d62001e91565b6040513d8d823e3d90fd5b6200212e9060203d602011620004b757620004a6818362003c07565b508a62001e39565b620021519150833d8511620004f857620004e8818362003c07565b8e62001de2565b6040513d84823e3d90fd5b6200216e9062003bd5565b6200217b578a8c62001d8b565b8a80fd5b6200218a9062003bd5565b6200219757888a62001cd4565b8880fd5b8280fd5b620021ac91995062003bd5565b6000978962001c6b565b8662001c03565b6001879162001bf0565b610100525062001b63565b5050600161016051016101605262001a82565b5050806200199a565b5060a051600460058201549101541162001a96565b9062001a3e565b5060a051600460058201549101541162001994565b60a81c60ff16620022308162003ab6565b60e0518091156000146200282257506001905b600160a051015490526007602052604060e0512090620022638162003ab6565b60e0515260205260e05160408120600080526020526040600020905b81548110806200280d575b1562002804576200229c818362003ada565b90549060031b1c908160e051526006602052604060e05120620022bf816200409f565b15620027f757620022df6127109160038060a05101549101549062004091565b1015620022f5575b6001915001905b906200227f565b600160a05101548260005260066020526040600020926080516000526040600020916200232c600486015460058701549062004034565b62002341600485015460058601549062004034565b80821015620027ee5750925b600386015492600454620023618162003fdd565b6004556040516020810191825242604082015260408152620023838162003bea565b519020966200239786600583015462004091565b6005820155620023ac86600585015462004091565b600584015560ff600282015460a81c1690620023c88262003ab6565b81620027e457600181925b620023de8162003ab6565b03620027dc5780945b612710620023fa60038501548a62004042565b0462002407818a62004034565b60028501549091906001600160a01b03908116907f0000000000000000000000000000000000000000000000000000000000000000163b1562000574576040516230582b60e81b81526001600160a01b039091166004820152306024820152604481019190915260008180606481010381837f00000000000000000000000000000000000000000000000000000000000000006001600160a01b03165af18015620018b057620027ca575b5060028701546001600160a01b03908116907f0000000000000000000000000000000000000000000000000000000000000000163b1562000574576040516230582b60e81b81526001600160a01b039091166004820152306024820152604481019190915260008180606481010381837f00000000000000000000000000000000000000000000000000000000000000006001600160a01b03165af18015620018b057620027b8575b5061014051600290810154908401546001600160a01b039081169116803b1562000574576040516340c10f1960e01b81526001600160a01b03929092166004830152602482018a90526000908290604490829084905af18015620018b057620027a6575b50610140516003015460028701546001600160a01b039081169b9116803b1562000574576040516340c10f1960e01b81526001600160a01b039c909c1660048d015260248c018a90528b6044815a6000948591f19a8b15620018b05760a06040998b6200182d9760019f8d620027689d7fa891d459cc19a94041344fd3f05544a8e2ac8cd799b693377166f326745db07697829362002794575b50600461014051016200266e86825462004091565b9055600561014051016200268486825462004091565b9055600661014051016200269a86825462004091565b90556101405154936001806002918a1b0391015416848351878152600060208201527f0e7d6cc8eb939f017f8adbee7567d9c5fbb41ad1208e3ffd7cba5ee580ea9173958691a3600180600291891b039101541693815190600082526020820152a36005860154600487015403620027805760078601600260ff198254161790556200273888600288015460ff8082871c169160a81c168862004130565b8a519088825260805160208301528e8c8301528c60608301526080820152a3600560048201549101549062004034565b6040519283526020830152604060805192a2620022e7565b60078601805460ff19168f17905562002738565b6200279f9062003bd5565b3862002659565b620027b19062003bd5565b8b620025bf565b620027c39062003bd5565b8b6200255b565b620027d59062003bd5565b8c620024b2565b8394620023e7565b60018492620023d3565b9050926200234d565b50600191500190620022ee565b5050806200196b565b5060a05160046005820154910154116200228a565b9062002243565b5060a051600460058201549101541162001965565b5060a051600460058201549101541162001489565b9262001449565b634e487b7160e01b8352602160045260e051602490fd5b60806200287f910162003bd5565b60e0518015620011aa5780fd5b60405163524f409b60e01b8152600490fd5b6020602491620028b060443562003ab6565b6044356200295657600201546001600160a01b03165b6040516370a0823160e01b815233600482015292839182906001600160a01b03165afa908115620004bf5760e051916200291e575b50608435116200290c5780620010a0565b604051631e9acf1760e31b8152600490fd5b90506020813d6020116200294d575b816200293c6020938362003c07565b8101031262000574575181620028fb565b3d91506200292d565b600301546001600160a01b0316620028c6565b60405162bfc92160e01b8152600490fd5b5061271060643510156200106e565b604051635a90bb8d60e11b8152600490fd5b34620001f2576020366003190112620001f2576004358060e0515260056020526007604060e05120620029ce816200422c565b01805460ff8116600481101562000bb9578062002989576000805160206200525e83398151915292600160409360ff191617905562002a108251809262003d28565b60016020820152a260e05180f35b34620001f25760e05180600319360112620001ef576020600254604051908152f35b34620001f25760e05180600319360112620001ef57602090604051908152f35b34620001f2576020366003190112620001f25760043560e051526006602052610180604060e0512080549060018101549062002b2a600282015460ff8160a81c166003840154600485015460058601549160068701549362002af960ff60078a01541696600960088b01549a01549a6040519c8d5260208d015260018060a01b03811660408d015260ff60608d019160a01c1662003b5e565b62002b048162003ab6565b60808a015260a089015260c088015260e087015261010086015261012085019062003b6c565b610140830152610160820152f35b34620001f2576040366003190112620001f25762002b5562003af3565b60043560e051526009602052604060e051209060018060a01b0316600052602052602060ff604060002054166040519015158152f35b34620001f2576040366003190112620001f25762002ba862003af3565b60043560e051526001602052604060e051209060018060a01b0316600052602052602060ff604060002054166040519015158152f35b34620001f2576020366003190112620001f2576004358060e0515260056020526007604060e0512062002c11816200422c565b01805460ff8116600481101562000bb957600103620029895760ff191690556000805160206200525e833981519152604080516001815260006020820152a260e05180f35b34620001f2576040366003190112620001f25762002c7362003b0a565b6024359060018060a01b031660e05152600860205260e05160408120908154831015620001ef57602062002ca8848462003ada565b90546040519160031b1c8152f35b34620001f2576020366003190112620001f257600435600a54811015620001f257602090600a6000527fc65a7bb8d6351c1cf70c95a316cc6a92839c986682d98bc35f958f4883f9d2a80154604051908152f35b34620001f2576060366003190112620001f2576024356003811015620001f2576044356002811015620001f25762002d6e9060043560e0515260209260078452604060e051209062002d5c8162003ab6565b60e051528352604060e0512062003ac1565b90604051908181845491828152019360e0515260e0519180832092905b82821062002db75762002db38562002da68189038262003c07565b6040519182918262003b21565b0390f35b83548652948501946001938401939091019062002d8b565b34620001f2576020366003190112620001f25760043560e051526005602052604060e05120805462002e046001830162003c2a565b9160018060a01b0380600283015416918160038201541691600482015462002e966005840154600685015460078601549160ff8360081c1694600888015496600a60098a0154990154169862002e6e6040519d8e9d8e528d61018090816020820152019062003d01565b9a60408d015260608c015260808b015260a08a015260c089015260ff60e08901911662003d28565b62002ea18162003ab6565b6101008601526101208501526101408401526101608301520390f35b34620001f2576020366003190112620001f25760043562002edd62004010565b60e080518290526006602052516040902060028101805490916001600160a01b03918216913383036200309957600782019283549160ff8316600581101562000bb95780151590816200308c575b506200307a5760048401549462002f5662002f4b60058701548862004034565b600687015462004042565b861562003064578896600391049460ff19161790558262002fc7575b50505091600162002f9693015490549060ff808360a01c169260a81c169062004130565b60e0519033907fa6eb7cdc219e1518ced964e9a34e61d68a94e4f1569db3e84256ba981ba527538380a36001815580f35b7f000000000000000000000000000000000000000000000000000000000000000016935090833b15620001f2576040516302fe2e9360e31b815260e0516001600160a01b0390931660048201526024810191909152928390818060448101039160e051905af1918215620004bf57849262003045575b808062002f72565b6200305291925062003bd5565b60e05180620001ef579083916200303d565b634e487b7160e01b600052601260045260246000fd5b60405163206931ef60e01b8152600490fd5b6001915014158862002f2b565b604051637b2095ad60e11b8152600490fd5b34620001f257602080600319360112620001f257600435620030cc62004010565b8060e051526005825260e051604081209060ff600783015416906004821015620005df5750600303620034c4578160e051526009835260e0516040812090339052835260ff604060e051205416620005bb576002810180546040516370a0823160e01b808252336004830152956001600160a01b03949093919284908490602490829089165afa928315620004bf5760e051936200348e575b506003018385825416976024604051809a819382523360048301525afa968715620004bf5760e0519762003459575b508215808062003450575b620005355785928760e051526009865260e0516040812090339052865260e0519160408320600160ff1982541617905515620033ec575b50508662003388575b505060e05194808210156200337f5750935b846200322f575b507fe950d47bcc1a745a8ef1d8b86486b400a99681910425d126eb1a006d61f341b291506040519384523393a360e0516001815580f35b827f00000000000000000000000000000000000000000000000000000000000000001690813b15620001ef57506040516302fe2e9360e31b815260e05130600483015260248201879052818060448101038160e051865af1908115620004bf57839162003362575b50604051632c805af560e21b815291829060049082905afa8015620004bf57829160e0519162003340575b5060405163a9059cbb60e01b81523360048201526024810187905260e0519094859260449284929091165af1918215620004bf577fe950d47bcc1a745a8ef1d8b86486b400a99681910425d126eb1a006d61f341b29215620031f8576200333890823d8411620004b757620004a6818362003c07565b5084620031f8565b6200335b9150823d8411620004f857620004e8818362003c07565b86620032c2565b6200336e915062003bd5565b60e05180620001ef57829062003297565b905093620031f1565b5416803b15620001f257604051632770a7eb60e21b815260e0805133600484015260248301899052905191929091839160449183915af18015620004bf57620033d4575b8390620031df565b620033df9062003bd5565b60e0518015620033cc5780fd5b5490921691823b15620001ef5750604051632770a7eb60e21b815260e0805133600484015260248301869052905191939091849160449183915af1918215620004bf5785926200343e575b80620031d6565b620034499062003bd5565b8762003437565b5087156200319f565b9096508381813d831162003486575b62003474818362003c07565b81010312620001f25751958762003194565b503d62003468565b9092508381813d8311620034bc575b620034a9818362003c07565b81010312620001f2575191600362003165565b503d6200349d565b604051630a5a0fc560e31b8152600490fd5b34620001f257602080600319360112620001f2576001600160a01b03620034fc62003b0a565b1660e0515260088152604060e0512090604051908181845491828152019360e0515260e0519180832092905b828210620035435762002db38562002da68189038262003c07565b83548652948501946001938401939091019062003528565b34620001f2576040366003190112620001f2576024356004356003821015620001f2578060e0515260056020526007604060e051206200359b816200422c565b0180549060ff821691600483101562000bb957821515806200363a575b62002989578392620035e7866000805160206200525e83398151915294600260409560ff191617815562003f7b565b620035f58251809262003d28565b60026020820152a2604051916200360c8162003ab6565b82527f32c04ef1b4209cbe24e47a18ee52b8f81e4c88b295a7eb580de0cd651357986560203393a360e05180f35b506001831415620035b8565b34620001f2576020366003190112620001f2577f745bf4a6ce2743009b1b47f40128dd9086f6eed93b86263039a71c240c93357c60406004356200368962003d36565b600254908060025582519182526020820152a160e05180f35b34620001f2576020366003190112620001f257604051620036c38162003bb7565b60e051815260e051602082015260e051604082015260e051606082015260e051608082015260e05160a082015260e05160c082015260e05160e082015260e05161010082015260e05161012082015260e05161014082015261016060e05191015260043560e051526006602052604060e05120604051620037448162003bb7565b815481526001820154602082015260028201546001600160a01b038116604083015260ff906200377e60a082901c83166060850162004003565b60a81c166200378d8162003ab6565b6080820152600382015460a0820152600482015460c0820152600582015460e0820152600682015461010082015260ff600783015416600581101562000bb957610180926009916101208401526008810154610140840152015461016082015261016060405191805183526020810151602084015260018060a01b036040820151166040840152620038286060820151606085019062003b5e565b6080810151620038388162003ab6565b608084015260a081015160a084015260c081015160c084015260e081015160e08401526101008101516101008401526200387d61012082015161012085019062003b6c565b6101408101516101408401520151610160820152f35b34620001f25760e05180600319360112620001ef5760405180600a5491828152602080910192600a60e051527fc65a7bb8d6351c1cf70c95a316cc6a92839c986682d98bc35f958f4883f9d2a89160e051905b828210620039015762002db38562002da68189038262003c07565b835486529485019460019384019390910190620038e6565b34620001f2576040366003190112620001f2576200393662003af3565b336001600160a01b03821603620039555762000d569060043562003ee6565b60405163334bd91960e11b8152600490fd5b34620001f2576040366003190112620001f25762000d566004356200398b62003af3565b908060e051526001602052620039aa6001604060e05120015462003d8f565b62003e6a565b34620001f2576020366003190112620001f25760043560e05152600160205260206001604060e051200154604051908152f35b34620001f2576080366003190112620001f2576024356003811015620001f2576044356002811015620001f25762003a37906064359260043560e051526007602052604060e0512090620014678162003ab6565b8054821015620001f25760209162003a4f9162003ada565b90549060031b1c604051908152f35b346200057457602036600319011262000574576004359063ffffffff60e01b82168092036200057457602091637965db0b60e01b811490811562003aa4575b5015158152f35b6301ffc9a760e01b1490508362003a9d565b6003111562000f7957565b90600281101562000f7957600052602052604060002090565b805482101562000b8d5760005260206000200190600090565b602435906001600160a01b03821682036200057457565b600435906001600160a01b03821682036200057457565b6020908160408183019282815285518094520193019160005b82811062003b49575050505090565b83518552938101939281019260010162003b3a565b90600282101562000f795752565b90600582101562000f795752565b90600182811c9216801562003bac575b602083101462003b9657565b634e487b7160e01b600052602260045260246000fd5b91607f169162003b8a565b610180810190811067ffffffffffffffff82111762000ba357604052565b67ffffffffffffffff811162000ba357604052565b6060810190811067ffffffffffffffff82111762000ba357604052565b90601f8019910116810190811067ffffffffffffffff82111762000ba357604052565b906040519182600082549262003c408462003b7a565b90818452600194858116908160001462003cb7575060011462003c70575b505062003c6e9250038362003c07565b565b9093915060005260209081600020936000915b81831062003c9e57505062003c6e9350820101388062003c5e565b8554888401850152948501948794509183019162003c83565b91505062003c6e94506020925060ff191682840152151560051b820101388062003c5e565b60005b83811062003cf05750506000910152565b818101518382015260200162003cdf565b9060209162003d1c8151809281855285808601910162003cdc565b601f01601f1916010190565b90600482101562000f795752565b3360009081527fa6eef7e35abe7026729641147f7915573c7e97b47efa546f5f6e3230263bcb49602052604081205460ff161562003d715750565b6044906040519063e2517d3f60e01b82523360048301526024820152fd5b80600052600160205260406000203360005260205260ff604060002054161562003d715750565b6001600160a01b031660008181527f31c1e66639f421f1853aeefe8ad6b62a3b96f3287efe23106923cd924aa025c260205260408120549091907f97667070c54ef182b0f5858b034beac1b6f3089aa2d3188bb1e8929f4fa9b9299060ff1662003e655780835260016020526040832082845260205260408320600160ff198254161790557f2f8788117e7eff1d82e926ec794901d17c78024a50270940304540a733656f0d339380a4600190565b505090565b906000918083526001602052604083209160018060a01b03169182845260205260ff6040842054161560001462003e655780835260016020526040832082845260205260408320600160ff198254161790557f2f8788117e7eff1d82e926ec794901d17c78024a50270940304540a733656f0d339380a4600190565b906000918083526001602052604083209160018060a01b03169182845260205260ff60408420541660001462003e65578083526001602052604083208284526020526040832060ff1981541690557ff6391f5c32d9c69d2a47ea670b442974b53935d1edc7fd64eb21e047a839171b339380a4600190565b67ffffffffffffffff811162000ba357601f01601f191660200190565b9062003f878162003ab6565b61ff0082549160081b169061ff001916179055565b805490600160401b82101562000ba3578162003fc291600162003fd99401815562003ada565b819391549060031b91821b91600019901b19161790565b9055565b600019811462003fed5760010190565b634e487b7160e01b600052601160045260246000fd5b600282101562000f795752565b60026000541462004022576002600055565b604051633ee5aeb560e01b8152600490fd5b9190820391821162003fed57565b8181029291811591840414171562003fed57565b908160209103126200057457516001600160a01b0381168103620005745790565b908160209103126200057457518015158103620005745790565b9190820180921162003fed57565b60ff600782015416600581101562000f79578015159081620040f7575b50620040e65760098101548015159081620040ec575b50620040e657600460058201549101541190565b50600090565b9050421138620040d2565b60019150141538620040bc565b919091600281101562000f7957620041295761271091620041259162004042565b0490565b5050600090565b92916200416091600094855260076020526040852090620041518162003ab6565b85526020526040842062003ac1565b825b815480821015620042255783906200417b838562003ada565b929054600393841b1c146200419d575050620041979062003fdd565b62004162565b929350939060001992838101908111620042115762003fc2620041c5620041d3928762003ada565b905490881b1c928662003ada565b90558254908115620041fd5750810192620041ef848462003ada565b81939154921b1b1916905555565b634e487b7160e01b81526031600452602490fd5b634e487b7160e01b83526011600452602483fd5b5050505050565b600981015415620042a157600a01546001600160a01b03163314158062004267575b6200425557565b6040516326b9cdff60e11b8152600490fd5b503360009081527fa6eef7e35abe7026729641147f7915573c7e97b47efa546f5f6e3230263bcb49602052604090205460ff16156200424e565b60405163b0cfa44760e01b8152600490fd5b60ff1660ff811462003fed5760010190565b9060005b60ff811660208110908162004376575b5015620042f157620042eb90620042b3565b620042c9565b9060ff80921690620043038262003f5e565b9162004313604051938462003c07565b808352601f19620043248262003f5e565b0191602092368486013760005b85811690838210156200436b578482101562000b8d57855182101562000b8d5781858962004365941a9188010153620042b3565b62004331565b505094505050905090565b901562000b8d5783901a60f81b6001600160f81b031916151538620042d956fe60c060405234620003c35762000ec7803803806200001d81620003c8565b92833981019060a081830312620003c35780516001600160401b0390818111620003c357836200004f918401620003ee565b906020938484015190828211620003c3576200006d918501620003ee565b936040840151926060850151948515158603620003c357608001516001600160a01b03968782169491859003620003c3578251828111620002c3576003918254916001958684811c94168015620003b8575b88851014620003a2578190601f948581116200034c575b508890858311600114620002e557600092620002d9575b505060001982861b1c191690861b1783555b8051938411620002c35760049586548681811c91168015620002b8575b82821014620002a35783811162000258575b5080928511600114620001ea5750938394918492600095620001de575b50501b92600019911b1c19161781555b8115620001c65750600580546001600160a01b03198116831790915560405194167f8be0079c531659141344cd1fd0a4f28419497f9722a3daafe3b4186f6b6457e0600080a360805260a052610a66908162000461823960805181610501015260a051816101fb0152f35b602490600060405191631e4fbdf760e01b8352820152fd5b0151935038806200014b565b92919084601f1981168860005285600020956000905b898383106200023d575050501062000222575b50505050811b0181556200015b565b01519060f884600019921b161c191690553880808062000213565b85870151895590970196948501948893509081019062000200565b87600052816000208480880160051c82019284891062000299575b0160051c019087905b8281106200028c5750506200012e565b600081550187906200027c565b9250819262000273565b602288634e487b7160e01b6000525260246000fd5b90607f16906200011c565b634e487b7160e01b600052604160045260246000fd5b015190503880620000ed565b90889350601f19831691876000528a6000209260005b8c8282106200033557505084116200031c575b505050811b018355620000ff565b015160001983881b60f8161c191690553880806200030e565b8385015186558c97909501949384019301620002fb565b90915085600052886000208580850160051c8201928b861062000398575b918a91869594930160051c01915b82811062000388575050620000d6565b600081558594508a910162000378565b925081926200036a565b634e487b7160e01b600052602260045260246000fd5b93607f1693620000bf565b600080fd5b6040519190601f01601f191682016001600160401b03811183821017620002c357604052565b919080601f84011215620003c35782516001600160401b038111620002c35760209062000424601f8201601f19168301620003c8565b92818452828287010111620003c35760005b8181106200044c57508260009394955001015290565b85810183015184820184015282016200043656fe6080604081815260048036101561001557600080fd5b600092833560e01c90816306fdde03146107b757508063095ea7b31461070e57806318160ddd146106ef57806323b872dd146105fc578063313ce567146105e057806340c10f19146105245780636ed71ede146104e957806370a08231146104b2578063715018a6146104525780638da5cb5b1461042957806395d89b41146103095780639dc29fac14610220578063a77df1c9146101e3578063a9059cbb146101b2578063dd62ed3e146101655763f2fde38b146100d357600080fd5b34610161576020366003190112610161576100ec6108f5565b906100f5610926565b6001600160a01b0391821692831561014b575050600554826bffffffffffffffffffffffff60a01b821617600555167f8be0079c531659141344cd1fd0a4f28419497f9722a3daafe3b4186f6b6457e08380a380f35b51631e4fbdf760e01b8152908101849052602490fd5b8280fd5b5050346101ae57806003193601126101ae57806020926101836108f5565b61018b610910565b6001600160a01b0391821683526001865283832091168252845220549051908152f35b5080fd5b5050346101ae57806003193601126101ae576020906101dc6101d26108f5565b6024359033610952565b5160018152f35b5050346101ae57816003193601126101ae57602090517f000000000000000000000000000000000000000000000000000000000000000015158152f35b508290346101ae57826003193601126101ae5761023b6108f5565b9060243590610248610926565b6001600160a01b0383169283156102fa5782156102eb578385528460205285852054918383106102b75750508184957fddf252ad1be2c89b69c2b068fc378daa952ba7f163c4a11628f55a4df523b3ef936020938688528785520381872055816002540360025551908152a380f35b865163391434e360e21b81526001600160a01b03909216908201908152602081018390526040810184905281906060010390fd5b508451631f2a200560e01b8152fd5b50845163d92e233d60e01b8152fd5b509190346101ae57816003193601126101ae57805190828454600181811c9080831692831561041f575b602093848410811461040c578388529081156103f0575060011461039b575b505050829003601f01601f191682019267ffffffffffffffff84118385101761038857508291826103849252826108ac565b0390f35b634e487b7160e01b815260418552602490fd5b8787529192508591837f8a35acfbc15ff81a39ae7d344fd709f28e8600b4aa8c65c6b64bfe7fe36bd19b5b8385106103dc5750505050830101388080610352565b8054888601830152930192849082016103c6565b60ff1916878501525050151560051b8401019050388080610352565b634e487b7160e01b895260228a52602489fd5b91607f1691610333565b5050346101ae57816003193601126101ae5760055490516001600160a01b039091168152602090f35b83346104af57806003193601126104af5761046b610926565b600580546001600160a01b0319811690915581906001600160a01b03167f8be0079c531659141344cd1fd0a4f28419497f9722a3daafe3b4186f6b6457e08280a380f35b80fd5b5050346101ae5760203660031901126101ae5760209181906001600160a01b036104da6108f5565b16815280845220549051908152f35b5050346101ae57816003193601126101ae57602090517f00000000000000000000000000000000000000000000000000000000000000008152f35b50903461016157806003193601126101615761053e6108f5565b906024359161054b610926565b6001600160a01b03169283156105d25782156105c457600254908382018092116105b1575084927fddf252ad1be2c89b69c2b068fc378daa952ba7f163c4a11628f55a4df523b3ef9260209260025585855284835280852082815401905551908152a380f35b634e487b7160e01b865260119052602485fd5b9051631f2a200560e01b8152fd5b905163d92e233d60e01b8152fd5b5050346101ae57816003193601126101ae576020905160068152f35b5082346104af5760603660031901126104af576106176108f5565b61061f610910565b916044359360018060a01b03831680835260016020528683203384526020528683205491600019831061065b575b6020886101dc898989610952565b8683106106c35781156106ac573315610695575082526001602090815286832033845281529186902090859003905582906101dc8761064d565b8751634a1406b160e11b8152908101849052602490fd5b875163e602df0560e01b8152908101849052602490fd5b8751637dc7a0d960e11b8152339181019182526020820193909352604081018790528291506060010390fd5b5050346101ae57816003193601126101ae576020906002549051908152f35b50346101615781600319360112610161576107276108f5565b6024359033156107a0576001600160a01b031691821561078957508083602095338152600187528181208582528752205582519081527f8c5be1e5ebec7d5bd14f71427d1e84f3dd0314c0f7b2291e5b200ac8c7c3b925843392a35160018152f35b8351634a1406b160e11b8152908101859052602490fd5b835163e602df0560e01b8152808401869052602490fd5b849150833461016157826003193601126101615782600354600181811c908083169283156108a2575b602093848410811461040c57838852908115610886575060011461083057505050829003601f01601f191682019267ffffffffffffffff84118385101761038857508291826103849252826108ac565b600387529192508591837fc2575a0e9e593c00f959f8c92f12db2869c3395a3b0502d05e2516446f71f85b5b8385106108725750505050830101858080610352565b80548886018301529301928490820161085c565b60ff1916878501525050151560051b8401019050858080610352565b91607f16916107e0565b6020808252825181830181905290939260005b8281106108e157505060409293506000838284010152601f8019910116010190565b8181018601518482016040015285016108bf565b600435906001600160a01b038216820361090b57565b600080fd5b602435906001600160a01b038216820361090b57565b6005546001600160a01b0316330361093a57565b60405163118cdaa760e01b8152336004820152602490fd5b916001600160a01b03808416928315610a1757169283156109fe57600090838252816020526040822054908382106109cc575091604082827fddf252ad1be2c89b69c2b068fc378daa952ba7f163c4a11628f55a4df523b3ef958760209652828652038282205586815220818154019055604051908152a3565b60405163391434e360e21b81526001600160a01b03919091166004820152602481019190915260448101839052606490fd5b60405163ec442f0560e01b815260006004820152602490fd5b604051634b637e8f60e11b815260006004820152602490fdfea2646970667358221220f9ca076697a7e2dc679ed54e584f447e12f207468735c0b583ba2c07efd4e5f964736f6c63430008140033692c548a7f365f05a7b3a4cf77c7871baf797e4b75547ffacc529c22e4565a95a26469706673582212207480e8f1ddbcab5731bb0d01b1507a6be9a8f0b9f447eeac7768572b0a5043a164736f6c63430008140033","opcodes":"PUSH1 0xA0 CALLVALUE PUSH3 0x10A JUMPI PUSH1 0x1F PUSH3 0x546B CODESIZE DUP2 SWAP1 SUB SWAP2 DUP3 ADD PUSH1 0x1F NOT AND DUP4 ADD SWAP2 PUSH1 0x1 PUSH1 0x1 PUSH1 0x40 SHL SUB DUP4 GT DUP5 DUP5 LT OR PUSH3 0x10F JUMPI DUP1 DUP5 SWAP3 PUSH1 0x20 SWAP5 PUSH1 0x40 MSTORE DUP4 CODECOPY DUP2 ADD SUB SLT PUSH3 0x10A JUMPI MLOAD PUSH1 0x1 PUSH1 0x1 PUSH1 0xA0 SHL SUB DUP2 AND SWAP1 DUP2 SWAP1 SUB PUSH3 0x10A JUMPI PUSH1 0x1 PUSH1 0x0 SSTORE PUSH1 0x64 PUSH1 0x2 SSTORE DUP1 ISZERO PUSH3 0xF8 JUMPI PUSH1 0x80 MSTORE PUSH3 0x75 CALLER PUSH3 0x125 JUMP JUMPDEST POP PUSH1 0x40 MLOAD PUSH2 0x52B3 SWAP1 DUP2 PUSH3 0x1B8 DUP3 CODECOPY PUSH1 0x80 MLOAD DUP2 DUP2 DUP2 PUSH2 0x1C0 ADD MSTORE DUP2 DUP2 PUSH2 0x37F ADD MSTORE DUP2 DUP2 PUSH2 0x1118 ADD MSTORE DUP2 DUP2 PUSH2 0x1173 ADD MSTORE DUP2 DUP2 PUSH2 0x1609 ADD MSTORE DUP2 DUP2 PUSH2 0x1668 ADD MSTORE DUP2 DUP2 PUSH2 0x1CFF ADD MSTORE DUP2 DUP2 PUSH2 0x1D5C ADD MSTORE DUP2 DUP2 PUSH2 0x1DA2 ADD MSTORE DUP2 DUP2 PUSH2 0x1E4F ADD MSTORE DUP2 DUP2 PUSH2 0x241D ADD MSTORE DUP2 DUP2 PUSH2 0x247B ADD MSTORE DUP2 DUP2 PUSH2 0x24C6 ADD MSTORE DUP2 DUP2 PUSH2 0x2524 ADD MSTORE DUP2 DUP2 PUSH2 0x2FC9 ADD MSTORE PUSH2 0x3232 ADD MSTORE RETURN JUMPDEST PUSH1 0x40 MLOAD PUSH4 0xD92E233D PUSH1 0xE0 SHL DUP2 MSTORE PUSH1 0x4 SWAP1 REVERT JUMPDEST PUSH1 0x0 DUP1 REVERT JUMPDEST PUSH4 0x4E487B71 PUSH1 0xE0 SHL PUSH1 0x0 MSTORE PUSH1 0x41 PUSH1 0x4 MSTORE PUSH1 0x24 PUSH1 0x0 REVERT JUMPDEST PUSH1 0x1 PUSH1 0x1 PUSH1 0xA0 SHL SUB AND PUSH1 0x0 DUP2 DUP2 MSTORE PUSH32 0xA6EEF7E35ABE7026729641147F7915573C7E97B47EFA546F5F6E3230263BCB49 PUSH1 0x20 MSTORE PUSH1 0x40 DUP2 KECCAK256 SLOAD SWAP1 SWAP2 SWAP1 PUSH1 0xFF AND PUSH3 0x1B3 JUMPI DUP2 DUP1 MSTORE PUSH1 0x1 PUSH1 0x20 MSTORE PUSH1 0x40 DUP3 KECCAK256 DUP2 DUP4 MSTORE PUSH1 0x20 MSTORE PUSH1 0x40 DUP3 KECCAK256 PUSH1 0x1 PUSH1 0xFF NOT DUP3 SLOAD AND OR SWAP1 SSTORE CALLER SWAP2 PUSH32 0x2F8788117E7EFF1D82E926EC794901D17C78024A50270940304540A733656F0D DUP2 DUP1 LOG4 PUSH1 0x1 SWAP1 JUMP JUMPDEST POP SWAP1 JUMP INVALID PUSH2 0x180 DUP1 PUSH1 0x40 MSTORE PUSH1 0x4 CALLDATASIZE LT ISZERO PUSH3 0x15 JUMPI PUSH1 0x0 DUP1 REVERT JUMPDEST PUSH1 0x0 PUSH1 0xE0 MSTORE PUSH1 0x0 CALLDATALOAD PUSH1 0xE0 SHR SWAP1 DUP2 PUSH4 0x1FFC9A7 EQ PUSH3 0x3A5E JUMPI POP DUP1 PUSH4 0x5B6AC6B EQ PUSH3 0x39E3 JUMPI DUP1 PUSH4 0x248A9CA3 EQ PUSH3 0x39B0 JUMPI DUP1 PUSH4 0x2F2FF15D EQ PUSH3 0x3967 JUMPI DUP1 PUSH4 0x36568ABE EQ PUSH3 0x3919 JUMPI DUP1 PUSH4 0x398C6F7E EQ PUSH3 0x3893 JUMPI DUP1 PUSH4 0x5778472A EQ PUSH3 0x36A2 JUMPI DUP1 PUSH4 0x5E2C8EEE EQ PUSH3 0x3646 JUMPI DUP1 PUSH4 0x5E382837 EQ PUSH3 0x355B JUMPI DUP1 PUSH4 0x63C69F08 EQ PUSH3 0x34D6 JUMPI DUP1 PUSH4 0x71DE2FFC EQ PUSH3 0x30AB JUMPI DUP1 PUSH4 0x7489EC23 EQ PUSH3 0x2EBD JUMPI DUP1 PUSH4 0x7564912B EQ PUSH3 0x2DCF JUMPI DUP1 PUSH4 0x762F5618 EQ PUSH3 0x2D0A JUMPI DUP1 PUSH4 0x779A9683 EQ PUSH3 0x2CB6 JUMPI DUP1 PUSH4 0x856652E9 EQ PUSH3 0x2C56 JUMPI DUP1 PUSH4 0x865EC35E EQ PUSH3 0x2BDE JUMPI DUP1 PUSH4 0x91D14854 EQ PUSH3 0x2B8B JUMPI DUP1 PUSH4 0x92A42D1D EQ PUSH3 0x2B38 JUMPI DUP1 PUSH4 0x9C3F1E90 EQ PUSH3 0x2A60 JUMPI DUP1 PUSH4 0xA217FDDF EQ PUSH3 0x2A40 JUMPI DUP1 PUSH4 0xA674537F EQ PUSH3 0x2A1E JUMPI DUP1 PUSH4 0xB4A78088 EQ PUSH3 0x299B JUMPI DUP1 PUSH4 0xB6507C2D EQ PUSH3 0x1000 JUMPI DUP1 PUSH4 0xBDB83289 EQ PUSH3 0xF8F JUMPI DUP1 PUSH4 0xC3C95C7B EQ PUSH3 0xD5D JUMPI DUP1 PUSH4 0xD547741F EQ PUSH3 0xD0D JUMPI DUP1 PUSH4 0xD54C786E EQ PUSH3 0x617 JUMPI DUP1 PUSH4 0xE1F1C4A7 EQ PUSH3 0x5F6 JUMPI DUP1 PUSH4 0xE49B606C EQ PUSH3 0x237 JUMPI DUP1 PUSH4 0xF5B541A6 EQ PUSH3 0x1F8 JUMPI PUSH4 0xFBFA77CF EQ PUSH3 0x1A6 JUMPI PUSH1 0x0 DUP1 REVERT JUMPDEST CALLVALUE PUSH3 0x1F2 JUMPI PUSH1 0xE0 MLOAD DUP1 PUSH1 0x3 NOT CALLDATASIZE ADD SLT PUSH3 0x1EF JUMPI PUSH1 0x40 MLOAD PUSH32 0x0 PUSH1 0x1 PUSH1 0x1 PUSH1 0xA0 SHL SUB AND DUP2 MSTORE PUSH1 0x20 SWAP1 RETURN JUMPDEST DUP1 REVERT JUMPDEST PUSH1 0xE0 MLOAD DUP1 REVERT JUMPDEST CALLVALUE PUSH3 0x1F2 JUMPI PUSH1 0xE0 MLOAD DUP1 PUSH1 0x3 NOT CALLDATASIZE ADD SLT PUSH3 0x1EF JUMPI PUSH1 0x20 PUSH1 0x40 MLOAD PUSH32 0x97667070C54EF182B0F5858B034BEAC1B6F3089AA2D3188BB1E8929F4FA9B929 DUP2 MSTORE RETURN JUMPDEST CALLVALUE PUSH3 0x1F2 JUMPI PUSH1 0x20 DUP1 PUSH1 0x3 NOT CALLDATASIZE ADD SLT PUSH3 0x1F2 JUMPI PUSH1 0x4 CALLDATALOAD PUSH3 0x258 PUSH3 0x4010 JUMP JUMPDEST DUP1 PUSH1 0xE0 MLOAD MSTORE PUSH1 0x5 DUP3 MSTORE PUSH1 0xE0 MLOAD PUSH1 0x40 DUP2 KECCAK256 SWAP1 PUSH1 0x7 DUP3 ADD SLOAD SWAP1 PUSH1 0xFF DUP3 AND SWAP1 PUSH1 0x4 DUP3 LT ISZERO PUSH3 0x5DF JUMPI POP PUSH1 0x2 SUB PUSH3 0x5CD JUMPI DUP3 PUSH1 0xE0 MLOAD MSTORE PUSH1 0x9 DUP5 MSTORE PUSH1 0x40 PUSH1 0xE0 MLOAD KECCAK256 CALLER PUSH1 0x0 MSTORE DUP5 MSTORE PUSH1 0xFF PUSH1 0x40 PUSH1 0x0 KECCAK256 SLOAD AND PUSH3 0x5BB JUMPI PUSH1 0x8 SHR PUSH1 0xFF AND SWAP1 PUSH3 0x2BC DUP3 PUSH3 0x3AB6 JUMP JUMPDEST DUP2 PUSH3 0x581 JUMPI PUSH1 0x2 ADD SLOAD PUSH1 0x1 PUSH1 0x1 PUSH1 0xA0 SHL SUB AND SWAP3 JUMPDEST PUSH1 0x40 MLOAD PUSH4 0x70A08231 PUSH1 0xE0 SHL DUP2 MSTORE CALLER PUSH1 0x4 DUP3 ADD MSTORE SWAP4 PUSH1 0x1 PUSH1 0x1 PUSH1 0xA0 SHL SUB SWAP1 DUP2 AND DUP3 DUP7 PUSH1 0x24 DUP2 DUP5 GAS STATICCALL SWAP6 DUP7 ISZERO PUSH3 0x4BF JUMPI PUSH1 0xE0 MLOAD SWAP7 PUSH3 0x547 JUMPI JUMPDEST POP DUP6 ISZERO PUSH3 0x535 JUMPI DUP5 PUSH1 0xE0 MLOAD MSTORE PUSH1 0x9 DUP4 MSTORE PUSH1 0xE0 MLOAD PUSH1 0x40 DUP2 KECCAK256 CALLER PUSH1 0x0 MSTORE DUP5 MSTORE PUSH1 0x40 PUSH1 0x0 KECCAK256 PUSH1 0x1 PUSH1 0xFF NOT DUP3 SLOAD AND OR SWAP1 SSTORE DUP2 EXTCODESIZE ISZERO PUSH3 0x1EF JUMPI POP PUSH1 0x40 MLOAD PUSH4 0x2770A7EB PUSH1 0xE2 SHL DUP2 MSTORE PUSH1 0xE0 DUP1 MLOAD CALLER PUSH1 0x4 DUP5 ADD MSTORE PUSH1 0x24 DUP4 ADD DUP10 SWAP1 MSTORE SWAP1 MLOAD SWAP2 SWAP3 SWAP1 SWAP2 DUP4 SWAP2 PUSH1 0x44 SWAP2 DUP4 SWAP2 GAS CALL DUP1 ISZERO PUSH3 0x4BF JUMPI PUSH3 0x51D JUMPI JUMPDEST POP DUP1 PUSH32 0x0 AND DUP1 EXTCODESIZE ISZERO PUSH3 0x1F2 JUMPI PUSH1 0x40 MLOAD PUSH4 0x2FE2E93 PUSH1 0xE3 SHL DUP2 MSTORE PUSH1 0xE0 MLOAD ADDRESS PUSH1 0x4 DUP4 ADD MSTORE PUSH1 0x24 DUP3 ADD DUP9 SWAP1 MSTORE DUP2 DUP1 PUSH1 0x44 DUP2 ADD SUB DUP2 PUSH1 0xE0 MLOAD DUP7 GAS CALL SWAP1 DUP2 ISZERO PUSH3 0x4BF JUMPI DUP5 SWAP2 PUSH3 0x500 JUMPI JUMPDEST POP PUSH1 0x40 MLOAD PUSH4 0x2C805AF5 PUSH1 0xE2 SHL DUP2 MSTORE SWAP2 DUP3 SWAP1 PUSH1 0x4 SWAP1 DUP3 SWAP1 GAS STATICCALL DUP1 ISZERO PUSH3 0x4BF JUMPI DUP4 SWAP2 PUSH1 0xE0 MLOAD SWAP2 PUSH3 0x4CC JUMPI JUMPDEST POP PUSH1 0x40 MLOAD PUSH4 0xA9059CBB PUSH1 0xE0 SHL DUP2 MSTORE CALLER PUSH1 0x4 DUP3 ADD MSTORE PUSH1 0x24 DUP2 ADD DUP9 SWAP1 MSTORE PUSH1 0xE0 MLOAD SWAP1 SWAP4 DUP5 SWAP3 PUSH1 0x44 SWAP3 DUP5 SWAP3 SWAP1 SWAP2 AND GAS CALL DUP1 ISZERO PUSH3 0x4BF JUMPI PUSH3 0x48B JUMPI JUMPDEST POP PUSH1 0x40 MLOAD SWAP4 DUP5 MSTORE PUSH3 0x458 DUP3 PUSH3 0x3AB6 JUMP JUMPDEST DUP4 ADD MSTORE PUSH32 0x5CF4A2169798B2CBF62119844933F2967A22195532E20571634DC50C4D1800CF PUSH1 0x40 CALLER SWAP4 LOG3 PUSH1 0xE0 MLOAD PUSH1 0x1 DUP2 SSTORE DUP1 RETURN JUMPDEST PUSH3 0x4AF SWAP1 DUP3 RETURNDATASIZE DUP5 GT PUSH3 0x4B7 JUMPI JUMPDEST PUSH3 0x4A6 DUP2 DUP4 PUSH3 0x3C07 JUMP JUMPDEST DUP2 ADD SWAP1 PUSH3 0x4077 JUMP JUMPDEST POP DUP5 PUSH3 0x446 JUMP JUMPDEST POP RETURNDATASIZE PUSH3 0x49A JUMP JUMPDEST PUSH1 0x40 MLOAD RETURNDATASIZE PUSH1 0xE0 MLOAD DUP3 RETURNDATACOPY RETURNDATASIZE SWAP1 REVERT JUMPDEST PUSH3 0x4F1 SWAP2 POP DUP3 RETURNDATASIZE DUP5 GT PUSH3 0x4F8 JUMPI JUMPDEST PUSH3 0x4E8 DUP2 DUP4 PUSH3 0x3C07 JUMP JUMPDEST DUP2 ADD SWAP1 PUSH3 0x4056 JUMP JUMPDEST DUP8 PUSH3 0x40D JUMP JUMPDEST POP RETURNDATASIZE PUSH3 0x4DC JUMP JUMPDEST PUSH3 0x50C SWAP2 POP PUSH3 0x3BD5 JUMP JUMPDEST PUSH1 0xE0 MLOAD DUP1 PUSH3 0x1EF JUMPI DUP4 SWAP1 PUSH3 0x3E2 JUMP JUMPDEST PUSH3 0x528 SWAP1 PUSH3 0x3BD5 JUMP JUMPDEST PUSH1 0xE0 MLOAD DUP1 ISZERO PUSH3 0x37B JUMPI DUP1 REVERT JUMPDEST PUSH1 0x40 MLOAD PUSH4 0x30A748D3 PUSH1 0xE1 SHL DUP2 MSTORE PUSH1 0x4 SWAP1 REVERT JUMPDEST SWAP1 SWAP6 POP DUP3 DUP2 DUP2 RETURNDATASIZE DUP4 GT PUSH3 0x579 JUMPI JUMPDEST PUSH3 0x562 DUP2 DUP4 PUSH3 0x3C07 JUMP JUMPDEST DUP2 ADD SUB SLT PUSH3 0x574 JUMPI MLOAD SWAP5 DUP7 PUSH3 0x30A JUMP JUMPDEST PUSH1 0x0 DUP1 REVERT JUMPDEST POP RETURNDATASIZE PUSH3 0x556 JUMP JUMPDEST PUSH3 0x58C DUP3 PUSH3 0x3AB6 JUMP JUMPDEST PUSH1 0x1 DUP3 SUB PUSH3 0x5A9 JUMPI PUSH1 0x3 ADD SLOAD PUSH1 0x1 PUSH1 0x1 PUSH1 0xA0 SHL SUB AND SWAP3 PUSH3 0x2D1 JUMP JUMPDEST PUSH1 0x40 MLOAD PUSH4 0xC74A206D PUSH1 0xE0 SHL DUP2 MSTORE PUSH1 0x4 SWAP1 REVERT JUMPDEST PUSH1 0x40 MLOAD PUSH4 0xC8D9EAB PUSH1 0xE3 SHL DUP2 MSTORE PUSH1 0x4 SWAP1 REVERT JUMPDEST PUSH1 0x40 MLOAD PUSH4 0x174B6393 PUSH1 0xE1 SHL DUP2 MSTORE PUSH1 0x4 SWAP1 REVERT JUMPDEST PUSH4 0x4E487B71 PUSH1 0xE0 SHL SWAP1 MSTORE PUSH1 0x21 PUSH1 0x4 MSTORE PUSH1 0xE0 MLOAD PUSH1 0x24 SWAP1 REVERT JUMPDEST CALLVALUE PUSH3 0x1F2 JUMPI PUSH1 0xE0 MLOAD DUP1 PUSH1 0x3 NOT CALLDATASIZE ADD SLT PUSH3 0x1EF JUMPI PUSH1 0x20 PUSH1 0x40 MLOAD PUSH2 0x2710 DUP2 MSTORE RETURN JUMPDEST CALLVALUE PUSH3 0x1F2 JUMPI PUSH1 0x80 CALLDATASIZE PUSH1 0x3 NOT ADD SLT PUSH3 0x1F2 JUMPI PUSH8 0xFFFFFFFFFFFFFFFF PUSH1 0x24 CALLDATALOAD GT PUSH3 0x1F2 JUMPI CALLDATASIZE PUSH1 0x23 PUSH1 0x24 CALLDATALOAD ADD SLT ISZERO PUSH3 0x1F2 JUMPI PUSH8 0xFFFFFFFFFFFFFFFF PUSH1 0x24 CALLDATALOAD PUSH1 0x4 ADD CALLDATALOAD GT PUSH3 0x1F2 JUMPI CALLDATASIZE PUSH1 0x24 DUP1 CALLDATALOAD PUSH1 0x4 ADD CALLDATALOAD DUP2 CALLDATALOAD ADD ADD GT PUSH3 0x1F2 JUMPI PUSH1 0x64 CALLDATALOAD PUSH1 0x1 PUSH1 0x1 PUSH1 0xA0 SHL SUB DUP2 AND SWAP1 SUB PUSH3 0x574 JUMPI PUSH3 0x691 PUSH3 0x3D36 JUMP JUMPDEST PUSH1 0x4 CALLDATALOAD PUSH1 0xE0 MLOAD MSTORE PUSH1 0x5 PUSH1 0x20 MSTORE PUSH1 0x9 PUSH1 0x40 PUSH1 0xE0 MLOAD KECCAK256 ADD SLOAD PUSH3 0xCFB JUMPI PUSH1 0x64 CALLDATALOAD PUSH1 0x1 PUSH1 0x1 PUSH1 0xA0 SHL SUB AND ISZERO PUSH3 0xCE9 JUMPI PUSH3 0x6CB PUSH1 0x4 CALLDATALOAD PUSH3 0x42C5 JUMP JUMPDEST PUSH3 0x709 PUSH1 0x24 PUSH1 0x40 MLOAD DUP1 SWAP4 PUSH4 0x5945532D PUSH1 0xE0 SHL PUSH1 0x20 DUP4 ADD MSTORE PUSH3 0x6F8 DUP2 MLOAD DUP1 SWAP3 PUSH1 0x20 DUP7 DUP7 ADD SWAP2 ADD PUSH3 0x3CDC JUMP JUMPDEST DUP2 ADD SUB PUSH1 0x4 DUP2 ADD DUP5 MSTORE ADD DUP3 PUSH3 0x3C07 JUMP JUMPDEST PUSH3 0x716 PUSH1 0x4 CALLDATALOAD PUSH3 0x42C5 JUMP JUMPDEST PUSH3 0x753 PUSH1 0x23 PUSH1 0x40 MLOAD DUP1 SWAP4 PUSH3 0x4E4F2D PUSH1 0xE8 SHL PUSH1 0x20 DUP4 ADD MSTORE PUSH3 0x742 DUP2 MLOAD DUP1 SWAP3 PUSH1 0x20 DUP7 DUP7 ADD SWAP2 ADD PUSH3 0x3CDC JUMP JUMPDEST DUP2 ADD SUB PUSH1 0x3 DUP2 ADD DUP5 MSTORE ADD DUP3 PUSH3 0x3C07 JUMP JUMPDEST PUSH1 0x40 MLOAD SWAP2 DUP3 PUSH2 0xEC7 DUP2 ADD LT PUSH8 0xFFFFFFFFFFFFFFFF PUSH2 0xEC7 DUP6 ADD GT OR PUSH3 0xCD1 JUMPI PUSH3 0x793 SWAP1 PUSH2 0xEC7 PUSH3 0x4397 DUP6 CODECOPY PUSH1 0xA0 PUSH2 0xEC7 DUP6 ADD DUP2 DUP2 MSTORE ADD SWAP1 PUSH3 0x3D01 JUMP JUMPDEST SWAP2 PUSH2 0xEC7 DUP2 ADD DUP4 SUB PUSH1 0x20 PUSH2 0xEC7 DUP4 ADD ADD MSTORE PUSH1 0x3 DUP4 MSTORE PUSH3 0x594553 PUSH1 0xE8 SHL PUSH1 0x20 DUP5 ADD MSTORE PUSH1 0x4 CALLDATALOAD PUSH1 0x40 PUSH2 0xEC7 DUP4 ADD ADD MSTORE PUSH1 0x1 PUSH1 0x60 PUSH2 0xEC7 DUP4 ADD ADD MSTORE ADDRESS PUSH1 0x80 PUSH2 0xEC7 DUP4 ADD ADD MSTORE PUSH1 0x40 DUP2 PUSH1 0xE0 MLOAD SWAP5 SUB ADD SWAP1 DUP4 CREATE SWAP2 DUP3 ISZERO PUSH3 0xCC5 JUMPI POP PUSH1 0x40 MLOAD SWAP1 DUP2 PUSH2 0xEC7 DUP2 ADD LT PUSH8 0xFFFFFFFFFFFFFFFF PUSH2 0xEC7 DUP5 ADD GT OR PUSH3 0xCD1 JUMPI PUSH3 0x82A SWAP1 PUSH2 0xEC7 PUSH3 0x4397 DUP5 CODECOPY PUSH1 0xA0 PUSH2 0xEC7 DUP5 ADD DUP2 DUP2 MSTORE ADD SWAP1 PUSH3 0x3D01 JUMP JUMPDEST SWAP1 PUSH2 0xEC7 DUP2 ADD DUP3 SUB PUSH1 0x20 PUSH2 0xEC7 DUP4 ADD ADD MSTORE PUSH1 0x2 DUP3 MSTORE PUSH2 0x4E4F PUSH1 0xF0 SHL PUSH1 0x20 DUP4 ADD MSTORE PUSH1 0x4 CALLDATALOAD PUSH1 0x40 PUSH2 0xEC7 DUP4 ADD ADD MSTORE PUSH1 0xE0 MLOAD PUSH1 0x60 PUSH2 0xEC7 DUP4 ADD ADD MSTORE ADDRESS PUSH1 0x80 PUSH2 0xEC7 DUP4 ADD ADD MSTORE PUSH1 0x40 DUP2 PUSH1 0xE0 MLOAD SWAP4 SUB ADD SWAP1 DUP3 CREATE SWAP1 DUP2 ISZERO PUSH3 0xCC5 JUMPI POP PUSH1 0x40 MLOAD PUSH3 0x88F DUP2 PUSH3 0x3BB7 JUMP JUMPDEST PUSH1 0x4 CALLDATALOAD DUP2 MSTORE PUSH3 0x8A5 PUSH1 0x24 CALLDATALOAD PUSH1 0x4 ADD CALLDATALOAD PUSH3 0x3F5E JUMP JUMPDEST PUSH3 0x8B4 PUSH1 0x40 MLOAD SWAP2 DUP3 PUSH3 0x3C07 JUMP JUMPDEST PUSH1 0x24 DUP1 CALLDATALOAD PUSH1 0x4 DUP2 ADD CALLDATALOAD DUP1 DUP5 MSTORE SWAP2 ADD PUSH1 0x20 DUP4 ADD CALLDATACOPY PUSH1 0xE0 MLOAD PUSH1 0x20 PUSH1 0x24 CALLDATALOAD PUSH1 0x4 ADD CALLDATALOAD DUP4 ADD ADD MSTORE PUSH1 0x20 DUP3 ADD MSTORE PUSH1 0x1 DUP1 PUSH1 0xA0 SHL SUB DUP4 AND PUSH1 0x40 DUP3 ADD MSTORE PUSH1 0x1 DUP1 PUSH1 0xA0 SHL SUB DUP3 AND PUSH1 0x60 DUP3 ADD MSTORE PUSH1 0xE0 MLOAD PUSH1 0x80 DUP3 ADD MSTORE PUSH1 0xE0 MLOAD PUSH1 0xA0 DUP3 ADD MSTORE PUSH1 0xE0 MLOAD PUSH1 0xC0 DUP3 ADD MSTORE PUSH1 0xE0 MLOAD PUSH1 0xE0 DUP3 ADD MSTORE PUSH1 0x2 PUSH2 0x100 DUP3 ADD MSTORE PUSH1 0x44 CALLDATALOAD PUSH2 0x120 DUP3 ADD MSTORE TIMESTAMP PUSH2 0x140 DUP3 ADD MSTORE PUSH1 0x1 DUP1 PUSH1 0xA0 SHL SUB PUSH1 0x64 CALLDATALOAD AND PUSH2 0x160 DUP3 ADD MSTORE PUSH1 0x4 CALLDATALOAD PUSH1 0xE0 MLOAD MSTORE PUSH1 0x5 PUSH1 0x20 MSTORE PUSH1 0xE0 MLOAD PUSH1 0x40 DUP2 KECCAK256 SWAP1 DUP3 MLOAD DUP3 SSTORE PUSH1 0x20 DUP4 ADD MLOAD DUP1 MLOAD SWAP2 PUSH8 0xFFFFFFFFFFFFFFFF DUP4 GT PUSH3 0xCAE JUMPI POP DUP2 SWAP1 PUSH3 0x983 PUSH1 0x1 DUP6 ADD SLOAD PUSH3 0x3B7A JUMP JUMPDEST PUSH1 0x1F DUP2 GT PUSH3 0xC54 JUMPI JUMPDEST POP PUSH1 0xE0 MLOAD SWAP1 PUSH1 0x20 SWAP2 PUSH1 0x1F DUP5 GT PUSH1 0x1 EQ PUSH3 0xBDD JUMPI POP PUSH1 0xE0 MLOAD SWAP3 PUSH3 0xBD1 JUMPI JUMPDEST POP POP DUP2 PUSH1 0x1 SHL SWAP2 PUSH1 0x0 NOT SWAP1 PUSH1 0x3 SHL SHR NOT AND OR PUSH1 0x1 DUP3 ADD SSTORE JUMPDEST PUSH1 0x2 DUP2 ADD SWAP1 PUSH1 0x1 DUP1 PUSH1 0xA0 SHL SUB PUSH1 0x40 DUP5 ADD MLOAD AND SWAP2 PUSH12 0xFFFFFFFFFFFFFFFFFFFFFFFF PUSH1 0xA0 SHL SWAP3 DUP4 DUP3 SLOAD AND OR SWAP1 SSTORE PUSH1 0x3 DUP2 ADD PUSH1 0x1 DUP1 PUSH1 0xA0 SHL SUB PUSH1 0x60 DUP6 ADD MLOAD AND DUP4 DUP3 SLOAD AND OR SWAP1 SSTORE PUSH1 0x80 DUP4 ADD MLOAD PUSH1 0x4 DUP3 ADD SSTORE PUSH1 0xA0 DUP4 ADD MLOAD PUSH1 0x5 DUP3 ADD SSTORE PUSH1 0xC0 DUP4 ADD MLOAD PUSH1 0x6 DUP3 ADD SSTORE PUSH1 0x7 DUP2 ADD SWAP1 PUSH1 0xE0 DUP5 ADD MLOAD PUSH1 0x4 DUP2 LT ISZERO PUSH3 0xBB9 JUMPI PUSH1 0xA SWAP3 PUSH3 0xA65 SWAP2 PUSH1 0xFF DUP1 NOT DUP4 SLOAD AND SWAP2 AND OR DUP2 SSTORE PUSH2 0x100 DUP7 ADD MLOAD SWAP1 PUSH3 0xA5F DUP3 PUSH3 0x3AB6 JUMP JUMPDEST PUSH3 0x3F7B JUMP JUMPDEST PUSH2 0x120 DUP5 ADD MLOAD PUSH1 0x8 DUP3 ADD SSTORE PUSH2 0x140 DUP5 ADD MLOAD PUSH1 0x9 DUP3 ADD SSTORE ADD SWAP2 PUSH2 0x160 PUSH1 0x1 DUP1 PUSH1 0xA0 SHL SUB SWAP2 ADD MLOAD AND SWAP1 DUP3 SLOAD AND OR SWAP1 SSTORE PUSH1 0xA SLOAD PUSH1 0x1 PUSH1 0x40 SHL DUP2 LT ISZERO PUSH3 0xBA3 JUMPI PUSH1 0x1 DUP2 ADD DUP1 PUSH1 0xA SSTORE DUP2 LT ISZERO PUSH3 0xB8D JUMPI PUSH1 0xA PUSH1 0x0 MSTORE PUSH1 0x4 CALLDATALOAD SWAP1 PUSH32 0xC65A7BB8D6351C1CF70C95A316CC6A92839C986682D98BC35F958F4883F9D2A8 ADD SSTORE PUSH3 0xAEB PUSH1 0x64 CALLDATALOAD PUSH3 0x3DB6 JUMP JUMPDEST POP PUSH1 0x40 MLOAD SWAP2 PUSH1 0x80 DUP4 MSTORE PUSH1 0x24 CALLDATALOAD PUSH1 0x4 ADD CALLDATALOAD PUSH1 0x80 DUP5 ADD MSTORE PUSH1 0x24 CALLDATALOAD PUSH1 0x4 ADD CALLDATALOAD PUSH1 0x24 DUP1 CALLDATALOAD ADD PUSH1 0xA0 DUP6 ADD CALLDATACOPY PUSH1 0xE0 MLOAD PUSH1 0x4 PUSH1 0x24 CALLDATALOAD DUP2 ADD CALLDATALOAD DUP6 DUP2 ADD PUSH1 0xA0 SWAP1 DUP2 ADD SWAP4 SWAP1 SWAP4 MSTORE PUSH1 0x1 PUSH1 0x1 PUSH1 0xA0 SHL SUB SWAP4 DUP5 AND PUSH1 0x20 DUP8 ADD MSTORE SWAP4 DUP4 AND PUSH1 0x40 DUP7 ADD MSTORE PUSH1 0x44 CALLDATALOAD PUSH1 0x60 DUP7 ADD MSTORE PUSH1 0x64 CALLDATALOAD SWAP1 SWAP3 AND SWAP4 SWAP2 CALLDATALOAD SWAP3 PUSH32 0xC1EDBA2980B5502D83071709308000BFB589C388CDD039AFE22D224019391228 SWAP3 PUSH1 0x1F SWAP1 SWAP2 ADD PUSH1 0x1F NOT AND DUP2 ADD DUP2 SWAP1 SUB SWAP1 SWAP2 ADD SWAP1 LOG3 PUSH1 0xE0 MLOAD DUP1 RETURN JUMPDEST PUSH4 0x4E487B71 PUSH1 0xE0 SHL PUSH1 0x0 MSTORE PUSH1 0x32 PUSH1 0x4 MSTORE PUSH1 0x24 PUSH1 0x0 REVERT JUMPDEST PUSH4 0x4E487B71 PUSH1 0xE0 SHL PUSH1 0x0 MSTORE PUSH1 0x41 PUSH1 0x4 MSTORE PUSH1 0x24 PUSH1 0x0 REVERT JUMPDEST PUSH4 0x4E487B71 PUSH1 0xE0 SHL PUSH1 0xE0 MLOAD MSTORE PUSH1 0x21 PUSH1 0x4 MSTORE PUSH1 0x24 PUSH1 0xE0 MLOAD REVERT JUMPDEST ADD MLOAD SWAP1 POP DUP7 DUP1 PUSH3 0x9AC JUMP JUMPDEST PUSH1 0x1 DUP7 ADD SWAP1 MSTORE PUSH1 0xE0 MLOAD PUSH1 0x20 DUP2 KECCAK256 SWAP1 SWAP5 POP SWAP2 SWAP1 JUMPDEST PUSH1 0x1F NOT DUP5 AND DUP6 LT PUSH3 0xC38 JUMPI PUSH1 0x1 SWAP5 POP DUP4 PUSH1 0x1F NOT DUP2 AND LT PUSH3 0xC1E JUMPI JUMPDEST POP POP POP DUP2 SHL ADD PUSH1 0x1 DUP3 ADD SSTORE PUSH3 0x9C4 JUMP JUMPDEST ADD MLOAD PUSH1 0x0 NOT PUSH1 0xF8 DUP5 PUSH1 0x3 SHL AND SHR NOT AND SWAP1 SSTORE DUP7 DUP1 DUP1 PUSH3 0xC0D JUMP JUMPDEST DUP2 DUP2 ADD MLOAD DUP4 SSTORE PUSH1 0x20 SWAP5 DUP6 ADD SWAP5 PUSH1 0x1 SWAP1 SWAP4 ADD SWAP3 SWAP1 SWAP2 ADD SWAP1 PUSH3 0xBF0 JUMP JUMPDEST SWAP1 SWAP2 POP PUSH1 0x1 DUP5 ADD PUSH1 0xE0 MLOAD MSTORE PUSH1 0x20 PUSH1 0xE0 MLOAD KECCAK256 PUSH1 0x1F DUP5 ADD PUSH1 0x5 SHR DUP2 ADD PUSH1 0x20 DUP6 LT PUSH3 0xCA6 JUMPI JUMPDEST SWAP1 DUP5 SWAP4 SWAP3 SWAP2 JUMPDEST PUSH1 0x1F DUP4 ADD PUSH1 0x5 SHR DUP3 ADD DUP2 LT PUSH3 0xC96 JUMPI POP POP PUSH3 0x98D JUMP JUMPDEST PUSH1 0x0 DUP2 SSTORE DUP6 SWAP5 POP PUSH1 0x1 ADD PUSH3 0xC7E JUMP JUMPDEST POP DUP1 PUSH3 0xC78 JUMP JUMPDEST PUSH4 0x4E487B71 PUSH1 0xE0 SHL SWAP1 MSTORE PUSH1 0x41 PUSH1 0x4 MSTORE PUSH1 0xE0 MLOAD PUSH1 0x24 SWAP1 REVERT JUMPDEST PUSH1 0x40 MLOAD SWAP1 RETURNDATASIZE SWAP1 DUP3 RETURNDATACOPY RETURNDATASIZE SWAP1 REVERT JUMPDEST PUSH4 0x4E487B71 PUSH1 0xE0 SHL PUSH1 0xE0 MLOAD MSTORE PUSH1 0x41 PUSH1 0x4 MSTORE PUSH1 0x24 PUSH1 0xE0 MLOAD REVERT JUMPDEST PUSH1 0x40 MLOAD PUSH4 0xD92E233D PUSH1 0xE0 SHL DUP2 MSTORE PUSH1 0x4 SWAP1 REVERT JUMPDEST PUSH1 0x40 MLOAD PUSH4 0x313B285 PUSH1 0xE0 SHL DUP2 MSTORE PUSH1 0x4 SWAP1 REVERT JUMPDEST CALLVALUE PUSH3 0x1F2 JUMPI PUSH1 0x40 CALLDATASIZE PUSH1 0x3 NOT ADD SLT PUSH3 0x1F2 JUMPI PUSH3 0xD56 PUSH1 0x4 CALLDATALOAD PUSH3 0xD31 PUSH3 0x3AF3 JUMP JUMPDEST SWAP1 DUP1 PUSH1 0xE0 MLOAD MSTORE PUSH1 0x1 PUSH1 0x20 MSTORE PUSH3 0xD50 PUSH1 0x1 PUSH1 0x40 PUSH1 0xE0 MLOAD KECCAK256 ADD SLOAD PUSH3 0x3D8F JUMP JUMPDEST PUSH3 0x3EE6 JUMP JUMPDEST POP PUSH1 0xE0 MLOAD DUP1 RETURN JUMPDEST CALLVALUE PUSH3 0x1F2 JUMPI PUSH1 0x20 CALLDATASIZE PUSH1 0x3 NOT ADD SLT PUSH3 0x1F2 JUMPI PUSH1 0x40 MLOAD PUSH3 0xD7E DUP2 PUSH3 0x3BB7 JUMP JUMPDEST PUSH1 0xE0 MLOAD DUP2 MSTORE PUSH1 0x60 PUSH1 0x20 DUP3 ADD MSTORE PUSH1 0xE0 MLOAD PUSH1 0x40 DUP3 ADD MSTORE PUSH1 0xE0 MLOAD PUSH1 0x60 DUP3 ADD MSTORE PUSH1 0xE0 MLOAD PUSH1 0x80 DUP3 ADD MSTORE PUSH1 0xE0 MLOAD PUSH1 0xA0 DUP3 ADD MSTORE PUSH1 0xE0 MLOAD PUSH1 0xC0 DUP3 ADD MSTORE PUSH1 0xE0 MLOAD PUSH1 0xE0 DUP3 ADD MSTORE PUSH1 0xE0 MLOAD PUSH2 0x100 DUP3 ADD MSTORE PUSH1 0xE0 MLOAD PUSH2 0x120 DUP3 ADD MSTORE PUSH1 0xE0 MLOAD PUSH2 0x140 DUP3 ADD MSTORE PUSH2 0x160 PUSH1 0xE0 MLOAD SWAP2 ADD MSTORE PUSH1 0x4 CALLDATALOAD PUSH1 0xE0 MLOAD MSTORE PUSH1 0x5 PUSH1 0x20 MSTORE PUSH1 0x40 PUSH1 0xE0 MLOAD KECCAK256 PUSH1 0x40 MLOAD SWAP1 PUSH3 0xDFF DUP3 PUSH3 0x3BB7 JUMP JUMPDEST DUP1 SLOAD DUP3 MSTORE PUSH3 0xE11 PUSH1 0x1 DUP3 ADD PUSH3 0x3C2A JUMP JUMPDEST PUSH1 0x20 DUP4 ADD MSTORE PUSH1 0x2 DUP2 ADD SLOAD PUSH1 0x1 PUSH1 0x1 PUSH1 0xA0 SHL SUB SWAP1 DUP2 AND PUSH1 0x40 DUP5 ADD MSTORE PUSH1 0x3 DUP3 ADD SLOAD AND PUSH1 0x60 DUP4 ADD MSTORE PUSH1 0x4 DUP1 DUP3 ADD SLOAD PUSH1 0x80 DUP5 ADD MSTORE PUSH1 0x5 DUP3 ADD SLOAD PUSH1 0xA0 DUP5 ADD MSTORE PUSH1 0x6 DUP3 ADD SLOAD PUSH1 0xC0 DUP5 ADD MSTORE PUSH1 0x7 DUP3 ADD SLOAD PUSH1 0xFF DUP2 AND SWAP2 DUP3 LT ISZERO PUSH3 0xF79 JUMPI PUSH1 0xFF SWAP2 PUSH1 0xE0 DUP6 ADD MSTORE PUSH1 0x8 SHR AND PUSH3 0xE7E DUP2 PUSH3 0x3AB6 JUMP JUMPDEST PUSH2 0x100 DUP4 ADD MSTORE PUSH1 0x8 DUP2 ADD SLOAD PUSH2 0x120 DUP4 ADD MSTORE PUSH1 0x9 DUP2 ADD SLOAD PUSH2 0x140 DUP4 ADD MSTORE PUSH1 0xA PUSH1 0x1 DUP1 PUSH1 0xA0 SHL SUB SWAP2 ADD SLOAD AND PUSH2 0x160 DUP3 ADD MSTORE PUSH1 0x40 MLOAD DUP1 SWAP2 PUSH1 0x20 DUP3 MSTORE DUP1 MLOAD PUSH1 0x20 DUP4 ADD MSTORE PUSH3 0xEDA PUSH1 0x20 DUP3 ADD MLOAD PUSH2 0x180 PUSH1 0x40 DUP6 ADD MSTORE PUSH2 0x1A0 DUP5 ADD SWAP1 PUSH3 0x3D01 JUMP JUMPDEST SWAP1 PUSH1 0x1 DUP1 PUSH1 0xA0 SHL SUB PUSH1 0x40 DUP3 ADD MLOAD AND PUSH1 0x60 DUP5 ADD MSTORE PUSH1 0x1 DUP1 PUSH1 0xA0 SHL SUB PUSH1 0x60 DUP3 ADD MLOAD AND PUSH1 0x80 DUP5 ADD MSTORE PUSH1 0x80 DUP2 ADD MLOAD PUSH1 0xA0 DUP5 ADD MSTORE PUSH1 0xA0 DUP2 ADD MLOAD PUSH1 0xC0 DUP5 ADD MSTORE PUSH1 0xC0 DUP2 ADD MLOAD PUSH1 0xE0 DUP5 ADD MSTORE PUSH3 0xF32 PUSH1 0xE0 DUP3 ADD MLOAD PUSH2 0x100 DUP6 ADD SWAP1 PUSH3 0x3D28 JUMP JUMPDEST PUSH2 0x100 DUP2 ADD MLOAD PUSH3 0xF43 DUP2 PUSH3 0x3AB6 JUMP JUMPDEST PUSH2 0x120 DUP5 ADD MSTORE PUSH2 0x120 DUP2 ADD MLOAD PUSH2 0x140 DUP5 ADD MSTORE PUSH2 0x140 DUP2 ADD MLOAD PUSH2 0x160 DUP5 ADD MSTORE PUSH2 0x160 PUSH1 0x1 DUP1 PUSH1 0xA0 SHL SUB SWAP2 ADD MLOAD AND PUSH2 0x180 DUP4 ADD MSTORE SUB SWAP1 RETURN JUMPDEST PUSH4 0x4E487B71 PUSH1 0xE0 SHL PUSH1 0x0 MSTORE PUSH1 0x21 PUSH1 0x4 MSTORE PUSH1 0x24 PUSH1 0x0 REVERT JUMPDEST CALLVALUE PUSH3 0x1F2 JUMPI PUSH1 0x20 CALLDATASIZE PUSH1 0x3 NOT ADD SLT PUSH3 0x1F2 JUMPI PUSH1 0x4 CALLDATALOAD DUP1 PUSH1 0xE0 MLOAD MSTORE PUSH1 0x5 PUSH1 0x20 MSTORE PUSH1 0x0 DUP1 MLOAD PUSH1 0x20 PUSH3 0x525E DUP4 CODECOPY DUP2 MLOAD SWAP2 MSTORE PUSH1 0x40 PUSH1 0xFF PUSH3 0xFF2 PUSH1 0x7 DUP4 PUSH1 0xE0 MLOAD KECCAK256 PUSH3 0xFD9 DUP2 PUSH3 0x422C JUMP JUMPDEST ADD DUP1 SLOAD SWAP1 PUSH1 0x3 DUP5 NOT DUP4 AND OR SWAP1 SSTORE DUP4 MLOAD SWAP3 DUP4 SWAP2 AND PUSH3 0x3D28 JUMP JUMPDEST PUSH1 0x3 PUSH1 0x20 DUP3 ADD MSTORE LOG2 PUSH1 0xE0 MLOAD DUP1 RETURN JUMPDEST CALLVALUE PUSH3 0x1F2 JUMPI PUSH1 0xC0 CALLDATASIZE PUSH1 0x3 NOT ADD SLT PUSH3 0x1F2 JUMPI PUSH1 0x2 PUSH1 0x24 CALLDATALOAD LT ISZERO PUSH3 0x1F2 JUMPI PUSH1 0x3 PUSH1 0x44 CALLDATALOAD LT ISZERO PUSH3 0x1F2 JUMPI PUSH3 0x1035 PUSH3 0x4010 JUMP JUMPDEST PUSH1 0x4 CALLDATALOAD PUSH1 0xE0 MLOAD MSTORE PUSH1 0x5 PUSH1 0x20 MSTORE PUSH1 0xE0 MLOAD PUSH1 0x40 DUP2 KECCAK256 SWAP1 PUSH1 0xFF PUSH1 0x7 DUP4 ADD SLOAD AND SWAP1 PUSH1 0x4 DUP3 LT ISZERO PUSH3 0x5DF JUMPI POP PUSH3 0x2989 JUMPI PUSH1 0x64 CALLDATALOAD ISZERO DUP1 ISZERO PUSH3 0x297A JUMPI JUMPDEST PUSH3 0x2969 JUMPI PUSH3 0x1080 PUSH1 0x44 CALLDATALOAD PUSH3 0x3AB6 JUMP JUMPDEST PUSH1 0x2 PUSH1 0x44 CALLDATALOAD EQ PUSH3 0x5A9 JUMPI PUSH1 0x84 CALLDATALOAD ISZERO PUSH3 0x288C JUMPI PUSH1 0x1 PUSH1 0x24 CALLDATALOAD EQ PUSH3 0x289E JUMPI JUMPDEST POP PUSH3 0x10B4 PUSH1 0x84 CALLDATALOAD PUSH1 0x64 CALLDATALOAD PUSH1 0x24 CALLDATALOAD PUSH3 0x4104 JUMP JUMPDEST PUSH1 0x2 SLOAD DUP2 LT PUSH3 0x288C JUMPI PUSH1 0x3 SLOAD PUSH3 0x10CC DUP2 PUSH3 0x3FDD JUMP JUMPDEST PUSH1 0x3 SSTORE PUSH1 0x40 MLOAD SWAP1 CALLER PUSH1 0x60 SHL PUSH1 0x20 DUP4 ADD MSTORE PUSH1 0x34 DUP3 ADD MSTORE TIMESTAMP PUSH1 0x54 DUP3 ADD MSTORE PUSH1 0x54 DUP2 MSTORE DUP1 PUSH1 0x80 DUP2 ADD LT PUSH8 0xFFFFFFFFFFFFFFFF PUSH1 0x80 DUP4 ADD GT OR PUSH3 0xBA3 JUMPI PUSH1 0x80 DUP2 DUP2 ADD PUSH1 0x40 MSTORE DUP2 MLOAD PUSH1 0x20 DUP4 ADD KECCAK256 SWAP1 MSTORE PUSH32 0x0 PUSH1 0x1 PUSH1 0x1 PUSH1 0xA0 SHL SUB AND EXTCODESIZE ISZERO PUSH3 0x1F2 JUMPI PUSH4 0x47A7D107 PUSH1 0xE0 SHL PUSH1 0x80 DUP3 ADD SWAP1 DUP2 MSTORE PUSH1 0xE0 DUP1 MLOAD CALLER PUSH1 0x84 DUP6 ADD MSTORE PUSH1 0xA4 DUP5 ADD DUP6 SWAP1 MSTORE SWAP1 MLOAD SWAP1 SWAP2 SWAP1 PUSH1 0x44 SWAP1 DUP3 SWAP1 PUSH32 0x0 PUSH1 0x1 PUSH1 0x1 PUSH1 0xA0 SHL SUB AND GAS CALL DUP1 ISZERO PUSH3 0x4BF JUMPI PUSH3 0x2871 JUMPI JUMPDEST POP PUSH1 0x40 MLOAD SWAP1 PUSH3 0x11BA DUP3 PUSH3 0x3BB7 JUMP JUMPDEST PUSH1 0x80 MLOAD DUP3 MSTORE PUSH1 0x4 CALLDATALOAD PUSH1 0x20 DUP4 ADD MSTORE CALLER PUSH1 0x40 DUP4 ADD MSTORE PUSH3 0x11DE PUSH1 0x24 CALLDATALOAD PUSH1 0x60 DUP5 ADD PUSH3 0x4003 JUMP JUMPDEST PUSH3 0x11EB PUSH1 0x44 CALLDATALOAD PUSH3 0x3AB6 JUMP JUMPDEST PUSH1 0x44 CALLDATALOAD PUSH1 0x80 DUP4 ADD MSTORE PUSH1 0x64 CALLDATALOAD PUSH1 0xA0 DUP4 ADD MSTORE PUSH1 0x84 CALLDATALOAD PUSH1 0xC0 DUP4 ADD MSTORE PUSH1 0xE0 MLOAD PUSH1 0xE0 DUP4 ADD MSTORE PUSH2 0x100 DUP3 ADD MSTORE PUSH1 0xE0 MLOAD PUSH2 0x120 DUP3 ADD MSTORE TIMESTAMP PUSH2 0x140 DUP3 ADD MSTORE PUSH1 0xA4 CALLDATALOAD PUSH2 0x160 DUP3 ADD MSTORE PUSH1 0x80 MLOAD PUSH1 0xE0 MLOAD MSTORE PUSH1 0x6 PUSH1 0x20 MSTORE PUSH1 0xE0 MLOAD SWAP1 PUSH1 0x40 DUP3 KECCAK256 SWAP2 DUP2 MLOAD DUP4 SSTORE PUSH1 0x20 DUP3 ADD MLOAD PUSH1 0x1 DUP5 ADD SSTORE PUSH1 0x1 DUP1 PUSH1 0xA0 SHL SUB PUSH1 0x40 DUP4 ADD MLOAD AND PUSH1 0x2 DUP5 ADD SLOAD SWAP1 PUSH1 0x60 DUP5 ADD MLOAD SWAP3 PUSH1 0x2 DUP5 LT ISZERO PUSH3 0x5DF JUMPI POP PUSH1 0x80 DUP5 ADD MLOAD PUSH3 0x1281 DUP2 PUSH3 0x3AB6 JUMP JUMPDEST PUSH3 0x128C DUP2 PUSH3 0x3AB6 JUMP JUMPDEST PUSH1 0xFF PUSH1 0xA8 SHL SWAP1 PUSH1 0xA8 SHL AND SWAP3 PUSH1 0xFF PUSH1 0xA0 SHL SWAP1 PUSH1 0xA0 SHL AND SWAP2 PUSH10 0xFFFFFFFFFFFFFFFFFFFF PUSH1 0xB0 SHL AND OR OR OR PUSH1 0x2 DUP4 ADD SSTORE PUSH1 0xA0 DUP2 ADD MLOAD PUSH1 0x3 DUP4 ADD SSTORE PUSH1 0xC0 DUP2 ADD MLOAD PUSH1 0x4 DUP4 ADD SSTORE PUSH1 0xE0 DUP2 ADD MLOAD PUSH1 0x5 DUP4 ADD SSTORE PUSH2 0x100 DUP2 ADD MLOAD PUSH1 0x6 DUP4 ADD SSTORE PUSH2 0x120 DUP2 ADD MLOAD PUSH1 0x5 DUP2 LT ISZERO PUSH3 0xBB9 JUMPI PUSH1 0x9 SWAP2 PUSH2 0x160 SWAP2 PUSH1 0xFF DUP1 NOT PUSH1 0x7 DUP8 ADD SLOAD AND SWAP2 AND OR PUSH1 0x7 DUP6 ADD SSTORE PUSH2 0x140 DUP2 ADD MLOAD PUSH1 0x8 DUP6 ADD SSTORE ADD MLOAD SWAP2 ADD SSTORE PUSH1 0x4 CALLDATALOAD PUSH1 0xE0 MLOAD MSTORE PUSH1 0x7 PUSH1 0x20 MSTORE PUSH1 0x40 PUSH1 0xE0 MLOAD KECCAK256 PUSH3 0x133A PUSH1 0x44 CALLDATALOAD PUSH3 0x3AB6 JUMP JUMPDEST PUSH1 0x44 CALLDATALOAD PUSH1 0xE0 MLOAD MSTORE PUSH1 0x20 MSTORE PUSH3 0x1364 PUSH1 0x80 MLOAD PUSH3 0x135E PUSH1 0x24 CALLDATALOAD PUSH1 0x40 PUSH1 0xE0 MLOAD KECCAK256 PUSH3 0x3AC1 JUMP JUMPDEST PUSH3 0x3F9C JUMP JUMPDEST CALLER PUSH1 0xE0 MLOAD MSTORE PUSH1 0x8 PUSH1 0x20 MSTORE PUSH3 0x1381 PUSH1 0x80 MLOAD PUSH1 0x40 PUSH1 0xE0 MLOAD KECCAK256 PUSH3 0x3F9C JUMP JUMPDEST PUSH1 0x40 MLOAD PUSH3 0x1392 DUP2 PUSH1 0x24 CALLDATALOAD PUSH3 0x3B5E JUMP JUMPDEST PUSH3 0x139F PUSH1 0x44 CALLDATALOAD PUSH3 0x3AB6 JUMP JUMPDEST PUSH1 0x44 CALLDATALOAD PUSH1 0x20 DUP3 ADD MSTORE PUSH1 0x64 CALLDATALOAD PUSH1 0x40 DUP3 ADD MSTORE PUSH1 0x84 CALLDATALOAD PUSH1 0x60 DUP3 ADD MSTORE PUSH1 0x80 MLOAD SWAP1 CALLER SWAP1 DUP3 PUSH32 0x4F8271A1B8113303635A3D766A78CFF97A00AFBF1B9B0AC18E5490FE68AA1EC5 PUSH1 0x80 PUSH1 0x4 CALLDATALOAD SWAP4 LOG4 PUSH1 0xE0 MLOAD MSTORE PUSH1 0x6 PUSH1 0x20 MSTORE PUSH1 0xE0 MLOAD PUSH1 0x1 PUSH1 0x40 DUP3 KECCAK256 DUP1 PUSH1 0xA0 MSTORE ADD SLOAD DUP1 SWAP2 MSTORE PUSH1 0x5 PUSH1 0x20 MSTORE PUSH1 0xE0 MLOAD SWAP1 PUSH1 0x40 DUP3 KECCAK256 PUSH2 0x140 MSTORE PUSH1 0x2 PUSH1 0xA0 MLOAD ADD SLOAD PUSH1 0x2 PUSH1 0xFF DUP3 PUSH1 0xA0 SHR AND LT ISZERO PUSH3 0x285A JUMPI PUSH3 0x147A SWAP3 POP PUSH1 0xE0 MLOAD SWAP2 DUP3 PUSH1 0xFF DUP4 PUSH1 0xA0 SHR AND ISZERO PUSH1 0x0 EQ PUSH3 0x2853 JUMPI POP PUSH1 0x1 SWAP3 JUMPDEST MSTORE PUSH1 0x7 PUSH1 0x20 MSTORE PUSH1 0xFF PUSH1 0x40 PUSH1 0xE0 MLOAD KECCAK256 SWAP2 PUSH1 0xA8 SHR AND PUSH3 0x1467 DUP2 PUSH3 0x3AB6 JUMP JUMPDEST PUSH1 0xE0 MLOAD MSTORE PUSH1 0x20 MSTORE PUSH1 0x40 PUSH1 0xE0 MLOAD KECCAK256 PUSH3 0x3AC1 JUMP JUMPDEST PUSH1 0xE0 MLOAD JUMPDEST DUP2 SLOAD DUP2 LT DUP1 PUSH3 0x283E JUMPI JUMPDEST ISZERO PUSH3 0x193F JUMPI PUSH3 0x149B DUP2 DUP4 PUSH3 0x3ADA JUMP JUMPDEST SWAP1 SLOAD SWAP1 PUSH1 0x3 SHL SHR SWAP1 DUP2 PUSH1 0xE0 MLOAD MSTORE PUSH1 0x6 PUSH1 0x20 MSTORE PUSH1 0x40 PUSH1 0xE0 MLOAD KECCAK256 PUSH3 0x14BE DUP2 PUSH3 0x409F JUMP JUMPDEST ISZERO PUSH3 0x1932 JUMPI PUSH1 0xFF PUSH1 0x2 PUSH1 0xA0 MLOAD ADD SLOAD PUSH1 0xA0 SHR AND PUSH1 0x2 DUP2 LT ISZERO PUSH3 0xBB9 JUMPI PUSH3 0x191F JUMPI PUSH1 0x3 DUP1 PUSH1 0xA0 MLOAD ADD SLOAD SWAP2 ADD SLOAD GT ISZERO JUMPDEST ISZERO PUSH3 0x1913 JUMPI PUSH1 0x1 PUSH1 0xA0 MLOAD ADD SLOAD DUP3 PUSH1 0x0 MSTORE PUSH1 0x6 PUSH1 0x20 MSTORE PUSH1 0x40 PUSH1 0x0 KECCAK256 PUSH1 0x80 MLOAD PUSH1 0x0 MSTORE PUSH1 0x40 PUSH1 0x0 KECCAK256 SWAP2 PUSH3 0x152A PUSH1 0x4 DUP4 ADD SLOAD PUSH1 0x5 DUP5 ADD SLOAD SWAP1 PUSH3 0x4034 JUMP JUMPDEST PUSH3 0x153F PUSH1 0x4 DUP6 ADD SLOAD PUSH1 0x5 DUP7 ADD SLOAD SWAP1 PUSH3 0x4034 JUMP JUMPDEST DUP1 DUP3 LT ISZERO PUSH3 0x190A JUMPI POP SWAP3 JUMPDEST PUSH1 0x3 DUP4 ADD SLOAD SWAP6 PUSH1 0x4 SLOAD PUSH3 0x155F DUP2 PUSH3 0x3FDD JUMP JUMPDEST PUSH1 0x4 SSTORE PUSH1 0x40 MLOAD PUSH1 0x20 DUP2 ADD SWAP2 DUP3 MSTORE TIMESTAMP PUSH1 0x40 DUP3 ADD MSTORE PUSH1 0x40 DUP2 MSTORE PUSH3 0x1581 DUP2 PUSH3 0x3BEA JUMP JUMPDEST MLOAD SWAP1 KECCAK256 SWAP7 PUSH3 0x1595 DUP7 PUSH1 0x5 DUP8 ADD SLOAD PUSH3 0x4091 JUMP JUMPDEST PUSH1 0x5 DUP7 ADD SSTORE PUSH3 0x15AA DUP7 PUSH1 0x5 DUP6 ADD SLOAD PUSH3 0x4091 JUMP JUMPDEST PUSH1 0x5 DUP5 ADD SSTORE PUSH1 0xFF PUSH1 0x2 DUP7 ADD SLOAD PUSH1 0xA0 SHR AND SWAP5 PUSH1 0x2 DUP7 LT ISZERO PUSH3 0xF79 JUMPI DUP6 PUSH3 0x1900 JUMPI PUSH1 0x1 DUP2 SWAP7 JUMPDEST SUB PUSH3 0x18F8 JUMPI DUP1 SWAP6 JUMPDEST PUSH2 0x2710 PUSH3 0x15E8 DUP5 DUP11 PUSH3 0x4042 JUMP JUMPDEST PUSH1 0x2 DUP4 DUP2 ADD SLOAD SWAP1 DUP11 ADD SLOAD SWAP3 SWAP1 SWAP2 DIV SWAP2 PUSH1 0x1 PUSH1 0x1 PUSH1 0xA0 SHL SUB SWAP2 DUP3 AND SWAP2 SWAP1 DUP2 AND SWAP1 PUSH32 0x0 AND EXTCODESIZE ISZERO PUSH3 0x574 JUMPI PUSH1 0x40 MLOAD PUSH3 0x30582B PUSH1 0xE8 SHL DUP2 MSTORE PUSH1 0x1 PUSH1 0x1 PUSH1 0xA0 SHL SUB SWAP3 DUP4 AND PUSH1 0x4 DUP3 ADD MSTORE SWAP2 AND PUSH1 0x24 DUP3 ADD MSTORE PUSH1 0x44 DUP2 ADD SWAP2 SWAP1 SWAP2 MSTORE PUSH1 0x0 DUP2 DUP1 PUSH1 0x64 DUP2 ADD SUB DUP2 DUP4 PUSH32 0x0 PUSH1 0x1 PUSH1 0x1 PUSH1 0xA0 SHL SUB AND GAS CALL DUP1 ISZERO PUSH3 0x18B0 JUMPI PUSH3 0x18E6 JUMPI JUMPDEST POP PUSH1 0xFF PUSH1 0x2 DUP3 ADD SLOAD PUSH1 0xA8 SHR AND PUSH3 0x16B6 DUP2 PUSH3 0x3AB6 JUMP JUMPDEST PUSH3 0x18CE JUMPI PUSH2 0x140 MLOAD PUSH1 0x2 ADD SLOAD PUSH1 0x1 PUSH1 0x1 PUSH1 0xA0 SHL SUB AND SWAP7 JUMPDEST PUSH1 0x2 ADD SLOAD PUSH1 0x1 PUSH1 0x1 PUSH1 0xA0 SHL SUB SWAP1 DUP2 AND SWAP1 DUP9 AND EXTCODESIZE ISZERO PUSH3 0x574 JUMPI PUSH1 0x40 MLOAD PUSH4 0x2770A7EB PUSH1 0xE2 SHL DUP2 MSTORE PUSH1 0x1 PUSH1 0x1 PUSH1 0xA0 SHL SUB SWAP1 SWAP2 AND PUSH1 0x4 DUP3 ADD MSTORE PUSH1 0x24 DUP2 ADD DUP10 SWAP1 MSTORE PUSH1 0x0 DUP2 DUP1 PUSH1 0x44 DUP2 ADD SUB DUP2 DUP4 PUSH1 0x1 PUSH1 0x1 PUSH1 0xA0 SHL SUB DUP14 AND GAS CALL DUP1 ISZERO PUSH3 0x18B0 JUMPI PUSH3 0x18BC JUMPI JUMPDEST POP PUSH1 0x2 ADD SLOAD PUSH1 0x1 PUSH1 0x1 PUSH1 0xA0 SHL SUB SWAP1 DUP2 AND SWAP7 SWAP1 DUP2 AND EXTCODESIZE ISZERO PUSH3 0x574 JUMPI PUSH1 0x40 MLOAD PUSH4 0x40C10F19 PUSH1 0xE0 SHL DUP2 MSTORE PUSH1 0x1 PUSH1 0x1 PUSH1 0xA0 SHL SUB SWAP8 DUP9 AND PUSH1 0x4 DUP3 ADD MSTORE PUSH1 0x24 DUP2 ADD DUP10 SWAP1 MSTORE SWAP7 PUSH1 0x0 SWAP2 DUP9 SWAP2 PUSH1 0x44 SWAP2 DUP4 SWAP2 DUP6 SWAP2 AND GAS CALL SWAP5 DUP6 ISZERO PUSH3 0x18B0 JUMPI PUSH1 0x1 SWAP10 PUSH32 0xA891D459CC19A94041344FD3F05544A8E2AC8CD799B693377166F326745DB076 PUSH1 0xA0 PUSH3 0x182D SWAP6 PUSH1 0x40 SWAP11 PUSH3 0x186E SWAP11 PUSH3 0x189E JUMPI JUMPDEST POP PUSH1 0x5 DUP7 ADD SLOAD PUSH1 0x4 DUP8 ADD SLOAD SUB PUSH3 0x188A JUMPI PUSH1 0x7 DUP7 ADD PUSH1 0x2 PUSH1 0xFF NOT DUP3 SLOAD AND OR SWAP1 SSTORE PUSH3 0x17FC DUP9 PUSH1 0x2 DUP9 ADD SLOAD PUSH1 0xFF DUP1 DUP3 DUP8 SHR AND SWAP2 PUSH1 0xA8 SHR AND DUP9 PUSH3 0x4130 JUMP JUMPDEST DUP11 MLOAD SWAP1 DUP9 DUP3 MSTORE PUSH1 0x80 MLOAD PUSH1 0x20 DUP4 ADD MSTORE PUSH1 0x0 DUP13 DUP4 ADD MSTORE DUP13 PUSH1 0x60 DUP4 ADD MSTORE PUSH1 0x80 DUP3 ADD MSTORE LOG3 PUSH1 0x5 PUSH1 0x4 DUP3 ADD SLOAD SWAP2 ADD SLOAD SWAP1 PUSH3 0x4034 JUMP JUMPDEST DUP5 MLOAD SWAP1 DUP7 DUP3 MSTORE PUSH1 0x20 DUP3 ADD MSTORE PUSH32 0xB38583F2ADB435CAC858DB9D3E8D3CA952CCB32307E2F3D0053B415D2D293481 SWAP5 DUP6 SWAP2 LOG2 PUSH1 0x5 PUSH1 0x4 DUP3 ADD SLOAD SWAP2 ADD SLOAD SWAP1 PUSH3 0x4034 JUMP JUMPDEST PUSH1 0x40 MLOAD SWAP3 DUP4 MSTORE PUSH1 0x20 DUP4 ADD MSTORE PUSH1 0x40 PUSH1 0x80 MLOAD SWAP3 LOG2 ADD SWAP1 JUMPDEST SWAP1 PUSH3 0x147E JUMP JUMPDEST PUSH1 0x7 DUP7 ADD DUP1 SLOAD PUSH1 0xFF NOT AND DUP16 OR SWAP1 SSTORE PUSH3 0x17FC JUMP JUMPDEST PUSH3 0x18A9 SWAP1 PUSH3 0x3BD5 JUMP JUMPDEST DUP16 PUSH3 0x17BF JUMP JUMPDEST PUSH1 0x40 MLOAD RETURNDATASIZE PUSH1 0x0 DUP3 RETURNDATACOPY RETURNDATASIZE SWAP1 REVERT JUMPDEST PUSH3 0x18C7 SWAP1 PUSH3 0x3BD5 JUMP JUMPDEST DUP12 PUSH3 0x172F JUMP JUMPDEST PUSH2 0x140 MLOAD PUSH1 0x3 ADD SLOAD PUSH1 0x1 PUSH1 0x1 PUSH1 0xA0 SHL SUB AND SWAP7 PUSH3 0x16CE JUMP JUMPDEST PUSH3 0x18F1 SWAP1 PUSH3 0x3BD5 JUMP JUMPDEST DUP12 PUSH3 0x169F JUMP JUMPDEST DUP4 SWAP6 PUSH3 0x15D9 JUMP JUMPDEST PUSH1 0x1 DUP5 SWAP7 PUSH3 0x15D0 JUMP JUMPDEST SWAP1 POP SWAP3 PUSH3 0x154B JUMP JUMPDEST PUSH1 0x1 SWAP2 POP ADD SWAP1 PUSH3 0x1883 JUMP JUMPDEST PUSH1 0x3 DUP1 PUSH1 0xA0 MLOAD ADD SLOAD SWAP2 ADD SLOAD LT ISZERO PUSH3 0x14EE JUMP JUMPDEST POP PUSH1 0x1 SWAP2 POP ADD SWAP1 PUSH3 0x1883 JUMP JUMPDEST PUSH1 0x2 PUSH1 0xA0 MLOAD ADD SLOAD PUSH1 0x2 PUSH1 0xFF DUP3 PUSH1 0xA0 SHR AND LT ISZERO PUSH3 0xBB9 JUMPI PUSH1 0xFF DUP2 PUSH1 0xA0 SHR AND ISZERO DUP1 PUSH3 0x2829 JUMPI JUMPDEST PUSH3 0x221F JUMPI JUMPDEST POP PUSH1 0x2 PUSH1 0xA0 MLOAD ADD SLOAD PUSH1 0x2 PUSH1 0xFF DUP3 PUSH1 0xA0 SHR AND LT ISZERO PUSH3 0xBB9 JUMPI PUSH1 0x1 PUSH1 0xFF DUP3 PUSH1 0xA0 SHR AND EQ DUP1 PUSH3 0x220A JUMPI JUMPDEST PUSH3 0x1A1A JUMPI JUMPDEST POP PUSH1 0xA0 MLOAD PUSH1 0x5 DUP2 ADD SLOAD PUSH1 0x4 DUP3 ADD SLOAD DUP2 SUB PUSH3 0x19F8 JUMPI POP DUP1 PUSH1 0x7 PUSH3 0x19E6 SWAP3 ADD PUSH1 0x2 PUSH1 0xFF NOT DUP3 SLOAD AND OR SWAP1 SSTORE PUSH1 0x2 PUSH1 0x1 DUP3 ADD SLOAD SWAP2 ADD SLOAD PUSH1 0x80 MLOAD SWAP2 PUSH1 0xFF DUP1 DUP4 PUSH1 0xA0 SHR AND SWAP3 PUSH1 0xA8 SHR AND SWAP1 PUSH3 0x4130 JUMP JUMPDEST PUSH1 0x1 PUSH1 0xE0 MLOAD SSTORE PUSH1 0x20 PUSH1 0x40 MLOAD PUSH1 0x80 MLOAD DUP2 MSTORE RETURN JUMPDEST PUSH3 0x1A05 JUMPI JUMPDEST POP PUSH3 0x19E6 JUMP JUMPDEST PUSH1 0x7 ADD DUP1 SLOAD PUSH1 0xFF NOT AND PUSH1 0x1 OR SWAP1 SSTORE DUP1 PUSH3 0x19FE JUMP JUMPDEST PUSH1 0xA8 SHR PUSH1 0xFF AND PUSH3 0x1A2B DUP2 PUSH3 0x3AB6 JUMP JUMPDEST PUSH1 0xE0 MLOAD DUP1 SWAP2 ISZERO PUSH1 0x0 EQ PUSH3 0x2203 JUMPI POP PUSH1 0x1 SWAP1 JUMPDEST PUSH1 0x1 PUSH1 0xA0 MLOAD ADD SLOAD SWAP1 MSTORE PUSH1 0x7 PUSH1 0x20 MSTORE PUSH1 0x40 PUSH1 0xE0 MLOAD KECCAK256 SWAP1 PUSH3 0x1A5E DUP2 PUSH3 0x3AB6 JUMP JUMPDEST PUSH1 0xE0 MLOAD MSTORE PUSH1 0x20 MSTORE PUSH1 0xE0 MLOAD PUSH1 0x40 DUP2 KECCAK256 PUSH1 0x1 PUSH1 0x0 MSTORE PUSH1 0x20 MSTORE PUSH1 0x40 PUSH1 0x0 KECCAK256 PUSH2 0x120 MSTORE PUSH2 0x160 MSTORE JUMPDEST PUSH2 0x120 MLOAD DUP1 SLOAD PUSH2 0x160 MLOAD SWAP1 DUP2 LT DUP1 PUSH3 0x21EE JUMPI JUMPDEST ISZERO PUSH3 0x21E5 JUMPI PUSH3 0x1AA7 SWAP2 PUSH3 0x3ADA JUMP JUMPDEST SWAP1 SLOAD SWAP1 PUSH1 0x3 SHL SHR DUP1 PUSH1 0xE0 MLOAD MSTORE PUSH1 0x6 PUSH1 0x20 MSTORE PUSH1 0x40 PUSH1 0xE0 MLOAD KECCAK256 PUSH3 0x1AC9 DUP2 PUSH3 0x409F JUMP JUMPDEST ISZERO PUSH3 0x21D2 JUMPI PUSH3 0x1AE9 PUSH2 0x2710 SWAP2 PUSH1 0x3 DUP1 PUSH1 0xA0 MLOAD ADD SLOAD SWAP2 ADD SLOAD SWAP1 PUSH3 0x4091 JUMP JUMPDEST GT ISZERO PUSH3 0x1B03 JUMPI JUMPDEST POP PUSH1 0x1 PUSH2 0x160 MLOAD ADD PUSH2 0x160 MSTORE PUSH3 0x1A82 JUMP JUMPDEST PUSH1 0x1 PUSH1 0xA0 MLOAD ADD SLOAD SWAP1 DUP1 PUSH1 0x0 MSTORE PUSH1 0x6 PUSH1 0x20 MSTORE PUSH1 0x40 PUSH1 0x0 KECCAK256 SWAP1 PUSH1 0x80 MLOAD PUSH1 0x0 MSTORE PUSH1 0x40 PUSH1 0x0 KECCAK256 SWAP2 PUSH3 0x1B3F PUSH1 0x4 DUP3 ADD DUP1 PUSH1 0xC0 MSTORE SLOAD PUSH1 0x5 DUP4 ADD SLOAD SWAP1 PUSH3 0x4034 JUMP JUMPDEST PUSH3 0x1B54 PUSH1 0x4 DUP6 ADD SLOAD PUSH1 0x5 DUP7 ADD SLOAD SWAP1 PUSH3 0x4034 JUMP JUMPDEST DUP1 DUP3 LT ISZERO PUSH3 0x21C7 JUMPI POP PUSH2 0x100 MSTORE JUMPDEST PUSH1 0x3 DUP2 ADD SLOAD SWAP4 PUSH1 0x4 SLOAD PUSH3 0x1B77 DUP2 PUSH3 0x3FDD JUMP JUMPDEST PUSH1 0x4 SSTORE PUSH1 0x40 MLOAD PUSH1 0x20 DUP2 ADD SWAP2 DUP3 MSTORE TIMESTAMP PUSH1 0x40 DUP3 ADD MSTORE PUSH1 0x40 DUP2 MSTORE PUSH3 0x1B99 DUP2 PUSH3 0x3BEA JUMP JUMPDEST MLOAD SWAP1 KECCAK256 PUSH3 0x1BAF PUSH2 0x100 MLOAD PUSH1 0x5 DUP6 ADD SLOAD PUSH3 0x4091 JUMP JUMPDEST PUSH1 0x5 DUP5 ADD SSTORE PUSH3 0x1BC7 PUSH2 0x100 MLOAD PUSH1 0x5 DUP8 ADD SLOAD PUSH3 0x4091 JUMP JUMPDEST PUSH1 0x5 DUP7 ADD SSTORE PUSH1 0x0 SWAP6 PUSH1 0xFF PUSH1 0x2 DUP6 ADD SLOAD PUSH1 0xA8 SHR AND PUSH3 0x1BE5 DUP2 PUSH3 0x3AB6 JUMP JUMPDEST DUP1 PUSH3 0x21BD JUMPI PUSH1 0x1 DUP6 SWAP2 JUMPDEST PUSH3 0x1BFB DUP2 PUSH3 0x3AB6 JUMP JUMPDEST SUB PUSH3 0x21B6 JUMPI DUP5 JUMPDEST PUSH2 0x140 MLOAD PUSH1 0x2 SWAP1 DUP2 ADD SLOAD SWAP1 DUP4 ADD SLOAD PUSH1 0x1 PUSH1 0x1 PUSH1 0xA0 SHL SUB SWAP1 DUP2 AND SWAP2 AND DUP1 EXTCODESIZE ISZERO PUSH3 0x574 JUMPI PUSH1 0x40 MLOAD PUSH4 0x2770A7EB PUSH1 0xE2 SHL DUP2 MSTORE PUSH2 0x100 MLOAD PUSH1 0x1 PUSH1 0x1 PUSH1 0xA0 SHL SUB SWAP4 SWAP1 SWAP4 AND PUSH1 0x4 DUP3 ADD MSTORE PUSH1 0x24 DUP2 ADD SWAP3 SWAP1 SWAP3 MSTORE PUSH1 0x0 SWAP1 DUP3 SWAP1 PUSH1 0x44 SWAP1 DUP3 SWAP1 DUP5 SWAP1 GAS CALL DUP1 ISZERO PUSH3 0x18B0 JUMPI PUSH3 0x219F JUMPI JUMPDEST POP PUSH2 0x140 MLOAD PUSH1 0x3 ADD SLOAD PUSH1 0x2 DUP3 ADD SLOAD DUP11 SWAP2 PUSH1 0x1 PUSH1 0x1 PUSH1 0xA0 SHL SUB SWAP2 DUP3 AND SWAP2 AND DUP1 EXTCODESIZE ISZERO PUSH3 0x219B JUMPI PUSH1 0x40 MLOAD PUSH4 0x2770A7EB PUSH1 0xE2 SHL DUP2 MSTORE PUSH2 0x100 MLOAD PUSH1 0x1 PUSH1 0x1 PUSH1 0xA0 SHL SUB SWAP4 SWAP1 SWAP4 AND PUSH1 0x4 DUP3 ADD MSTORE PUSH1 0x24 DUP2 ADD SWAP3 SWAP1 SWAP3 MSTORE DUP3 SWAP1 DUP3 SWAP1 PUSH1 0x44 SWAP1 DUP3 SWAP1 DUP5 SWAP1 GAS CALL DUP1 ISZERO PUSH3 0x2158 JUMPI PUSH3 0x217F JUMPI JUMPDEST POP POP PUSH2 0x2710 PUSH3 0x1CEC PUSH1 0x3 DUP5 ADD SLOAD PUSH2 0x100 MLOAD PUSH3 0x4042 JUMP JUMPDEST DIV PUSH3 0x1CFC DUP2 PUSH2 0x100 MLOAD PUSH3 0x4034 JUMP JUMPDEST SWAP1 PUSH32 0x0 PUSH1 0x1 PUSH1 0x1 PUSH1 0xA0 SHL SUB AND EXTCODESIZE ISZERO PUSH3 0x217B JUMPI PUSH1 0x40 MLOAD PUSH4 0x2FE2E93 PUSH1 0xE3 SHL DUP2 MSTORE PUSH2 0x100 MLOAD ADDRESS PUSH1 0x4 DUP4 ADD MSTORE PUSH1 0x24 DUP3 ADD MSTORE DUP12 SWAP1 DUP2 DUP2 PUSH1 0x44 DUP2 DUP4 PUSH1 0x1 PUSH1 0x1 PUSH1 0xA0 SHL SUB PUSH32 0x0 AND GAS CALL DUP1 ISZERO PUSH3 0x2158 JUMPI PUSH3 0x2163 JUMPI JUMPDEST POP PUSH1 0x40 MLOAD PUSH4 0x2C805AF5 PUSH1 0xE2 SHL DUP2 MSTORE SWAP2 PUSH1 0x20 DUP4 PUSH1 0x4 DUP2 PUSH32 0x0 PUSH1 0x1 PUSH1 0x1 PUSH1 0xA0 SHL SUB AND GAS STATICCALL DUP1 ISZERO PUSH3 0x2158 JUMPI PUSH3 0x1E1F SWAP4 PUSH1 0x20 SWAP4 SWAP2 PUSH3 0x2136 JUMPI JUMPDEST POP PUSH1 0x2 DUP8 ADD SLOAD PUSH1 0x40 MLOAD PUSH4 0xA9059CBB PUSH1 0xE0 SHL DUP2 MSTORE PUSH1 0x1 PUSH1 0x1 PUSH1 0xA0 SHL SUB SWAP1 SWAP2 AND PUSH1 0x4 DUP3 ADD MSTORE PUSH1 0x24 DUP2 ADD SWAP3 SWAP1 SWAP3 MSTORE SWAP1 SWAP3 DUP4 SWAP2 SWAP1 DUP3 SWAP1 DUP16 SWAP1 DUP3 SWAP1 PUSH1 0x44 DUP3 ADD SWAP1 JUMP JUMPDEST SUB SWAP3 PUSH1 0x1 PUSH1 0x1 PUSH1 0xA0 SHL SUB AND GAS CALL DUP1 ISZERO PUSH3 0x2107 JUMPI PUSH3 0x2112 JUMPI JUMPDEST POP PUSH1 0x40 MLOAD PUSH4 0x2C805AF5 PUSH1 0xE2 SHL DUP2 MSTORE PUSH1 0x20 DUP2 PUSH1 0x4 DUP2 PUSH32 0x0 PUSH1 0x1 PUSH1 0x1 PUSH1 0xA0 SHL SUB AND GAS STATICCALL SWAP2 DUP3 ISZERO PUSH3 0x2107 JUMPI PUSH3 0x1ECE SWAP3 PUSH1 0x20 SWAP3 DUP14 SWAP2 PUSH3 0x20E5 JUMPI JUMPDEST POP PUSH1 0x2 DUP6 ADD SLOAD PUSH1 0x40 MLOAD PUSH4 0xA9059CBB PUSH1 0xE0 SHL DUP2 MSTORE PUSH1 0x1 PUSH1 0x1 PUSH1 0xA0 SHL SUB SWAP1 SWAP2 AND PUSH1 0x4 DUP3 ADD MSTORE PUSH1 0x24 DUP2 ADD SWAP3 SWAP1 SWAP3 MSTORE SWAP1 SWAP3 DUP4 SWAP2 SWAP1 DUP3 SWAP1 DUP15 SWAP1 DUP3 SWAP1 PUSH1 0x44 DUP3 ADD SWAP1 JUMP JUMPDEST SUB SWAP3 PUSH1 0x1 PUSH1 0x1 PUSH1 0xA0 SHL SUB AND GAS CALL DUP1 ISZERO PUSH3 0x20DA JUMPI SWAP4 PUSH1 0x40 SWAP11 PUSH3 0x2083 SWAP11 SWAP10 SWAP9 SWAP7 SWAP5 DUP13 DUP1 PUSH32 0xA891D459CC19A94041344FD3F05544A8E2AC8CD799B693377166F326745DB076 SWAP7 PUSH1 0xA0 SWAP7 PUSH3 0x203F SWAP13 SWAP11 PUSH3 0x20B6 JUMPI JUMPDEST POP PUSH1 0x4 PUSH2 0x140 MLOAD ADD PUSH3 0x1F3A PUSH2 0x100 MLOAD DUP3 SLOAD PUSH3 0x4034 JUMP JUMPDEST SWAP1 SSTORE PUSH1 0x5 PUSH2 0x140 MLOAD ADD PUSH3 0x1F53 PUSH2 0x100 MLOAD DUP3 SLOAD PUSH3 0x4034 JUMP JUMPDEST SWAP1 SSTORE PUSH1 0x6 PUSH2 0x140 MLOAD ADD PUSH3 0x1F6C PUSH2 0x100 MLOAD DUP3 SLOAD PUSH3 0x4034 JUMP JUMPDEST SWAP1 SSTORE PUSH2 0x140 MLOAD SLOAD SWAP4 PUSH1 0x2 PUSH1 0x1 DUP1 DUP11 SHL SUB SWAP2 ADD SLOAD AND DUP5 DUP4 MLOAD PUSH2 0x100 MLOAD DUP2 MSTORE DUP8 PUSH1 0x20 DUP3 ADD MSTORE PUSH32 0x584C326A6E37F42E5DBBC22753AC897E22621DB83435D9CB96B210D1558D0883 SWAP6 DUP7 SWAP2 LOG3 PUSH1 0x2 ADD SLOAD DUP2 MLOAD SWAP5 DUP6 MSTORE PUSH2 0x100 MLOAD PUSH1 0x20 DUP7 ADD MSTORE PUSH1 0x0 NOT PUSH1 0x1 DUP9 SHL ADD AND SWAP4 LOG3 PUSH1 0x5 DUP7 ADD SLOAD PUSH1 0xC0 MLOAD SLOAD SUB PUSH3 0x20A1 JUMPI PUSH1 0x7 DUP7 ADD PUSH1 0x2 PUSH1 0xFF NOT DUP3 SLOAD AND OR SWAP1 SSTORE PUSH3 0x200C DUP9 PUSH1 0x2 DUP9 ADD SLOAD PUSH1 0xFF DUP1 DUP3 DUP8 SHR AND SWAP2 PUSH1 0xA8 SHR AND DUP9 PUSH3 0x4130 JUMP JUMPDEST DUP11 MLOAD SWAP1 DUP9 DUP3 MSTORE PUSH1 0x80 MLOAD PUSH1 0x20 DUP4 ADD MSTORE PUSH1 0x2 DUP13 DUP4 ADD MSTORE PUSH2 0x100 MLOAD PUSH1 0x60 DUP4 ADD MSTORE PUSH1 0x80 DUP3 ADD MSTORE LOG3 PUSH1 0x5 PUSH1 0xC0 MLOAD SLOAD SWAP2 ADD SLOAD SWAP1 PUSH3 0x4034 JUMP JUMPDEST DUP5 MLOAD SWAP1 PUSH2 0x100 MLOAD DUP3 MSTORE PUSH1 0x20 DUP3 ADD MSTORE PUSH32 0xB38583F2ADB435CAC858DB9D3E8D3CA952CCB32307E2F3D0053B415D2D293481 SWAP5 DUP6 SWAP2 LOG2 PUSH1 0x5 PUSH1 0x4 DUP3 ADD SLOAD SWAP2 ADD SLOAD SWAP1 PUSH3 0x4034 JUMP JUMPDEST SWAP1 PUSH1 0x40 MLOAD SWAP2 PUSH2 0x100 MLOAD DUP4 MSTORE PUSH1 0x20 DUP4 ADD MSTORE PUSH1 0x40 PUSH1 0x80 MLOAD SWAP3 LOG2 DUP1 PUSH3 0x1AF1 JUMP JUMPDEST PUSH1 0x7 DUP7 ADD DUP1 SLOAD PUSH1 0xFF NOT AND PUSH1 0x1 OR SWAP1 SSTORE PUSH3 0x200C JUMP JUMPDEST PUSH3 0x20D2 SWAP1 PUSH1 0x20 RETURNDATASIZE PUSH1 0x20 GT PUSH3 0x4B7 JUMPI PUSH3 0x4A6 DUP2 DUP4 PUSH3 0x3C07 JUMP JUMPDEST POP CODESIZE PUSH3 0x1F22 JUMP JUMPDEST PUSH1 0x40 MLOAD RETURNDATASIZE DUP13 DUP3 RETURNDATACOPY RETURNDATASIZE SWAP1 REVERT JUMPDEST PUSH3 0x2100 SWAP2 POP DUP4 RETURNDATASIZE DUP6 GT PUSH3 0x4F8 JUMPI PUSH3 0x4E8 DUP2 DUP4 PUSH3 0x3C07 JUMP JUMPDEST DUP14 PUSH3 0x1E91 JUMP JUMPDEST PUSH1 0x40 MLOAD RETURNDATASIZE DUP14 DUP3 RETURNDATACOPY RETURNDATASIZE SWAP1 REVERT JUMPDEST PUSH3 0x212E SWAP1 PUSH1 0x20 RETURNDATASIZE PUSH1 0x20 GT PUSH3 0x4B7 JUMPI PUSH3 0x4A6 DUP2 DUP4 PUSH3 0x3C07 JUMP JUMPDEST POP DUP11 PUSH3 0x1E39 JUMP JUMPDEST PUSH3 0x2151 SWAP2 POP DUP4 RETURNDATASIZE DUP6 GT PUSH3 0x4F8 JUMPI PUSH3 0x4E8 DUP2 DUP4 PUSH3 0x3C07 JUMP JUMPDEST DUP15 PUSH3 0x1DE2 JUMP JUMPDEST PUSH1 0x40 MLOAD RETURNDATASIZE DUP5 DUP3 RETURNDATACOPY RETURNDATASIZE SWAP1 REVERT JUMPDEST PUSH3 0x216E SWAP1 PUSH3 0x3BD5 JUMP JUMPDEST PUSH3 0x217B JUMPI DUP11 DUP13 PUSH3 0x1D8B JUMP JUMPDEST DUP11 DUP1 REVERT JUMPDEST PUSH3 0x218A SWAP1 PUSH3 0x3BD5 JUMP JUMPDEST PUSH3 0x2197 JUMPI DUP9 DUP11 PUSH3 0x1CD4 JUMP JUMPDEST DUP9 DUP1 REVERT JUMPDEST DUP3 DUP1 REVERT JUMPDEST PUSH3 0x21AC SWAP2 SWAP10 POP PUSH3 0x3BD5 JUMP JUMPDEST PUSH1 0x0 SWAP8 DUP10 PUSH3 0x1C6B JUMP JUMPDEST DUP7 PUSH3 0x1C03 JUMP JUMPDEST PUSH1 0x1 DUP8 SWAP2 PUSH3 0x1BF0 JUMP JUMPDEST PUSH2 0x100 MSTORE POP PUSH3 0x1B63 JUMP JUMPDEST POP POP PUSH1 0x1 PUSH2 0x160 MLOAD ADD PUSH2 0x160 MSTORE PUSH3 0x1A82 JUMP JUMPDEST POP POP DUP1 PUSH3 0x199A JUMP JUMPDEST POP PUSH1 0xA0 MLOAD PUSH1 0x4 PUSH1 0x5 DUP3 ADD SLOAD SWAP2 ADD SLOAD GT PUSH3 0x1A96 JUMP JUMPDEST SWAP1 PUSH3 0x1A3E JUMP JUMPDEST POP PUSH1 0xA0 MLOAD PUSH1 0x4 PUSH1 0x5 DUP3 ADD SLOAD SWAP2 ADD SLOAD GT PUSH3 0x1994 JUMP JUMPDEST PUSH1 0xA8 SHR PUSH1 0xFF AND PUSH3 0x2230 DUP2 PUSH3 0x3AB6 JUMP JUMPDEST PUSH1 0xE0 MLOAD DUP1 SWAP2 ISZERO PUSH1 0x0 EQ PUSH3 0x2822 JUMPI POP PUSH1 0x1 SWAP1 JUMPDEST PUSH1 0x1 PUSH1 0xA0 MLOAD ADD SLOAD SWAP1 MSTORE PUSH1 0x7 PUSH1 0x20 MSTORE PUSH1 0x40 PUSH1 0xE0 MLOAD KECCAK256 SWAP1 PUSH3 0x2263 DUP2 PUSH3 0x3AB6 JUMP JUMPDEST PUSH1 0xE0 MLOAD MSTORE PUSH1 0x20 MSTORE PUSH1 0xE0 MLOAD PUSH1 0x40 DUP2 KECCAK256 PUSH1 0x0 DUP1 MSTORE PUSH1 0x20 MSTORE PUSH1 0x40 PUSH1 0x0 KECCAK256 SWAP1 JUMPDEST DUP2 SLOAD DUP2 LT DUP1 PUSH3 0x280D JUMPI JUMPDEST ISZERO PUSH3 0x2804 JUMPI PUSH3 0x229C DUP2 DUP4 PUSH3 0x3ADA JUMP JUMPDEST SWAP1 SLOAD SWAP1 PUSH1 0x3 SHL SHR SWAP1 DUP2 PUSH1 0xE0 MLOAD MSTORE PUSH1 0x6 PUSH1 0x20 MSTORE PUSH1 0x40 PUSH1 0xE0 MLOAD KECCAK256 PUSH3 0x22BF DUP2 PUSH3 0x409F JUMP JUMPDEST ISZERO PUSH3 0x27F7 JUMPI PUSH3 0x22DF PUSH2 0x2710 SWAP2 PUSH1 0x3 DUP1 PUSH1 0xA0 MLOAD ADD SLOAD SWAP2 ADD SLOAD SWAP1 PUSH3 0x4091 JUMP JUMPDEST LT ISZERO PUSH3 0x22F5 JUMPI JUMPDEST PUSH1 0x1 SWAP2 POP ADD SWAP1 JUMPDEST SWAP1 PUSH3 0x227F JUMP JUMPDEST PUSH1 0x1 PUSH1 0xA0 MLOAD ADD SLOAD DUP3 PUSH1 0x0 MSTORE PUSH1 0x6 PUSH1 0x20 MSTORE PUSH1 0x40 PUSH1 0x0 KECCAK256 SWAP3 PUSH1 0x80 MLOAD PUSH1 0x0 MSTORE PUSH1 0x40 PUSH1 0x0 KECCAK256 SWAP2 PUSH3 0x232C PUSH1 0x4 DUP7 ADD SLOAD PUSH1 0x5 DUP8 ADD SLOAD SWAP1 PUSH3 0x4034 JUMP JUMPDEST PUSH3 0x2341 PUSH1 0x4 DUP6 ADD SLOAD PUSH1 0x5 DUP7 ADD SLOAD SWAP1 PUSH3 0x4034 JUMP JUMPDEST DUP1 DUP3 LT ISZERO PUSH3 0x27EE JUMPI POP SWAP3 JUMPDEST PUSH1 0x3 DUP7 ADD SLOAD SWAP3 PUSH1 0x4 SLOAD PUSH3 0x2361 DUP2 PUSH3 0x3FDD JUMP JUMPDEST PUSH1 0x4 SSTORE PUSH1 0x40 MLOAD PUSH1 0x20 DUP2 ADD SWAP2 DUP3 MSTORE TIMESTAMP PUSH1 0x40 DUP3 ADD MSTORE PUSH1 0x40 DUP2 MSTORE PUSH3 0x2383 DUP2 PUSH3 0x3BEA JUMP JUMPDEST MLOAD SWAP1 KECCAK256 SWAP7 PUSH3 0x2397 DUP7 PUSH1 0x5 DUP4 ADD SLOAD PUSH3 0x4091 JUMP JUMPDEST PUSH1 0x5 DUP3 ADD SSTORE PUSH3 0x23AC DUP7 PUSH1 0x5 DUP6 ADD SLOAD PUSH3 0x4091 JUMP JUMPDEST PUSH1 0x5 DUP5 ADD SSTORE PUSH1 0xFF PUSH1 0x2 DUP3 ADD SLOAD PUSH1 0xA8 SHR AND SWAP1 PUSH3 0x23C8 DUP3 PUSH3 0x3AB6 JUMP JUMPDEST DUP2 PUSH3 0x27E4 JUMPI PUSH1 0x1 DUP2 SWAP3 JUMPDEST PUSH3 0x23DE DUP2 PUSH3 0x3AB6 JUMP JUMPDEST SUB PUSH3 0x27DC JUMPI DUP1 SWAP5 JUMPDEST PUSH2 0x2710 PUSH3 0x23FA PUSH1 0x3 DUP6 ADD SLOAD DUP11 PUSH3 0x4042 JUMP JUMPDEST DIV PUSH3 0x2407 DUP2 DUP11 PUSH3 0x4034 JUMP JUMPDEST PUSH1 0x2 DUP6 ADD SLOAD SWAP1 SWAP2 SWAP1 PUSH1 0x1 PUSH1 0x1 PUSH1 0xA0 SHL SUB SWAP1 DUP2 AND SWAP1 PUSH32 0x0 AND EXTCODESIZE ISZERO PUSH3 0x574 JUMPI PUSH1 0x40 MLOAD PUSH3 0x30582B PUSH1 0xE8 SHL DUP2 MSTORE PUSH1 0x1 PUSH1 0x1 PUSH1 0xA0 SHL SUB SWAP1 SWAP2 AND PUSH1 0x4 DUP3 ADD MSTORE ADDRESS PUSH1 0x24 DUP3 ADD MSTORE PUSH1 0x44 DUP2 ADD SWAP2 SWAP1 SWAP2 MSTORE PUSH1 0x0 DUP2 DUP1 PUSH1 0x64 DUP2 ADD SUB DUP2 DUP4 PUSH32 0x0 PUSH1 0x1 PUSH1 0x1 PUSH1 0xA0 SHL SUB AND GAS CALL DUP1 ISZERO PUSH3 0x18B0 JUMPI PUSH3 0x27CA JUMPI JUMPDEST POP PUSH1 0x2 DUP8 ADD SLOAD PUSH1 0x1 PUSH1 0x1 PUSH1 0xA0 SHL SUB SWAP1 DUP2 AND SWAP1 PUSH32 0x0 AND EXTCODESIZE ISZERO PUSH3 0x574 JUMPI PUSH1 0x40 MLOAD PUSH3 0x30582B PUSH1 0xE8 SHL DUP2 MSTORE PUSH1 0x1 PUSH1 0x1 PUSH1 0xA0 SHL SUB SWAP1 SWAP2 AND PUSH1 0x4 DUP3 ADD MSTORE ADDRESS PUSH1 0x24 DUP3 ADD MSTORE PUSH1 0x44 DUP2 ADD SWAP2 SWAP1 SWAP2 MSTORE PUSH1 0x0 DUP2 DUP1 PUSH1 0x64 DUP2 ADD SUB DUP2 DUP4 PUSH32 0x0 PUSH1 0x1 PUSH1 0x1 PUSH1 0xA0 SHL SUB AND GAS CALL DUP1 ISZERO PUSH3 0x18B0 JUMPI PUSH3 0x27B8 JUMPI JUMPDEST POP PUSH2 0x140 MLOAD PUSH1 0x2 SWAP1 DUP2 ADD SLOAD SWAP1 DUP5 ADD SLOAD PUSH1 0x1 PUSH1 0x1 PUSH1 0xA0 SHL SUB SWAP1 DUP2 AND SWAP2 AND DUP1 EXTCODESIZE ISZERO PUSH3 0x574 JUMPI PUSH1 0x40 MLOAD PUSH4 0x40C10F19 PUSH1 0xE0 SHL DUP2 MSTORE PUSH1 0x1 PUSH1 0x1 PUSH1 0xA0 SHL SUB SWAP3 SWAP1 SWAP3 AND PUSH1 0x4 DUP4 ADD MSTORE PUSH1 0x24 DUP3 ADD DUP11 SWAP1 MSTORE PUSH1 0x0 SWAP1 DUP3 SWAP1 PUSH1 0x44 SWAP1 DUP3 SWAP1 DUP5 SWAP1 GAS CALL DUP1 ISZERO PUSH3 0x18B0 JUMPI PUSH3 0x27A6 JUMPI JUMPDEST POP PUSH2 0x140 MLOAD PUSH1 0x3 ADD SLOAD PUSH1 0x2 DUP8 ADD SLOAD PUSH1 0x1 PUSH1 0x1 PUSH1 0xA0 SHL SUB SWAP1 DUP2 AND SWAP12 SWAP2 AND DUP1 EXTCODESIZE ISZERO PUSH3 0x574 JUMPI PUSH1 0x40 MLOAD PUSH4 0x40C10F19 PUSH1 0xE0 SHL DUP2 MSTORE PUSH1 0x1 PUSH1 0x1 PUSH1 0xA0 SHL SUB SWAP13 SWAP1 SWAP13 AND PUSH1 0x4 DUP14 ADD MSTORE PUSH1 0x24 DUP13 ADD DUP11 SWAP1 MSTORE DUP12 PUSH1 0x44 DUP2 GAS PUSH1 0x0 SWAP5 DUP6 SWAP2 CALL SWAP11 DUP12 ISZERO PUSH3 0x18B0 JUMPI PUSH1 0xA0 PUSH1 0x40 SWAP10 DUP12 PUSH3 0x182D SWAP8 PUSH1 0x1 SWAP16 DUP14 PUSH3 0x2768 SWAP14 PUSH32 0xA891D459CC19A94041344FD3F05544A8E2AC8CD799B693377166F326745DB076 SWAP8 DUP3 SWAP4 PUSH3 0x2794 JUMPI JUMPDEST POP PUSH1 0x4 PUSH2 0x140 MLOAD ADD PUSH3 0x266E DUP7 DUP3 SLOAD PUSH3 0x4091 JUMP JUMPDEST SWAP1 SSTORE PUSH1 0x5 PUSH2 0x140 MLOAD ADD PUSH3 0x2684 DUP7 DUP3 SLOAD PUSH3 0x4091 JUMP JUMPDEST SWAP1 SSTORE PUSH1 0x6 PUSH2 0x140 MLOAD ADD PUSH3 0x269A DUP7 DUP3 SLOAD PUSH3 0x4091 JUMP JUMPDEST SWAP1 SSTORE PUSH2 0x140 MLOAD SLOAD SWAP4 PUSH1 0x1 DUP1 PUSH1 0x2 SWAP2 DUP11 SHL SUB SWAP2 ADD SLOAD AND DUP5 DUP4 MLOAD DUP8 DUP2 MSTORE PUSH1 0x0 PUSH1 0x20 DUP3 ADD MSTORE PUSH32 0xE7D6CC8EB939F017F8ADBEE7567D9C5FBB41AD1208E3FFD7CBA5EE580EA9173 SWAP6 DUP7 SWAP2 LOG3 PUSH1 0x1 DUP1 PUSH1 0x2 SWAP2 DUP10 SHL SUB SWAP2 ADD SLOAD AND SWAP4 DUP2 MLOAD SWAP1 PUSH1 0x0 DUP3 MSTORE PUSH1 0x20 DUP3 ADD MSTORE LOG3 PUSH1 0x5 DUP7 ADD SLOAD PUSH1 0x4 DUP8 ADD SLOAD SUB PUSH3 0x2780 JUMPI PUSH1 0x7 DUP7 ADD PUSH1 0x2 PUSH1 0xFF NOT DUP3 SLOAD AND OR SWAP1 SSTORE PUSH3 0x2738 DUP9 PUSH1 0x2 DUP9 ADD SLOAD PUSH1 0xFF DUP1 DUP3 DUP8 SHR AND SWAP2 PUSH1 0xA8 SHR AND DUP9 PUSH3 0x4130 JUMP JUMPDEST DUP11 MLOAD SWAP1 DUP9 DUP3 MSTORE PUSH1 0x80 MLOAD PUSH1 0x20 DUP4 ADD MSTORE DUP15 DUP13 DUP4 ADD MSTORE DUP13 PUSH1 0x60 DUP4 ADD MSTORE PUSH1 0x80 DUP3 ADD MSTORE LOG3 PUSH1 0x5 PUSH1 0x4 DUP3 ADD SLOAD SWAP2 ADD SLOAD SWAP1 PUSH3 0x4034 JUMP JUMPDEST PUSH1 0x40 MLOAD SWAP3 DUP4 MSTORE PUSH1 0x20 DUP4 ADD MSTORE PUSH1 0x40 PUSH1 0x80 MLOAD SWAP3 LOG2 PUSH3 0x22E7 JUMP JUMPDEST PUSH1 0x7 DUP7 ADD DUP1 SLOAD PUSH1 0xFF NOT AND DUP16 OR SWAP1 SSTORE PUSH3 0x2738 JUMP JUMPDEST PUSH3 0x279F SWAP1 PUSH3 0x3BD5 JUMP JUMPDEST CODESIZE PUSH3 0x2659 JUMP JUMPDEST PUSH3 0x27B1 SWAP1 PUSH3 0x3BD5 JUMP JUMPDEST DUP12 PUSH3 0x25BF JUMP JUMPDEST PUSH3 0x27C3 SWAP1 PUSH3 0x3BD5 JUMP JUMPDEST DUP12 PUSH3 0x255B JUMP JUMPDEST PUSH3 0x27D5 SWAP1 PUSH3 0x3BD5 JUMP JUMPDEST DUP13 PUSH3 0x24B2 JUMP JUMPDEST DUP4 SWAP5 PUSH3 0x23E7 JUMP JUMPDEST PUSH1 0x1 DUP5 SWAP3 PUSH3 0x23D3 JUMP JUMPDEST SWAP1 POP SWAP3 PUSH3 0x234D JUMP JUMPDEST POP PUSH1 0x1 SWAP2 POP ADD SWAP1 PUSH3 0x22EE JUMP JUMPDEST POP POP DUP1 PUSH3 0x196B JUMP JUMPDEST POP PUSH1 0xA0 MLOAD PUSH1 0x4 PUSH1 0x5 DUP3 ADD SLOAD SWAP2 ADD SLOAD GT PUSH3 0x228A JUMP JUMPDEST SWAP1 PUSH3 0x2243 JUMP JUMPDEST POP PUSH1 0xA0 MLOAD PUSH1 0x4 PUSH1 0x5 DUP3 ADD SLOAD SWAP2 ADD SLOAD GT PUSH3 0x1965 JUMP JUMPDEST POP PUSH1 0xA0 MLOAD PUSH1 0x4 PUSH1 0x5 DUP3 ADD SLOAD SWAP2 ADD SLOAD GT PUSH3 0x1489 JUMP JUMPDEST SWAP3 PUSH3 0x1449 JUMP JUMPDEST PUSH4 0x4E487B71 PUSH1 0xE0 SHL DUP4 MSTORE PUSH1 0x21 PUSH1 0x4 MSTORE PUSH1 0xE0 MLOAD PUSH1 0x24 SWAP1 REVERT JUMPDEST PUSH1 0x80 PUSH3 0x287F SWAP2 ADD PUSH3 0x3BD5 JUMP JUMPDEST PUSH1 0xE0 MLOAD DUP1 ISZERO PUSH3 0x11AA JUMPI DUP1 REVERT JUMPDEST PUSH1 0x40 MLOAD PUSH4 0x524F409B PUSH1 0xE0 SHL DUP2 MSTORE PUSH1 0x4 SWAP1 REVERT JUMPDEST PUSH1 0x20 PUSH1 0x24 SWAP2 PUSH3 0x28B0 PUSH1 0x44 CALLDATALOAD PUSH3 0x3AB6 JUMP JUMPDEST PUSH1 0x44 CALLDATALOAD PUSH3 0x2956 JUMPI PUSH1 0x2 ADD SLOAD PUSH1 0x1 PUSH1 0x1 PUSH1 0xA0 SHL SUB AND JUMPDEST PUSH1 0x40 MLOAD PUSH4 0x70A08231 PUSH1 0xE0 SHL DUP2 MSTORE CALLER PUSH1 0x4 DUP3 ADD MSTORE SWAP3 DUP4 SWAP2 DUP3 SWAP1 PUSH1 0x1 PUSH1 0x1 PUSH1 0xA0 SHL SUB AND GAS STATICCALL SWAP1 DUP2 ISZERO PUSH3 0x4BF JUMPI PUSH1 0xE0 MLOAD SWAP2 PUSH3 0x291E JUMPI JUMPDEST POP PUSH1 0x84 CALLDATALOAD GT PUSH3 0x290C JUMPI DUP1 PUSH3 0x10A0 JUMP JUMPDEST PUSH1 0x40 MLOAD PUSH4 0x1E9ACF17 PUSH1 0xE3 SHL DUP2 MSTORE PUSH1 0x4 SWAP1 REVERT JUMPDEST SWAP1 POP PUSH1 0x20 DUP2 RETURNDATASIZE PUSH1 0x20 GT PUSH3 0x294D JUMPI JUMPDEST DUP2 PUSH3 0x293C PUSH1 0x20 SWAP4 DUP4 PUSH3 0x3C07 JUMP JUMPDEST DUP2 ADD SUB SLT PUSH3 0x574 JUMPI MLOAD DUP2 PUSH3 0x28FB JUMP JUMPDEST RETURNDATASIZE SWAP2 POP PUSH3 0x292D JUMP JUMPDEST PUSH1 0x3 ADD SLOAD PUSH1 0x1 PUSH1 0x1 PUSH1 0xA0 SHL SUB AND PUSH3 0x28C6 JUMP JUMPDEST PUSH1 0x40 MLOAD PUSH3 0xBFC921 PUSH1 0xE0 SHL DUP2 MSTORE PUSH1 0x4 SWAP1 REVERT JUMPDEST POP PUSH2 0x2710 PUSH1 0x64 CALLDATALOAD LT ISZERO PUSH3 0x106E JUMP JUMPDEST PUSH1 0x40 MLOAD PUSH4 0x5A90BB8D PUSH1 0xE1 SHL DUP2 MSTORE PUSH1 0x4 SWAP1 REVERT JUMPDEST CALLVALUE PUSH3 0x1F2 JUMPI PUSH1 0x20 CALLDATASIZE PUSH1 0x3 NOT ADD SLT PUSH3 0x1F2 JUMPI PUSH1 0x4 CALLDATALOAD DUP1 PUSH1 0xE0 MLOAD MSTORE PUSH1 0x5 PUSH1 0x20 MSTORE PUSH1 0x7 PUSH1 0x40 PUSH1 0xE0 MLOAD KECCAK256 PUSH3 0x29CE DUP2 PUSH3 0x422C JUMP JUMPDEST ADD DUP1 SLOAD PUSH1 0xFF DUP2 AND PUSH1 0x4 DUP2 LT ISZERO PUSH3 0xBB9 JUMPI DUP1 PUSH3 0x2989 JUMPI PUSH1 0x0 DUP1 MLOAD PUSH1 0x20 PUSH3 0x525E DUP4 CODECOPY DUP2 MLOAD SWAP2 MSTORE SWAP3 PUSH1 0x1 PUSH1 0x40 SWAP4 PUSH1 0xFF NOT AND OR SWAP1 SSTORE PUSH3 0x2A10 DUP3 MLOAD DUP1 SWAP3 PUSH3 0x3D28 JUMP JUMPDEST PUSH1 0x1 PUSH1 0x20 DUP3 ADD MSTORE LOG2 PUSH1 0xE0 MLOAD DUP1 RETURN JUMPDEST CALLVALUE PUSH3 0x1F2 JUMPI PUSH1 0xE0 MLOAD DUP1 PUSH1 0x3 NOT CALLDATASIZE ADD SLT PUSH3 0x1EF JUMPI PUSH1 0x20 PUSH1 0x2 SLOAD PUSH1 0x40 MLOAD SWAP1 DUP2 MSTORE RETURN JUMPDEST CALLVALUE PUSH3 0x1F2 JUMPI PUSH1 0xE0 MLOAD DUP1 PUSH1 0x3 NOT CALLDATASIZE ADD SLT PUSH3 0x1EF JUMPI PUSH1 0x20 SWAP1 PUSH1 0x40 MLOAD SWAP1 DUP2 MSTORE RETURN JUMPDEST CALLVALUE PUSH3 0x1F2 JUMPI PUSH1 0x20 CALLDATASIZE PUSH1 0x3 NOT ADD SLT PUSH3 0x1F2 JUMPI PUSH1 0x4 CALLDATALOAD PUSH1 0xE0 MLOAD MSTORE PUSH1 0x6 PUSH1 0x20 MSTORE PUSH2 0x180 PUSH1 0x40 PUSH1 0xE0 MLOAD KECCAK256 DUP1 SLOAD SWAP1 PUSH1 0x1 DUP2 ADD SLOAD SWAP1 PUSH3 0x2B2A PUSH1 0x2 DUP3 ADD SLOAD PUSH1 0xFF DUP2 PUSH1 0xA8 SHR AND PUSH1 0x3 DUP5 ADD SLOAD PUSH1 0x4 DUP6 ADD SLOAD PUSH1 0x5 DUP7 ADD SLOAD SWAP2 PUSH1 0x6 DUP8 ADD SLOAD SWAP4 PUSH3 0x2AF9 PUSH1 0xFF PUSH1 0x7 DUP11 ADD SLOAD AND SWAP7 PUSH1 0x9 PUSH1 0x8 DUP12 ADD SLOAD SWAP11 ADD SLOAD SWAP11 PUSH1 0x40 MLOAD SWAP13 DUP14 MSTORE PUSH1 0x20 DUP14 ADD MSTORE PUSH1 0x1 DUP1 PUSH1 0xA0 SHL SUB DUP2 AND PUSH1 0x40 DUP14 ADD MSTORE PUSH1 0xFF PUSH1 0x60 DUP14 ADD SWAP2 PUSH1 0xA0 SHR AND PUSH3 0x3B5E JUMP JUMPDEST PUSH3 0x2B04 DUP2 PUSH3 0x3AB6 JUMP JUMPDEST PUSH1 0x80 DUP11 ADD MSTORE PUSH1 0xA0 DUP10 ADD MSTORE PUSH1 0xC0 DUP9 ADD MSTORE PUSH1 0xE0 DUP8 ADD MSTORE PUSH2 0x100 DUP7 ADD MSTORE PUSH2 0x120 DUP6 ADD SWAP1 PUSH3 0x3B6C JUMP JUMPDEST PUSH2 0x140 DUP4 ADD MSTORE PUSH2 0x160 DUP3 ADD MSTORE RETURN JUMPDEST CALLVALUE PUSH3 0x1F2 JUMPI PUSH1 0x40 CALLDATASIZE PUSH1 0x3 NOT ADD SLT PUSH3 0x1F2 JUMPI PUSH3 0x2B55 PUSH3 0x3AF3 JUMP JUMPDEST PUSH1 0x4 CALLDATALOAD PUSH1 0xE0 MLOAD MSTORE PUSH1 0x9 PUSH1 0x20 MSTORE PUSH1 0x40 PUSH1 0xE0 MLOAD KECCAK256 SWAP1 PUSH1 0x1 DUP1 PUSH1 0xA0 SHL SUB AND PUSH1 0x0 MSTORE PUSH1 0x20 MSTORE PUSH1 0x20 PUSH1 0xFF PUSH1 0x40 PUSH1 0x0 KECCAK256 SLOAD AND PUSH1 0x40 MLOAD SWAP1 ISZERO ISZERO DUP2 MSTORE RETURN JUMPDEST CALLVALUE PUSH3 0x1F2 JUMPI PUSH1 0x40 CALLDATASIZE PUSH1 0x3 NOT ADD SLT PUSH3 0x1F2 JUMPI PUSH3 0x2BA8 PUSH3 0x3AF3 JUMP JUMPDEST PUSH1 0x4 CALLDATALOAD PUSH1 0xE0 MLOAD MSTORE PUSH1 0x1 PUSH1 0x20 MSTORE PUSH1 0x40 PUSH1 0xE0 MLOAD KECCAK256 SWAP1 PUSH1 0x1 DUP1 PUSH1 0xA0 SHL SUB AND PUSH1 0x0 MSTORE PUSH1 0x20 MSTORE PUSH1 0x20 PUSH1 0xFF PUSH1 0x40 PUSH1 0x0 KECCAK256 SLOAD AND PUSH1 0x40 MLOAD SWAP1 ISZERO ISZERO DUP2 MSTORE RETURN JUMPDEST CALLVALUE PUSH3 0x1F2 JUMPI PUSH1 0x20 CALLDATASIZE PUSH1 0x3 NOT ADD SLT PUSH3 0x1F2 JUMPI PUSH1 0x4 CALLDATALOAD DUP1 PUSH1 0xE0 MLOAD MSTORE PUSH1 0x5 PUSH1 0x20 MSTORE PUSH1 0x7 PUSH1 0x40 PUSH1 0xE0 MLOAD KECCAK256 PUSH3 0x2C11 DUP2 PUSH3 0x422C JUMP JUMPDEST ADD DUP1 SLOAD PUSH1 0xFF DUP2 AND PUSH1 0x4 DUP2 LT ISZERO PUSH3 0xBB9 JUMPI PUSH1 0x1 SUB PUSH3 0x2989 JUMPI PUSH1 0xFF NOT AND SWAP1 SSTORE PUSH1 0x0 DUP1 MLOAD PUSH1 0x20 PUSH3 0x525E DUP4 CODECOPY DUP2 MLOAD SWAP2 MSTORE PUSH1 0x40 DUP1 MLOAD PUSH1 0x1 DUP2 MSTORE PUSH1 0x0 PUSH1 0x20 DUP3 ADD MSTORE LOG2 PUSH1 0xE0 MLOAD DUP1 RETURN JUMPDEST CALLVALUE PUSH3 0x1F2 JUMPI PUSH1 0x40 CALLDATASIZE PUSH1 0x3 NOT ADD SLT PUSH3 0x1F2 JUMPI PUSH3 0x2C73 PUSH3 0x3B0A JUMP JUMPDEST PUSH1 0x24 CALLDATALOAD SWAP1 PUSH1 0x1 DUP1 PUSH1 0xA0 SHL SUB AND PUSH1 0xE0 MLOAD MSTORE PUSH1 0x8 PUSH1 0x20 MSTORE PUSH1 0xE0 MLOAD PUSH1 0x40 DUP2 KECCAK256 SWAP1 DUP2 SLOAD DUP4 LT ISZERO PUSH3 0x1EF JUMPI PUSH1 0x20 PUSH3 0x2CA8 DUP5 DUP5 PUSH3 0x3ADA JUMP JUMPDEST SWAP1 SLOAD PUSH1 0x40 MLOAD SWAP2 PUSH1 0x3 SHL SHR DUP2 MSTORE RETURN JUMPDEST CALLVALUE PUSH3 0x1F2 JUMPI PUSH1 0x20 CALLDATASIZE PUSH1 0x3 NOT ADD SLT PUSH3 0x1F2 JUMPI PUSH1 0x4 CALLDATALOAD PUSH1 0xA SLOAD DUP2 LT ISZERO PUSH3 0x1F2 JUMPI PUSH1 0x20 SWAP1 PUSH1 0xA PUSH1 0x0 MSTORE PUSH32 0xC65A7BB8D6351C1CF70C95A316CC6A92839C986682D98BC35F958F4883F9D2A8 ADD SLOAD PUSH1 0x40 MLOAD SWAP1 DUP2 MSTORE RETURN JUMPDEST CALLVALUE PUSH3 0x1F2 JUMPI PUSH1 0x60 CALLDATASIZE PUSH1 0x3 NOT ADD SLT PUSH3 0x1F2 JUMPI PUSH1 0x24 CALLDATALOAD PUSH1 0x3 DUP2 LT ISZERO PUSH3 0x1F2 JUMPI PUSH1 0x44 CALLDATALOAD PUSH1 0x2 DUP2 LT ISZERO PUSH3 0x1F2 JUMPI PUSH3 0x2D6E SWAP1 PUSH1 0x4 CALLDATALOAD PUSH1 0xE0 MLOAD MSTORE PUSH1 0x20 SWAP3 PUSH1 0x7 DUP5 MSTORE PUSH1 0x40 PUSH1 0xE0 MLOAD KECCAK256 SWAP1 PUSH3 0x2D5C DUP2 PUSH3 0x3AB6 JUMP JUMPDEST PUSH1 0xE0 MLOAD MSTORE DUP4 MSTORE PUSH1 0x40 PUSH1 0xE0 MLOAD KECCAK256 PUSH3 0x3AC1 JUMP JUMPDEST SWAP1 PUSH1 0x40 MLOAD SWAP1 DUP2 DUP2 DUP5 SLOAD SWAP2 DUP3 DUP2 MSTORE ADD SWAP4 PUSH1 0xE0 MLOAD MSTORE PUSH1 0xE0 MLOAD SWAP2 DUP1 DUP4 KECCAK256 SWAP3 SWAP1 JUMPDEST DUP3 DUP3 LT PUSH3 0x2DB7 JUMPI PUSH3 0x2DB3 DUP6 PUSH3 0x2DA6 DUP2 DUP10 SUB DUP3 PUSH3 0x3C07 JUMP JUMPDEST PUSH1 0x40 MLOAD SWAP2 DUP3 SWAP2 DUP3 PUSH3 0x3B21 JUMP JUMPDEST SUB SWAP1 RETURN JUMPDEST DUP4 SLOAD DUP7 MSTORE SWAP5 DUP6 ADD SWAP5 PUSH1 0x1 SWAP4 DUP5 ADD SWAP4 SWAP1 SWAP2 ADD SWAP1 PUSH3 0x2D8B JUMP JUMPDEST CALLVALUE PUSH3 0x1F2 JUMPI PUSH1 0x20 CALLDATASIZE PUSH1 0x3 NOT ADD SLT PUSH3 0x1F2 JUMPI PUSH1 0x4 CALLDATALOAD PUSH1 0xE0 MLOAD MSTORE PUSH1 0x5 PUSH1 0x20 MSTORE PUSH1 0x40 PUSH1 0xE0 MLOAD KECCAK256 DUP1 SLOAD PUSH3 0x2E04 PUSH1 0x1 DUP4 ADD PUSH3 0x3C2A JUMP JUMPDEST SWAP2 PUSH1 0x1 DUP1 PUSH1 0xA0 SHL SUB DUP1 PUSH1 0x2 DUP4 ADD SLOAD AND SWAP2 DUP2 PUSH1 0x3 DUP3 ADD SLOAD AND SWAP2 PUSH1 0x4 DUP3 ADD SLOAD PUSH3 0x2E96 PUSH1 0x5 DUP5 ADD SLOAD PUSH1 0x6 DUP6 ADD SLOAD PUSH1 0x7 DUP7 ADD SLOAD SWAP2 PUSH1 0xFF DUP4 PUSH1 0x8 SHR AND SWAP5 PUSH1 0x8 DUP9 ADD SLOAD SWAP7 PUSH1 0xA PUSH1 0x9 DUP11 ADD SLOAD SWAP10 ADD SLOAD AND SWAP9 PUSH3 0x2E6E PUSH1 0x40 MLOAD SWAP14 DUP15 SWAP14 DUP15 MSTORE DUP14 PUSH2 0x180 SWAP1 DUP2 PUSH1 0x20 DUP3 ADD MSTORE ADD SWAP1 PUSH3 0x3D01 JUMP JUMPDEST SWAP11 PUSH1 0x40 DUP14 ADD MSTORE PUSH1 0x60 DUP13 ADD MSTORE PUSH1 0x80 DUP12 ADD MSTORE PUSH1 0xA0 DUP11 ADD MSTORE PUSH1 0xC0 DUP10 ADD MSTORE PUSH1 0xFF PUSH1 0xE0 DUP10 ADD SWAP2 AND PUSH3 0x3D28 JUMP JUMPDEST PUSH3 0x2EA1 DUP2 PUSH3 0x3AB6 JUMP JUMPDEST PUSH2 0x100 DUP7 ADD MSTORE PUSH2 0x120 DUP6 ADD MSTORE PUSH2 0x140 DUP5 ADD MSTORE PUSH2 0x160 DUP4 ADD MSTORE SUB SWAP1 RETURN JUMPDEST CALLVALUE PUSH3 0x1F2 JUMPI PUSH1 0x20 CALLDATASIZE PUSH1 0x3 NOT ADD SLT PUSH3 0x1F2 JUMPI PUSH1 0x4 CALLDATALOAD PUSH3 0x2EDD PUSH3 0x4010 JUMP JUMPDEST PUSH1 0xE0 DUP1 MLOAD DUP3 SWAP1 MSTORE PUSH1 0x6 PUSH1 0x20 MSTORE MLOAD PUSH1 0x40 SWAP1 KECCAK256 PUSH1 0x2 DUP2 ADD DUP1 SLOAD SWAP1 SWAP2 PUSH1 0x1 PUSH1 0x1 PUSH1 0xA0 SHL SUB SWAP2 DUP3 AND SWAP2 CALLER DUP4 SUB PUSH3 0x3099 JUMPI PUSH1 0x7 DUP3 ADD SWAP3 DUP4 SLOAD SWAP2 PUSH1 0xFF DUP4 AND PUSH1 0x5 DUP2 LT ISZERO PUSH3 0xBB9 JUMPI DUP1 ISZERO ISZERO SWAP1 DUP2 PUSH3 0x308C JUMPI JUMPDEST POP PUSH3 0x307A JUMPI PUSH1 0x4 DUP5 ADD SLOAD SWAP5 PUSH3 0x2F56 PUSH3 0x2F4B PUSH1 0x5 DUP8 ADD SLOAD DUP9 PUSH3 0x4034 JUMP JUMPDEST PUSH1 0x6 DUP8 ADD SLOAD PUSH3 0x4042 JUMP JUMPDEST DUP7 ISZERO PUSH3 0x3064 JUMPI DUP9 SWAP7 PUSH1 0x3 SWAP2 DIV SWAP5 PUSH1 0xFF NOT AND OR SWAP1 SSTORE DUP3 PUSH3 0x2FC7 JUMPI JUMPDEST POP POP POP SWAP2 PUSH1 0x1 PUSH3 0x2F96 SWAP4 ADD SLOAD SWAP1 SLOAD SWAP1 PUSH1 0xFF DUP1 DUP4 PUSH1 0xA0 SHR AND SWAP3 PUSH1 0xA8 SHR AND SWAP1 PUSH3 0x4130 JUMP JUMPDEST PUSH1 0xE0 MLOAD SWAP1 CALLER SWAP1 PUSH32 0xA6EB7CDC219E1518CED964E9A34E61D68A94E4F1569DB3E84256BA981BA52753 DUP4 DUP1 LOG3 PUSH1 0x1 DUP2 SSTORE DUP1 RETURN JUMPDEST PUSH32 0x0 AND SWAP4 POP SWAP1 DUP4 EXTCODESIZE ISZERO PUSH3 0x1F2 JUMPI PUSH1 0x40 MLOAD PUSH4 0x2FE2E93 PUSH1 0xE3 SHL DUP2 MSTORE PUSH1 0xE0 MLOAD PUSH1 0x1 PUSH1 0x1 PUSH1 0xA0 SHL SUB SWAP1 SWAP4 AND PUSH1 0x4 DUP3 ADD MSTORE PUSH1 0x24 DUP2 ADD SWAP2 SWAP1 SWAP2 MSTORE SWAP3 DUP4 SWAP1 DUP2 DUP1 PUSH1 0x44 DUP2 ADD SUB SWAP2 PUSH1 0xE0 MLOAD SWAP1 GAS CALL SWAP2 DUP3 ISZERO PUSH3 0x4BF JUMPI DUP5 SWAP3 PUSH3 0x3045 JUMPI JUMPDEST DUP1 DUP1 PUSH3 0x2F72 JUMP JUMPDEST PUSH3 0x3052 SWAP2 SWAP3 POP PUSH3 0x3BD5 JUMP JUMPDEST PUSH1 0xE0 MLOAD DUP1 PUSH3 0x1EF JUMPI SWAP1 DUP4 SWAP2 PUSH3 0x303D JUMP JUMPDEST PUSH4 0x4E487B71 PUSH1 0xE0 SHL PUSH1 0x0 MSTORE PUSH1 0x12 PUSH1 0x4 MSTORE PUSH1 0x24 PUSH1 0x0 REVERT JUMPDEST PUSH1 0x40 MLOAD PUSH4 0x206931EF PUSH1 0xE0 SHL DUP2 MSTORE PUSH1 0x4 SWAP1 REVERT JUMPDEST PUSH1 0x1 SWAP2 POP EQ ISZERO DUP9 PUSH3 0x2F2B JUMP JUMPDEST PUSH1 0x40 MLOAD PUSH4 0x7B2095AD PUSH1 0xE1 SHL DUP2 MSTORE PUSH1 0x4 SWAP1 REVERT JUMPDEST CALLVALUE PUSH3 0x1F2 JUMPI PUSH1 0x20 DUP1 PUSH1 0x3 NOT CALLDATASIZE ADD SLT PUSH3 0x1F2 JUMPI PUSH1 0x4 CALLDATALOAD PUSH3 0x30CC PUSH3 0x4010 JUMP JUMPDEST DUP1 PUSH1 0xE0 MLOAD MSTORE PUSH1 0x5 DUP3 MSTORE PUSH1 0xE0 MLOAD PUSH1 0x40 DUP2 KECCAK256 SWAP1 PUSH1 0xFF PUSH1 0x7 DUP4 ADD SLOAD AND SWAP1 PUSH1 0x4 DUP3 LT ISZERO PUSH3 0x5DF JUMPI POP PUSH1 0x3 SUB PUSH3 0x34C4 JUMPI DUP2 PUSH1 0xE0 MLOAD MSTORE PUSH1 0x9 DUP4 MSTORE PUSH1 0xE0 MLOAD PUSH1 0x40 DUP2 KECCAK256 SWAP1 CALLER SWAP1 MSTORE DUP4 MSTORE PUSH1 0xFF PUSH1 0x40 PUSH1 0xE0 MLOAD KECCAK256 SLOAD AND PUSH3 0x5BB JUMPI PUSH1 0x2 DUP2 ADD DUP1 SLOAD PUSH1 0x40 MLOAD PUSH4 0x70A08231 PUSH1 0xE0 SHL DUP1 DUP3 MSTORE CALLER PUSH1 0x4 DUP4 ADD MSTORE SWAP6 PUSH1 0x1 PUSH1 0x1 PUSH1 0xA0 SHL SUB SWAP5 SWAP1 SWAP4 SWAP2 SWAP3 DUP5 SWAP1 DUP5 SWAP1 PUSH1 0x24 SWAP1 DUP3 SWAP1 DUP10 AND GAS STATICCALL SWAP3 DUP4 ISZERO PUSH3 0x4BF JUMPI PUSH1 0xE0 MLOAD SWAP4 PUSH3 0x348E JUMPI JUMPDEST POP PUSH1 0x3 ADD DUP4 DUP6 DUP3 SLOAD AND SWAP8 PUSH1 0x24 PUSH1 0x40 MLOAD DUP1 SWAP11 DUP2 SWAP4 DUP3 MSTORE CALLER PUSH1 0x4 DUP4 ADD MSTORE GAS STATICCALL SWAP7 DUP8 ISZERO PUSH3 0x4BF JUMPI PUSH1 0xE0 MLOAD SWAP8 PUSH3 0x3459 JUMPI JUMPDEST POP DUP3 ISZERO DUP1 DUP1 PUSH3 0x3450 JUMPI JUMPDEST PUSH3 0x535 JUMPI DUP6 SWAP3 DUP8 PUSH1 0xE0 MLOAD MSTORE PUSH1 0x9 DUP7 MSTORE PUSH1 0xE0 MLOAD PUSH1 0x40 DUP2 KECCAK256 SWAP1 CALLER SWAP1 MSTORE DUP7 MSTORE PUSH1 0xE0 MLOAD SWAP2 PUSH1 0x40 DUP4 KECCAK256 PUSH1 0x1 PUSH1 0xFF NOT DUP3 SLOAD AND OR SWAP1 SSTORE ISZERO PUSH3 0x33EC JUMPI JUMPDEST POP POP DUP7 PUSH3 0x3388 JUMPI JUMPDEST POP POP PUSH1 0xE0 MLOAD SWAP5 DUP1 DUP3 LT ISZERO PUSH3 0x337F JUMPI POP SWAP4 JUMPDEST DUP5 PUSH3 0x322F JUMPI JUMPDEST POP PUSH32 0xE950D47BCC1A745A8EF1D8B86486B400A99681910425D126EB1A006D61F341B2 SWAP2 POP PUSH1 0x40 MLOAD SWAP4 DUP5 MSTORE CALLER SWAP4 LOG3 PUSH1 0xE0 MLOAD PUSH1 0x1 DUP2 SSTORE DUP1 RETURN JUMPDEST DUP3 PUSH32 0x0 AND SWAP1 DUP2 EXTCODESIZE ISZERO PUSH3 0x1EF JUMPI POP PUSH1 0x40 MLOAD PUSH4 0x2FE2E93 PUSH1 0xE3 SHL DUP2 MSTORE PUSH1 0xE0 MLOAD ADDRESS PUSH1 0x4 DUP4 ADD MSTORE PUSH1 0x24 DUP3 ADD DUP8 SWAP1 MSTORE DUP2 DUP1 PUSH1 0x44 DUP2 ADD SUB DUP2 PUSH1 0xE0 MLOAD DUP7 GAS CALL SWAP1 DUP2 ISZERO PUSH3 0x4BF JUMPI DUP4 SWAP2 PUSH3 0x3362 JUMPI JUMPDEST POP PUSH1 0x40 MLOAD PUSH4 0x2C805AF5 PUSH1 0xE2 SHL DUP2 MSTORE SWAP2 DUP3 SWAP1 PUSH1 0x4 SWAP1 DUP3 SWAP1 GAS STATICCALL DUP1 ISZERO PUSH3 0x4BF JUMPI DUP3 SWAP2 PUSH1 0xE0 MLOAD SWAP2 PUSH3 0x3340 JUMPI JUMPDEST POP PUSH1 0x40 MLOAD PUSH4 0xA9059CBB PUSH1 0xE0 SHL DUP2 MSTORE CALLER PUSH1 0x4 DUP3 ADD MSTORE PUSH1 0x24 DUP2 ADD DUP8 SWAP1 MSTORE PUSH1 0xE0 MLOAD SWAP1 SWAP5 DUP6 SWAP3 PUSH1 0x44 SWAP3 DUP5 SWAP3 SWAP1 SWAP2 AND GAS CALL SWAP2 DUP3 ISZERO PUSH3 0x4BF JUMPI PUSH32 0xE950D47BCC1A745A8EF1D8B86486B400A99681910425D126EB1A006D61F341B2 SWAP3 ISZERO PUSH3 0x31F8 JUMPI PUSH3 0x3338 SWAP1 DUP3 RETURNDATASIZE DUP5 GT PUSH3 0x4B7 JUMPI PUSH3 0x4A6 DUP2 DUP4 PUSH3 0x3C07 JUMP JUMPDEST POP DUP5 PUSH3 0x31F8 JUMP JUMPDEST PUSH3 0x335B SWAP2 POP DUP3 RETURNDATASIZE DUP5 GT PUSH3 0x4F8 JUMPI PUSH3 0x4E8 DUP2 DUP4 PUSH3 0x3C07 JUMP JUMPDEST DUP7 PUSH3 0x32C2 JUMP JUMPDEST PUSH3 0x336E SWAP2 POP PUSH3 0x3BD5 JUMP JUMPDEST PUSH1 0xE0 MLOAD DUP1 PUSH3 0x1EF JUMPI DUP3 SWAP1 PUSH3 0x3297 JUMP JUMPDEST SWAP1 POP SWAP4 PUSH3 0x31F1 JUMP JUMPDEST SLOAD AND DUP1 EXTCODESIZE ISZERO PUSH3 0x1F2 JUMPI PUSH1 0x40 MLOAD PUSH4 0x2770A7EB PUSH1 0xE2 SHL DUP2 MSTORE PUSH1 0xE0 DUP1 MLOAD CALLER PUSH1 0x4 DUP5 ADD MSTORE PUSH1 0x24 DUP4 ADD DUP10 SWAP1 MSTORE SWAP1 MLOAD SWAP2 SWAP3 SWAP1 SWAP2 DUP4 SWAP2 PUSH1 0x44 SWAP2 DUP4 SWAP2 GAS CALL DUP1 ISZERO PUSH3 0x4BF JUMPI PUSH3 0x33D4 JUMPI JUMPDEST DUP4 SWAP1 PUSH3 0x31DF JUMP JUMPDEST PUSH3 0x33DF SWAP1 PUSH3 0x3BD5 JUMP JUMPDEST PUSH1 0xE0 MLOAD DUP1 ISZERO PUSH3 0x33CC JUMPI DUP1 REVERT JUMPDEST SLOAD SWAP1 SWAP3 AND SWAP2 DUP3 EXTCODESIZE ISZERO PUSH3 0x1EF JUMPI POP PUSH1 0x40 MLOAD PUSH4 0x2770A7EB PUSH1 0xE2 SHL DUP2 MSTORE PUSH1 0xE0 DUP1 MLOAD CALLER PUSH1 0x4 DUP5 ADD MSTORE PUSH1 0x24 DUP4 ADD DUP7 SWAP1 MSTORE SWAP1 MLOAD SWAP2 SWAP4 SWAP1 SWAP2 DUP5 SWAP2 PUSH1 0x44 SWAP2 DUP4 SWAP2 GAS CALL SWAP2 DUP3 ISZERO PUSH3 0x4BF JUMPI DUP6 SWAP3 PUSH3 0x343E JUMPI JUMPDEST DUP1 PUSH3 0x31D6 JUMP JUMPDEST PUSH3 0x3449 SWAP1 PUSH3 0x3BD5 JUMP JUMPDEST DUP8 PUSH3 0x3437 JUMP JUMPDEST POP DUP8 ISZERO PUSH3 0x319F JUMP JUMPDEST SWAP1 SWAP7 POP DUP4 DUP2 DUP2 RETURNDATASIZE DUP4 GT PUSH3 0x3486 JUMPI JUMPDEST PUSH3 0x3474 DUP2 DUP4 PUSH3 0x3C07 JUMP JUMPDEST DUP2 ADD SUB SLT PUSH3 0x1F2 JUMPI MLOAD SWAP6 DUP8 PUSH3 0x3194 JUMP JUMPDEST POP RETURNDATASIZE PUSH3 0x3468 JUMP JUMPDEST SWAP1 SWAP3 POP DUP4 DUP2 DUP2 RETURNDATASIZE DUP4 GT PUSH3 0x34BC JUMPI JUMPDEST PUSH3 0x34A9 DUP2 DUP4 PUSH3 0x3C07 JUMP JUMPDEST DUP2 ADD SUB SLT PUSH3 0x1F2 JUMPI MLOAD SWAP2 PUSH1 0x3 PUSH3 0x3165 JUMP JUMPDEST POP RETURNDATASIZE PUSH3 0x349D JUMP JUMPDEST PUSH1 0x40 MLOAD PUSH4 0xA5A0FC5 PUSH1 0xE3 SHL DUP2 MSTORE PUSH1 0x4 SWAP1 REVERT JUMPDEST CALLVALUE PUSH3 0x1F2 JUMPI PUSH1 0x20 DUP1 PUSH1 0x3 NOT CALLDATASIZE ADD SLT PUSH3 0x1F2 JUMPI PUSH1 0x1 PUSH1 0x1 PUSH1 0xA0 SHL SUB PUSH3 0x34FC PUSH3 0x3B0A JUMP JUMPDEST AND PUSH1 0xE0 MLOAD MSTORE PUSH1 0x8 DUP2 MSTORE PUSH1 0x40 PUSH1 0xE0 MLOAD KECCAK256 SWAP1 PUSH1 0x40 MLOAD SWAP1 DUP2 DUP2 DUP5 SLOAD SWAP2 DUP3 DUP2 MSTORE ADD SWAP4 PUSH1 0xE0 MLOAD MSTORE PUSH1 0xE0 MLOAD SWAP2 DUP1 DUP4 KECCAK256 SWAP3 SWAP1 JUMPDEST DUP3 DUP3 LT PUSH3 0x3543 JUMPI PUSH3 0x2DB3 DUP6 PUSH3 0x2DA6 DUP2 DUP10 SUB DUP3 PUSH3 0x3C07 JUMP JUMPDEST DUP4 SLOAD DUP7 MSTORE SWAP5 DUP6 ADD SWAP5 PUSH1 0x1 SWAP4 DUP5 ADD SWAP4 SWAP1 SWAP2 ADD SWAP1 PUSH3 0x3528 JUMP JUMPDEST CALLVALUE PUSH3 0x1F2 JUMPI PUSH1 0x40 CALLDATASIZE PUSH1 0x3 NOT ADD SLT PUSH3 0x1F2 JUMPI PUSH1 0x24 CALLDATALOAD PUSH1 0x4 CALLDATALOAD PUSH1 0x3 DUP3 LT ISZERO PUSH3 0x1F2 JUMPI DUP1 PUSH1 0xE0 MLOAD MSTORE PUSH1 0x5 PUSH1 0x20 MSTORE PUSH1 0x7 PUSH1 0x40 PUSH1 0xE0 MLOAD KECCAK256 PUSH3 0x359B DUP2 PUSH3 0x422C JUMP JUMPDEST ADD DUP1 SLOAD SWAP1 PUSH1 0xFF DUP3 AND SWAP2 PUSH1 0x4 DUP4 LT ISZERO PUSH3 0xBB9 JUMPI DUP3 ISZERO ISZERO DUP1 PUSH3 0x363A JUMPI JUMPDEST PUSH3 0x2989 JUMPI DUP4 SWAP3 PUSH3 0x35E7 DUP7 PUSH1 0x0 DUP1 MLOAD PUSH1 0x20 PUSH3 0x525E DUP4 CODECOPY DUP2 MLOAD SWAP2 MSTORE SWAP5 PUSH1 0x2 PUSH1 0x40 SWAP6 PUSH1 0xFF NOT AND OR DUP2 SSTORE PUSH3 0x3F7B JUMP JUMPDEST PUSH3 0x35F5 DUP3 MLOAD DUP1 SWAP3 PUSH3 0x3D28 JUMP JUMPDEST PUSH1 0x2 PUSH1 0x20 DUP3 ADD MSTORE LOG2 PUSH1 0x40 MLOAD SWAP2 PUSH3 0x360C DUP2 PUSH3 0x3AB6 JUMP JUMPDEST DUP3 MSTORE PUSH32 0x32C04EF1B4209CBE24E47A18EE52B8F81E4C88B295A7EB580DE0CD6513579865 PUSH1 0x20 CALLER SWAP4 LOG3 PUSH1 0xE0 MLOAD DUP1 RETURN JUMPDEST POP PUSH1 0x1 DUP4 EQ ISZERO PUSH3 0x35B8 JUMP JUMPDEST CALLVALUE PUSH3 0x1F2 JUMPI PUSH1 0x20 CALLDATASIZE PUSH1 0x3 NOT ADD SLT PUSH3 0x1F2 JUMPI PUSH32 0x745BF4A6CE2743009B1B47F40128DD9086F6EED93B86263039A71C240C93357C PUSH1 0x40 PUSH1 0x4 CALLDATALOAD PUSH3 0x3689 PUSH3 0x3D36 JUMP JUMPDEST PUSH1 0x2 SLOAD SWAP1 DUP1 PUSH1 0x2 SSTORE DUP3 MLOAD SWAP2 DUP3 MSTORE PUSH1 0x20 DUP3 ADD MSTORE LOG1 PUSH1 0xE0 MLOAD DUP1 RETURN JUMPDEST CALLVALUE PUSH3 0x1F2 JUMPI PUSH1 0x20 CALLDATASIZE PUSH1 0x3 NOT ADD SLT PUSH3 0x1F2 JUMPI PUSH1 0x40 MLOAD PUSH3 0x36C3 DUP2 PUSH3 0x3BB7 JUMP JUMPDEST PUSH1 0xE0 MLOAD DUP2 MSTORE PUSH1 0xE0 MLOAD PUSH1 0x20 DUP3 ADD MSTORE PUSH1 0xE0 MLOAD PUSH1 0x40 DUP3 ADD MSTORE PUSH1 0xE0 MLOAD PUSH1 0x60 DUP3 ADD MSTORE PUSH1 0xE0 MLOAD PUSH1 0x80 DUP3 ADD MSTORE PUSH1 0xE0 MLOAD PUSH1 0xA0 DUP3 ADD MSTORE PUSH1 0xE0 MLOAD PUSH1 0xC0 DUP3 ADD MSTORE PUSH1 0xE0 MLOAD PUSH1 0xE0 DUP3 ADD MSTORE PUSH1 0xE0 MLOAD PUSH2 0x100 DUP3 ADD MSTORE PUSH1 0xE0 MLOAD PUSH2 0x120 DUP3 ADD MSTORE PUSH1 0xE0 MLOAD PUSH2 0x140 DUP3 ADD MSTORE PUSH2 0x160 PUSH1 0xE0 MLOAD SWAP2 ADD MSTORE PUSH1 0x4 CALLDATALOAD PUSH1 0xE0 MLOAD MSTORE PUSH1 0x6 PUSH1 0x20 MSTORE PUSH1 0x40 PUSH1 0xE0 MLOAD KECCAK256 PUSH1 0x40 MLOAD PUSH3 0x3744 DUP2 PUSH3 0x3BB7 JUMP JUMPDEST DUP2 SLOAD DUP2 MSTORE PUSH1 0x1 DUP3 ADD SLOAD PUSH1 0x20 DUP3 ADD MSTORE PUSH1 0x2 DUP3 ADD SLOAD PUSH1 0x1 PUSH1 0x1 PUSH1 0xA0 SHL SUB DUP2 AND PUSH1 0x40 DUP4 ADD MSTORE PUSH1 0xFF SWAP1 PUSH3 0x377E PUSH1 0xA0 DUP3 SWAP1 SHR DUP4 AND PUSH1 0x60 DUP6 ADD PUSH3 0x4003 JUMP JUMPDEST PUSH1 0xA8 SHR AND PUSH3 0x378D DUP2 PUSH3 0x3AB6 JUMP JUMPDEST PUSH1 0x80 DUP3 ADD MSTORE PUSH1 0x3 DUP3 ADD SLOAD PUSH1 0xA0 DUP3 ADD MSTORE PUSH1 0x4 DUP3 ADD SLOAD PUSH1 0xC0 DUP3 ADD MSTORE PUSH1 0x5 DUP3 ADD SLOAD PUSH1 0xE0 DUP3 ADD MSTORE PUSH1 0x6 DUP3 ADD SLOAD PUSH2 0x100 DUP3 ADD MSTORE PUSH1 0xFF PUSH1 0x7 DUP4 ADD SLOAD AND PUSH1 0x5 DUP2 LT ISZERO PUSH3 0xBB9 JUMPI PUSH2 0x180 SWAP3 PUSH1 0x9 SWAP2 PUSH2 0x120 DUP5 ADD MSTORE PUSH1 0x8 DUP2 ADD SLOAD PUSH2 0x140 DUP5 ADD MSTORE ADD SLOAD PUSH2 0x160 DUP3 ADD MSTORE PUSH2 0x160 PUSH1 0x40 MLOAD SWAP2 DUP1 MLOAD DUP4 MSTORE PUSH1 0x20 DUP2 ADD MLOAD PUSH1 0x20 DUP5 ADD MSTORE PUSH1 0x1 DUP1 PUSH1 0xA0 SHL SUB PUSH1 0x40 DUP3 ADD MLOAD AND PUSH1 0x40 DUP5 ADD MSTORE PUSH3 0x3828 PUSH1 0x60 DUP3 ADD MLOAD PUSH1 0x60 DUP6 ADD SWAP1 PUSH3 0x3B5E JUMP JUMPDEST PUSH1 0x80 DUP2 ADD MLOAD PUSH3 0x3838 DUP2 PUSH3 0x3AB6 JUMP JUMPDEST PUSH1 0x80 DUP5 ADD MSTORE PUSH1 0xA0 DUP2 ADD MLOAD PUSH1 0xA0 DUP5 ADD MSTORE PUSH1 0xC0 DUP2 ADD MLOAD PUSH1 0xC0 DUP5 ADD MSTORE PUSH1 0xE0 DUP2 ADD MLOAD PUSH1 0xE0 DUP5 ADD MSTORE PUSH2 0x100 DUP2 ADD MLOAD PUSH2 0x100 DUP5 ADD MSTORE PUSH3 0x387D PUSH2 0x120 DUP3 ADD MLOAD PUSH2 0x120 DUP6 ADD SWAP1 PUSH3 0x3B6C JUMP JUMPDEST PUSH2 0x140 DUP2 ADD MLOAD PUSH2 0x140 DUP5 ADD MSTORE ADD MLOAD PUSH2 0x160 DUP3 ADD MSTORE RETURN JUMPDEST CALLVALUE PUSH3 0x1F2 JUMPI PUSH1 0xE0 MLOAD DUP1 PUSH1 0x3 NOT CALLDATASIZE ADD SLT PUSH3 0x1EF JUMPI PUSH1 0x40 MLOAD DUP1 PUSH1 0xA SLOAD SWAP2 DUP3 DUP2 MSTORE PUSH1 0x20 DUP1 SWAP2 ADD SWAP3 PUSH1 0xA PUSH1 0xE0 MLOAD MSTORE PUSH32 0xC65A7BB8D6351C1CF70C95A316CC6A92839C986682D98BC35F958F4883F9D2A8 SWAP2 PUSH1 0xE0 MLOAD SWAP1 JUMPDEST DUP3 DUP3 LT PUSH3 0x3901 JUMPI PUSH3 0x2DB3 DUP6 PUSH3 0x2DA6 DUP2 DUP10 SUB DUP3 PUSH3 0x3C07 JUMP JUMPDEST DUP4 SLOAD DUP7 MSTORE SWAP5 DUP6 ADD SWAP5 PUSH1 0x1 SWAP4 DUP5 ADD SWAP4 SWAP1 SWAP2 ADD SWAP1 PUSH3 0x38E6 JUMP JUMPDEST CALLVALUE PUSH3 0x1F2 JUMPI PUSH1 0x40 CALLDATASIZE PUSH1 0x3 NOT ADD SLT PUSH3 0x1F2 JUMPI PUSH3 0x3936 PUSH3 0x3AF3 JUMP JUMPDEST CALLER PUSH1 0x1 PUSH1 0x1 PUSH1 0xA0 SHL SUB DUP3 AND SUB PUSH3 0x3955 JUMPI PUSH3 0xD56 SWAP1 PUSH1 0x4 CALLDATALOAD PUSH3 0x3EE6 JUMP JUMPDEST PUSH1 0x40 MLOAD PUSH4 0x334BD919 PUSH1 0xE1 SHL DUP2 MSTORE PUSH1 0x4 SWAP1 REVERT JUMPDEST CALLVALUE PUSH3 0x1F2 JUMPI PUSH1 0x40 CALLDATASIZE PUSH1 0x3 NOT ADD SLT PUSH3 0x1F2 JUMPI PUSH3 0xD56 PUSH1 0x4 CALLDATALOAD PUSH3 0x398B PUSH3 0x3AF3 JUMP JUMPDEST SWAP1 DUP1 PUSH1 0xE0 MLOAD MSTORE PUSH1 0x1 PUSH1 0x20 MSTORE PUSH3 0x39AA PUSH1 0x1 PUSH1 0x40 PUSH1 0xE0 MLOAD KECCAK256 ADD SLOAD PUSH3 0x3D8F JUMP JUMPDEST PUSH3 0x3E6A JUMP JUMPDEST CALLVALUE PUSH3 0x1F2 JUMPI PUSH1 0x20 CALLDATASIZE PUSH1 0x3 NOT ADD SLT PUSH3 0x1F2 JUMPI PUSH1 0x4 CALLDATALOAD PUSH1 0xE0 MLOAD MSTORE PUSH1 0x1 PUSH1 0x20 MSTORE PUSH1 0x20 PUSH1 0x1 PUSH1 0x40 PUSH1 0xE0 MLOAD KECCAK256 ADD SLOAD PUSH1 0x40 MLOAD SWAP1 DUP2 MSTORE RETURN JUMPDEST CALLVALUE PUSH3 0x1F2 JUMPI PUSH1 0x80 CALLDATASIZE PUSH1 0x3 NOT ADD SLT PUSH3 0x1F2 JUMPI PUSH1 0x24 CALLDATALOAD PUSH1 0x3 DUP2 LT ISZERO PUSH3 0x1F2 JUMPI PUSH1 0x44 CALLDATALOAD PUSH1 0x2 DUP2 LT ISZERO PUSH3 0x1F2 JUMPI PUSH3 0x3A37 SWAP1 PUSH1 0x64 CALLDATALOAD SWAP3 PUSH1 0x4 CALLDATALOAD PUSH1 0xE0 MLOAD MSTORE PUSH1 0x7 PUSH1 0x20 MSTORE PUSH1 0x40 PUSH1 0xE0 MLOAD KECCAK256 SWAP1 PUSH3 0x1467 DUP2 PUSH3 0x3AB6 JUMP JUMPDEST DUP1 SLOAD DUP3 LT ISZERO PUSH3 0x1F2 JUMPI PUSH1 0x20 SWAP2 PUSH3 0x3A4F SWAP2 PUSH3 0x3ADA JUMP JUMPDEST SWAP1 SLOAD SWAP1 PUSH1 0x3 SHL SHR PUSH1 0x40 MLOAD SWAP1 DUP2 MSTORE RETURN JUMPDEST CALLVALUE PUSH3 0x574 JUMPI PUSH1 0x20 CALLDATASIZE PUSH1 0x3 NOT ADD SLT PUSH3 0x574 JUMPI PUSH1 0x4 CALLDATALOAD SWAP1 PUSH4 0xFFFFFFFF PUSH1 0xE0 SHL DUP3 AND DUP1 SWAP3 SUB PUSH3 0x574 JUMPI PUSH1 0x20 SWAP2 PUSH4 0x7965DB0B PUSH1 0xE0 SHL DUP2 EQ SWAP1 DUP2 ISZERO PUSH3 0x3AA4 JUMPI JUMPDEST POP ISZERO ISZERO DUP2 MSTORE RETURN JUMPDEST PUSH4 0x1FFC9A7 PUSH1 0xE0 SHL EQ SWAP1 POP DUP4 PUSH3 0x3A9D JUMP JUMPDEST PUSH1 0x3 GT ISZERO PUSH3 0xF79 JUMPI JUMP JUMPDEST SWAP1 PUSH1 0x2 DUP2 LT ISZERO PUSH3 0xF79 JUMPI PUSH1 0x0 MSTORE PUSH1 0x20 MSTORE PUSH1 0x40 PUSH1 0x0 KECCAK256 SWAP1 JUMP JUMPDEST DUP1 SLOAD DUP3 LT ISZERO PUSH3 0xB8D JUMPI PUSH1 0x0 MSTORE PUSH1 0x20 PUSH1 0x0 KECCAK256 ADD SWAP1 PUSH1 0x0 SWAP1 JUMP JUMPDEST PUSH1 0x24 CALLDATALOAD SWAP1 PUSH1 0x1 PUSH1 0x1 PUSH1 0xA0 SHL SUB DUP3 AND DUP3 SUB PUSH3 0x574 JUMPI JUMP JUMPDEST PUSH1 0x4 CALLDATALOAD SWAP1 PUSH1 0x1 PUSH1 0x1 PUSH1 0xA0 SHL SUB DUP3 AND DUP3 SUB PUSH3 0x574 JUMPI JUMP JUMPDEST PUSH1 0x20 SWAP1 DUP2 PUSH1 0x40 DUP2 DUP4 ADD SWAP3 DUP3 DUP2 MSTORE DUP6 MLOAD DUP1 SWAP5 MSTORE ADD SWAP4 ADD SWAP2 PUSH1 0x0 JUMPDEST DUP3 DUP2 LT PUSH3 0x3B49 JUMPI POP POP POP POP SWAP1 JUMP JUMPDEST DUP4 MLOAD DUP6 MSTORE SWAP4 DUP2 ADD SWAP4 SWAP3 DUP2 ADD SWAP3 PUSH1 0x1 ADD PUSH3 0x3B3A JUMP JUMPDEST SWAP1 PUSH1 0x2 DUP3 LT ISZERO PUSH3 0xF79 JUMPI MSTORE JUMP JUMPDEST SWAP1 PUSH1 0x5 DUP3 LT ISZERO PUSH3 0xF79 JUMPI MSTORE JUMP JUMPDEST SWAP1 PUSH1 0x1 DUP3 DUP2 SHR SWAP3 AND DUP1 ISZERO PUSH3 0x3BAC JUMPI JUMPDEST PUSH1 0x20 DUP4 LT EQ PUSH3 0x3B96 JUMPI JUMP JUMPDEST PUSH4 0x4E487B71 PUSH1 0xE0 SHL PUSH1 0x0 MSTORE PUSH1 0x22 PUSH1 0x4 MSTORE PUSH1 0x24 PUSH1 0x0 REVERT JUMPDEST SWAP2 PUSH1 0x7F AND SWAP2 PUSH3 0x3B8A JUMP JUMPDEST PUSH2 0x180 DUP2 ADD SWAP1 DUP2 LT PUSH8 0xFFFFFFFFFFFFFFFF DUP3 GT OR PUSH3 0xBA3 JUMPI PUSH1 0x40 MSTORE JUMP JUMPDEST PUSH8 0xFFFFFFFFFFFFFFFF DUP2 GT PUSH3 0xBA3 JUMPI PUSH1 0x40 MSTORE JUMP JUMPDEST PUSH1 0x60 DUP2 ADD SWAP1 DUP2 LT PUSH8 0xFFFFFFFFFFFFFFFF DUP3 GT OR PUSH3 0xBA3 JUMPI PUSH1 0x40 MSTORE JUMP JUMPDEST SWAP1 PUSH1 0x1F DUP1 NOT SWAP2 ADD AND DUP2 ADD SWAP1 DUP2 LT PUSH8 0xFFFFFFFFFFFFFFFF DUP3 GT OR PUSH3 0xBA3 JUMPI PUSH1 0x40 MSTORE JUMP JUMPDEST SWAP1 PUSH1 0x40 MLOAD SWAP2 DUP3 PUSH1 0x0 DUP3 SLOAD SWAP3 PUSH3 0x3C40 DUP5 PUSH3 0x3B7A JUMP JUMPDEST SWAP1 DUP2 DUP5 MSTORE PUSH1 0x1 SWAP5 DUP6 DUP2 AND SWAP1 DUP2 PUSH1 0x0 EQ PUSH3 0x3CB7 JUMPI POP PUSH1 0x1 EQ PUSH3 0x3C70 JUMPI JUMPDEST POP POP PUSH3 0x3C6E SWAP3 POP SUB DUP4 PUSH3 0x3C07 JUMP JUMPDEST JUMP JUMPDEST SWAP1 SWAP4 SWAP2 POP PUSH1 0x0 MSTORE PUSH1 0x20 SWAP1 DUP2 PUSH1 0x0 KECCAK256 SWAP4 PUSH1 0x0 SWAP2 JUMPDEST DUP2 DUP4 LT PUSH3 0x3C9E JUMPI POP POP PUSH3 0x3C6E SWAP4 POP DUP3 ADD ADD CODESIZE DUP1 PUSH3 0x3C5E JUMP JUMPDEST DUP6 SLOAD DUP9 DUP5 ADD DUP6 ADD MSTORE SWAP5 DUP6 ADD SWAP5 DUP8 SWAP5 POP SWAP2 DUP4 ADD SWAP2 PUSH3 0x3C83 JUMP JUMPDEST SWAP2 POP POP PUSH3 0x3C6E SWAP5 POP PUSH1 0x20 SWAP3 POP PUSH1 0xFF NOT AND DUP3 DUP5 ADD MSTORE ISZERO ISZERO PUSH1 0x5 SHL DUP3 ADD ADD CODESIZE DUP1 PUSH3 0x3C5E JUMP JUMPDEST PUSH1 0x0 JUMPDEST DUP4 DUP2 LT PUSH3 0x3CF0 JUMPI POP POP PUSH1 0x0 SWAP2 ADD MSTORE JUMP JUMPDEST DUP2 DUP2 ADD MLOAD DUP4 DUP3 ADD MSTORE PUSH1 0x20 ADD PUSH3 0x3CDF JUMP JUMPDEST SWAP1 PUSH1 0x20 SWAP2 PUSH3 0x3D1C DUP2 MLOAD DUP1 SWAP3 DUP2 DUP6 MSTORE DUP6 DUP1 DUP7 ADD SWAP2 ADD PUSH3 0x3CDC JUMP JUMPDEST PUSH1 0x1F ADD PUSH1 0x1F NOT AND ADD ADD SWAP1 JUMP JUMPDEST SWAP1 PUSH1 0x4 DUP3 LT ISZERO PUSH3 0xF79 JUMPI MSTORE JUMP JUMPDEST CALLER PUSH1 0x0 SWAP1 DUP2 MSTORE PUSH32 0xA6EEF7E35ABE7026729641147F7915573C7E97B47EFA546F5F6E3230263BCB49 PUSH1 0x20 MSTORE PUSH1 0x40 DUP2 KECCAK256 SLOAD PUSH1 0xFF AND ISZERO PUSH3 0x3D71 JUMPI POP JUMP JUMPDEST PUSH1 0x44 SWAP1 PUSH1 0x40 MLOAD SWAP1 PUSH4 0xE2517D3F PUSH1 0xE0 SHL DUP3 MSTORE CALLER PUSH1 0x4 DUP4 ADD MSTORE PUSH1 0x24 DUP3 ADD MSTORE REVERT JUMPDEST DUP1 PUSH1 0x0 MSTORE PUSH1 0x1 PUSH1 0x20 MSTORE PUSH1 0x40 PUSH1 0x0 KECCAK256 CALLER PUSH1 0x0 MSTORE PUSH1 0x20 MSTORE PUSH1 0xFF PUSH1 0x40 PUSH1 0x0 KECCAK256 SLOAD AND ISZERO PUSH3 0x3D71 JUMPI POP JUMP JUMPDEST PUSH1 0x1 PUSH1 0x1 PUSH1 0xA0 SHL SUB AND PUSH1 0x0 DUP2 DUP2 MSTORE PUSH32 0x31C1E66639F421F1853AEEFE8AD6B62A3B96F3287EFE23106923CD924AA025C2 PUSH1 0x20 MSTORE PUSH1 0x40 DUP2 KECCAK256 SLOAD SWAP1 SWAP2 SWAP1 PUSH32 0x97667070C54EF182B0F5858B034BEAC1B6F3089AA2D3188BB1E8929F4FA9B929 SWAP1 PUSH1 0xFF AND PUSH3 0x3E65 JUMPI DUP1 DUP4 MSTORE PUSH1 0x1 PUSH1 0x20 MSTORE PUSH1 0x40 DUP4 KECCAK256 DUP3 DUP5 MSTORE PUSH1 0x20 MSTORE PUSH1 0x40 DUP4 KECCAK256 PUSH1 0x1 PUSH1 0xFF NOT DUP3 SLOAD AND OR SWAP1 SSTORE PUSH32 0x2F8788117E7EFF1D82E926EC794901D17C78024A50270940304540A733656F0D CALLER SWAP4 DUP1 LOG4 PUSH1 0x1 SWAP1 JUMP JUMPDEST POP POP SWAP1 JUMP JUMPDEST SWAP1 PUSH1 0x0 SWAP2 DUP1 DUP4 MSTORE PUSH1 0x1 PUSH1 0x20 MSTORE PUSH1 0x40 DUP4 KECCAK256 SWAP2 PUSH1 0x1 DUP1 PUSH1 0xA0 SHL SUB AND SWAP2 DUP3 DUP5 MSTORE PUSH1 0x20 MSTORE PUSH1 0xFF PUSH1 0x40 DUP5 KECCAK256 SLOAD AND ISZERO PUSH1 0x0 EQ PUSH3 0x3E65 JUMPI DUP1 DUP4 MSTORE PUSH1 0x1 PUSH1 0x20 MSTORE PUSH1 0x40 DUP4 KECCAK256 DUP3 DUP5 MSTORE PUSH1 0x20 MSTORE PUSH1 0x40 DUP4 KECCAK256 PUSH1 0x1 PUSH1 0xFF NOT DUP3 SLOAD AND OR SWAP1 SSTORE PUSH32 0x2F8788117E7EFF1D82E926EC794901D17C78024A50270940304540A733656F0D CALLER SWAP4 DUP1 LOG4 PUSH1 0x1 SWAP1 JUMP JUMPDEST SWAP1 PUSH1 0x0 SWAP2 DUP1 DUP4 MSTORE PUSH1 0x1 PUSH1 0x20 MSTORE PUSH1 0x40 DUP4 KECCAK256 SWAP2 PUSH1 0x1 DUP1 PUSH1 0xA0 SHL SUB AND SWAP2 DUP3 DUP5 MSTORE PUSH1 0x20 MSTORE PUSH1 0xFF PUSH1 0x40 DUP5 KECCAK256 SLOAD AND PUSH1 0x0 EQ PUSH3 0x3E65 JUMPI DUP1 DUP4 MSTORE PUSH1 0x1 PUSH1 0x20 MSTORE PUSH1 0x40 DUP4 KECCAK256 DUP3 DUP5 MSTORE PUSH1 0x20 MSTORE PUSH1 0x40 DUP4 KECCAK256 PUSH1 0xFF NOT DUP2 SLOAD AND SWAP1 SSTORE PUSH32 0xF6391F5C32D9C69D2A47EA670B442974B53935D1EDC7FD64EB21E047A839171B CALLER SWAP4 DUP1 LOG4 PUSH1 0x1 SWAP1 JUMP JUMPDEST PUSH8 0xFFFFFFFFFFFFFFFF DUP2 GT PUSH3 0xBA3 JUMPI PUSH1 0x1F ADD PUSH1 0x1F NOT AND PUSH1 0x20 ADD SWAP1 JUMP JUMPDEST SWAP1 PUSH3 0x3F87 DUP2 PUSH3 0x3AB6 JUMP JUMPDEST PUSH2 0xFF00 DUP3 SLOAD SWAP2 PUSH1 0x8 SHL AND SWAP1 PUSH2 0xFF00 NOT AND OR SWAP1 SSTORE JUMP JUMPDEST DUP1 SLOAD SWAP1 PUSH1 0x1 PUSH1 0x40 SHL DUP3 LT ISZERO PUSH3 0xBA3 JUMPI DUP2 PUSH3 0x3FC2 SWAP2 PUSH1 0x1 PUSH3 0x3FD9 SWAP5 ADD DUP2 SSTORE PUSH3 0x3ADA JUMP JUMPDEST DUP2 SWAP4 SWAP2 SLOAD SWAP1 PUSH1 0x3 SHL SWAP2 DUP3 SHL SWAP2 PUSH1 0x0 NOT SWAP1 SHL NOT AND OR SWAP1 JUMP JUMPDEST SWAP1 SSTORE JUMP JUMPDEST PUSH1 0x0 NOT DUP2 EQ PUSH3 0x3FED JUMPI PUSH1 0x1 ADD SWAP1 JUMP JUMPDEST PUSH4 0x4E487B71 PUSH1 0xE0 SHL PUSH1 0x0 MSTORE PUSH1 0x11 PUSH1 0x4 MSTORE PUSH1 0x24 PUSH1 0x0 REVERT JUMPDEST PUSH1 0x2 DUP3 LT ISZERO PUSH3 0xF79 JUMPI MSTORE JUMP JUMPDEST PUSH1 0x2 PUSH1 0x0 SLOAD EQ PUSH3 0x4022 JUMPI PUSH1 0x2 PUSH1 0x0 SSTORE JUMP JUMPDEST PUSH1 0x40 MLOAD PUSH4 0x3EE5AEB5 PUSH1 0xE0 SHL DUP2 MSTORE PUSH1 0x4 SWAP1 REVERT JUMPDEST SWAP2 SWAP1 DUP3 SUB SWAP2 DUP3 GT PUSH3 0x3FED JUMPI JUMP JUMPDEST DUP2 DUP2 MUL SWAP3 SWAP2 DUP2 ISZERO SWAP2 DUP5 DIV EQ OR ISZERO PUSH3 0x3FED JUMPI JUMP JUMPDEST SWAP1 DUP2 PUSH1 0x20 SWAP2 SUB SLT PUSH3 0x574 JUMPI MLOAD PUSH1 0x1 PUSH1 0x1 PUSH1 0xA0 SHL SUB DUP2 AND DUP2 SUB PUSH3 0x574 JUMPI SWAP1 JUMP JUMPDEST SWAP1 DUP2 PUSH1 0x20 SWAP2 SUB SLT PUSH3 0x574 JUMPI MLOAD DUP1 ISZERO ISZERO DUP2 SUB PUSH3 0x574 JUMPI SWAP1 JUMP JUMPDEST SWAP2 SWAP1 DUP3 ADD DUP1 SWAP3 GT PUSH3 0x3FED JUMPI JUMP JUMPDEST PUSH1 0xFF PUSH1 0x7 DUP3 ADD SLOAD AND PUSH1 0x5 DUP2 LT ISZERO PUSH3 0xF79 JUMPI DUP1 ISZERO ISZERO SWAP1 DUP2 PUSH3 0x40F7 JUMPI JUMPDEST POP PUSH3 0x40E6 JUMPI PUSH1 0x9 DUP2 ADD SLOAD DUP1 ISZERO ISZERO SWAP1 DUP2 PUSH3 0x40EC JUMPI JUMPDEST POP PUSH3 0x40E6 JUMPI PUSH1 0x4 PUSH1 0x5 DUP3 ADD SLOAD SWAP2 ADD SLOAD GT SWAP1 JUMP JUMPDEST POP PUSH1 0x0 SWAP1 JUMP JUMPDEST SWAP1 POP TIMESTAMP GT CODESIZE PUSH3 0x40D2 JUMP JUMPDEST PUSH1 0x1 SWAP2 POP EQ ISZERO CODESIZE PUSH3 0x40BC JUMP JUMPDEST SWAP2 SWAP1 SWAP2 PUSH1 0x2 DUP2 LT ISZERO PUSH3 0xF79 JUMPI PUSH3 0x4129 JUMPI PUSH2 0x2710 SWAP2 PUSH3 0x4125 SWAP2 PUSH3 0x4042 JUMP JUMPDEST DIV SWAP1 JUMP JUMPDEST POP POP PUSH1 0x0 SWAP1 JUMP JUMPDEST SWAP3 SWAP2 PUSH3 0x4160 SWAP2 PUSH1 0x0 SWAP5 DUP6 MSTORE PUSH1 0x7 PUSH1 0x20 MSTORE PUSH1 0x40 DUP6 KECCAK256 SWAP1 PUSH3 0x4151 DUP2 PUSH3 0x3AB6 JUMP JUMPDEST DUP6 MSTORE PUSH1 0x20 MSTORE PUSH1 0x40 DUP5 KECCAK256 PUSH3 0x3AC1 JUMP JUMPDEST DUP3 JUMPDEST DUP2 SLOAD DUP1 DUP3 LT ISZERO PUSH3 0x4225 JUMPI DUP4 SWAP1 PUSH3 0x417B DUP4 DUP6 PUSH3 0x3ADA JUMP JUMPDEST SWAP3 SWAP1 SLOAD PUSH1 0x3 SWAP4 DUP5 SHL SHR EQ PUSH3 0x419D JUMPI POP POP PUSH3 0x4197 SWAP1 PUSH3 0x3FDD JUMP JUMPDEST PUSH3 0x4162 JUMP JUMPDEST SWAP3 SWAP4 POP SWAP4 SWAP1 PUSH1 0x0 NOT SWAP3 DUP4 DUP2 ADD SWAP1 DUP2 GT PUSH3 0x4211 JUMPI PUSH3 0x3FC2 PUSH3 0x41C5 PUSH3 0x41D3 SWAP3 DUP8 PUSH3 0x3ADA JUMP JUMPDEST SWAP1 SLOAD SWAP1 DUP9 SHL SHR SWAP3 DUP7 PUSH3 0x3ADA JUMP JUMPDEST SWAP1 SSTORE DUP3 SLOAD SWAP1 DUP2 ISZERO PUSH3 0x41FD JUMPI POP DUP2 ADD SWAP3 PUSH3 0x41EF DUP5 DUP5 PUSH3 0x3ADA JUMP JUMPDEST DUP2 SWAP4 SWAP2 SLOAD SWAP3 SHL SHL NOT AND SWAP1 SSTORE SSTORE JUMP JUMPDEST PUSH4 0x4E487B71 PUSH1 0xE0 SHL DUP2 MSTORE PUSH1 0x31 PUSH1 0x4 MSTORE PUSH1 0x24 SWAP1 REVERT JUMPDEST PUSH4 0x4E487B71 PUSH1 0xE0 SHL DUP4 MSTORE PUSH1 0x11 PUSH1 0x4 MSTORE PUSH1 0x24 DUP4 REVERT JUMPDEST POP POP POP POP POP JUMP JUMPDEST PUSH1 0x9 DUP2 ADD SLOAD ISZERO PUSH3 0x42A1 JUMPI PUSH1 0xA ADD SLOAD PUSH1 0x1 PUSH1 0x1 PUSH1 0xA0 SHL SUB AND CALLER EQ ISZERO DUP1 PUSH3 0x4267 JUMPI JUMPDEST PUSH3 0x4255 JUMPI JUMP JUMPDEST PUSH1 0x40 MLOAD PUSH4 0x26B9CDFF PUSH1 0xE1 SHL DUP2 MSTORE PUSH1 0x4 SWAP1 REVERT JUMPDEST POP CALLER PUSH1 0x0 SWAP1 DUP2 MSTORE PUSH32 0xA6EEF7E35ABE7026729641147F7915573C7E97B47EFA546F5F6E3230263BCB49 PUSH1 0x20 MSTORE PUSH1 0x40 SWAP1 KECCAK256 SLOAD PUSH1 0xFF AND ISZERO PUSH3 0x424E JUMP JUMPDEST PUSH1 0x40 MLOAD PUSH4 0xB0CFA447 PUSH1 0xE0 SHL DUP2 MSTORE PUSH1 0x4 SWAP1 REVERT JUMPDEST PUSH1 0xFF AND PUSH1 0xFF DUP2 EQ PUSH3 0x3FED JUMPI PUSH1 0x1 ADD SWAP1 JUMP JUMPDEST SWAP1 PUSH1 0x0 JUMPDEST PUSH1 0xFF DUP2 AND PUSH1 0x20 DUP2 LT SWAP1 DUP2 PUSH3 0x4376 JUMPI JUMPDEST POP ISZERO PUSH3 0x42F1 JUMPI PUSH3 0x42EB SWAP1 PUSH3 0x42B3 JUMP JUMPDEST PUSH3 0x42C9 JUMP JUMPDEST SWAP1 PUSH1 0xFF DUP1 SWAP3 AND SWAP1 PUSH3 0x4303 DUP3 PUSH3 0x3F5E JUMP JUMPDEST SWAP2 PUSH3 0x4313 PUSH1 0x40 MLOAD SWAP4 DUP5 PUSH3 0x3C07 JUMP JUMPDEST DUP1 DUP4 MSTORE PUSH1 0x1F NOT PUSH3 0x4324 DUP3 PUSH3 0x3F5E JUMP JUMPDEST ADD SWAP2 PUSH1 0x20 SWAP3 CALLDATASIZE DUP5 DUP7 ADD CALLDATACOPY PUSH1 0x0 JUMPDEST DUP6 DUP2 AND SWAP1 DUP4 DUP3 LT ISZERO PUSH3 0x436B JUMPI DUP5 DUP3 LT ISZERO PUSH3 0xB8D JUMPI DUP6 MLOAD DUP3 LT ISZERO PUSH3 0xB8D JUMPI DUP2 DUP6 DUP10 PUSH3 0x4365 SWAP5 BYTE SWAP2 DUP9 ADD ADD MSTORE8 PUSH3 0x42B3 JUMP JUMPDEST PUSH3 0x4331 JUMP JUMPDEST POP POP SWAP5 POP POP POP SWAP1 POP SWAP1 JUMP JUMPDEST SWAP1 ISZERO PUSH3 0xB8D JUMPI DUP4 SWAP1 BYTE PUSH1 0xF8 SHL PUSH1 0x1 PUSH1 0x1 PUSH1 0xF8 SHL SUB NOT AND ISZERO ISZERO CODESIZE PUSH3 0x42D9 JUMP INVALID PUSH1 0xC0 PUSH1 0x40 MSTORE CALLVALUE PUSH3 0x3C3 JUMPI PUSH3 0xEC7 DUP1 CODESIZE SUB DUP1 PUSH3 0x1D DUP2 PUSH3 0x3C8 JUMP JUMPDEST SWAP3 DUP4 CODECOPY DUP2 ADD SWAP1 PUSH1 0xA0 DUP2 DUP4 SUB SLT PUSH3 0x3C3 JUMPI DUP1 MLOAD PUSH1 0x1 PUSH1 0x1 PUSH1 0x40 SHL SUB SWAP1 DUP2 DUP2 GT PUSH3 0x3C3 JUMPI DUP4 PUSH3 0x4F SWAP2 DUP5 ADD PUSH3 0x3EE JUMP JUMPDEST SWAP1 PUSH1 0x20 SWAP4 DUP5 DUP5 ADD MLOAD SWAP1 DUP3 DUP3 GT PUSH3 0x3C3 JUMPI PUSH3 0x6D SWAP2 DUP6 ADD PUSH3 0x3EE JUMP JUMPDEST SWAP4 PUSH1 0x40 DUP5 ADD MLOAD SWAP3 PUSH1 0x60 DUP6 ADD MLOAD SWAP5 DUP6 ISZERO ISZERO DUP7 SUB PUSH3 0x3C3 JUMPI PUSH1 0x80 ADD MLOAD PUSH1 0x1 PUSH1 0x1 PUSH1 0xA0 SHL SUB SWAP7 DUP8 DUP3 AND SWAP5 SWAP2 DUP6 SWAP1 SUB PUSH3 0x3C3 JUMPI DUP3 MLOAD DUP3 DUP2 GT PUSH3 0x2C3 JUMPI PUSH1 0x3 SWAP2 DUP3 SLOAD SWAP2 PUSH1 0x1 SWAP6 DUP7 DUP5 DUP2 SHR SWAP5 AND DUP1 ISZERO PUSH3 0x3B8 JUMPI JUMPDEST DUP9 DUP6 LT EQ PUSH3 0x3A2 JUMPI DUP2 SWAP1 PUSH1 0x1F SWAP5 DUP6 DUP2 GT PUSH3 0x34C JUMPI JUMPDEST POP DUP9 SWAP1 DUP6 DUP4 GT PUSH1 0x1 EQ PUSH3 0x2E5 JUMPI PUSH1 0x0 SWAP3 PUSH3 0x2D9 JUMPI JUMPDEST POP POP PUSH1 0x0 NOT DUP3 DUP7 SHL SHR NOT AND SWAP1 DUP7 SHL OR DUP4 SSTORE JUMPDEST DUP1 MLOAD SWAP4 DUP5 GT PUSH3 0x2C3 JUMPI PUSH1 0x4 SWAP6 DUP7 SLOAD DUP7 DUP2 DUP2 SHR SWAP2 AND DUP1 ISZERO PUSH3 0x2B8 JUMPI JUMPDEST DUP3 DUP3 LT EQ PUSH3 0x2A3 JUMPI DUP4 DUP2 GT PUSH3 0x258 JUMPI JUMPDEST POP DUP1 SWAP3 DUP6 GT PUSH1 0x1 EQ PUSH3 0x1EA JUMPI POP SWAP4 DUP4 SWAP5 SWAP2 DUP5 SWAP3 PUSH1 0x0 SWAP6 PUSH3 0x1DE JUMPI JUMPDEST POP POP SHL SWAP3 PUSH1 0x0 NOT SWAP2 SHL SHR NOT AND OR DUP2 SSTORE JUMPDEST DUP2 ISZERO PUSH3 0x1C6 JUMPI POP PUSH1 0x5 DUP1 SLOAD PUSH1 0x1 PUSH1 0x1 PUSH1 0xA0 SHL SUB NOT DUP2 AND DUP4 OR SWAP1 SWAP2 SSTORE PUSH1 0x40 MLOAD SWAP5 AND PUSH32 0x8BE0079C531659141344CD1FD0A4F28419497F9722A3DAAFE3B4186F6B6457E0 PUSH1 0x0 DUP1 LOG3 PUSH1 0x80 MSTORE PUSH1 0xA0 MSTORE PUSH2 0xA66 SWAP1 DUP2 PUSH3 0x461 DUP3 CODECOPY PUSH1 0x80 MLOAD DUP2 PUSH2 0x501 ADD MSTORE PUSH1 0xA0 MLOAD DUP2 PUSH2 0x1FB ADD MSTORE RETURN JUMPDEST PUSH1 0x24 SWAP1 PUSH1 0x0 PUSH1 0x40 MLOAD SWAP2 PUSH4 0x1E4FBDF7 PUSH1 0xE0 SHL DUP4 MSTORE DUP3 ADD MSTORE REVERT JUMPDEST ADD MLOAD SWAP4 POP CODESIZE DUP1 PUSH3 0x14B JUMP JUMPDEST SWAP3 SWAP2 SWAP1 DUP5 PUSH1 0x1F NOT DUP2 AND DUP9 PUSH1 0x0 MSTORE DUP6 PUSH1 0x0 KECCAK256 SWAP6 PUSH1 0x0 SWAP1 JUMPDEST DUP10 DUP4 DUP4 LT PUSH3 0x23D JUMPI POP POP POP LT PUSH3 0x222 JUMPI JUMPDEST POP POP POP POP DUP2 SHL ADD DUP2 SSTORE PUSH3 0x15B JUMP JUMPDEST ADD MLOAD SWAP1 PUSH1 0xF8 DUP5 PUSH1 0x0 NOT SWAP3 SHL AND SHR NOT AND SWAP1 SSTORE CODESIZE DUP1 DUP1 DUP1 PUSH3 0x213 JUMP JUMPDEST DUP6 DUP8 ADD MLOAD DUP10 SSTORE SWAP1 SWAP8 ADD SWAP7 SWAP5 DUP6 ADD SWAP5 DUP9 SWAP4 POP SWAP1 DUP2 ADD SWAP1 PUSH3 0x200 JUMP JUMPDEST DUP8 PUSH1 0x0 MSTORE DUP2 PUSH1 0x0 KECCAK256 DUP5 DUP1 DUP9 ADD PUSH1 0x5 SHR DUP3 ADD SWAP3 DUP5 DUP10 LT PUSH3 0x299 JUMPI JUMPDEST ADD PUSH1 0x5 SHR ADD SWAP1 DUP8 SWAP1 JUMPDEST DUP3 DUP2 LT PUSH3 0x28C JUMPI POP POP PUSH3 0x12E JUMP JUMPDEST PUSH1 0x0 DUP2 SSTORE ADD DUP8 SWAP1 PUSH3 0x27C JUMP JUMPDEST SWAP3 POP DUP2 SWAP3 PUSH3 0x273 JUMP JUMPDEST PUSH1 0x22 DUP9 PUSH4 0x4E487B71 PUSH1 0xE0 SHL PUSH1 0x0 MSTORE MSTORE PUSH1 0x24 PUSH1 0x0 REVERT JUMPDEST SWAP1 PUSH1 0x7F AND SWAP1 PUSH3 0x11C JUMP JUMPDEST PUSH4 0x4E487B71 PUSH1 0xE0 SHL PUSH1 0x0 MSTORE PUSH1 0x41 PUSH1 0x4 MSTORE PUSH1 0x24 PUSH1 0x0 REVERT JUMPDEST ADD MLOAD SWAP1 POP CODESIZE DUP1 PUSH3 0xED JUMP JUMPDEST SWAP1 DUP9 SWAP4 POP PUSH1 0x1F NOT DUP4 AND SWAP2 DUP8 PUSH1 0x0 MSTORE DUP11 PUSH1 0x0 KECCAK256 SWAP3 PUSH1 0x0 JUMPDEST DUP13 DUP3 DUP3 LT PUSH3 0x335 JUMPI POP POP DUP5 GT PUSH3 0x31C JUMPI JUMPDEST POP POP POP DUP2 SHL ADD DUP4 SSTORE PUSH3 0xFF JUMP JUMPDEST ADD MLOAD PUSH1 0x0 NOT DUP4 DUP9 SHL PUSH1 0xF8 AND SHR NOT AND SWAP1 SSTORE CODESIZE DUP1 DUP1 PUSH3 0x30E JUMP JUMPDEST DUP4 DUP6 ADD MLOAD DUP7 SSTORE DUP13 SWAP8 SWAP1 SWAP6 ADD SWAP5 SWAP4 DUP5 ADD SWAP4 ADD PUSH3 0x2FB JUMP JUMPDEST SWAP1 SWAP2 POP DUP6 PUSH1 0x0 MSTORE DUP9 PUSH1 0x0 KECCAK256 DUP6 DUP1 DUP6 ADD PUSH1 0x5 SHR DUP3 ADD SWAP3 DUP12 DUP7 LT PUSH3 0x398 JUMPI JUMPDEST SWAP2 DUP11 SWAP2 DUP7 SWAP6 SWAP5 SWAP4 ADD PUSH1 0x5 SHR ADD SWAP2 JUMPDEST DUP3 DUP2 LT PUSH3 0x388 JUMPI POP POP PUSH3 0xD6 JUMP JUMPDEST PUSH1 0x0 DUP2 SSTORE DUP6 SWAP5 POP DUP11 SWAP2 ADD PUSH3 0x378 JUMP JUMPDEST SWAP3 POP DUP2 SWAP3 PUSH3 0x36A JUMP JUMPDEST PUSH4 0x4E487B71 PUSH1 0xE0 SHL PUSH1 0x0 MSTORE PUSH1 0x22 PUSH1 0x4 MSTORE PUSH1 0x24 PUSH1 0x0 REVERT JUMPDEST SWAP4 PUSH1 0x7F AND SWAP4 PUSH3 0xBF JUMP JUMPDEST PUSH1 0x0 DUP1 REVERT JUMPDEST PUSH1 0x40 MLOAD SWAP2 SWAP1 PUSH1 0x1F ADD PUSH1 0x1F NOT AND DUP3 ADD PUSH1 0x1 PUSH1 0x1 PUSH1 0x40 SHL SUB DUP2 GT DUP4 DUP3 LT OR PUSH3 0x2C3 JUMPI PUSH1 0x40 MSTORE JUMP JUMPDEST SWAP2 SWAP1 DUP1 PUSH1 0x1F DUP5 ADD SLT ISZERO PUSH3 0x3C3 JUMPI DUP3 MLOAD PUSH1 0x1 PUSH1 0x1 PUSH1 0x40 SHL SUB DUP2 GT PUSH3 0x2C3 JUMPI PUSH1 0x20 SWAP1 PUSH3 0x424 PUSH1 0x1F DUP3 ADD PUSH1 0x1F NOT AND DUP4 ADD PUSH3 0x3C8 JUMP JUMPDEST SWAP3 DUP2 DUP5 MSTORE DUP3 DUP3 DUP8 ADD ADD GT PUSH3 0x3C3 JUMPI PUSH1 0x0 JUMPDEST DUP2 DUP2 LT PUSH3 0x44C JUMPI POP DUP3 PUSH1 0x0 SWAP4 SWAP5 SWAP6 POP ADD ADD MSTORE SWAP1 JUMP JUMPDEST DUP6 DUP2 ADD DUP4 ADD MLOAD DUP5 DUP3 ADD DUP5 ADD MSTORE DUP3 ADD PUSH3 0x436 JUMP INVALID PUSH1 0x80 PUSH1 0x40 DUP2 DUP2 MSTORE PUSH1 0x4 DUP1 CALLDATASIZE LT ISZERO PUSH2 0x15 JUMPI PUSH1 0x0 DUP1 REVERT JUMPDEST PUSH1 0x0 SWAP3 DUP4 CALLDATALOAD PUSH1 0xE0 SHR SWAP1 DUP2 PUSH4 0x6FDDE03 EQ PUSH2 0x7B7 JUMPI POP DUP1 PUSH4 0x95EA7B3 EQ PUSH2 0x70E JUMPI DUP1 PUSH4 0x18160DDD EQ PUSH2 0x6EF JUMPI DUP1 PUSH4 0x23B872DD EQ PUSH2 0x5FC JUMPI DUP1 PUSH4 0x313CE567 EQ PUSH2 0x5E0 JUMPI DUP1 PUSH4 0x40C10F19 EQ PUSH2 0x524 JUMPI DUP1 PUSH4 0x6ED71EDE EQ PUSH2 0x4E9 JUMPI DUP1 PUSH4 0x70A08231 EQ PUSH2 0x4B2 JUMPI DUP1 PUSH4 0x715018A6 EQ PUSH2 0x452 JUMPI DUP1 PUSH4 0x8DA5CB5B EQ PUSH2 0x429 JUMPI DUP1 PUSH4 0x95D89B41 EQ PUSH2 0x309 JUMPI DUP1 PUSH4 0x9DC29FAC EQ PUSH2 0x220 JUMPI DUP1 PUSH4 0xA77DF1C9 EQ PUSH2 0x1E3 JUMPI DUP1 PUSH4 0xA9059CBB EQ PUSH2 0x1B2 JUMPI DUP1 PUSH4 0xDD62ED3E EQ PUSH2 0x165 JUMPI PUSH4 0xF2FDE38B EQ PUSH2 0xD3 JUMPI PUSH1 0x0 DUP1 REVERT JUMPDEST CALLVALUE PUSH2 0x161 JUMPI PUSH1 0x20 CALLDATASIZE PUSH1 0x3 NOT ADD SLT PUSH2 0x161 JUMPI PUSH2 0xEC PUSH2 0x8F5 JUMP JUMPDEST SWAP1 PUSH2 0xF5 PUSH2 0x926 JUMP JUMPDEST PUSH1 0x1 PUSH1 0x1 PUSH1 0xA0 SHL SUB SWAP2 DUP3 AND SWAP3 DUP4 ISZERO PUSH2 0x14B JUMPI POP POP PUSH1 0x5 SLOAD DUP3 PUSH12 0xFFFFFFFFFFFFFFFFFFFFFFFF PUSH1 0xA0 SHL DUP3 AND OR PUSH1 0x5 SSTORE AND PUSH32 0x8BE0079C531659141344CD1FD0A4F28419497F9722A3DAAFE3B4186F6B6457E0 DUP4 DUP1 LOG3 DUP1 RETURN JUMPDEST MLOAD PUSH4 0x1E4FBDF7 PUSH1 0xE0 SHL DUP2 MSTORE SWAP1 DUP2 ADD DUP5 SWAP1 MSTORE PUSH1 0x24 SWAP1 REVERT JUMPDEST DUP3 DUP1 REVERT JUMPDEST POP POP CALLVALUE PUSH2 0x1AE JUMPI DUP1 PUSH1 0x3 NOT CALLDATASIZE ADD SLT PUSH2 0x1AE JUMPI DUP1 PUSH1 0x20 SWAP3 PUSH2 0x183 PUSH2 0x8F5 JUMP JUMPDEST PUSH2 0x18B PUSH2 0x910 JUMP JUMPDEST PUSH1 0x1 PUSH1 0x1 PUSH1 0xA0 SHL SUB SWAP2 DUP3 AND DUP4 MSTORE PUSH1 0x1 DUP7 MSTORE DUP4 DUP4 KECCAK256 SWAP2 AND DUP3 MSTORE DUP5 MSTORE KECCAK256 SLOAD SWAP1 MLOAD SWAP1 DUP2 MSTORE RETURN JUMPDEST POP DUP1 REVERT JUMPDEST POP POP CALLVALUE PUSH2 0x1AE JUMPI DUP1 PUSH1 0x3 NOT CALLDATASIZE ADD SLT PUSH2 0x1AE JUMPI PUSH1 0x20 SWAP1 PUSH2 0x1DC PUSH2 0x1D2 PUSH2 0x8F5 JUMP JUMPDEST PUSH1 0x24 CALLDATALOAD SWAP1 CALLER PUSH2 0x952 JUMP JUMPDEST MLOAD PUSH1 0x1 DUP2 MSTORE RETURN JUMPDEST POP POP CALLVALUE PUSH2 0x1AE JUMPI DUP2 PUSH1 0x3 NOT CALLDATASIZE ADD SLT PUSH2 0x1AE JUMPI PUSH1 0x20 SWAP1 MLOAD PUSH32 0x0 ISZERO ISZERO DUP2 MSTORE RETURN JUMPDEST POP DUP3 SWAP1 CALLVALUE PUSH2 0x1AE JUMPI DUP3 PUSH1 0x3 NOT CALLDATASIZE ADD SLT PUSH2 0x1AE JUMPI PUSH2 0x23B PUSH2 0x8F5 JUMP JUMPDEST SWAP1 PUSH1 0x24 CALLDATALOAD SWAP1 PUSH2 0x248 PUSH2 0x926 JUMP JUMPDEST PUSH1 0x1 PUSH1 0x1 PUSH1 0xA0 SHL SUB DUP4 AND SWAP3 DUP4 ISZERO PUSH2 0x2FA JUMPI DUP3 ISZERO PUSH2 0x2EB JUMPI DUP4 DUP6 MSTORE DUP5 PUSH1 0x20 MSTORE DUP6 DUP6 KECCAK256 SLOAD SWAP2 DUP4 DUP4 LT PUSH2 0x2B7 JUMPI POP POP DUP2 DUP5 SWAP6 PUSH32 0xDDF252AD1BE2C89B69C2B068FC378DAA952BA7F163C4A11628F55A4DF523B3EF SWAP4 PUSH1 0x20 SWAP4 DUP7 DUP9 MSTORE DUP8 DUP6 MSTORE SUB DUP2 DUP8 KECCAK256 SSTORE DUP2 PUSH1 0x2 SLOAD SUB PUSH1 0x2 SSTORE MLOAD SWAP1 DUP2 MSTORE LOG3 DUP1 RETURN JUMPDEST DUP7 MLOAD PUSH4 0x391434E3 PUSH1 0xE2 SHL DUP2 MSTORE PUSH1 0x1 PUSH1 0x1 PUSH1 0xA0 SHL SUB SWAP1 SWAP3 AND SWAP1 DUP3 ADD SWAP1 DUP2 MSTORE PUSH1 0x20 DUP2 ADD DUP4 SWAP1 MSTORE PUSH1 0x40 DUP2 ADD DUP5 SWAP1 MSTORE DUP2 SWAP1 PUSH1 0x60 ADD SUB SWAP1 REVERT JUMPDEST POP DUP5 MLOAD PUSH4 0x1F2A2005 PUSH1 0xE0 SHL DUP2 MSTORE REVERT JUMPDEST POP DUP5 MLOAD PUSH4 0xD92E233D PUSH1 0xE0 SHL DUP2 MSTORE REVERT JUMPDEST POP SWAP2 SWAP1 CALLVALUE PUSH2 0x1AE JUMPI DUP2 PUSH1 0x3 NOT CALLDATASIZE ADD SLT PUSH2 0x1AE JUMPI DUP1 MLOAD SWAP1 DUP3 DUP5 SLOAD PUSH1 0x1 DUP2 DUP2 SHR SWAP1 DUP1 DUP4 AND SWAP3 DUP4 ISZERO PUSH2 0x41F JUMPI JUMPDEST PUSH1 0x20 SWAP4 DUP5 DUP5 LT DUP2 EQ PUSH2 0x40C JUMPI DUP4 DUP9 MSTORE SWAP1 DUP2 ISZERO PUSH2 0x3F0 JUMPI POP PUSH1 0x1 EQ PUSH2 0x39B JUMPI JUMPDEST POP POP POP DUP3 SWAP1 SUB PUSH1 0x1F ADD PUSH1 0x1F NOT AND DUP3 ADD SWAP3 PUSH8 0xFFFFFFFFFFFFFFFF DUP5 GT DUP4 DUP6 LT OR PUSH2 0x388 JUMPI POP DUP3 SWAP2 DUP3 PUSH2 0x384 SWAP3 MSTORE DUP3 PUSH2 0x8AC JUMP JUMPDEST SUB SWAP1 RETURN JUMPDEST PUSH4 0x4E487B71 PUSH1 0xE0 SHL DUP2 MSTORE PUSH1 0x41 DUP6 MSTORE PUSH1 0x24 SWAP1 REVERT JUMPDEST DUP8 DUP8 MSTORE SWAP2 SWAP3 POP DUP6 SWAP2 DUP4 PUSH32 0x8A35ACFBC15FF81A39AE7D344FD709F28E8600B4AA8C65C6B64BFE7FE36BD19B JUMPDEST DUP4 DUP6 LT PUSH2 0x3DC JUMPI POP POP POP POP DUP4 ADD ADD CODESIZE DUP1 DUP1 PUSH2 0x352 JUMP JUMPDEST DUP1 SLOAD DUP9 DUP7 ADD DUP4 ADD MSTORE SWAP4 ADD SWAP3 DUP5 SWAP1 DUP3 ADD PUSH2 0x3C6 JUMP JUMPDEST PUSH1 0xFF NOT AND DUP8 DUP6 ADD MSTORE POP POP ISZERO ISZERO PUSH1 0x5 SHL DUP5 ADD ADD SWAP1 POP CODESIZE DUP1 DUP1 PUSH2 0x352 JUMP JUMPDEST PUSH4 0x4E487B71 PUSH1 0xE0 SHL DUP10 MSTORE PUSH1 0x22 DUP11 MSTORE PUSH1 0x24 DUP10 REVERT JUMPDEST SWAP2 PUSH1 0x7F AND SWAP2 PUSH2 0x333 JUMP JUMPDEST POP POP CALLVALUE PUSH2 0x1AE JUMPI DUP2 PUSH1 0x3 NOT CALLDATASIZE ADD SLT PUSH2 0x1AE JUMPI PUSH1 0x5 SLOAD SWAP1 MLOAD PUSH1 0x1 PUSH1 0x1 PUSH1 0xA0 SHL SUB SWAP1 SWAP2 AND DUP2 MSTORE PUSH1 0x20 SWAP1 RETURN JUMPDEST DUP4 CALLVALUE PUSH2 0x4AF JUMPI DUP1 PUSH1 0x3 NOT CALLDATASIZE ADD SLT PUSH2 0x4AF JUMPI PUSH2 0x46B PUSH2 0x926 JUMP JUMPDEST PUSH1 0x5 DUP1 SLOAD PUSH1 0x1 PUSH1 0x1 PUSH1 0xA0 SHL SUB NOT DUP2 AND SWAP1 SWAP2 SSTORE DUP2 SWAP1 PUSH1 0x1 PUSH1 0x1 PUSH1 0xA0 SHL SUB AND PUSH32 0x8BE0079C531659141344CD1FD0A4F28419497F9722A3DAAFE3B4186F6B6457E0 DUP3 DUP1 LOG3 DUP1 RETURN JUMPDEST DUP1 REVERT JUMPDEST POP POP CALLVALUE PUSH2 0x1AE JUMPI PUSH1 0x20 CALLDATASIZE PUSH1 0x3 NOT ADD SLT PUSH2 0x1AE JUMPI PUSH1 0x20 SWAP2 DUP2 SWAP1 PUSH1 0x1 PUSH1 0x1 PUSH1 0xA0 SHL SUB PUSH2 0x4DA PUSH2 0x8F5 JUMP JUMPDEST AND DUP2 MSTORE DUP1 DUP5 MSTORE KECCAK256 SLOAD SWAP1 MLOAD SWAP1 DUP2 MSTORE RETURN JUMPDEST POP POP CALLVALUE PUSH2 0x1AE JUMPI DUP2 PUSH1 0x3 NOT CALLDATASIZE ADD SLT PUSH2 0x1AE JUMPI PUSH1 0x20 SWAP1 MLOAD PUSH32 0x0 DUP2 MSTORE RETURN JUMPDEST POP SWAP1 CALLVALUE PUSH2 0x161 JUMPI DUP1 PUSH1 0x3 NOT CALLDATASIZE ADD SLT PUSH2 0x161 JUMPI PUSH2 0x53E PUSH2 0x8F5 JUMP JUMPDEST SWAP1 PUSH1 0x24 CALLDATALOAD SWAP2 PUSH2 0x54B PUSH2 0x926 JUMP JUMPDEST PUSH1 0x1 PUSH1 0x1 PUSH1 0xA0 SHL SUB AND SWAP3 DUP4 ISZERO PUSH2 0x5D2 JUMPI DUP3 ISZERO PUSH2 0x5C4 JUMPI PUSH1 0x2 SLOAD SWAP1 DUP4 DUP3 ADD DUP1 SWAP3 GT PUSH2 0x5B1 JUMPI POP DUP5 SWAP3 PUSH32 0xDDF252AD1BE2C89B69C2B068FC378DAA952BA7F163C4A11628F55A4DF523B3EF SWAP3 PUSH1 0x20 SWAP3 PUSH1 0x2 SSTORE DUP6 DUP6 MSTORE DUP5 DUP4 MSTORE DUP1 DUP6 KECCAK256 DUP3 DUP2 SLOAD ADD SWAP1 SSTORE MLOAD SWAP1 DUP2 MSTORE LOG3 DUP1 RETURN JUMPDEST PUSH4 0x4E487B71 PUSH1 0xE0 SHL DUP7 MSTORE PUSH1 0x11 SWAP1 MSTORE PUSH1 0x24 DUP6 REVERT JUMPDEST SWAP1 MLOAD PUSH4 0x1F2A2005 PUSH1 0xE0 SHL DUP2 MSTORE REVERT JUMPDEST SWAP1 MLOAD PUSH4 0xD92E233D PUSH1 0xE0 SHL DUP2 MSTORE REVERT JUMPDEST POP POP CALLVALUE PUSH2 0x1AE JUMPI DUP2 PUSH1 0x3 NOT CALLDATASIZE ADD SLT PUSH2 0x1AE JUMPI PUSH1 0x20 SWAP1 MLOAD PUSH1 0x6 DUP2 MSTORE RETURN JUMPDEST POP DUP3 CALLVALUE PUSH2 0x4AF JUMPI PUSH1 0x60 CALLDATASIZE PUSH1 0x3 NOT ADD SLT PUSH2 0x4AF JUMPI PUSH2 0x617 PUSH2 0x8F5 JUMP JUMPDEST PUSH2 0x61F PUSH2 0x910 JUMP JUMPDEST SWAP2 PUSH1 0x44 CALLDATALOAD SWAP4 PUSH1 0x1 DUP1 PUSH1 0xA0 SHL SUB DUP4 AND DUP1 DUP4 MSTORE PUSH1 0x1 PUSH1 0x20 MSTORE DUP7 DUP4 KECCAK256 CALLER DUP5 MSTORE PUSH1 0x20 MSTORE DUP7 DUP4 KECCAK256 SLOAD SWAP2 PUSH1 0x0 NOT DUP4 LT PUSH2 0x65B JUMPI JUMPDEST PUSH1 0x20 DUP9 PUSH2 0x1DC DUP10 DUP10 DUP10 PUSH2 0x952 JUMP JUMPDEST DUP7 DUP4 LT PUSH2 0x6C3 JUMPI DUP2 ISZERO PUSH2 0x6AC JUMPI CALLER ISZERO PUSH2 0x695 JUMPI POP DUP3 MSTORE PUSH1 0x1 PUSH1 0x20 SWAP1 DUP2 MSTORE DUP7 DUP4 KECCAK256 CALLER DUP5 MSTORE DUP2 MSTORE SWAP2 DUP7 SWAP1 KECCAK256 SWAP1 DUP6 SWAP1 SUB SWAP1 SSTORE DUP3 SWAP1 PUSH2 0x1DC DUP8 PUSH2 0x64D JUMP JUMPDEST DUP8 MLOAD PUSH4 0x4A1406B1 PUSH1 0xE1 SHL DUP2 MSTORE SWAP1 DUP2 ADD DUP5 SWAP1 MSTORE PUSH1 0x24 SWAP1 REVERT JUMPDEST DUP8 MLOAD PUSH4 0xE602DF05 PUSH1 0xE0 SHL DUP2 MSTORE SWAP1 DUP2 ADD DUP5 SWAP1 MSTORE PUSH1 0x24 SWAP1 REVERT JUMPDEST DUP8 MLOAD PUSH4 0x7DC7A0D9 PUSH1 0xE1 SHL DUP2 MSTORE CALLER SWAP2 DUP2 ADD SWAP2 DUP3 MSTORE PUSH1 0x20 DUP3 ADD SWAP4 SWAP1 SWAP4 MSTORE PUSH1 0x40 DUP2 ADD DUP8 SWAP1 MSTORE DUP3 SWAP2 POP PUSH1 0x60 ADD SUB SWAP1 REVERT JUMPDEST POP POP CALLVALUE PUSH2 0x1AE JUMPI DUP2 PUSH1 0x3 NOT CALLDATASIZE ADD SLT PUSH2 0x1AE JUMPI PUSH1 0x20 SWAP1 PUSH1 0x2 SLOAD SWAP1 MLOAD SWAP1 DUP2 MSTORE RETURN JUMPDEST POP CALLVALUE PUSH2 0x161 JUMPI DUP2 PUSH1 0x3 NOT CALLDATASIZE ADD SLT PUSH2 0x161 JUMPI PUSH2 0x727 PUSH2 0x8F5 JUMP JUMPDEST PUSH1 0x24 CALLDATALOAD SWAP1 CALLER ISZERO PUSH2 0x7A0 JUMPI PUSH1 0x1 PUSH1 0x1 PUSH1 0xA0 SHL SUB AND SWAP2 DUP3 ISZERO PUSH2 0x789 JUMPI POP DUP1 DUP4 PUSH1 0x20 SWAP6 CALLER DUP2 MSTORE PUSH1 0x1 DUP8 MSTORE DUP2 DUP2 KECCAK256 DUP6 DUP3 MSTORE DUP8 MSTORE KECCAK256 SSTORE DUP3 MLOAD SWAP1 DUP2 MSTORE PUSH32 0x8C5BE1E5EBEC7D5BD14F71427D1E84F3DD0314C0F7B2291E5B200AC8C7C3B925 DUP5 CALLER SWAP3 LOG3 MLOAD PUSH1 0x1 DUP2 MSTORE RETURN JUMPDEST DUP4 MLOAD PUSH4 0x4A1406B1 PUSH1 0xE1 SHL DUP2 MSTORE SWAP1 DUP2 ADD DUP6 SWAP1 MSTORE PUSH1 0x24 SWAP1 REVERT JUMPDEST DUP4 MLOAD PUSH4 0xE602DF05 PUSH1 0xE0 SHL DUP2 MSTORE DUP1 DUP5 ADD DUP7 SWAP1 MSTORE PUSH1 0x24 SWAP1 REVERT JUMPDEST DUP5 SWAP2 POP DUP4 CALLVALUE PUSH2 0x161 JUMPI DUP3 PUSH1 0x3 NOT CALLDATASIZE ADD SLT PUSH2 0x161 JUMPI DUP3 PUSH1 0x3 SLOAD PUSH1 0x1 DUP2 DUP2 SHR SWAP1 DUP1 DUP4 AND SWAP3 DUP4 ISZERO PUSH2 0x8A2 JUMPI JUMPDEST PUSH1 0x20 SWAP4 DUP5 DUP5 LT DUP2 EQ PUSH2 0x40C JUMPI DUP4 DUP9 MSTORE SWAP1 DUP2 ISZERO PUSH2 0x886 JUMPI POP PUSH1 0x1 EQ PUSH2 0x830 JUMPI POP POP POP DUP3 SWAP1 SUB PUSH1 0x1F ADD PUSH1 0x1F NOT AND DUP3 ADD SWAP3 PUSH8 0xFFFFFFFFFFFFFFFF DUP5 GT DUP4 DUP6 LT OR PUSH2 0x388 JUMPI POP DUP3 SWAP2 DUP3 PUSH2 0x384 SWAP3 MSTORE DUP3 PUSH2 0x8AC JUMP JUMPDEST PUSH1 0x3 DUP8 MSTORE SWAP2 SWAP3 POP DUP6 SWAP2 DUP4 PUSH32 0xC2575A0E9E593C00F959F8C92F12DB2869C3395A3B0502D05E2516446F71F85B JUMPDEST DUP4 DUP6 LT PUSH2 0x872 JUMPI POP POP POP POP DUP4 ADD ADD DUP6 DUP1 DUP1 PUSH2 0x352 JUMP JUMPDEST DUP1 SLOAD DUP9 DUP7 ADD DUP4 ADD MSTORE SWAP4 ADD SWAP3 DUP5 SWAP1 DUP3 ADD PUSH2 0x85C JUMP JUMPDEST PUSH1 0xFF NOT AND DUP8 DUP6 ADD MSTORE POP POP ISZERO ISZERO PUSH1 0x5 SHL DUP5 ADD ADD SWAP1 POP DUP6 DUP1 DUP1 PUSH2 0x352 JUMP JUMPDEST SWAP2 PUSH1 0x7F AND SWAP2 PUSH2 0x7E0 JUMP JUMPDEST PUSH1 0x20 DUP1 DUP3 MSTORE DUP3 MLOAD DUP2 DUP4 ADD DUP2 SWAP1 MSTORE SWAP1 SWAP4 SWAP3 PUSH1 0x0 JUMPDEST DUP3 DUP2 LT PUSH2 0x8E1 JUMPI POP POP PUSH1 0x40 SWAP3 SWAP4 POP PUSH1 0x0 DUP4 DUP3 DUP5 ADD ADD MSTORE PUSH1 0x1F DUP1 NOT SWAP2 ADD AND ADD ADD SWAP1 JUMP JUMPDEST DUP2 DUP2 ADD DUP7 ADD MLOAD DUP5 DUP3 ADD PUSH1 0x40 ADD MSTORE DUP6 ADD PUSH2 0x8BF JUMP JUMPDEST PUSH1 0x4 CALLDATALOAD SWAP1 PUSH1 0x1 PUSH1 0x1 PUSH1 0xA0 SHL SUB DUP3 AND DUP3 SUB PUSH2 0x90B JUMPI JUMP JUMPDEST PUSH1 0x0 DUP1 REVERT JUMPDEST PUSH1 0x24 CALLDATALOAD SWAP1 PUSH1 0x1 PUSH1 0x1 PUSH1 0xA0 SHL SUB DUP3 AND DUP3 SUB PUSH2 0x90B JUMPI JUMP JUMPDEST PUSH1 0x5 SLOAD PUSH1 0x1 PUSH1 0x1 PUSH1 0xA0 SHL SUB AND CALLER SUB PUSH2 0x93A JUMPI JUMP JUMPDEST PUSH1 0x40 MLOAD PUSH4 0x118CDAA7 PUSH1 0xE0 SHL DUP2 MSTORE CALLER PUSH1 0x4 DUP3 ADD MSTORE PUSH1 0x24 SWAP1 REVERT JUMPDEST SWAP2 PUSH1 0x1 PUSH1 0x1 PUSH1 0xA0 SHL SUB DUP1 DUP5 AND SWAP3 DUP4 ISZERO PUSH2 0xA17 JUMPI AND SWAP3 DUP4 ISZERO PUSH2 0x9FE JUMPI PUSH1 0x0 SWAP1 DUP4 DUP3 MSTORE DUP2 PUSH1 0x20 MSTORE PUSH1 0x40 DUP3 KECCAK256 SLOAD SWAP1 DUP4 DUP3 LT PUSH2 0x9CC JUMPI POP SWAP2 PUSH1 0x40 DUP3 DUP3 PUSH32 0xDDF252AD1BE2C89B69C2B068FC378DAA952BA7F163C4A11628F55A4DF523B3EF SWAP6 DUP8 PUSH1 0x20 SWAP7 MSTORE DUP3 DUP7 MSTORE SUB DUP3 DUP3 KECCAK256 SSTORE DUP7 DUP2 MSTORE KECCAK256 DUP2 DUP2 SLOAD ADD SWAP1 SSTORE PUSH1 0x40 MLOAD SWAP1 DUP2 MSTORE LOG3 JUMP JUMPDEST PUSH1 0x40 MLOAD PUSH4 0x391434E3 PUSH1 0xE2 SHL DUP2 MSTORE PUSH1 0x1 PUSH1 0x1 PUSH1 0xA0 SHL SUB SWAP2 SWAP1 SWAP2 AND PUSH1 0x4 DUP3 ADD MSTORE PUSH1 0x24 DUP2 ADD SWAP2 SWAP1 SWAP2 MSTORE PUSH1 0x44 DUP2 ADD DUP4 SWAP1 MSTORE PUSH1 0x64 SWAP1 REVERT JUMPDEST PUSH1 0x40 MLOAD PUSH4 0xEC442F05 PUSH1 0xE0 SHL DUP2 MSTORE PUSH1 0x0 PUSH1 0x4 DUP3 ADD MSTORE PUSH1 0x24 SWAP1 REVERT JUMPDEST PUSH1 0x40 MLOAD PUSH4 0x4B637E8F PUSH1 0xE1 SHL DUP2 MSTORE PUSH1 0x0 PUSH1 0x4 DUP3 ADD MSTORE PUSH1 0x24 SWAP1 REVERT INVALID LOG2 PUSH5 0x6970667358 0x22 SLT KECCAK256 0xF9 0xCA SMOD PUSH7 0x97A7E2DC679ED5 0x4E PC 0x4F PREVRANDAO PUSH31 0x12F207468735C0B583BA2C07EFD4E5F964736F6C63430008140033692C548A PUSH32 0x365F05A7B3A4CF77C7871BAF797E4B75547FFACC529C22E4565A95A264697066 PUSH20 0x582212207480E8F1DDBCAB5731BB0D01B1507A6B 0xE9 0xA8 CREATE 0xB9 DELEGATECALL SELFBALANCE 0xEE 0xAC PUSH24 0x68572B0A5043A164736F6C63430008140033000000000000 "},"methodIdentifiers":{"BASIS_POINTS()":"e1f1c4a7","DEFAULT_ADMIN_ROLE()":"a217fddf","OPERATOR_ROLE()":"f5b541a6","cancelMarket(bytes32)":"bdb83289","cancelOrder(bytes32)":"7489ec23","claimRefund(bytes32)":"71de2ffc","claimWinnings(bytes32)":"e49b606c","createMarket(bytes32,string,uint256,address)":"d54c786e","getMarket(bytes32)":"c3c95c7b","getMarketIds()":"398c6f7e","getOrder(bytes32)":"5778472a","getOrderBook(bytes32,uint8,uint8)":"762f5618","getRoleAdmin(bytes32)":"248a9ca3","getUserOrders(address)":"63c69f08","grantRole(bytes32,address)":"2f2ff15d","hasClaimed(bytes32,address)":"92a42d1d","hasRole(bytes32,address)":"91d14854","marketIds(uint256)":"779a9683","markets(bytes32)":"7564912b","minOrderSize()":"a674537f","orderBook(bytes32,uint8,uint8,uint256)":"05b6ac6b","orders(bytes32)":"9c3f1e90","pauseMarket(bytes32)":"b4a78088","placeOrder(bytes32,uint8,uint8,uint256,uint256,uint256)":"b6507c2d","renounceRole(bytes32,address)":"36568abe","resolveMarket(bytes32,uint8)":"5e382837","resumeMarket(bytes32)":"865ec35e","revokeRole(bytes32,address)":"d547741f","setMinOrderSize(uint256)":"5e2c8eee","supportsInterface(bytes4)":"01ffc9a7","userOrders(address,uint256)":"856652e9","vault()":"fbfa77cf"}}}}}