{
  "_format": "hh-sol-artifact-1",
  "contractName": "CollateralVault",
  "sourceName": "contracts/CollateralVault.sol",
  "abi": [
    {
      "inputs": [
        {
          "internalType": "address",
          "name": "_collateralToken",
          "type": "address"
        }
      ],
      "stateMutability": "nonpayable",
      "type": "constructor"
    },
    {
      "inputs": [],
      "name": "InsufficientBalance",
      "type": "error"
    },
    {
      "inputs": [],
      "name": "InsufficientUnlockedBalance",
      "type": "error"
    },
    {
      "inputs": [
        {
          "internalType": "address",
          "name": "owner",
          "type": "address"
        }
      ],
      "name": "OwnableInvalidOwner",
      "type": "error"
    },
    {
      "inputs": [
        {
          "internalType": "address",
          "name": "account",
          "type": "address"
        }
      ],
      "name": "OwnableUnauthorizedAccount",
      "type": "error"
    },
    {
      "inputs": [],
      "name": "ReentrancyGuardReentrantCall",
      "type": "error"
    },
    {
      "inputs": [
        {
          "internalType": "address",
          "name": "token",
          "type": "address"
        }
      ],
      "name": "SafeERC20FailedOperation",
      "type": "error"
    },
    {
      "inputs": [],
      "name": "UnauthorizedMarket",
      "type": "error"
    },
    {
      "inputs": [],
      "name": "ZeroAddress",
      "type": "error"
    },
    {
      "inputs": [],
      "name": "ZeroAmount",
      "type": "error"
    },
    {
      "anonymous": false,
      "inputs": [
        {
          "indexed": true,
          "internalType": "address",
          "name": "user",
          "type": "address"
        },
        {
          "indexed": false,
          "internalType": "uint256",
          "name": "amount",
          "type": "uint256"
        },
        {
          "indexed": true,
          "internalType": "address",
          "name": "market",
          "type": "address"
        }
      ],
      "name": "CollateralLocked",
      "type": "event"
    },
    {
      "anonymous": false,
      "inputs": [
        {
          "indexed": true,
          "internalType": "address",
          "name": "from",
          "type": "address"
        },
        {
          "indexed": true,
          "internalType": "address",
          "name": "to",
          "type": "address"
        },
        {
          "indexed": false,
          "internalType": "uint256",
          "name": "amount",
          "type": "uint256"
        },
        {
          "indexed": true,
          "internalType": "address",
          "name": "market",
          "type": "address"
        }
      ],
      "name": "CollateralTransferred",
      "type": "event"
    },
    {
      "anonymous": false,
      "inputs": [
        {
          "indexed": true,
          "internalType": "address",
          "name": "user",
          "type": "address"
        },
        {
          "indexed": false,
          "internalType": "uint256",
          "name": "amount",
          "type": "uint256"
        },
        {
          "indexed": true,
          "internalType": "address",
          "name": "market",
          "type": "address"
        }
      ],
      "name": "CollateralUnlocked",
      "type": "event"
    },
    {
      "anonymous": false,
      "inputs": [
        {
          "indexed": true,
          "internalType": "address",
          "name": "user",
          "type": "address"
        },
        {
          "indexed": false,
          "internalType": "uint256",
          "name": "amount",
          "type": "uint256"
        }
      ],
      "name": "Deposited",
      "type": "event"
    },
    {
      "anonymous": false,
      "inputs": [
        {
          "indexed": true,
          "internalType": "address",
          "name": "market",
          "type": "address"
        }
      ],
      "name": "MarketAuthorized",
      "type": "event"
    },
    {
      "anonymous": false,
      "inputs": [
        {
          "indexed": true,
          "internalType": "address",
          "name": "market",
          "type": "address"
        }
      ],
      "name": "MarketDeauthorized",
      "type": "event"
    },
    {
      "anonymous": false,
      "inputs": [
        {
          "indexed": true,
          "internalType": "address",
          "name": "previousOwner",
          "type": "address"
        },
        {
          "indexed": true,
          "internalType": "address",
          "name": "newOwner",
          "type": "address"
        }
      ],
      "name": "OwnershipTransferred",
      "type": "event"
    },
    {
      "anonymous": false,
      "inputs": [
        {
          "indexed": true,
          "internalType": "address",
          "name": "user",
          "type": "address"
        },
        {
          "indexed": false,
          "internalType": "uint256",
          "name": "amount",
          "type": "uint256"
        }
      ],
      "name": "Withdrawn",
      "type": "event"
    },
    {
      "inputs": [
        {
          "internalType": "address",
          "name": "market",
          "type": "address"
        }
      ],
      "name": "authorizeMarket",
      "outputs": [],
      "stateMutability": "nonpayable",
      "type": "function"
    },
    {
      "inputs": [
        {
          "internalType": "address",
          "name": "",
          "type": "address"
        }
      ],
      "name": "authorizedMarkets",
      "outputs": [
        {
          "internalType": "bool",
          "name": "",
          "type": "bool"
        }
      ],
      "stateMutability": "view",
      "type": "function"
    },
    {
      "inputs": [
        {
          "internalType": "address",
          "name": "",
          "type": "address"
        }
      ],
      "name": "balances",
      "outputs": [
        {
          "internalType": "uint256",
          "name": "",
          "type": "uint256"
        }
      ],
      "stateMutability": "view",
      "type": "function"
    },
    {
      "inputs": [],
      "name": "collateralToken",
      "outputs": [
        {
          "internalType": "contract IERC20",
          "name": "",
          "type": "address"
        }
      ],
      "stateMutability": "view",
      "type": "function"
    },
    {
      "inputs": [
        {
          "internalType": "address",
          "name": "market",
          "type": "address"
        }
      ],
      "name": "deauthorizeMarket",
      "outputs": [],
      "stateMutability": "nonpayable",
      "type": "function"
    },
    {
      "inputs": [
        {
          "internalType": "uint256",
          "name": "amount",
          "type": "uint256"
        }
      ],
      "name": "deposit",
      "outputs": [],
      "stateMutability": "nonpayable",
      "type": "function"
    },
    {
      "inputs": [
        {
          "internalType": "address",
          "name": "user",
          "type": "address"
        }
      ],
      "name": "getAvailableBalance",
      "outputs": [
        {
          "internalType": "uint256",
          "name": "",
          "type": "uint256"
        }
      ],
      "stateMutability": "view",
      "type": "function"
    },
    {
      "inputs": [
        {
          "internalType": "address",
          "name": "user",
          "type": "address"
        }
      ],
      "name": "getLockedBalance",
      "outputs": [
        {
          "internalType": "uint256",
          "name": "",
          "type": "uint256"
        }
      ],
      "stateMutability": "view",
      "type": "function"
    },
    {
      "inputs": [
        {
          "internalType": "address",
          "name": "user",
          "type": "address"
        },
        {
          "internalType": "uint256",
          "name": "amount",
          "type": "uint256"
        }
      ],
      "name": "lockCollateral",
      "outputs": [],
      "stateMutability": "nonpayable",
      "type": "function"
    },
    {
      "inputs": [
        {
          "internalType": "address",
          "name": "",
          "type": "address"
        }
      ],
      "name": "lockedBalances",
      "outputs": [
        {
          "internalType": "uint256",
          "name": "",
          "type": "uint256"
        }
      ],
      "stateMutability": "view",
      "type": "function"
    },
    {
      "inputs": [],
      "name": "owner",
      "outputs": [
        {
          "internalType": "address",
          "name": "",
          "type": "address"
        }
      ],
      "stateMutability": "view",
      "type": "function"
    },
    {
      "inputs": [],
      "name": "renounceOwnership",
      "outputs": [],
      "stateMutability": "nonpayable",
      "type": "function"
    },
    {
      "inputs": [],
      "name": "totalDeposited",
      "outputs": [
        {
          "internalType": "uint256",
          "name": "",
          "type": "uint256"
        }
      ],
      "stateMutability": "view",
      "type": "function"
    },
    {
      "inputs": [],
      "name": "totalLocked",
      "outputs": [
        {
          "internalType": "uint256",
          "name": "",
          "type": "uint256"
        }
      ],
      "stateMutability": "view",
      "type": "function"
    },
    {
      "inputs": [
        {
          "internalType": "address",
          "name": "from",
          "type": "address"
        },
        {
          "internalType": "address",
          "name": "to",
          "type": "address"
        },
        {
          "internalType": "uint256",
          "name": "amount",
          "type": "uint256"
        }
      ],
      "name": "transferLockedCollateral",
      "outputs": [],
      "stateMutability": "nonpayable",
      "type": "function"
    },
    {
      "inputs": [
        {
          "internalType": "address",
          "name": "newOwner",
          "type": "address"
        }
      ],
      "name": "transferOwnership",
      "outputs": [],
      "stateMutability": "nonpayable",
      "type": "function"
    },
    {
      "inputs": [
        {
          "internalType": "address",
          "name": "user",
          "type": "address"
        },
        {
          "internalType": "uint256",
          "name": "amount",
          "type": "uint256"
        }
      ],
      "name": "unlockCollateral",
      "outputs": [],
      "stateMutability": "nonpayable",
      "type": "function"
    },
    {
      "inputs": [
        {
          "internalType": "uint256",
          "name": "amount",
          "type": "uint256"
        }
      ],
      "name": "withdraw",
      "outputs": [],
      "stateMutability": "nonpayable",
      "type": "function"
    }
  ],
  "bytecode": "0x60a0346100f457601f610bcf38819003918201601f19168301916001600160401b038311848410176100f9578084926020946040528339810103126100f457516001600160a01b03808216918290036100f457600160005533156100db5760018054336001600160a01b03198216811790925560405192167f8be0079c531659141344cd1fd0a4f28419497f9722a3daafe3b4186f6b6457e0600080a381156100cc5750608052604051610abf9081610110823960805181818161034e015281816103da01526108090152f35b63d92e233d60e01b8152600490fd5b604051631e4fbdf760e01b815260006004820152602490fd5b600080fd5b634e487b7160e01b600052604160045260246000fdfe608060408181526004918236101561001657600080fd5b600092833560e01c9182630483a7f6146109535750816317f17498146108a457816327e235e31461086c5781632e1a7d4d1461073b57816330582b00146106235781634299b8a2146105e657816347a7d107146104fb57816356891412146104dc5781636c24a76f14610492578163715018a6146104325781638da5cb5b14610409578163b2016bd4146103c5578163b6b55f25146102bf578163c408689314610287578163f2862e6714610219578163f2fde38b14610189578163fa26958c1461010c575063ff50abdc146100eb57600080fd5b346101085781600319360112610108576020906005549051908152f35b5080fd5b9190503461018557602036600319011261018557610128610987565b6101306109a2565b6001600160a01b0316918215610177578284526020528220805460ff191690557f014dad1a8290ff4fc1990d6ffdfce4ef09f541b4e8e02abce86c42d4c310d0568280a280f35b905163d92e233d60e01b8152fd5b8280fd5b905034610185576020366003190112610185576101a4610987565b906101ad6109a2565b6001600160a01b03918216928315610203575050600154826bffffffffffffffffffffffff60a01b821617600155167f8be0079c531659141344cd1fd0a4f28419497f9722a3daafe3b4186f6b6457e08380a380f35b51631e4fbdf760e01b8152908101849052602490fd5b9190503461018557602036600319011261018557610235610987565b61023d6109a2565b6001600160a01b0316918215610177578284526020528220805460ff191660011790557fff192fe3e3e847428def87bbc2d04aa27048f6669caf7380828f868acd86bbfa8280a280f35b5050346101085760203660031901126101085760209181906001600160a01b036102af610987565b1681526003845220549051908152f35b838334610108576020366003190112610108578235906102dd610a59565b81156103b65733835260026020528083206102f98382546109ce565b9055610307826005546109ce565b60055580516323b872dd60e01b60208201523360248201523060448201526064808201849052815260a0810167ffffffffffffffff8111828210176103a3578252610372907f00000000000000000000000000000000000000000000000000000000000000006109f1565b519081527f2da466a7b24304f47e87fa2e1e5a81b9831ce54fec19055ce277ca2f39ba42c460203392a26001815580f35b634e487b7160e01b855260418652602485fd5b51631f2a200560e01b81528390fd5b505034610108578160031936011261010857517f00000000000000000000000000000000000000000000000000000000000000006001600160a01b03168152602090f35b50503461010857816003193601126101085760015490516001600160a01b039091168152602090f35b833461048f578060031936011261048f5761044b6109a2565b600180546001600160a01b0319811690915581906001600160a01b03167f8be0079c531659141344cd1fd0a4f28419497f9722a3daafe3b4186f6b6457e08280a380f35b80fd5b505034610108576020366003190112610108576020916104d5906001600160a01b036104bc610987565b1681526002845282808220549160038652205490610a7c565b9051908152f35b5050346101085781600319360112610108576020906006549051908152f35b905034610185578160031936011261018557610515610987565b91602435923385528260205260ff8286205416156105d85783156105ca576001600160a01b03169182156101775782855260026020526105618286205460036020528387205490610a7c565b84116105bc5750818452600360205280842061057e8482546109ce565b905561058c836006546109ce565b600655519182527f56b60085244fe1afa467f92231debadc8bcb6127e9dbf35dbb58ca8406a423fe60203393a380f35b905163e201ec7360e01b8152fd5b5051631f2a200560e01b8152fd5b5051630f6f4d9760e11b8152fd5b9050346101855760203660031901126101855760209260ff918391906001600160a01b03610612610987565b168252855220541690519015158152f35b9050346101855760603660031901126101855761063e610987565b6001600160a01b039260243584811693929190849003610737576044359433875260209284845260ff838920541615610727578615610717571692831561017757841561017757838752600383528187205486116107095750907f7b7ca9de228bea9c60ae26cfdb69368cad25bc85f68e26a703acf7c692d545ca91838752600382528087206106cf878254610a7c565b9055838752600282528087206106e6878254610a7c565b9055848752600282528087206106fd8782546109ce565b9055519485523394a480f35b9051631e9acf1760e31b8152fd5b8251631f2a200560e01b81528590fd5b8251630f6f4d9760e11b81528590fd5b8580fd5b838334610108576020806003193601126101855783359161075a610a59565b821561085d573384526002825261077c81852054600384528286205490610a7c565b831161084e5733845260028252808420610797848254610a7c565b90556107a583600554610a7c565b600555805163a9059cbb60e01b83820152336024820152604480820185905281526080810167ffffffffffffffff81118282101761083b57829161082d917f7084f5476618d8e60b11ef0d7d3f06914655adb8793e28ff7f018d4c76d505d59594527f00000000000000000000000000000000000000000000000000000000000000006109f1565b519283523392a26001815580f35b634e487b7160e01b865260418752602486fd5b5163e201ec7360e01b81528490fd5b51631f2a200560e01b81528490fd5b5050346101085760203660031901126101085760209181906001600160a01b03610894610987565b1681526002845220549051908152f35b9050346101855781600319360112610185576108be610987565b91602435923385528260205260ff8286205416156105d85783156105ca576001600160a01b031691821561017757828552600360205281852054841161070957508184526003602052808420610915848254610a7c565b905561092383600654610a7c565b600655519182527f817d69f45cb0984f7141c288a3bea0d2dd7bc075758f311056d0aa31798614fa60203393a380f35b84908434610185576020366003190112610185576020926001600160a01b0361097a610987565b1681526003845220548152f35b600435906001600160a01b038216820361099d57565b600080fd5b6001546001600160a01b031633036109b657565b60405163118cdaa760e01b8152336004820152602490fd5b919082018092116109db57565b634e487b7160e01b600052601160045260246000fd5b906000602091828151910182855af115610a4d576000513d610a4457506001600160a01b0381163b155b610a225750565b604051635274afe760e01b81526001600160a01b039091166004820152602490fd5b60011415610a1b565b6040513d6000823e3d90fd5b600260005414610a6a576002600055565b604051633ee5aeb560e01b8152600490fd5b919082039182116109db5756fea2646970667358221220c12c5cd22256ee7c524bd2261dc987dae031cf3be6812916161966cdee78460b64736f6c63430008140033",
  "linkReferences": {},
  "deployedLinkReferences": {}
}