{
  "_format": "hh-sol-artifact-1",
  "contractName": "CollateralVault",
  "sourceName": "contracts/CollateralVault.sol",
  "abi": [
    {
      "inputs": [
        {
          "internalType": "address",
          "name": "_collateralToken",
          "type": "address"
        }
      ],
      "stateMutability": "nonpayable",
      "type": "constructor"
    },
    {
      "inputs": [],
      "name": "InsufficientBalance",
      "type": "error"
    },
    {
      "inputs": [],
      "name": "InsufficientUnlockedBalance",
      "type": "error"
    },
    {
      "inputs": [
        {
          "internalType": "address",
          "name": "owner",
          "type": "address"
        }
      ],
      "name": "OwnableInvalidOwner",
      "type": "error"
    },
    {
      "inputs": [
        {
          "internalType": "address",
          "name": "account",
          "type": "address"
        }
      ],
      "name": "OwnableUnauthorizedAccount",
      "type": "error"
    },
    {
      "inputs": [],
      "name": "PermitFailed",
      "type": "error"
    },
    {
      "inputs": [],
      "name": "ReentrancyGuardReentrantCall",
      "type": "error"
    },
    {
      "inputs": [
        {
          "internalType": "address",
          "name": "token",
          "type": "address"
        }
      ],
      "name": "SafeERC20FailedOperation",
      "type": "error"
    },
    {
      "inputs": [],
      "name": "UnauthorizedMarket",
      "type": "error"
    },
    {
      "inputs": [],
      "name": "ZeroAddress",
      "type": "error"
    },
    {
      "inputs": [],
      "name": "ZeroAmount",
      "type": "error"
    },
    {
      "anonymous": false,
      "inputs": [
        {
          "indexed": true,
          "internalType": "address",
          "name": "user",
          "type": "address"
        },
        {
          "indexed": false,
          "internalType": "uint256",
          "name": "amount",
          "type": "uint256"
        },
        {
          "indexed": true,
          "internalType": "address",
          "name": "market",
          "type": "address"
        }
      ],
      "name": "CollateralLocked",
      "type": "event"
    },
    {
      "anonymous": false,
      "inputs": [
        {
          "indexed": true,
          "internalType": "address",
          "name": "from",
          "type": "address"
        },
        {
          "indexed": true,
          "internalType": "address",
          "name": "to",
          "type": "address"
        },
        {
          "indexed": false,
          "internalType": "uint256",
          "name": "amount",
          "type": "uint256"
        },
        {
          "indexed": true,
          "internalType": "address",
          "name": "market",
          "type": "address"
        }
      ],
      "name": "CollateralTransferred",
      "type": "event"
    },
    {
      "anonymous": false,
      "inputs": [
        {
          "indexed": true,
          "internalType": "address",
          "name": "user",
          "type": "address"
        },
        {
          "indexed": false,
          "internalType": "uint256",
          "name": "amount",
          "type": "uint256"
        },
        {
          "indexed": true,
          "internalType": "address",
          "name": "market",
          "type": "address"
        }
      ],
      "name": "CollateralUnlocked",
      "type": "event"
    },
    {
      "anonymous": false,
      "inputs": [
        {
          "indexed": true,
          "internalType": "address",
          "name": "user",
          "type": "address"
        },
        {
          "indexed": false,
          "internalType": "uint256",
          "name": "amount",
          "type": "uint256"
        }
      ],
      "name": "Deposited",
      "type": "event"
    },
    {
      "anonymous": false,
      "inputs": [
        {
          "indexed": true,
          "internalType": "address",
          "name": "depositor",
          "type": "address"
        },
        {
          "indexed": true,
          "internalType": "address",
          "name": "recipient",
          "type": "address"
        },
        {
          "indexed": false,
          "internalType": "uint256",
          "name": "amount",
          "type": "uint256"
        }
      ],
      "name": "DepositedFor",
      "type": "event"
    },
    {
      "anonymous": false,
      "inputs": [
        {
          "indexed": true,
          "internalType": "address",
          "name": "market",
          "type": "address"
        }
      ],
      "name": "MarketAuthorized",
      "type": "event"
    },
    {
      "anonymous": false,
      "inputs": [
        {
          "indexed": true,
          "internalType": "address",
          "name": "market",
          "type": "address"
        }
      ],
      "name": "MarketDeauthorized",
      "type": "event"
    },
    {
      "anonymous": false,
      "inputs": [
        {
          "indexed": true,
          "internalType": "address",
          "name": "previousOwner",
          "type": "address"
        },
        {
          "indexed": true,
          "internalType": "address",
          "name": "newOwner",
          "type": "address"
        }
      ],
      "name": "OwnershipTransferred",
      "type": "event"
    },
    {
      "anonymous": false,
      "inputs": [
        {
          "indexed": true,
          "internalType": "address",
          "name": "user",
          "type": "address"
        },
        {
          "indexed": false,
          "internalType": "uint256",
          "name": "amount",
          "type": "uint256"
        }
      ],
      "name": "Withdrawn",
      "type": "event"
    },
    {
      "inputs": [
        {
          "internalType": "address",
          "name": "market",
          "type": "address"
        }
      ],
      "name": "authorizeMarket",
      "outputs": [],
      "stateMutability": "nonpayable",
      "type": "function"
    },
    {
      "inputs": [
        {
          "internalType": "address",
          "name": "",
          "type": "address"
        }
      ],
      "name": "authorizedMarkets",
      "outputs": [
        {
          "internalType": "bool",
          "name": "",
          "type": "bool"
        }
      ],
      "stateMutability": "view",
      "type": "function"
    },
    {
      "inputs": [
        {
          "internalType": "address",
          "name": "",
          "type": "address"
        }
      ],
      "name": "balances",
      "outputs": [
        {
          "internalType": "uint256",
          "name": "",
          "type": "uint256"
        }
      ],
      "stateMutability": "view",
      "type": "function"
    },
    {
      "inputs": [],
      "name": "collateralToken",
      "outputs": [
        {
          "internalType": "contract IERC20",
          "name": "",
          "type": "address"
        }
      ],
      "stateMutability": "view",
      "type": "function"
    },
    {
      "inputs": [
        {
          "internalType": "address",
          "name": "market",
          "type": "address"
        }
      ],
      "name": "deauthorizeMarket",
      "outputs": [],
      "stateMutability": "nonpayable",
      "type": "function"
    },
    {
      "inputs": [
        {
          "internalType": "uint256",
          "name": "amount",
          "type": "uint256"
        }
      ],
      "name": "deposit",
      "outputs": [],
      "stateMutability": "nonpayable",
      "type": "function"
    },
    {
      "inputs": [
        {
          "internalType": "address",
          "name": "user",
          "type": "address"
        },
        {
          "internalType": "uint256",
          "name": "amount",
          "type": "uint256"
        }
      ],
      "name": "depositFor",
      "outputs": [],
      "stateMutability": "nonpayable",
      "type": "function"
    },
    {
      "inputs": [
        {
          "internalType": "address",
          "name": "user",
          "type": "address"
        },
        {
          "internalType": "uint256",
          "name": "amount",
          "type": "uint256"
        },
        {
          "internalType": "uint256",
          "name": "deadline",
          "type": "uint256"
        },
        {
          "internalType": "uint8",
          "name": "v",
          "type": "uint8"
        },
        {
          "internalType": "bytes32",
          "name": "r",
          "type": "bytes32"
        },
        {
          "internalType": "bytes32",
          "name": "s",
          "type": "bytes32"
        }
      ],
      "name": "depositForWithPermit",
      "outputs": [],
      "stateMutability": "nonpayable",
      "type": "function"
    },
    {
      "inputs": [
        {
          "internalType": "uint256",
          "name": "amount",
          "type": "uint256"
        },
        {
          "internalType": "uint256",
          "name": "deadline",
          "type": "uint256"
        },
        {
          "internalType": "uint8",
          "name": "v",
          "type": "uint8"
        },
        {
          "internalType": "bytes32",
          "name": "r",
          "type": "bytes32"
        },
        {
          "internalType": "bytes32",
          "name": "s",
          "type": "bytes32"
        }
      ],
      "name": "depositWithPermit",
      "outputs": [],
      "stateMutability": "nonpayable",
      "type": "function"
    },
    {
      "inputs": [
        {
          "internalType": "address",
          "name": "user",
          "type": "address"
        }
      ],
      "name": "getAvailableBalance",
      "outputs": [
        {
          "internalType": "uint256",
          "name": "",
          "type": "uint256"
        }
      ],
      "stateMutability": "view",
      "type": "function"
    },
    {
      "inputs": [
        {
          "internalType": "address",
          "name": "user",
          "type": "address"
        }
      ],
      "name": "getLockedBalance",
      "outputs": [
        {
          "internalType": "uint256",
          "name": "",
          "type": "uint256"
        }
      ],
      "stateMutability": "view",
      "type": "function"
    },
    {
      "inputs": [
        {
          "internalType": "address",
          "name": "user",
          "type": "address"
        },
        {
          "internalType": "uint256",
          "name": "amount",
          "type": "uint256"
        }
      ],
      "name": "lockCollateral",
      "outputs": [],
      "stateMutability": "nonpayable",
      "type": "function"
    },
    {
      "inputs": [
        {
          "internalType": "address",
          "name": "",
          "type": "address"
        }
      ],
      "name": "lockedBalances",
      "outputs": [
        {
          "internalType": "uint256",
          "name": "",
          "type": "uint256"
        }
      ],
      "stateMutability": "view",
      "type": "function"
    },
    {
      "inputs": [],
      "name": "owner",
      "outputs": [
        {
          "internalType": "address",
          "name": "",
          "type": "address"
        }
      ],
      "stateMutability": "view",
      "type": "function"
    },
    {
      "inputs": [],
      "name": "renounceOwnership",
      "outputs": [],
      "stateMutability": "nonpayable",
      "type": "function"
    },
    {
      "inputs": [],
      "name": "supportsPermit",
      "outputs": [
        {
          "internalType": "bool",
          "name": "",
          "type": "bool"
        }
      ],
      "stateMutability": "view",
      "type": "function"
    },
    {
      "inputs": [],
      "name": "totalDeposited",
      "outputs": [
        {
          "internalType": "uint256",
          "name": "",
          "type": "uint256"
        }
      ],
      "stateMutability": "view",
      "type": "function"
    },
    {
      "inputs": [],
      "name": "totalLocked",
      "outputs": [
        {
          "internalType": "uint256",
          "name": "",
          "type": "uint256"
        }
      ],
      "stateMutability": "view",
      "type": "function"
    },
    {
      "inputs": [
        {
          "internalType": "address",
          "name": "from",
          "type": "address"
        },
        {
          "internalType": "address",
          "name": "to",
          "type": "address"
        },
        {
          "internalType": "uint256",
          "name": "amount",
          "type": "uint256"
        }
      ],
      "name": "transferLockedCollateral",
      "outputs": [],
      "stateMutability": "nonpayable",
      "type": "function"
    },
    {
      "inputs": [
        {
          "internalType": "address",
          "name": "newOwner",
          "type": "address"
        }
      ],
      "name": "transferOwnership",
      "outputs": [],
      "stateMutability": "nonpayable",
      "type": "function"
    },
    {
      "inputs": [
        {
          "internalType": "address",
          "name": "user",
          "type": "address"
        },
        {
          "internalType": "uint256",
          "name": "amount",
          "type": "uint256"
        }
      ],
      "name": "unlockCollateral",
      "outputs": [],
      "stateMutability": "nonpayable",
      "type": "function"
    },
    {
      "inputs": [
        {
          "internalType": "uint256",
          "name": "amount",
          "type": "uint256"
        }
      ],
      "name": "withdraw",
      "outputs": [],
      "stateMutability": "nonpayable",
      "type": "function"
    }
  ],
  "bytecode": "0x60a03461011057601f61124838819003918201601f19168301916001600160401b038311848410176101155780849260209460405283398101031261011057516001600160a01b038082169182900361011057600160005533156100f75760018054336001600160a01b03198216811790925560405192167f8be0079c531659141344cd1fd0a4f28419497f9722a3daafe3b4186f6b6457e0600080a381156100e8575060805260405161111c908161012c8239608051818181610341015281816103b9015281816104520152818161078d01528181610bfe01528181610d1e015261107b0152f35b63d92e233d60e01b8152600490fd5b604051631e4fbdf760e01b815260006004820152602490fd5b600080fd5b634e487b7160e01b600052604160045260246000fdfe608060408181526004918236101561001657600080fd5b600092833560e01c9182630483a7f614610e8e5750816317f1749814610ddf57816327e235e314610da757816328a96ed114610d815781632e1a7d4d14610c505781632f4f21e214610b5657816330582b0014610a3e5781634299b8a214610a0157816347a7d107146109165781634a970be71461075857816356891412146107395781636c24a76f146106ef578163715018a61461068e5781638da5cb5b14610665578163a58f33d3146103e8578163b2016bd4146103a4578163b6b55f25146102ec578163c4086893146102b4578163f2862e6714610246578163f2fde38b146101b5578163fa26958c14610138575063ff50abdc1461011757600080fd5b346101345781600319360112610134576020906005549051908152f35b5080fd5b919050346101b15760203660031901126101b157610154610ec2565b61015c610ed8565b6001600160a01b03169182156101a3578284526020528220805460ff191690557f014dad1a8290ff4fc1990d6ffdfce4ef09f541b4e8e02abce86c42d4c310d0568280a280f35b905163d92e233d60e01b8152fd5b8280fd5b9050346101b15760203660031901126101b1576101d0610ec2565b906101d9610ed8565b6001600160a01b03918216928315610230575050600154826bffffffffffffffffffffffff60a01b821617600155167f8be0079c531659141344cd1fd0a4f28419497f9722a3daafe3b4186f6b6457e0600080a380f35b51631e4fbdf760e01b8152908101849052602490fd5b919050346101b15760203660031901126101b157610262610ec2565b61026a610ed8565b6001600160a01b03169182156101a3578284526020528220805460ff191660011790557fff192fe3e3e847428def87bbc2d04aa27048f6669caf7380828f868acd86bbfa8280a280f35b5050346101345760203660031901126101345760209181906001600160a01b036102dc610ec2565b1681526003845220549051908152f35b919050346101b15760203660031901126101b15781359161030b611036565b821561039657503383526002602052808320610328838254610f04565b905561033682600554610f04565b6005556103658230337f0000000000000000000000000000000000000000000000000000000000000000610f73565b519081527f2da466a7b24304f47e87fa2e1e5a81b9831ce54fec19055ce277ca2f39ba42c460203392a26001815580f35b9051631f2a200560e01b8152fd5b505034610134578160031936011261013457517f00000000000000000000000000000000000000000000000000000000000000006001600160a01b03168152602090f35b919050346101b15760c03660031901126101b157610404610ec2565b90602435906064359360ff851685036105d15733865260209381855260ff83882054161561065657610434611036565b8315610647576001600160a01b0381811696909290871561063857887f000000000000000000000000000000000000000000000000000000000000000094851691823b1561013457865163d505accf60e01b81526001600160a01b038616858201908152306020820152604081018a9052604435606082015260ff909216608083015260843560a083015260a43560c08301528a92909181908390819060e001038183885af1918261061b575b50506105e757508451636eb1769f60e11b81526001600160a01b038416838201908152306020820152909188918391908290819060400103915afa9081156105dd579086918a916105a7575b501061059957509161058d847f11fa725a956e1222d809b94ec211abe46e4218803a3c67d50f6fd9e46ba20a0e95938897955b888b5260028752848b20610575848254610f04565b905561058383600554610f04565b6005553091610f73565b51908152a36001815580f35b835163b78cb0dd60e01b8152fd5b809250888092503d83116105d6575b6105c08183610f51565b810103126105d1578590513861052d565b600080fd5b503d6105b6565b85513d8b823e3d90fd5b96949261058d92508694907f11fa725a956e1222d809b94ec211abe46e4218803a3c67d50f6fd9e46ba20a0e979250610560565b61062791929350610f27565b6106345788908a386104e1565b8980fd5b50835163d92e233d60e01b8152fd5b509051631f2a200560e01b8152fd5b509051630f6f4d9760e11b8152fd5b50503461013457816003193601126101345760015490516001600160a01b039091168152602090f35b83346106ec57806003193601126106ec576106a7610ed8565b600180546001600160a01b031981169091556000906001600160a01b03167f8be0079c531659141344cd1fd0a4f28419497f9722a3daafe3b4186f6b6457e08280a380f35b80fd5b50503461013457602036600319011261013457602091610732906001600160a01b03610719610ec2565b1681526002845282808220549160038652205490611059565b9051908152f35b5050346101345781600319360112610134576020906006549051908152f35b919050346101b15760a03660031901126101b1578135916044359060ff8216820361091257610785611036565b8315610904577f0000000000000000000000000000000000000000000000000000000000000000916001600160a01b0383169086823b156106ec57855163d505accf60e01b81523385820190815230602082015260408101899052602435606082015260ff909316608084015260643560a084015260843560c0840152918290819060e001038183865af190816108f1575b5085906108e557508351636eb1769f60e11b81523383820190815230602082810191909152919283918290819060400103915afa9081156108db5790859187916108a7575b5010610899575082610365915b338652600260205283862061087f838254610f04565b905561088d82600554610f04565b60055530903390610f73565b825163b78cb0dd60e01b8152fd5b9150506020813d82116108d3575b816108c260209383610f51565b810103126105d1578490513861085c565b3d91506108b5565b84513d88823e3d90fd5b91505061036591610869565b966108fd879298610f27565b9690610817565b8251631f2a200560e01b8152fd5b8480fd5b9050346101b157816003193601126101b157610930610ec2565b91602435923385528260205260ff8286205416156109f35783156109e5576001600160a01b03169182156101a357828552600260205261097c8286205460036020528387205490611059565b84116109d757508184526003602052808420610999848254610f04565b90556109a783600654610f04565b600655519182527f56b60085244fe1afa467f92231debadc8bcb6127e9dbf35dbb58ca8406a423fe60203393a380f35b905163e201ec7360e01b8152fd5b5051631f2a200560e01b8152fd5b5051630f6f4d9760e11b8152fd5b9050346101b15760203660031901126101b15760209260ff918391906001600160a01b03610a2d610ec2565b168252855220541690519015158152f35b9050346101b15760603660031901126101b157610a59610ec2565b6001600160a01b039260243584811693929190849003610b52576044359433875260209284845260ff838920541615610b42578615610b3257169283156101a35784156101a35783875260038352818720548611610b245750907f7b7ca9de228bea9c60ae26cfdb69368cad25bc85f68e26a703acf7c692d545ca9183875260038252808720610aea878254611059565b905583875260028252808720610b01878254611059565b905584875260028252808720610b18878254610f04565b9055519485523394a480f35b9051631e9acf1760e31b8152fd5b8251631f2a200560e01b81528590fd5b8251630f6f4d9760e11b81528590fd5b8580fd5b919050346101b157806003193601126101b157610b71610ec2565b90602435913385528360205260ff828620541615610c4057610b91611036565b8215610c30576001600160a01b038116938415610c225750827f11fa725a956e1222d809b94ec211abe46e4218803a3c67d50f6fd9e46ba20a0e9261058d8695602094878a5260028652838a20610be9838254610f04565b9055610bf782600554610f04565b60055530907f0000000000000000000000000000000000000000000000000000000000000000610f73565b825163d92e233d60e01b8152fd5b8151631f2a200560e01b81528490fd5b8151630f6f4d9760e11b81528490fd5b838334610134576020806003193601126101b157833591610c6f611036565b8215610d725733845260028252610c9181852054600384528286205490611059565b8311610d635733845260028252808420610cac848254611059565b9055610cba83600554611059565b600555805163a9059cbb60e01b83820152336024820152604480820185905281526080810167ffffffffffffffff811182821017610d50578291610d42917f7084f5476618d8e60b11ef0d7d3f06914655adb8793e28ff7f018d4c76d505d59594527f0000000000000000000000000000000000000000000000000000000000000000610fce565b519283523392a26001815580f35b634e487b7160e01b865260418752602486fd5b5163e201ec7360e01b81528490fd5b51631f2a200560e01b81528490fd5b505034610134578160031936011261013457602090610d9e611066565b90519015158152f35b5050346101345760203660031901126101345760209181906001600160a01b03610dcf610ec2565b1681526002845220549051908152f35b9050346101b157816003193601126101b157610df9610ec2565b91602435923385528260205260ff8286205416156109f35783156109e5576001600160a01b03169182156101a3578285526003602052818520548411610b2457508184526003602052808420610e50848254611059565b9055610e5e83600654611059565b600655519182527f817d69f45cb0984f7141c288a3bea0d2dd7bc075758f311056d0aa31798614fa60203393a380f35b849084346101b15760203660031901126101b1576020926001600160a01b03610eb5610ec2565b1681526003845220548152f35b600435906001600160a01b03821682036105d157565b6001546001600160a01b03163303610eec57565b60405163118cdaa760e01b8152336004820152602490fd5b91908201809211610f1157565b634e487b7160e01b600052601160045260246000fd5b67ffffffffffffffff8111610f3b57604052565b634e487b7160e01b600052604160045260246000fd5b90601f8019910116810190811067ffffffffffffffff821117610f3b57604052565b6040516323b872dd60e01b60208201526001600160a01b03928316602482015292909116604483015260648083019390935291815260a081019181831067ffffffffffffffff841117610f3b57610fcc92604052610fce565b565b906000602091828151910182855af11561102a576000513d61102157506001600160a01b0381163b155b610fff5750565b604051635274afe760e01b81526001600160a01b039091166004820152602490fd5b60011415610ff8565b6040513d6000823e3d90fd5b600260005414611047576002600055565b604051633ee5aeb560e01b8152600490fd5b91908203918211610f1157565b604051633644e51560e01b81526020816004817f00000000000000000000000000000000000000000000000000000000000000006001600160a01b03165afa90816110bb575b506110b657600090565b600190565b602090813d81116110df575b6110d18183610f51565b810103126105d157386110ac565b503d6110c756fea26469706673582212207e84dd76a2d673f04b40b97c674635d711a0cdc14d5a868005b716af6abadab664736f6c63430008140033",
  "linkReferences": {},
  "deployedLinkReferences": {}
}