{
  "_format": "hh-sol-artifact-1",
  "contractName": "PredictionMarket",
  "sourceName": "contracts/PredictionMarket.sol",
  "abi": [
    {
      "inputs": [
        {
          "internalType": "address",
          "name": "_vault",
          "type": "address"
        }
      ],
      "stateMutability": "nonpayable",
      "type": "constructor"
    },
    {
      "inputs": [],
      "name": "AccessControlBadConfirmation",
      "type": "error"
    },
    {
      "inputs": [
        {
          "internalType": "address",
          "name": "account",
          "type": "address"
        },
        {
          "internalType": "bytes32",
          "name": "neededRole",
          "type": "bytes32"
        }
      ],
      "name": "AccessControlUnauthorizedAccount",
      "type": "error"
    },
    {
      "inputs": [],
      "name": "AlreadyClaimed",
      "type": "error"
    },
    {
      "inputs": [],
      "name": "InsufficientBalance",
      "type": "error"
    },
    {
      "inputs": [],
      "name": "InvalidOutcome",
      "type": "error"
    },
    {
      "inputs": [],
      "name": "InvalidPrice",
      "type": "error"
    },
    {
      "inputs": [],
      "name": "InvalidQuantity",
      "type": "error"
    },
    {
      "inputs": [],
      "name": "MarketAlreadyExists",
      "type": "error"
    },
    {
      "inputs": [],
      "name": "MarketDoesNotExist",
      "type": "error"
    },
    {
      "inputs": [],
      "name": "MarketNotActive",
      "type": "error"
    },
    {
      "inputs": [],
      "name": "MarketNotCancelled",
      "type": "error"
    },
    {
      "inputs": [],
      "name": "MarketNotResolved",
      "type": "error"
    },
    {
      "inputs": [],
      "name": "NoWinnings",
      "type": "error"
    },
    {
      "inputs": [],
      "name": "NotOrderOwner",
      "type": "error"
    },
    {
      "inputs": [],
      "name": "OrderDoesNotExist",
      "type": "error"
    },
    {
      "inputs": [],
      "name": "OrderExpired",
      "type": "error"
    },
    {
      "inputs": [],
      "name": "OrderNotOpen",
      "type": "error"
    },
    {
      "inputs": [],
      "name": "ReentrancyGuardReentrantCall",
      "type": "error"
    },
    {
      "inputs": [],
      "name": "UnauthorizedOperator",
      "type": "error"
    },
    {
      "inputs": [],
      "name": "ZeroAddress",
      "type": "error"
    },
    {
      "anonymous": false,
      "inputs": [
        {
          "indexed": true,
          "internalType": "bytes32",
          "name": "marketId",
          "type": "bytes32"
        },
        {
          "indexed": false,
          "internalType": "string",
          "name": "question",
          "type": "string"
        },
        {
          "indexed": false,
          "internalType": "address",
          "name": "yesToken",
          "type": "address"
        },
        {
          "indexed": false,
          "internalType": "address",
          "name": "noToken",
          "type": "address"
        },
        {
          "indexed": true,
          "internalType": "address",
          "name": "operator",
          "type": "address"
        },
        {
          "indexed": false,
          "internalType": "uint256",
          "name": "expireTime",
          "type": "uint256"
        }
      ],
      "name": "MarketCreated",
      "type": "event"
    },
    {
      "anonymous": false,
      "inputs": [
        {
          "indexed": true,
          "internalType": "bytes32",
          "name": "marketId",
          "type": "bytes32"
        },
        {
          "indexed": false,
          "internalType": "enum PredictionMarket.Outcome",
          "name": "winningOutcome",
          "type": "uint8"
        },
        {
          "indexed": true,
          "internalType": "address",
          "name": "resolver",
          "type": "address"
        }
      ],
      "name": "MarketResolved",
      "type": "event"
    },
    {
      "anonymous": false,
      "inputs": [
        {
          "indexed": true,
          "internalType": "bytes32",
          "name": "marketId",
          "type": "bytes32"
        },
        {
          "indexed": false,
          "internalType": "enum PredictionMarket.MarketStatus",
          "name": "oldStatus",
          "type": "uint8"
        },
        {
          "indexed": false,
          "internalType": "enum PredictionMarket.MarketStatus",
          "name": "newStatus",
          "type": "uint8"
        }
      ],
      "name": "MarketStatusChanged",
      "type": "event"
    },
    {
      "anonymous": false,
      "inputs": [
        {
          "indexed": false,
          "internalType": "uint256",
          "name": "oldSize",
          "type": "uint256"
        },
        {
          "indexed": false,
          "internalType": "uint256",
          "name": "newSize",
          "type": "uint256"
        }
      ],
      "name": "MinOrderSizeUpdated",
      "type": "event"
    },
    {
      "anonymous": false,
      "inputs": [
        {
          "indexed": true,
          "internalType": "bytes32",
          "name": "orderId",
          "type": "bytes32"
        },
        {
          "indexed": true,
          "internalType": "address",
          "name": "trader",
          "type": "address"
        }
      ],
      "name": "OrderCancelled",
      "type": "event"
    },
    {
      "anonymous": false,
      "inputs": [
        {
          "indexed": true,
          "internalType": "bytes32",
          "name": "orderId",
          "type": "bytes32"
        },
        {
          "indexed": false,
          "internalType": "uint256",
          "name": "filledQuantity",
          "type": "uint256"
        },
        {
          "indexed": false,
          "internalType": "uint256",
          "name": "remainingQuantity",
          "type": "uint256"
        }
      ],
      "name": "OrderFilled",
      "type": "event"
    },
    {
      "anonymous": false,
      "inputs": [
        {
          "indexed": true,
          "internalType": "bytes32",
          "name": "orderId",
          "type": "bytes32"
        },
        {
          "indexed": true,
          "internalType": "bytes32",
          "name": "marketId",
          "type": "bytes32"
        },
        {
          "indexed": true,
          "internalType": "address",
          "name": "trader",
          "type": "address"
        },
        {
          "indexed": false,
          "internalType": "enum PredictionMarket.OrderSide",
          "name": "side",
          "type": "uint8"
        },
        {
          "indexed": false,
          "internalType": "enum PredictionMarket.Outcome",
          "name": "outcome",
          "type": "uint8"
        },
        {
          "indexed": false,
          "internalType": "uint256",
          "name": "price",
          "type": "uint256"
        },
        {
          "indexed": false,
          "internalType": "uint256",
          "name": "quantity",
          "type": "uint256"
        }
      ],
      "name": "OrderPlaced",
      "type": "event"
    },
    {
      "anonymous": false,
      "inputs": [
        {
          "indexed": true,
          "internalType": "bytes32",
          "name": "marketId",
          "type": "bytes32"
        },
        {
          "indexed": true,
          "internalType": "address",
          "name": "user",
          "type": "address"
        },
        {
          "indexed": false,
          "internalType": "uint256",
          "name": "amount",
          "type": "uint256"
        }
      ],
      "name": "RefundClaimed",
      "type": "event"
    },
    {
      "anonymous": false,
      "inputs": [
        {
          "indexed": true,
          "internalType": "bytes32",
          "name": "role",
          "type": "bytes32"
        },
        {
          "indexed": true,
          "internalType": "bytes32",
          "name": "previousAdminRole",
          "type": "bytes32"
        },
        {
          "indexed": true,
          "internalType": "bytes32",
          "name": "newAdminRole",
          "type": "bytes32"
        }
      ],
      "name": "RoleAdminChanged",
      "type": "event"
    },
    {
      "anonymous": false,
      "inputs": [
        {
          "indexed": true,
          "internalType": "bytes32",
          "name": "role",
          "type": "bytes32"
        },
        {
          "indexed": true,
          "internalType": "address",
          "name": "account",
          "type": "address"
        },
        {
          "indexed": true,
          "internalType": "address",
          "name": "sender",
          "type": "address"
        }
      ],
      "name": "RoleGranted",
      "type": "event"
    },
    {
      "anonymous": false,
      "inputs": [
        {
          "indexed": true,
          "internalType": "bytes32",
          "name": "role",
          "type": "bytes32"
        },
        {
          "indexed": true,
          "internalType": "address",
          "name": "account",
          "type": "address"
        },
        {
          "indexed": true,
          "internalType": "address",
          "name": "sender",
          "type": "address"
        }
      ],
      "name": "RoleRevoked",
      "type": "event"
    },
    {
      "anonymous": false,
      "inputs": [
        {
          "indexed": true,
          "internalType": "bytes32",
          "name": "marketId",
          "type": "bytes32"
        },
        {
          "indexed": true,
          "internalType": "address",
          "name": "holder",
          "type": "address"
        },
        {
          "indexed": false,
          "internalType": "uint256",
          "name": "yesAmount",
          "type": "uint256"
        },
        {
          "indexed": false,
          "internalType": "uint256",
          "name": "noAmount",
          "type": "uint256"
        }
      ],
      "name": "SharesBurned",
      "type": "event"
    },
    {
      "anonymous": false,
      "inputs": [
        {
          "indexed": true,
          "internalType": "bytes32",
          "name": "marketId",
          "type": "bytes32"
        },
        {
          "indexed": true,
          "internalType": "address",
          "name": "recipient",
          "type": "address"
        },
        {
          "indexed": false,
          "internalType": "uint256",
          "name": "yesAmount",
          "type": "uint256"
        },
        {
          "indexed": false,
          "internalType": "uint256",
          "name": "noAmount",
          "type": "uint256"
        }
      ],
      "name": "SharesMinted",
      "type": "event"
    },
    {
      "anonymous": false,
      "inputs": [
        {
          "indexed": true,
          "internalType": "bytes32",
          "name": "fillId",
          "type": "bytes32"
        },
        {
          "indexed": true,
          "internalType": "bytes32",
          "name": "marketId",
          "type": "bytes32"
        },
        {
          "indexed": false,
          "internalType": "bytes32",
          "name": "makerOrderId",
          "type": "bytes32"
        },
        {
          "indexed": false,
          "internalType": "bytes32",
          "name": "takerOrderId",
          "type": "bytes32"
        },
        {
          "indexed": false,
          "internalType": "enum PredictionMarket.MatchType",
          "name": "matchType",
          "type": "uint8"
        },
        {
          "indexed": false,
          "internalType": "uint256",
          "name": "quantity",
          "type": "uint256"
        },
        {
          "indexed": false,
          "internalType": "uint256",
          "name": "price",
          "type": "uint256"
        }
      ],
      "name": "Trade",
      "type": "event"
    },
    {
      "anonymous": false,
      "inputs": [
        {
          "indexed": true,
          "internalType": "bytes32",
          "name": "marketId",
          "type": "bytes32"
        },
        {
          "indexed": true,
          "internalType": "address",
          "name": "user",
          "type": "address"
        },
        {
          "indexed": false,
          "internalType": "uint256",
          "name": "amount",
          "type": "uint256"
        },
        {
          "indexed": false,
          "internalType": "enum PredictionMarket.Outcome",
          "name": "outcome",
          "type": "uint8"
        }
      ],
      "name": "WinningsClaimed",
      "type": "event"
    },
    {
      "inputs": [],
      "name": "BASIS_POINTS",
      "outputs": [
        {
          "internalType": "uint256",
          "name": "",
          "type": "uint256"
        }
      ],
      "stateMutability": "view",
      "type": "function"
    },
    {
      "inputs": [],
      "name": "DEFAULT_ADMIN_ROLE",
      "outputs": [
        {
          "internalType": "bytes32",
          "name": "",
          "type": "bytes32"
        }
      ],
      "stateMutability": "view",
      "type": "function"
    },
    {
      "inputs": [],
      "name": "OPERATOR_ROLE",
      "outputs": [
        {
          "internalType": "bytes32",
          "name": "",
          "type": "bytes32"
        }
      ],
      "stateMutability": "view",
      "type": "function"
    },
    {
      "inputs": [
        {
          "internalType": "enum PredictionMarket.OrderSide",
          "name": "side",
          "type": "uint8"
        },
        {
          "internalType": "uint256",
          "name": "price",
          "type": "uint256"
        },
        {
          "internalType": "uint256",
          "name": "quantity",
          "type": "uint256"
        }
      ],
      "name": "calculateCollateralRequired",
      "outputs": [
        {
          "internalType": "uint256",
          "name": "",
          "type": "uint256"
        }
      ],
      "stateMutability": "pure",
      "type": "function"
    },
    {
      "inputs": [
        {
          "internalType": "address",
          "name": "user",
          "type": "address"
        },
        {
          "internalType": "enum PredictionMarket.OrderSide",
          "name": "side",
          "type": "uint8"
        },
        {
          "internalType": "uint256",
          "name": "price",
          "type": "uint256"
        },
        {
          "internalType": "uint256",
          "name": "quantity",
          "type": "uint256"
        }
      ],
      "name": "calculateDepositNeeded",
      "outputs": [
        {
          "internalType": "uint256",
          "name": "",
          "type": "uint256"
        }
      ],
      "stateMutability": "view",
      "type": "function"
    },
    {
      "inputs": [
        {
          "internalType": "bytes32",
          "name": "marketId",
          "type": "bytes32"
        }
      ],
      "name": "cancelMarket",
      "outputs": [],
      "stateMutability": "nonpayable",
      "type": "function"
    },
    {
      "inputs": [
        {
          "internalType": "bytes32",
          "name": "orderId",
          "type": "bytes32"
        }
      ],
      "name": "cancelOrder",
      "outputs": [],
      "stateMutability": "nonpayable",
      "type": "function"
    },
    {
      "inputs": [
        {
          "internalType": "bytes32",
          "name": "marketId",
          "type": "bytes32"
        }
      ],
      "name": "claimRefund",
      "outputs": [],
      "stateMutability": "nonpayable",
      "type": "function"
    },
    {
      "inputs": [
        {
          "internalType": "bytes32",
          "name": "marketId",
          "type": "bytes32"
        }
      ],
      "name": "claimWinnings",
      "outputs": [],
      "stateMutability": "nonpayable",
      "type": "function"
    },
    {
      "inputs": [
        {
          "internalType": "bytes32",
          "name": "marketId",
          "type": "bytes32"
        },
        {
          "internalType": "string",
          "name": "question",
          "type": "string"
        },
        {
          "internalType": "uint256",
          "name": "expireTime",
          "type": "uint256"
        },
        {
          "internalType": "address",
          "name": "operator",
          "type": "address"
        }
      ],
      "name": "createMarket",
      "outputs": [],
      "stateMutability": "nonpayable",
      "type": "function"
    },
    {
      "inputs": [
        {
          "internalType": "uint256",
          "name": "depositAmount",
          "type": "uint256"
        },
        {
          "internalType": "bytes32",
          "name": "marketId",
          "type": "bytes32"
        },
        {
          "internalType": "enum PredictionMarket.OrderSide",
          "name": "side",
          "type": "uint8"
        },
        {
          "internalType": "enum PredictionMarket.Outcome",
          "name": "outcome",
          "type": "uint8"
        },
        {
          "internalType": "uint256",
          "name": "price",
          "type": "uint256"
        },
        {
          "internalType": "uint256",
          "name": "quantity",
          "type": "uint256"
        },
        {
          "internalType": "uint256",
          "name": "expireTime",
          "type": "uint256"
        }
      ],
      "name": "depositAndPlaceOrder",
      "outputs": [
        {
          "internalType": "bytes32",
          "name": "orderId",
          "type": "bytes32"
        }
      ],
      "stateMutability": "nonpayable",
      "type": "function"
    },
    {
      "inputs": [
        {
          "internalType": "uint256",
          "name": "depositAmount",
          "type": "uint256"
        },
        {
          "internalType": "bytes32",
          "name": "marketId",
          "type": "bytes32"
        },
        {
          "internalType": "enum PredictionMarket.OrderSide",
          "name": "side",
          "type": "uint8"
        },
        {
          "internalType": "enum PredictionMarket.Outcome",
          "name": "outcome",
          "type": "uint8"
        },
        {
          "internalType": "uint256",
          "name": "price",
          "type": "uint256"
        },
        {
          "internalType": "uint256",
          "name": "quantity",
          "type": "uint256"
        },
        {
          "internalType": "uint256",
          "name": "expireTime",
          "type": "uint256"
        },
        {
          "internalType": "uint256",
          "name": "deadline",
          "type": "uint256"
        },
        {
          "internalType": "uint8",
          "name": "v",
          "type": "uint8"
        },
        {
          "internalType": "bytes32",
          "name": "r",
          "type": "bytes32"
        },
        {
          "internalType": "bytes32",
          "name": "s",
          "type": "bytes32"
        }
      ],
      "name": "depositWithPermitAndPlaceOrder",
      "outputs": [
        {
          "internalType": "bytes32",
          "name": "orderId",
          "type": "bytes32"
        }
      ],
      "stateMutability": "nonpayable",
      "type": "function"
    },
    {
      "inputs": [
        {
          "internalType": "bytes32",
          "name": "marketId",
          "type": "bytes32"
        }
      ],
      "name": "getMarket",
      "outputs": [
        {
          "components": [
            {
              "internalType": "bytes32",
              "name": "marketId",
              "type": "bytes32"
            },
            {
              "internalType": "string",
              "name": "question",
              "type": "string"
            },
            {
              "internalType": "address",
              "name": "yesToken",
              "type": "address"
            },
            {
              "internalType": "address",
              "name": "noToken",
              "type": "address"
            },
            {
              "internalType": "uint256",
              "name": "yesSupply",
              "type": "uint256"
            },
            {
              "internalType": "uint256",
              "name": "noSupply",
              "type": "uint256"
            },
            {
              "internalType": "uint256",
              "name": "totalCollateral",
              "type": "uint256"
            },
            {
              "internalType": "enum PredictionMarket.MarketStatus",
              "name": "status",
              "type": "uint8"
            },
            {
              "internalType": "enum PredictionMarket.Outcome",
              "name": "winningOutcome",
              "type": "uint8"
            },
            {
              "internalType": "uint256",
              "name": "expireTime",
              "type": "uint256"
            },
            {
              "internalType": "uint256",
              "name": "createdAt",
              "type": "uint256"
            },
            {
              "internalType": "address",
              "name": "tournamentOperator",
              "type": "address"
            }
          ],
          "internalType": "struct PredictionMarket.Market",
          "name": "",
          "type": "tuple"
        }
      ],
      "stateMutability": "view",
      "type": "function"
    },
    {
      "inputs": [],
      "name": "getMarketIds",
      "outputs": [
        {
          "internalType": "bytes32[]",
          "name": "",
          "type": "bytes32[]"
        }
      ],
      "stateMutability": "view",
      "type": "function"
    },
    {
      "inputs": [
        {
          "internalType": "bytes32",
          "name": "orderId",
          "type": "bytes32"
        }
      ],
      "name": "getOrder",
      "outputs": [
        {
          "components": [
            {
              "internalType": "bytes32",
              "name": "orderId",
              "type": "bytes32"
            },
            {
              "internalType": "bytes32",
              "name": "marketId",
              "type": "bytes32"
            },
            {
              "internalType": "address",
              "name": "trader",
              "type": "address"
            },
            {
              "internalType": "enum PredictionMarket.OrderSide",
              "name": "side",
              "type": "uint8"
            },
            {
              "internalType": "enum PredictionMarket.Outcome",
              "name": "outcome",
              "type": "uint8"
            },
            {
              "internalType": "uint256",
              "name": "price",
              "type": "uint256"
            },
            {
              "internalType": "uint256",
              "name": "quantity",
              "type": "uint256"
            },
            {
              "internalType": "uint256",
              "name": "filled",
              "type": "uint256"
            },
            {
              "internalType": "uint256",
              "name": "collateralLocked",
              "type": "uint256"
            },
            {
              "internalType": "enum PredictionMarket.OrderStatus",
              "name": "status",
              "type": "uint8"
            },
            {
              "internalType": "uint256",
              "name": "createdAt",
              "type": "uint256"
            },
            {
              "internalType": "uint256",
              "name": "expireTime",
              "type": "uint256"
            }
          ],
          "internalType": "struct PredictionMarket.Order",
          "name": "",
          "type": "tuple"
        }
      ],
      "stateMutability": "view",
      "type": "function"
    },
    {
      "inputs": [
        {
          "internalType": "bytes32",
          "name": "marketId",
          "type": "bytes32"
        },
        {
          "internalType": "enum PredictionMarket.Outcome",
          "name": "outcome",
          "type": "uint8"
        },
        {
          "internalType": "enum PredictionMarket.OrderSide",
          "name": "side",
          "type": "uint8"
        }
      ],
      "name": "getOrderBook",
      "outputs": [
        {
          "internalType": "bytes32[]",
          "name": "",
          "type": "bytes32[]"
        }
      ],
      "stateMutability": "view",
      "type": "function"
    },
    {
      "inputs": [
        {
          "internalType": "bytes32",
          "name": "role",
          "type": "bytes32"
        }
      ],
      "name": "getRoleAdmin",
      "outputs": [
        {
          "internalType": "bytes32",
          "name": "",
          "type": "bytes32"
        }
      ],
      "stateMutability": "view",
      "type": "function"
    },
    {
      "inputs": [
        {
          "internalType": "address",
          "name": "user",
          "type": "address"
        }
      ],
      "name": "getUserOrders",
      "outputs": [
        {
          "internalType": "bytes32[]",
          "name": "",
          "type": "bytes32[]"
        }
      ],
      "stateMutability": "view",
      "type": "function"
    },
    {
      "inputs": [
        {
          "internalType": "bytes32",
          "name": "role",
          "type": "bytes32"
        },
        {
          "internalType": "address",
          "name": "account",
          "type": "address"
        }
      ],
      "name": "grantRole",
      "outputs": [],
      "stateMutability": "nonpayable",
      "type": "function"
    },
    {
      "inputs": [
        {
          "internalType": "bytes32",
          "name": "",
          "type": "bytes32"
        },
        {
          "internalType": "address",
          "name": "",
          "type": "address"
        }
      ],
      "name": "hasClaimed",
      "outputs": [
        {
          "internalType": "bool",
          "name": "",
          "type": "bool"
        }
      ],
      "stateMutability": "view",
      "type": "function"
    },
    {
      "inputs": [
        {
          "internalType": "bytes32",
          "name": "role",
          "type": "bytes32"
        },
        {
          "internalType": "address",
          "name": "account",
          "type": "address"
        }
      ],
      "name": "hasRole",
      "outputs": [
        {
          "internalType": "bool",
          "name": "",
          "type": "bool"
        }
      ],
      "stateMutability": "view",
      "type": "function"
    },
    {
      "inputs": [
        {
          "internalType": "uint256",
          "name": "",
          "type": "uint256"
        }
      ],
      "name": "marketIds",
      "outputs": [
        {
          "internalType": "bytes32",
          "name": "",
          "type": "bytes32"
        }
      ],
      "stateMutability": "view",
      "type": "function"
    },
    {
      "inputs": [
        {
          "internalType": "bytes32",
          "name": "",
          "type": "bytes32"
        }
      ],
      "name": "markets",
      "outputs": [
        {
          "internalType": "bytes32",
          "name": "marketId",
          "type": "bytes32"
        },
        {
          "internalType": "string",
          "name": "question",
          "type": "string"
        },
        {
          "internalType": "address",
          "name": "yesToken",
          "type": "address"
        },
        {
          "internalType": "address",
          "name": "noToken",
          "type": "address"
        },
        {
          "internalType": "uint256",
          "name": "yesSupply",
          "type": "uint256"
        },
        {
          "internalType": "uint256",
          "name": "noSupply",
          "type": "uint256"
        },
        {
          "internalType": "uint256",
          "name": "totalCollateral",
          "type": "uint256"
        },
        {
          "internalType": "enum PredictionMarket.MarketStatus",
          "name": "status",
          "type": "uint8"
        },
        {
          "internalType": "enum PredictionMarket.Outcome",
          "name": "winningOutcome",
          "type": "uint8"
        },
        {
          "internalType": "uint256",
          "name": "expireTime",
          "type": "uint256"
        },
        {
          "internalType": "uint256",
          "name": "createdAt",
          "type": "uint256"
        },
        {
          "internalType": "address",
          "name": "tournamentOperator",
          "type": "address"
        }
      ],
      "stateMutability": "view",
      "type": "function"
    },
    {
      "inputs": [],
      "name": "minOrderSize",
      "outputs": [
        {
          "internalType": "uint256",
          "name": "",
          "type": "uint256"
        }
      ],
      "stateMutability": "view",
      "type": "function"
    },
    {
      "inputs": [
        {
          "internalType": "bytes32",
          "name": "",
          "type": "bytes32"
        },
        {
          "internalType": "enum PredictionMarket.Outcome",
          "name": "",
          "type": "uint8"
        },
        {
          "internalType": "enum PredictionMarket.OrderSide",
          "name": "",
          "type": "uint8"
        },
        {
          "internalType": "uint256",
          "name": "",
          "type": "uint256"
        }
      ],
      "name": "orderBook",
      "outputs": [
        {
          "internalType": "bytes32",
          "name": "",
          "type": "bytes32"
        }
      ],
      "stateMutability": "view",
      "type": "function"
    },
    {
      "inputs": [
        {
          "internalType": "bytes32",
          "name": "",
          "type": "bytes32"
        }
      ],
      "name": "orders",
      "outputs": [
        {
          "internalType": "bytes32",
          "name": "orderId",
          "type": "bytes32"
        },
        {
          "internalType": "bytes32",
          "name": "marketId",
          "type": "bytes32"
        },
        {
          "internalType": "address",
          "name": "trader",
          "type": "address"
        },
        {
          "internalType": "enum PredictionMarket.OrderSide",
          "name": "side",
          "type": "uint8"
        },
        {
          "internalType": "enum PredictionMarket.Outcome",
          "name": "outcome",
          "type": "uint8"
        },
        {
          "internalType": "uint256",
          "name": "price",
          "type": "uint256"
        },
        {
          "internalType": "uint256",
          "name": "quantity",
          "type": "uint256"
        },
        {
          "internalType": "uint256",
          "name": "filled",
          "type": "uint256"
        },
        {
          "internalType": "uint256",
          "name": "collateralLocked",
          "type": "uint256"
        },
        {
          "internalType": "enum PredictionMarket.OrderStatus",
          "name": "status",
          "type": "uint8"
        },
        {
          "internalType": "uint256",
          "name": "createdAt",
          "type": "uint256"
        },
        {
          "internalType": "uint256",
          "name": "expireTime",
          "type": "uint256"
        }
      ],
      "stateMutability": "view",
      "type": "function"
    },
    {
      "inputs": [
        {
          "internalType": "bytes32",
          "name": "marketId",
          "type": "bytes32"
        }
      ],
      "name": "pauseMarket",
      "outputs": [],
      "stateMutability": "nonpayable",
      "type": "function"
    },
    {
      "inputs": [
        {
          "internalType": "bytes32",
          "name": "marketId",
          "type": "bytes32"
        },
        {
          "internalType": "enum PredictionMarket.OrderSide",
          "name": "side",
          "type": "uint8"
        },
        {
          "internalType": "enum PredictionMarket.Outcome",
          "name": "outcome",
          "type": "uint8"
        },
        {
          "internalType": "uint256",
          "name": "price",
          "type": "uint256"
        },
        {
          "internalType": "uint256",
          "name": "quantity",
          "type": "uint256"
        },
        {
          "internalType": "uint256",
          "name": "expireTime",
          "type": "uint256"
        }
      ],
      "name": "placeOrder",
      "outputs": [
        {
          "internalType": "bytes32",
          "name": "orderId",
          "type": "bytes32"
        }
      ],
      "stateMutability": "nonpayable",
      "type": "function"
    },
    {
      "inputs": [
        {
          "internalType": "bytes32",
          "name": "role",
          "type": "bytes32"
        },
        {
          "internalType": "address",
          "name": "callerConfirmation",
          "type": "address"
        }
      ],
      "name": "renounceRole",
      "outputs": [],
      "stateMutability": "nonpayable",
      "type": "function"
    },
    {
      "inputs": [
        {
          "internalType": "bytes32",
          "name": "marketId",
          "type": "bytes32"
        },
        {
          "internalType": "enum PredictionMarket.Outcome",
          "name": "winningOutcome",
          "type": "uint8"
        }
      ],
      "name": "resolveMarket",
      "outputs": [],
      "stateMutability": "nonpayable",
      "type": "function"
    },
    {
      "inputs": [
        {
          "internalType": "bytes32",
          "name": "marketId",
          "type": "bytes32"
        }
      ],
      "name": "resumeMarket",
      "outputs": [],
      "stateMutability": "nonpayable",
      "type": "function"
    },
    {
      "inputs": [
        {
          "internalType": "bytes32",
          "name": "role",
          "type": "bytes32"
        },
        {
          "internalType": "address",
          "name": "account",
          "type": "address"
        }
      ],
      "name": "revokeRole",
      "outputs": [],
      "stateMutability": "nonpayable",
      "type": "function"
    },
    {
      "inputs": [
        {
          "internalType": "uint256",
          "name": "newMinOrderSize",
          "type": "uint256"
        }
      ],
      "name": "setMinOrderSize",
      "outputs": [],
      "stateMutability": "nonpayable",
      "type": "function"
    },
    {
      "inputs": [
        {
          "internalType": "bytes4",
          "name": "interfaceId",
          "type": "bytes4"
        }
      ],
      "name": "supportsInterface",
      "outputs": [
        {
          "internalType": "bool",
          "name": "",
          "type": "bool"
        }
      ],
      "stateMutability": "view",
      "type": "function"
    },
    {
      "inputs": [
        {
          "internalType": "address",
          "name": "",
          "type": "address"
        },
        {
          "internalType": "uint256",
          "name": "",
          "type": "uint256"
        }
      ],
      "name": "userOrders",
      "outputs": [
        {
          "internalType": "bytes32",
          "name": "",
          "type": "bytes32"
        }
      ],
      "stateMutability": "view",
      "type": "function"
    },
    {
      "inputs": [],
      "name": "vault",
      "outputs": [
        {
          "internalType": "contract CollateralVault",
          "name": "",
          "type": "address"
        }
      ],
      "stateMutability": "view",
      "type": "function"
    }
  ],
  "bytecode": "0x60a0346200011f57601f6200576738819003918201601f19168301916001600160401b0383118484101762000124578084926020946040528339810103126200011f57516001600160a01b038116908190036200011f576001600055606460025580156200010d5760805262000075336200013a565b5060405161559a9081620001cd82396080518181816101ea0152818161038f01528181610d8801528181611783015281816119e1015281816121e2015281816129ca01528181612a2601528181612eaf01528181612f0e015281816135b6015281816136100152818161365a0152818161370801528181613cbe01528181613d1c01528181613d6701528181613dc501526145fb0152f35b60405163d92e233d60e01b8152600490fd5b600080fd5b634e487b7160e01b600052604160045260246000fd5b6001600160a01b031660008181527fa6eef7e35abe7026729641147f7915573c7e97b47efa546f5f6e3230263bcb49602052604081205490919060ff16620001c85781805260016020526040822081835260205260408220600160ff1982541617905533917f2f8788117e7eff1d82e926ec794901d17c78024a50270940304540a733656f0d8180a4600190565b509056fe6101808060405260043610156200001557600080fd5b600090813560e01c90816301ffc9a7146200230f5750806305b6ac6b14620022865780631cc7db881462002170578063248a9ca314620021425780632f2ff15d14620020fc57806336568abe14620020ad578063398c6f7e14620020305780635778472a1462001e5d5780635e2c8eee1462001e035780635e3828371462001d1e57806363c69f081462001ca257806371de2ffc146200187e5780637489ec23146200167d5780637564912b1462001592578063762f561814620014da578063779a96831462001485578063856652e91462001428578063865ec35e14620013b657806391d14854146200136657806392a42d1d14620013165780639c3f1e901462001241578063a217fddf1462001223578063a674537f1462001203578063a97e46d914620011c3578063b4a780881462001120578063b6507c2d14620010c8578063bdb83289146200105d578063be7406621462001020578063c3c95c7b1462000e0a578063c5ce6e3c1462000d1a578063d547741f1462000cd0578063d54c786e1462000638578063e1f1c4a71462000619578063e49b606c1462000259578063f5b541a6146200021c5763fbfa77cf14620001d357600080fd5b3462000219578060031936011262000219576040517f00000000000000000000000000000000000000000000000000000000000000006001600160a01b03168152602090f35b80fd5b5034620002195780600319360112620002195760206040517f97667070c54ef182b0f5858b034beac1b6f3089aa2d3188bb1e8929f4fa9b9298152f35b503462000219576020806003193601126200054c576004356200027b62002890565b8083526005825260408320600781015460ff811660048110156200060557600203620005f357828552600984526040852033600052845260ff60406000205416620005e15760081c60ff1690620002d28262002369565b81620005a757600201546001600160a01b0316925b6040516370a0823160e01b8152336004820152936001600160a01b03908116908286602481855afa9586156200059c57879662000562575b5085156200055057869185835260098452604083203360005284526040600020600160ff19825416179055803b156200052557604051632770a7eb60e21b8152336004820152602481018890529083908290604490829084905af1908115620004ff57839162000534575b5050807f00000000000000000000000000000000000000000000000000000000000000001690813b1562000525576040516302fe2e9360e31b815230600482015260248101889052838160448183875af180156200052957859185916200050a575b5050604051632c805af560e21b815292839060049082905afa8015620004ff5784928491620004cb575b5060405163a9059cbb60e01b815233600482015260248101899052938492604492849291165af18015620004c0576200048c575b506040519384526200045c8262002369565b8301527f5cf4a2169798b2cbf62119844933f2967a22195532e20571634dc50c4d1800cf60403393a36001815580f35b620004b090823d8411620004b8575b620004a78183620024ba565b810190620042a3565b50386200044a565b503d6200049b565b6040513d88823e3d90fd5b620004f09150833d8511620004f7575b620004e78183620024ba565b81019062004282565b3862000416565b503d620004db565b6040513d85823e3d90fd5b620005179192506200246a565b6200052557838338620003ec565b8280fd5b6040513d86823e3d90fd5b6200053f906200246a565b6200054c5781386200038a565b5080fd5b6040516330a748d360e11b8152600490fd5b9095508281813d831162000594575b6200057d8183620024ba565b810103126200058f575194386200031f565b600080fd5b503d62000571565b6040513d89823e3d90fd5b620005b28262002369565b60018203620005cf57600301546001600160a01b031692620002e7565b60405163c74a206d60e01b8152600490fd5b604051630c8d9eab60e31b8152600490fd5b60405163174b639360e11b8152600490fd5b634e487b7160e01b86526021600452602486fd5b5034620002195780600319360112620002195760206040516127108152f35b503462000219576080366003190112620002195767ffffffffffffffff602435116200021957366023602435011215620002195767ffffffffffffffff60243560040135116200021957366024803560040135813501011162000219576064356001600160a01b03811690036200058f57620006b3620025e9565b60043581526005602052600960408220015462000cbe576064356001600160a01b03161562000cac57620006e9600435620044f1565b6200072760246040518093635945532d60e01b60208301526200071681518092602086860191016200258f565b8101036004810184520182620024ba565b62000734600435620044f1565b906200077260236040518094624e4f2d60e81b60208301526200076181518092602086860191016200258f565b8101036003810185520183620024ba565b6040519081610ec781011067ffffffffffffffff610ec78401111762000c985781620007b5604092610ec76200467e843960a0610ec784018181520190620025b4565b610ec78201808203602080830191909152600383526259455360e81b9083015260043584820152600160608201523060809091015203019083f090811562000c8d576040519081610ec781011067ffffffffffffffff610ec78401111762000c9857816200083a604092610ec76200467e843960a0610ec784018181520190620025b4565b610ec7820180820360208083019190915260028352614e4f60f01b9083015260043584820152606081018790523060809091015203019083f0801562000c8d5760405162000888816200247f565b60043581526200089e6024356004013562002811565b620008ad6040519182620024ba565b602480356004810135808452910160208301378460206024356004013583010152602082015260018060a01b038316604082015260018060a01b03821660608201528360808201528360a08201528360c08201528360e082015260026101008201526044356101208201524261014082015260018060a01b0360643516610160820152600435845260056020526040842081518155602082015180519067ffffffffffffffff821162000c795781906200096b60018501546200242d565b601f811162000c23575b50602090601f831160011462000baf57889262000ba3575b50508160011b916000199060031b1c19161760018201555b600281019060018060a01b03604084015116916bffffffffffffffffffffffff60a01b92838254161790556003810160018060a01b03606085015116838254161790556080830151600482015560a0830151600582015560c083015160068201556007810160e0840151600481101562000b8f57600a929162000a469160ff801983541691161781556101008601519062000a408262002369565b6200282e565b61012084015160088201556101408401516009820155019161016060018060a01b039101511690825416179055600a54600160401b81101562000b79576001810180600a5581101562000b6357600a600052600435907fc65a7bb8d6351c1cf70c95a316cc6a92839c986682d98bc35f958f4883f9d2a8015562000acc60643562002669565b50604051916080835260243560040135608084015260243560040135602480350160a0850137600460243581013584810160a09081018790526001600160a01b03938416602087015293831660408601526044356060860152606435909216939035927fc1edba2980b5502d83071709308000bfb589c388cdd039afe22d22401939122892601f01601f191682018290030190a380f35b634e487b7160e01b600052603260045260246000fd5b634e487b7160e01b600052604160045260246000fd5b634e487b7160e01b88526021600452602488fd5b0151905038806200098d565b9250600184018852602088209088935b601f198416851062000c07576001945083601f1981161062000bed575b505050811b016001820155620009a5565b015160001960f88460031b161c1916905538808062000bdc565b8181015183556020948501946001909301929091019062000bbf565b90915060018401885260208820601f840160051c81016020851062000c71575b90849392915b601f830160051c8201811062000c6157505062000975565b6000815585945060010162000c49565b508062000c43565b634e487b7160e01b87526041600452602487fd5b6040513d84823e3d90fd5b634e487b7160e01b84526041600452602484fd5b60405163d92e233d60e01b8152600490fd5b604051630313b28560e01b8152600490fd5b503462000219576040366003190112620002195762000d1660043562000cf5620023a6565b90808452600160205262000d10600160408620015462002642565b62002799565b5080f35b5034620002195760e036600319011262000219576044356004356002821015620005255760643590600382101562000e065762000d5662002890565b8062000d84575b602084600162000d7a60c43560a435608435888a602435620028e7565b9155604051908152f35b83907f00000000000000000000000000000000000000000000000000000000000000006001600160a01b031690813b1562000525576040516317a790f160e11b8152336004820152602481019190915291908290604490829084905af1801562000529571562000d5d5762000dfa84916200246a565b62000525573862000d5d565b8380fd5b503462000219576020366003190112620002195780604091610160835162000e32816200247f565b8281526060602082015282858201528260608201528260808201528260a08201528260c08201528260e0820152826101008201528261012082015282610140820152015260043581526005602052206040519062000e90826200247f565b8054825262000ea260018201620024dd565b602083015260028101546001600160a01b03908116604084015260038201541660608301526004808201546080840152600582015460a0840152600682015460c0840152600782015460ff8116918210156200100a5760ff9160e085015260081c1662000f0f8162002369565b61010083015260088101546101208301526009810154610140830152600a60018060a01b03910154166101608201526040518091602082528051602083015262000f6b602082015161018060408501526101a0840190620025b4565b9060018060a01b03604082015116606084015260018060a01b036060820151166080840152608081015160a084015260a081015160c084015260c081015160e084015262000fc360e0820151610100850190620025db565b61010081015162000fd48162002369565b61012084015261012081015161014084015261014081015161016084015261016060018060a01b03910151166101808301520390f35b634e487b7160e01b600052602160045260246000fd5b503462000219576060366003190112620002195760043590600282101562000219576020620010556044356024358562004330565b604051908152f35b5034620002195760203660031901126200021957600435808252600560205260008051602062005545833981519152604060ff620010bd6007838720620010a48162004458565b01805490600384198316179055835192839116620025db565b60036020820152a280f35b5034620002195760c0366003190112620002195760243560028110156200054c576044356003811015620005255762000d7a602093926001926200110b62002890565b60a435916084359160643591600435620028e7565b50346200021957602036600319011262000219576004358082526005602052600760408320620011508162004458565b01805460ff81166004811015620011af57806200119d576000805160206200554583398151915292600160409360ff19161790556200119282518092620025db565b60016020820152a280f35b604051635a90bb8d60e11b8152600490fd5b634e487b7160e01b85526021600452602485fd5b5034620002195760803660031901126200021957620011e1620023bd565b60243591600283101562000219576020620010556064356044358686620045c2565b503462000219578060031936011262000219576020600254604051908152f35b50346200021957806003193601126200021957602090604051908152f35b5034620002195760203660031901126200021957604061018091600435815260066020522080549060018101549062001308600282015460ff8160a81c1660038401546004850154600586015491600687015493620012d760ff60078a01541696600960088b01549a01549a6040519c8d5260208d015260018060a01b03811660408d015260ff60608d019160a01c1662002411565b620012e28162002369565b60808a015260a089015260c088015260e08701526101008601526101208501906200241f565b610140830152610160820152f35b5034620002195760403660031901126200021957604062001336620023a6565b9160043581526009602052209060018060a01b0316600052602052602060ff604060002054166040519015158152f35b5034620002195760403660031901126200021957604062001386620023a6565b9160043581526001602052209060018060a01b0316600052602052602060ff604060002054166040519015158152f35b50346200021957602036600319011262000219576004358082526005602052600760408320620013e68162004458565b01805460ff81166004811015620011af576001036200119d5760ff1916905560008051602062005545833981519152604080516001815260006020820152a280f35b503462000219576040366003190112620002195762001446620023bd565b6001600160a01b0316815260086020526040812080546024359290831015620002195760206200147784846200238d565b90546040519160031b1c8152f35b5034620002195760203660031901126200021957600435600a548110156200054c57602090600a6000527fc65a7bb8d6351c1cf70c95a316cc6a92839c986682d98bc35f958f4883f9d2a80154604051908152f35b503462000219576060366003190112620002195760243560038110156200054c576044356002811015620005255762001537906004358452602092600784526040852090620015298162002369565b855283526040842062002374565b916040518092808554928381520194835280832092905b8282106200157a5762001576856200156981890382620024ba565b60405191829182620023d4565b0390f35b8354865294850194600193840193909101906200154e565b503462000219576020366003190112620002195760409060043581526005602052208054620015c460018301620024dd565b9160018060a01b03806002830154169181600382015416916004820154620016566005840154600685015460078601549160ff8360081c1694600888015496600a60098a015499015416986200162e6040519d8e9d8e528d610180908160208201520190620025b4565b9a60408d015260608c015260808b015260a08a015260c089015260ff60e089019116620025db565b620016618162002369565b6101008601526101208501526101408401526101608301520390f35b50346200021957602036600319011262000219576004356200169e62002890565b80825260066020526040822060028101805490916001600160a01b039182163381036200186c57600782019283549160ff83166005811015620018585780151590816200184b575b506200183957600484015491620017116200170660058701548562004260565b60068701546200426e565b958315620018235760038a948a98049560ff19161790558362001781575b505050509160016200175493015490549060ff808360a01c169260a81c16906200435c565b33907fa6eb7cdc219e1518ced964e9a34e61d68a94e4f1569db3e84256ba981ba527538380a36001815580f35b7f00000000000000000000000000000000000000000000000000000000000000001694509091843b1562000525576040516302fe2e9360e31b81526001600160a01b0392909216600483015260248201529281908490604490829084905af192831562001816578593620017f9575b8082916200172f565b62001807919293506200246a565b62000e065782908438620017f0565b50604051903d90823e3d90fd5b634e487b7160e01b600052601260045260246000fd5b60405163206931ef60e01b8152600490fd5b60019150141538620016e6565b634e487b7160e01b89526021600452602489fd5b604051637b2095ad60e11b8152600490fd5b503462000219576020806003193601126200054c57600435620018a062002890565b80835260058252604083209160ff6007840154166004811015620011af5760030362001c9057818452600981526040842033600052815260ff60406000205416620005e157600283019060018060a01b0393848354166040519183836024816370a0823160e01b958682523360048301525afa92831562001c4f57889362001c5a575b5060030183878254169260246040518095819382523360048301525afa91821562001c4f57889262001c1a575b508215808062001c11575b62000550578895889188885260098752604088203360005287526040600020600160ff198254161790551562001ba2575b50908262001b3b575b50508082101562001b325750935b84620019de575b507fe950d47bcc1a745a8ef1d8b86486b400a99681910425d126eb1a006d61f341b291506040519384523393a36001815580f35b807f00000000000000000000000000000000000000000000000000000000000000001690813b1562000e06576040516302fe2e9360e31b815230600482015260248101879052848160448183875af1801562001aea578491869162001b17575b5050604051632c805af560e21b815292839060049082905afa801562000529578392859162001af5575b5060405163a9059cbb60e01b815233600482015260248101889052948592604492849291165af191821562001aea577fe950d47bcc1a745a8ef1d8b86486b400a99681910425d126eb1a006d61f341b29262001ac8575b859250620019aa565b62001ae290823d8411620004b857620004a78183620024ba565b503862001abf565b6040513d87823e3d90fd5b62001b109150833d8511620004f757620004e78183620024ba565b3862001a68565b62001b249192506200246a565b62000e065782843862001a3e565b905093620019a3565b5416803b1562001b9e57604051632770a7eb60e21b8152336004820152602481018390529085908290604490829084905af190811562001aea57859162001b86575b87915062001995565b62001b91906200246a565b62000e0657833862001b7d565b8480fd5b541690813b1562001c0d57604051632770a7eb60e21b8152336004820152602481018590529186908390604490829084905af18015620004c0578892879162001bf0575b509190916200198c565b62001bfe919293506200246a565b62001b9e578690853862001be6565b8580fd5b5082156200195b565b9091508381813d831162001c47575b62001c358183620024ba565b810103126200058f5751903862001950565b503d62001c29565b6040513d8a823e3d90fd5b9092508381813d831162001c88575b62001c758183620024ba565b810103126200058f575191600362001923565b503d62001c69565b604051630a5a0fc560e31b8152600490fd5b503462000219576020806003193601126200054c576001600160a01b0362001cc9620023bd565b1682526008815260408220916040518092808554928381520194835280832092905b82821062001d065762001576856200156981890382620024ba565b83548652948501946001938401939091019062001ceb565b503462000219576040366003190112620002195760243560043560038210156200052557808352600560205260076040842062001d5b8162004458565b0180549060ff821691600483101562000605578215158062001df7575b6200119d57839262001da7866000805160206200554583398151915294600260409560ff19161781556200282e565b62001db582518092620025db565b60026020820152a26040519162001dcc8162002369565b82527f32c04ef1b4209cbe24e47a18ee52b8f81e4c88b295a7eb580de0cd651357986560203393a380f35b50600183141562001d78565b50346200021957602036600319011262000219577f745bf4a6ce2743009b1b47f40128dd9086f6eed93b86263039a71c240c93357c604060043562001e47620025e9565b600254908060025582519182526020820152a180f35b503462000219576020366003190112620002195780604091610160835162001e85816200247f565b82815282602082015282858201528260608201528260808201528260a08201528260c08201528260e08201528261010082015282610120820152826101408201520152600435815260066020522060405162001ee1816200247f565b815481526001820154602082015260028201546001600160a01b038116604083015260ff9062001f1b60a082901c831660608501620028da565b60a81c1662001f2a8162002369565b6080820152600382015460a0820152600482015460c0820152600582015460e0820152600682015461010082015260ff60078301541660058110156200100a57610180926009916101208401526008810154610140840152015461016082015261016060405191805183526020810151602084015260018060a01b03604082015116604084015262001fc56060820151606085019062002411565b608081015162001fd58162002369565b608084015260a081015160a084015260c081015160c084015260e081015160e08401526101008101516101008401526200201a6101208201516101208501906200241f565b6101408101516101408401520151610160820152f35b50346200021957806003193601126200021957604051600a80548083529083526020808301937fc65a7bb8d6351c1cf70c95a316cc6a92839c986682d98bc35f958f4883f9d2a892915b828210620020955762001576856200156981890382620024ba565b8354865294850194600193840193909101906200207a565b5034620002195760403660031901126200021957620020cb620023a6565b336001600160a01b03821603620020ea5762000d169060043562002799565b60405163334bd91960e11b8152600490fd5b503462000219576040366003190112620002195762000d1660043562002121620023a6565b9080845260016020526200213c600160408620015462002642565b6200271d565b5034620002195760203660031901126200021957600160406020926004358152828452200154604051908152f35b5034620002195761016036600319011262000219576004359060443560028110156200054c57606435600381101562000525576101043560ff811680910362000e0657620021bd62002890565b84620021e057602084600162000d7a60c43560a435608435888a602435620028e7565b7f00000000000000000000000000000000000000000000000000000000000000006001600160a01b031694853b1562001b9e579060c4859283604051988994859363a58f33d360e01b8552336004860152602485015260e435604485015260648401526101243560848401526101443560a48401525af1938415620004ff576020941562000d5d579162000d7a91936200227c6001946200246a565b9391509162000d5d565b5034620002195760803660031901126200021957602435906003821015620002195760443560028110156200054c57620022e79060643593600435845260076020526040842090620022d88162002369565b84526020526040832062002374565b908154831015620002195760206200230084846200238d565b90549060031b1c604051908152f35b9050346200054c5760203660031901126200054c5760043563ffffffff60e01b8116809103620005255760209250637965db0b60e01b811490811562002357575b5015158152f35b6301ffc9a760e01b1490503862002350565b600311156200100a57565b9060028110156200100a57600052602052604060002090565b805482101562000b635760005260206000200190600090565b602435906001600160a01b03821682036200058f57565b600435906001600160a01b03821682036200058f57565b6020908160408183019282815285518094520193019160005b828110620023fc575050505090565b835185529381019392810192600101620023ed565b9060028210156200100a5752565b9060058210156200100a5752565b90600182811c921680156200245f575b60208310146200244957565b634e487b7160e01b600052602260045260246000fd5b91607f16916200243d565b67ffffffffffffffff811162000b7957604052565b610180810190811067ffffffffffffffff82111762000b7957604052565b6060810190811067ffffffffffffffff82111762000b7957604052565b90601f8019910116810190811067ffffffffffffffff82111762000b7957604052565b9060405191826000825492620024f3846200242d565b9081845260019485811690816000146200256a575060011462002523575b50506200252192500383620024ba565b565b9093915060005260209081600020936000915b81831062002551575050620025219350820101388062002511565b8554888401850152948501948794509183019162002536565b9150506200252194506020925060ff191682840152151560051b820101388062002511565b60005b838110620025a35750506000910152565b818101518382015260200162002592565b90602091620025cf815180928185528580860191016200258f565b601f01601f1916010190565b9060048210156200100a5752565b3360009081527fa6eef7e35abe7026729641147f7915573c7e97b47efa546f5f6e3230263bcb49602052604081205460ff1615620026245750565b6044906040519063e2517d3f60e01b82523360048301526024820152fd5b80600052600160205260406000203360005260205260ff6040600020541615620026245750565b6001600160a01b031660008181527f31c1e66639f421f1853aeefe8ad6b62a3b96f3287efe23106923cd924aa025c260205260408120549091907f97667070c54ef182b0f5858b034beac1b6f3089aa2d3188bb1e8929f4fa9b9299060ff16620027185780835260016020526040832082845260205260408320600160ff198254161790557f2f8788117e7eff1d82e926ec794901d17c78024a50270940304540a733656f0d339380a4600190565b505090565b906000918083526001602052604083209160018060a01b03169182845260205260ff60408420541615600014620027185780835260016020526040832082845260205260408320600160ff198254161790557f2f8788117e7eff1d82e926ec794901d17c78024a50270940304540a733656f0d339380a4600190565b906000918083526001602052604083209160018060a01b03169182845260205260ff60408420541660001462002718578083526001602052604083208284526020526040832060ff1981541690557ff6391f5c32d9c69d2a47ea670b442974b53935d1edc7fd64eb21e047a839171b339380a4600190565b67ffffffffffffffff811162000b7957601f01601f191660200190565b906200283a8162002369565b61ff0082549160081b169061ff001916179055565b805490600160401b82101562000b795781620028759160016200288c940181556200238d565b819391549060031b91821b91600019901b19161790565b9055565b600260005414620028a2576002600055565b604051633ee5aeb560e01b8152600490fd5b6000198114620028c45760010190565b634e487b7160e01b600052601160045260246000fd5b60028210156200100a5752565b949392919093600061012052856000526005602052604060002060ff60078201541660048110156200100a576200119d578315801562004253575b6200424257620029328362002369565b60028314620005cf57841562004167576002861015620031d8576001861462004179575b506200296484848762004330565b90600254821062004167576003546200297d81620028b4565b600355604051903360601b602083015260348201524260548201526054815280608081011067ffffffffffffffff6080830111176200414d576080810160405280516020820120610140527f00000000000000000000000000000000000000000000000000000000000000006001600160a01b03163b1562004146576347a7d10760e01b60808201908152610120805133608485015260a48401869052905190919060449082907f00000000000000000000000000000000000000000000000000000000000000006001600160a01b03165af18015620041385762004123575b506040519162002a6d836200247f565b61014051835287602084015233604084015262002a8e8760608501620028da565b62002a998462002369565b8360808401528460a08401528560c08401526101205160e08401526101008301526101205161012083015242610140830152610160820152610140516101205152600660205261012051906040822091815183556020820151600184015560018060a01b0360408301511660028401549060608401519260028410156200410b5750608084015162002b2b8162002369565b62002b368162002369565b60ff60a81b9060a81b169260ff60a01b9060a01b169169ffffffffffffffffffff60b01b16171717600283015560a0810151600383015560c0810151600483015560e0810151600583015561010081015160068301556101208101516005811015620031d8576009916101609160ff801960078701541691161760078501556101408101516008850155015191015584610120515260076020526040610120512062002be28262002369565b81610120515260205262002c0b6101405162002c05866040610120512062002374565b6200284f565b336101205152600860205262002c2b61014051604061012051206200284f565b62002c3a604051809562002411565b62002c458162002369565b6020840152604083015260608201526101405191827f4f8271a1b8113303635a3d766a78cff97a00afbf1b9b0ac18e5490fe68aa1ec560803394a46101205152600660205261012051906001604083208060c0520154809252600560205261012051916040832060a052600260c0510154600260ff8260a01c161015620040f35762002d1c92935061012051918260ff8360a01c1615600014620040ec57506001925b52600760205260ff604061012051209160a81c1662002d078162002369565b61012051526020526040610120512062002374565b610120515b8154811080620040d7575b15620031ff5762002d3e81836200238d565b90549060031b1c9081610120515260066020526040610120512062002d6381620042cb565b15620031f25760ff600260c051015460a01c166002811015620031d857620031c55760038060c051015491015411155b15620031b957600160c051015482600052600660205260406000206101405160005260406000209162002dd0600483015460058401549062004260565b62002de5600485015460058601549062004260565b80821015620031b05750925b60038301549560045462002e0581620028b4565b600455604051602081019182524260408201526040815262002e27816200249d565b5190209662002e3b866005870154620042bd565b600586015562002e50866005850154620042bd565b600584015560ff600286015460a01c169460028610156200100a5785620031a657600181965b036200319e5780955b61271062002e8e848a6200426e565b600283810154908a015492909104916001600160a01b0391821691908116907f0000000000000000000000000000000000000000000000000000000000000000163b156200058f576040516230582b60e81b81526001600160a01b03928316600482015291166024820152604481019190915260008180606481010381837f00000000000000000000000000000000000000000000000000000000000000006001600160a01b03165af1801562003157576200318c575b5060ff600282015460a81c1662002f5c8162002369565b620031755760a051600201546001600160a01b0316965b600201546001600160a01b039081169088163b156200058f57604051632770a7eb60e21b81526001600160a01b0390911660048201526024810189905260008180604481010381836001600160a01b038d165af18015620031575762003163575b50600201546001600160a01b03908116969081163b156200058f576040516340c10f1960e01b81526001600160a01b0397881660048201526024810189905296600091889160449183918591165af194851562003157576001997fa891d459cc19a94041344fd3f05544a8e2ac8cd799b693377166f326745db07660a0620030d39560409a620031149a62003145575b506005860154600487015403620031315760078601600260ff19825416179055620030a188600288015460ff8082871c169160a81c16886200435c565b8a519088825261014051602083015260008c8301528c60608301526080820152a3600560048201549101549062004260565b84519086825260208201527fb38583f2adb435cac858db9d3e8d3ca952ccb32307e2f3d0053b415d2d293481948591a2600560048201549101549062004260565b604051928352602083015260406101405192a201915b9162002d21565b60078601805460ff19168f179055620030a1565b62003150906200246a565b3862003064565b6040513d6000823e3d90fd5b6200316e906200246a565b3862002fd4565b60a051600301546001600160a01b03169662002f73565b62003197906200246a565b3862002f45565b839562002e7f565b6001849662002e76565b90509262002df1565b6001915001916200312a565b60038060c0510154910154101562002d93565b634e487b7160e01b61012051526021600452602461012051fd5b506001915001916200312a565b5050600260c0510154600260ff8260a01c161015620031d85760ff8160a01c161580620040c2575b62003ab9575b50600260c0510154600260ff8260a01c161015620031d857600160ff8260a01c16148062003aa4575b620032d2575b5060c051600581015460048201548103620032b05750806007620032a99201600260ff1982541617905560026001820154910154610140519160ff808360a01c169260a81c16906200435c565b6101405190565b620032bd575b50620032a9565b600701805460ff1916600117905538620032b6565b60a81c60ff16620032e38162002369565b6101205180911560001462003a9d57506001905b600160c0510154905260076020526040610120512090620033188162002369565b6101205152602052610120516040812060016000526020526040600020608052610160525b6080518054610160519081108062003a88575b1562003a7f5762003361916200238d565b90549060031b1c8061012051526006602052604061012051206200338581620042cb565b1562003a6c57620033a56127109160038060c051015491015490620042bd565b1115620033bf575b5060016101605101610160526200333d565b90600160c05101549180600052600660205260406000209061014051600052604060002091620033fe6004820180610100525460058301549062004260565b62003413600485015460058601549062004260565b8082101562003a62575060e0525b6003810154946004546200343581620028b4565b600455604051602081019182524260408201526040815262003457816200249d565b5190206200346c60e0516005850154620042bd565b60058401556200348360e0516005870154620042bd565b600586015560009660ff600285015460a81c16620034a18162002369565b8062003a5857600185915b620034b78162002369565b0362003a5157845b60a051600290810154908301546001600160a01b039081169116803b156200058f57604051632770a7eb60e21b815260e0516001600160a01b0393909316600482015260248101929092526000908290604490829084905af18015620031575762003a3a575b5060a0516003015460028201548b916001600160a01b039182169116803b156200052557604051632770a7eb60e21b815260e0516001600160a01b03939093166004820152602481019290925282908290604490829084905af1801562000c8d5762003a1e575b5050612710620035a3600384015460e0516200426e565b048a620035b38260e05162004260565b917f00000000000000000000000000000000000000000000000000000000000000006001600160a01b03163b156200054c576040516302fe2e9360e31b815260e05130600483015260248201528281604481836001600160a01b037f0000000000000000000000000000000000000000000000000000000000000000165af1908115620004ff57839162003a06575b5050604051632c805af560e21b8152906020826004817f00000000000000000000000000000000000000000000000000000000000000006001600160a01b03165afa8015620004ff5783602093620036d59592620039e2575b50600288015460405163a9059cbb60e01b81526001600160a01b039091166004820152602481019390935291938492839182906044820190565b03926001600160a01b03165af18015620039d757620039b3575b50604051632c805af560e21b8152908b906020836004817f00000000000000000000000000000000000000000000000000000000000000006001600160a01b03165afa801562000c8d5762003785936020939162003991575b50600285015460405163a9059cbb60e01b81526001600160a01b0390911660048201526024810192909252909283919082908f9082906044820190565b03926001600160a01b03165af1801562003986579360409a9b6200392f9a999896948c807fa891d459cc19a94041344fd3f05544a8e2ac8cd799b693377166f326745db0769660a096620038ec9c9a62003962575b506004875101620037ef60e051825462004260565b905560058751016200380560e051825462004260565b905560068751016200381b60e051825462004260565b90558651549360026001808a1b039101541684835160e05181528760208201527f584c326a6e37f42e5dbbc22753ac897e22621db83435d9cb96b210d1558d0883958691a360020154815194855260e05160208601526000196001881b011693a360058601546101005154036200394d5760078601600260ff19825416179055620038b888600288015460ff8082871c169160a81c16886200435c565b8a519088825261014051602083015260028c83015260e05160608301526080820152a3600561010051549101549062004260565b84519060e051825260208201527fb38583f2adb435cac858db9d3e8d3ca952ccb32307e2f3d0053b415d2d293481948591a2600560048201549101549062004260565b906040519160e0518352602083015260406101405192a238620033ad565b60078601805460ff19166001179055620038b8565b6200397e9060203d602011620004b857620004a78183620024ba565b5038620037da565b6040513d8d823e3d90fd5b620039ac9150833d8511620004f757620004e78183620024ba565b3862003748565b620039cf9060203d602011620004b857620004a78183620024ba565b5038620036ef565b6040513d8e823e3d90fd5b620039fe919250843d8611620004f757620004e78183620024ba565b90386200369b565b62003a11906200246a565b6200054c57813862003642565b62003a29906200246a565b62003a365789386200358c565b8980fd5b62003a47919a506200246a565b6000983862003525565b86620034bf565b60018791620034ac565b60e0525062003421565b505060016101605101610160526200333d565b5050386200325c565b5060c051600460058201549101541162003350565b90620032f7565b5060c051600460058201549101541162003256565b60a81c60ff1662003aca8162002369565b61012051809115600014620040bb57506001905b600160c051015490526007602052604061012051209062003aff8162002369565b61012051526020526101205160408120600080526020526040600020905b8154811080620040a6575b156200409d5762003b3a81836200238d565b90549060031b1c9081610120515260066020526040610120512062003b5f81620042cb565b15620040905762003b7f6127109160038060c051015491015490620042bd565b101562003b95575b6001915001915b9162003b1d565b600160c05101548260005260066020526040600020926101405160005260406000209162003bcd600486015460058701549062004260565b62003be2600485015460058601549062004260565b80821015620040875750925b60038601549260045462003c0281620028b4565b600455604051602081019182524260408201526040815262003c24816200249d565b5190209662003c38866005830154620042bd565b600582015562003c4d866005850154620042bd565b600584015560ff600282015460a81c169062003c698262002369565b816200407d57600181925b62003c7f8162002369565b03620040755780945b61271062003c9b60038501548a6200426e565b0462003ca8818a62004260565b60028501549091906001600160a01b03908116907f0000000000000000000000000000000000000000000000000000000000000000163b156200058f576040516230582b60e81b81526001600160a01b039091166004820152306024820152604481019190915260008180606481010381837f00000000000000000000000000000000000000000000000000000000000000006001600160a01b03165af18015620031575762004063575b5060028701546001600160a01b03908116907f0000000000000000000000000000000000000000000000000000000000000000163b156200058f576040516230582b60e81b81526001600160a01b039091166004820152306024820152604481019190915260008180606481010381837f00000000000000000000000000000000000000000000000000000000000000006001600160a01b03165af18015620031575762004051575b5060a051600290810154908401546001600160a01b039081169116803b156200058f576040516340c10f1960e01b81526001600160a01b03929092166004830152602482018a90526000908290604490829084905af1801562003157576200403f575b5060a0516003015460028701546001600160a01b039081169b9116803b156200058f576040516340c10f1960e01b81526001600160a01b039c909c1660048d015260248c018a90528b6044815a6000948591f19a8b15620031575760a06040998b620030d39760019f8d620040009d7fa891d459cc19a94041344fd3f05544a8e2ac8cd799b693377166f326745db0769782936200402d575b50600487510162003f0b868254620042bd565b9055600587510162003f1f868254620042bd565b9055600687510162003f33868254620042bd565b9055865154936001806002918a1b0391015416848351878152600060208201527f0e7d6cc8eb939f017f8adbee7567d9c5fbb41ad1208e3ffd7cba5ee580ea9173958691a3600180600291891b039101541693815190600082526020820152a36005860154600487015403620040195760078601600260ff1982541617905562003fcf88600288015460ff8082871c169160a81c16886200435c565b8a51908882526101405160208301528e8c8301528c60608301526080820152a3600560048201549101549062004260565b604051928352602083015260406101405192a262003b87565b60078601805460ff19168f17905562003fcf565b62004038906200246a565b3862003ef8565b6200404a906200246a565b3862003e5f565b6200405c906200246a565b3862003dfc565b6200406e906200246a565b3862003d53565b839462003c88565b6001849262003c74565b90509262003bee565b5060019150019162003b8e565b5050386200322d565b5060c051600460058201549101541162003b28565b9062003ade565b5060c051600460058201549101541162003227565b5060c051600460058201549101541162002d2c565b9262002ce8565b634e487b7160e01b8452602160045261012051602490fd5b634e487b7160e01b9052602160045261012051602490fd5b60806200413191016200246a565b3862002a5d565b6040513d61012051823e3d90fd5b6101205180fd5b634e487b7160e01b61012051526041600452602461012051fd5b60405163524f409b60e01b8152600490fd5b6020602491620041898562002369565b846200422f57600201546001600160a01b03165b6040516370a0823160e01b815233600482015292839182906001600160a01b03165afa8015620041385785916101205191620041f4575b5010620041e2573862002956565b604051631e9acf1760e31b8152600490fd5b9150506020813d60201162004226575b816200421360209383620024ba565b81010312620041465784905138620041d4565b3d915062004204565b600301546001600160a01b03166200419d565b60405162bfc92160e01b8152600490fd5b5061271084101562002922565b91908203918211620028c457565b81810292918115918404141715620028c457565b908160209103126200058f57516001600160a01b03811681036200058f5790565b908160209103126200058f575180151581036200058f5790565b91908201809211620028c457565b60ff60078201541660058110156200100a57801515908162004323575b5062004312576009810154801515908162004318575b506200431257600460058201549101541190565b50600090565b9050421138620042fe565b60019150141538620042e8565b91909160028110156200100a5762004355576127109162004351916200426e565b0490565b5050600090565b92916200438c916000948552600760205260408520906200437d8162002369565b85526020526040842062002374565b825b81548082101562004451578390620043a783856200238d565b929054600393841b1c14620043c9575050620043c390620028b4565b6200438e565b9293509390600019928381019081116200443d5762002875620043f1620043ff92876200238d565b905490881b1c92866200238d565b905582549081156200442957508101926200441b84846200238d565b81939154921b1b1916905555565b634e487b7160e01b81526031600452602490fd5b634e487b7160e01b83526011600452602483fd5b5050505050565b600981015415620044cd57600a01546001600160a01b03163314158062004493575b6200448157565b6040516326b9cdff60e11b8152600490fd5b503360009081527fa6eef7e35abe7026729641147f7915573c7e97b47efa546f5f6e3230263bcb49602052604090205460ff16156200447a565b60405163b0cfa44760e01b8152600490fd5b60ff1660ff8114620028c45760010190565b9060005b60ff8116602081109081620045a2575b50156200451d576200451790620044df565b620044f5565b9060ff809216906200452f8262002811565b916200453f6040519384620024ba565b808352601f19620045508262002811565b0191602092368486013760005b858116908382101562004597578482101562000b6357855182101562000b635781858962004591941a9188010153620044df565b6200455d565b505094505050905090565b901562000b635783901a60f81b6001600160f81b03191615153862004505565b92620045d49060249360209362004330565b604051636c24a76f60e01b81526001600160a01b03948516600482015290939092839182907f0000000000000000000000000000000000000000000000000000000000000000165afa908115620031575760009162004646575b50818110156200435557620046439162004260565b90565b906020823d821162004674575b816200466260209383620024ba565b8101031262000219575051386200462e565b3d91506200465356fe60c060405234620003c35762000ec7803803806200001d81620003c8565b92833981019060a081830312620003c35780516001600160401b0390818111620003c357836200004f918401620003ee565b906020938484015190828211620003c3576200006d918501620003ee565b936040840151926060850151948515158603620003c357608001516001600160a01b03968782169491859003620003c3578251828111620002c3576003918254916001958684811c94168015620003b8575b88851014620003a2578190601f948581116200034c575b508890858311600114620002e557600092620002d9575b505060001982861b1c191690861b1783555b8051938411620002c35760049586548681811c91168015620002b8575b82821014620002a35783811162000258575b5080928511600114620001ea5750938394918492600095620001de575b50501b92600019911b1c19161781555b8115620001c65750600580546001600160a01b03198116831790915560405194167f8be0079c531659141344cd1fd0a4f28419497f9722a3daafe3b4186f6b6457e0600080a360805260a052610a66908162000461823960805181610501015260a051816101fb0152f35b602490600060405191631e4fbdf760e01b8352820152fd5b0151935038806200014b565b92919084601f1981168860005285600020956000905b898383106200023d575050501062000222575b50505050811b0181556200015b565b01519060f884600019921b161c191690553880808062000213565b85870151895590970196948501948893509081019062000200565b87600052816000208480880160051c82019284891062000299575b0160051c019087905b8281106200028c5750506200012e565b600081550187906200027c565b9250819262000273565b602288634e487b7160e01b6000525260246000fd5b90607f16906200011c565b634e487b7160e01b600052604160045260246000fd5b015190503880620000ed565b90889350601f19831691876000528a6000209260005b8c8282106200033557505084116200031c575b505050811b018355620000ff565b015160001983881b60f8161c191690553880806200030e565b8385015186558c97909501949384019301620002fb565b90915085600052886000208580850160051c8201928b861062000398575b918a91869594930160051c01915b82811062000388575050620000d6565b600081558594508a910162000378565b925081926200036a565b634e487b7160e01b600052602260045260246000fd5b93607f1693620000bf565b600080fd5b6040519190601f01601f191682016001600160401b03811183821017620002c357604052565b919080601f84011215620003c35782516001600160401b038111620002c35760209062000424601f8201601f19168301620003c8565b92818452828287010111620003c35760005b8181106200044c57508260009394955001015290565b85810183015184820184015282016200043656fe6080604081815260048036101561001557600080fd5b600092833560e01c90816306fdde03146107b757508063095ea7b31461070e57806318160ddd146106ef57806323b872dd146105fc578063313ce567146105e057806340c10f19146105245780636ed71ede146104e957806370a08231146104b2578063715018a6146104525780638da5cb5b1461042957806395d89b41146103095780639dc29fac14610220578063a77df1c9146101e3578063a9059cbb146101b2578063dd62ed3e146101655763f2fde38b146100d357600080fd5b34610161576020366003190112610161576100ec6108f5565b906100f5610926565b6001600160a01b0391821692831561014b575050600554826bffffffffffffffffffffffff60a01b821617600555167f8be0079c531659141344cd1fd0a4f28419497f9722a3daafe3b4186f6b6457e08380a380f35b51631e4fbdf760e01b8152908101849052602490fd5b8280fd5b5050346101ae57806003193601126101ae57806020926101836108f5565b61018b610910565b6001600160a01b0391821683526001865283832091168252845220549051908152f35b5080fd5b5050346101ae57806003193601126101ae576020906101dc6101d26108f5565b6024359033610952565b5160018152f35b5050346101ae57816003193601126101ae57602090517f000000000000000000000000000000000000000000000000000000000000000015158152f35b508290346101ae57826003193601126101ae5761023b6108f5565b9060243590610248610926565b6001600160a01b0383169283156102fa5782156102eb578385528460205285852054918383106102b75750508184957fddf252ad1be2c89b69c2b068fc378daa952ba7f163c4a11628f55a4df523b3ef936020938688528785520381872055816002540360025551908152a380f35b865163391434e360e21b81526001600160a01b03909216908201908152602081018390526040810184905281906060010390fd5b508451631f2a200560e01b8152fd5b50845163d92e233d60e01b8152fd5b509190346101ae57816003193601126101ae57805190828454600181811c9080831692831561041f575b602093848410811461040c578388529081156103f0575060011461039b575b505050829003601f01601f191682019267ffffffffffffffff84118385101761038857508291826103849252826108ac565b0390f35b634e487b7160e01b815260418552602490fd5b8787529192508591837f8a35acfbc15ff81a39ae7d344fd709f28e8600b4aa8c65c6b64bfe7fe36bd19b5b8385106103dc5750505050830101388080610352565b8054888601830152930192849082016103c6565b60ff1916878501525050151560051b8401019050388080610352565b634e487b7160e01b895260228a52602489fd5b91607f1691610333565b5050346101ae57816003193601126101ae5760055490516001600160a01b039091168152602090f35b83346104af57806003193601126104af5761046b610926565b600580546001600160a01b0319811690915581906001600160a01b03167f8be0079c531659141344cd1fd0a4f28419497f9722a3daafe3b4186f6b6457e08280a380f35b80fd5b5050346101ae5760203660031901126101ae5760209181906001600160a01b036104da6108f5565b16815280845220549051908152f35b5050346101ae57816003193601126101ae57602090517f00000000000000000000000000000000000000000000000000000000000000008152f35b50903461016157806003193601126101615761053e6108f5565b906024359161054b610926565b6001600160a01b03169283156105d25782156105c457600254908382018092116105b1575084927fddf252ad1be2c89b69c2b068fc378daa952ba7f163c4a11628f55a4df523b3ef9260209260025585855284835280852082815401905551908152a380f35b634e487b7160e01b865260119052602485fd5b9051631f2a200560e01b8152fd5b905163d92e233d60e01b8152fd5b5050346101ae57816003193601126101ae576020905160068152f35b5082346104af5760603660031901126104af576106176108f5565b61061f610910565b916044359360018060a01b03831680835260016020528683203384526020528683205491600019831061065b575b6020886101dc898989610952565b8683106106c35781156106ac573315610695575082526001602090815286832033845281529186902090859003905582906101dc8761064d565b8751634a1406b160e11b8152908101849052602490fd5b875163e602df0560e01b8152908101849052602490fd5b8751637dc7a0d960e11b8152339181019182526020820193909352604081018790528291506060010390fd5b5050346101ae57816003193601126101ae576020906002549051908152f35b50346101615781600319360112610161576107276108f5565b6024359033156107a0576001600160a01b031691821561078957508083602095338152600187528181208582528752205582519081527f8c5be1e5ebec7d5bd14f71427d1e84f3dd0314c0f7b2291e5b200ac8c7c3b925843392a35160018152f35b8351634a1406b160e11b8152908101859052602490fd5b835163e602df0560e01b8152808401869052602490fd5b849150833461016157826003193601126101615782600354600181811c908083169283156108a2575b602093848410811461040c57838852908115610886575060011461083057505050829003601f01601f191682019267ffffffffffffffff84118385101761038857508291826103849252826108ac565b600387529192508591837fc2575a0e9e593c00f959f8c92f12db2869c3395a3b0502d05e2516446f71f85b5b8385106108725750505050830101858080610352565b80548886018301529301928490820161085c565b60ff1916878501525050151560051b8401019050858080610352565b91607f16916107e0565b6020808252825181830181905290939260005b8281106108e157505060409293506000838284010152601f8019910116010190565b8181018601518482016040015285016108bf565b600435906001600160a01b038216820361090b57565b600080fd5b602435906001600160a01b038216820361090b57565b6005546001600160a01b0316330361093a57565b60405163118cdaa760e01b8152336004820152602490fd5b916001600160a01b03808416928315610a1757169283156109fe57600090838252816020526040822054908382106109cc575091604082827fddf252ad1be2c89b69c2b068fc378daa952ba7f163c4a11628f55a4df523b3ef958760209652828652038282205586815220818154019055604051908152a3565b60405163391434e360e21b81526001600160a01b03919091166004820152602481019190915260448101839052606490fd5b60405163ec442f0560e01b815260006004820152602490fd5b604051634b637e8f60e11b815260006004820152602490fdfea2646970667358221220f9ca076697a7e2dc679ed54e584f447e12f207468735c0b583ba2c07efd4e5f964736f6c63430008140033692c548a7f365f05a7b3a4cf77c7871baf797e4b75547ffacc529c22e4565a95a2646970667358221220833dca9d5490dbd5edd9b51112979339f7e5cae9d302822ea83f6facd4ef9b4064736f6c63430008140033",
  "linkReferences": {},
  "deployedLinkReferences": {}
}